:020000040800F2
:10000000E0050020ED01000853290008E325000861
:100010005129000865020008D92D000800000000E1
:100020000000000000000000000000005729000848
:10003000670200080000000055290008592900083F
:10004000070200080702000807020008070200086C
:10005000070200080702000807020008070200085C
:10006000070200080702000807020008070200084C
:10007000070200080702000807020008070200083C
:1000800007020008000000005902000807020008EB
:10009000070200086D020008790200080702000844
:1000A000070200080702000807020008070200080C
:1000B000F1290008070200080702000807020008EB
:1000C00007020008070200080702000807020008EC
:1000D00007020008070200080702000807020008DC
:1000E00007020008070200080702000807020008CC
:1000F00007020008070200080702000800000000CD
:1001000000000000070200080000000007020008CD
:1001100007020008000000000702000807020008AC
:10012000070200080702000807020008070200088B
:10013000070200080000000000000000070200089D
:10014000070200080702000800000000000000008D
:10015000000000000000000000000000000000009F
:10016000000000000000000000000000070200087E
:10017000070200080000000000000000000000006E
:10018000000000000702000800000000000000005E
:10019000000000000000000000000000000000005F
:1001A000000000000000000007020008070200082D
:1001B000070200080702000807020008000000000C
:1001C000000000000702000800000000000000001E
:1001D0000702000807020008DFF80CD000F02AF838
:1001E00000480047192E0008E00500200648804717
:1001F00006480047FEE7FEE7FEE7FEE7FEE7FEE70C
:10020000FEE7FEE7FEE7FEE7D5290008D901000872
:10021000D2B201E000F8012B491EFBD27047002248
:10022000F6E710B513460A4604461946FFF7F0FFF5
:10023000204610BD064C074D06E0E06840F0010383
:1002400094E8070098471034AC42F6D3FFF7C8FF94
:10025000502E0008702E0008014800F095BA0000EA
:1002600010000020FEE7704770470000014800F0D2
:10027000F6BC00007C000020014800F0F0BC00004B
:100280007C0000207047704770477047704700003F
:100290002DE9F047044690F858009CB00D464FF009
:1002A0000008012814D0012084F8580020684FF07D
:1002B000A0474FF00009B8420ED1284E00963046B4
:1002C00002F09EF98246206802F09AF960B10EE0D1
:1002D00002201CB0BDE8F087E16D41F02001E1652E
:1002E00084F858900120F4E7BAF1000F0AD0E06DCD
:1002F00040F02000E0654FF0010800BF84F85890FE
:100300004046E6E716482A6840F61F71002A8268D0
:1003100022F4604215D094F8383042EA43326B68D8
:100320001A438260BA68B36802F0010203F0010365
:100330001A43E3D1AB682A681A4383688B431A4394
:100340000AE08260BA68B36802F0010203F00103B8
:100350001A43D3D182688A438260CFE700010050FC
:10036000000300502DE9F84F00270446009790F84D
:100370005800DFF8DC930D46B846012811D001265D
:1003800084F85860206802F037F960B1E06D40F001
:100390002000E0655FF0010784F858803846BDE82A
:1003A000F88F0220FBE7D5E900210C23206803EA3F
:1003B00091131844036B01F01F014FF01F0C0CFA4E
:1003C00001FCC2F3846223EA0C038A4013430363F3
:1003D000206802F011F98246206802F009F95AEA11
:1003E00000003CD1AA6829682068B2F1004F37D0DC
:1003F00002F012F92068416921F000414161206852
:100400006969C268C2F3C102520091402A69042A94
:1004100031D000EB82002B68026EDFF838C303F0A6
:10042000F84302EA0C020B431A4342F00041016612
:1004300022682869A96902EB8000026E22F08072AE
:100440000A430266297F20682A69012910D0002109
:1004500000EB8200026E22F000720A4302667DE029
:10046000002202F0D9F82068416941F00041C5E757
:100470004FF00071ECE7002102F0B4F8400320686F
:100480004FF0000172D002F0ADF890FAA0F0B0FA8F
:1004900080F1286842036ED090FAA0F0B0FA80F0A4
:1004A000814204D100221146206802F0C4F80121E3
:1004B000206802F097F8400320684FF001015DD0FA
:1004C00002F090F890FAA0F0B0FA80F128684203A8
:1004D00059D090FAA0F0B0FA80F0814204D1002205
:1004E0000121206802F0A7F80221206802F07AF8C2
:1004F000400320684FF0020148D002F073F890FAF0
:10050000A0F0B0FA80F12868420344D090FAA0F03D
:10051000B0FA80F0814204D100220221206802F06A
:100520008AF80321206802F05DF8400320684FF04C
:10053000030133D002F056F890FAA0F0B0FA80F13F
:10054000286842032FD090FAA0F0B0FA80F08142E0
:1005500004D100220321206802F06DF82068816830
:1005600011F0010F22D0ACE000E004E002F03AF814
:10057000C0F384618DE7C0F3846091E702F032F844
:10058000C0F38461A2E7C0F38460A6E702F02AF812
:10059000C0F38461B7E7C0F38460BBE702F022F8E0
:1005A000C0F38461CCE7C0F38460D0E72A7B29687C
:1005B00050F8B03FC1F3120C23EA0C0302F0180C00
:1005C000654A22FA0CF20A4013430360E968494580
:1005D00077D1286841031CD090FAA0F1B1FA81F1DB
:1005E000491C01F01F0109294FEA403132D8002986
:1005F00012D000BF90FAA0F1B1FA81F101F101012E
:1006000001F01F0106FA01F609D100BFC0F38461B1
:1006100009E0C0F38461E3E7C0F38461EEE790FA98
:10062000A0F1B1FA81F101F1010101F01F0146EAE7
:10063000816102D1C0F3846003E090FAA0F0B0FAC7
:1006400080F000F1010000F01F0000EB400041EAE3
:10065000005132E000290ED090FAA0F1B1FA81F1F8
:1006600001F1010101F01F0106FA01F606D100BFF8
:10067000C0F3846106E0C0F38461F1E790FAA0F171
:10068000B1FA81F101F1010101F01F0146EA816136
:1006900002D1C0F3846003E090FAA0F0B0FA80F0D9
:1006A00000F1010000F01F002C4A00EB400002EBBB
:1006B000005041EA000141F00071AA68206801F091
:1006C000ABFF27482A6802423FF466AE254881689E
:1006D000254B01F0E0719A4202D0244B9A421BD183
:1006E0000B0219D42268B2F1A04F7FF455AE826894
:1006F00041F4000122F0E0720A4382601C481D4967
:100700000068B0FBF1F000EB4000800000E0401E0C
:1007100000900028FBD13FE6174D184BAA4207D1A5
:10072000CD0105D422689A42F5D041F0807109E0EC
:10073000134DAA42EFD14A02EDD422689A42EAD080
:1007400041F48001826822F0E0720A43826023E66D
:1007500000007F4000F0FF03FFFF0700000020FEC5
:100760000000088000030050000021C31000C0906A
:100770000C000020400D0300000052C70001005093
:10078000000084CB704770472DE9F05F0446006895
:1007900006684568DFF854B2DBF8080000F01F0770
:1007A000B0070ED5A8070CD5E06DC00603D4E06DE8
:1007B00040F40060E0652046FFF764FD21680220F8
:1007C0000860DFF82CA270074FF0A04801D5680739
:1007D00003D4300737D5280735D5E06DC00603D4DC
:1007E000E06D40F40070E065206801F00DFF20B37B
:1007F0002068504501D1424600E00246824208D0BE
:100800003FB1052F05D0092F03D0504503D14146F4
:1008100002E0C16801E00146C96889040DD401689D
:1008200009070AD501F0E8FE58B3E06D40F010006A
:10083000E065206E40F0010020662046FFF7A2FF31
:1008400021680C200860B00601D5A80603D4700604
:1008500058D5680656D5E06DC00603D4E06D40F467
:100860000050E0652068C16C11F4C07F1AD00021EF
:10087000894601F0C9FE02462068504514D143461E
:1008800013E02068416821F00C014160E06D20F424
:100890008070E065E06DC004CFD4E06D40F00100F1
:1008A000E065CAE70121E3E70346834208D03FB190
:1008B000062F05D0072F03D0504503D1414602E053
:1008C000C16801E00146C968B9F1000F04D18B018C
:1008D00012D48AB18A040FD4026852060CD5890258
:1008E0000AD401F085FEE8B3E06D40F01000E06549
:1008F000206E40F0010020662046FFF7C4FC21680E
:100900006020086030060BD5280609D5E06D40F45C
:100910008030E065204600F069F921688020086099
:10092000F0050CD5E8050AD5E06D40F40030E0652F
:100930002046FFF7AAFC21684FF480700860B005DC
:100940000CD5A8050AD5E06D40F48020E06520466E
:10095000FFF79CFC21684FF400700860F0062ED56C
:10096000E80600E008E02AD5E06BD0B1AFB1DBF8D3
:10097000080000F4604013E02068416821F0600145
:100980004160E06D20F48050E065E06DC005B3D4B7
:10099000E06D40F00100E065AEE72068C068C00788
:1009A00050B1E06D40F48060E065206E40F00200E0
:1009B00020662046FFF7E7FE2168102008607005DA
:1009C00012D5680510D5E06D40F48040E065206EDA
:1009D00040F00800206621684FF4806008602046DF
:1009E000BDE8F05FFFF750BCBDE8F09F000300508A
:1009F00000010050F8B54FF0000504002E460095A8
:100A000002D0E06D10B107E00120F8BD204600F0F3
:100A1000EFF8266684F8586020688168C1F3407159
:100A200019B18168694A1140816020688168C1F309
:100A3000007179B98168664A114041F08051816046
:100A4000644865490068B0FBF1F000E0401E00908A
:100A50000028FBD120688168C1F3007141B9E16DC4
:100A600041F01001E165216E41F00101216601258F
:100A700001F0C2FDE16DC90600D430B1E06D40F077
:100A80001000E06501252846F8BDE06D20F4807077
:100A900040F00200E0652068806810F0010F11D17D
:100AA0004FF0A04080684D4900F00100896801F0D6
:100AB0000101084306D14A486168826822F47C1229
:100AC0000A438260E168E06B627F0843A16841EA03
:100AD0004231084394F8241040EA0140012904D12E
:100AE000218D404A02EB41410843E16A29B101F4FA
:100AF0007871226B014342EA01002168CA683A4BCF
:100B00001A400243CA6020680169626B21F04061AB
:100B100011430161206801F06FFD0646206801F075
:100B200067FD30432ED1207F94F83810800340EACF
:100B300041022068C16844F2020399431143C16035
:100B400020690028206801690AD041F480310161E0
:100B5000206850F8C01F22696FF30D01114307E0B0
:100B600021F480310161206850F8C01F6FF30D013E
:100B7000016094F8400001280CD02068016921F040
:100B800001010161606901282068016B21F00F01FA
:100B900011D013E0D4E911010843D4E91312114331
:100BA000084321680A6940F2FC739A43104340F0FD
:100BB00001000861E6E7226A521E11430163E06DFD
:100BC00020F0020040F00100E0655CE7C0FFFF5F3D
:100BD000C0FFFF7F0C000020400D0300000100500B
:100BE000000300500000FEFF0740F0FF70470000C8
:100BF00010B586B0044614216846FFF710FB206844
:100C0000B0F1A04F23D11348C16C41F40051C1642D
:100C1000C16C01F400510591C16C41F00101C16446
:100C2000C06C694600F0010005900F200090032081
:100C30000190002002904FF0904000F01FFA002237
:100C40000221122000F08CFB122000F07BFB06B08A
:100C500010BD0000001002407047704770472DE93A
:100C6000F04704460068016D466D01F4E0510E4006
:100C7000016D476D01F007010F40016D426D01F0FC
:100C8000380102EA0108016D456D01F471010D4062
:100C9000016D426D01F4602102EA0109016D49060E
:100CA00007D5416D490604D5402101652046FFF76F
:100CB000D5FF2068016DC9050DD5416DC9050AD55F
:100CC000D0F8D820D0F8E01011404FF480720265BF
:100CD000204600F0CFF92EB1206806653146204647
:100CE00000F0CAF92FB1206807653946204600F0A8
:100CF000BDF9B8F1000005D02168086541462046DD
:100D000000F0B5F92068016D890508D5416D8905A8
:100D100005D54FF400710165204600F0AEF920685A
:100D2000016D09060CD5416D090609D5D0F8D4200E
:100D3000D0F8DC10114080220265204600F09BF9BB
:100D40002068016D890408D5416D890405D54FF4EB
:100D500000510165204600F08CF92068016D0904FE
:100D600008D5416D090405D54FF4004101652046C1
:100D700000F07EF92068016D490409D5416D4904F0
:100D800006D54FF480410165206E40F0800020665A
:100D9000B9F1000005D02168086549462046FFF7F3
:100DA0005CFF25B120680565206E28432066206E13
:100DB000002802D02046FFF74FFFBDE8F087000073
:100DC0002DE9F041040006D0DFF8E88194F85C00DA
:100DD000002518B107E00120BDE8F08184F85D50DE
:100DE000204600F0EFF82068816921F01001816150
:100DF00000F02EFA0646032705E000BF00F028FAAF
:100E0000801B0A2811D8206880690007F6D4206862
:100E1000816941F00101816100F01AFA06460BE098
:100E200000F016FA801B0A2806D9206E40F0010057
:100E3000206684F85C70CEE720688069C007EFD038
:100E40002068816941F0020181612168414502D138
:100E5000594960680860207C01282068816937D082
:100E600041F040018161607C01282068816932D0B5
:100E700021F480418161A07C0128206881692DD006
:100E800041F48051816120688169A26821F4407138
:100E9000114381612068816921F0A401816120688A
:100EA000016921F010010161E068012819D010B337
:100EB00002281BD02068816941F08001816120688F
:100EC000016941F010010161E06803280ED012E0D1
:100ED00021F04001C6E741F48041CBE721F4805185
:100EE000D0E72068816941F0040103E0206881694E
:100EF00041F020018161207EE26940066FF0FF0130
:100F000001EB0222A0F100701043226AA38A521E54
:100F100010430A0202EB034318432368D861A06818
:100F2000B0F5407F10D1D4E90A0301EB0321401E44
:100F30000843216B131303EB01110843A18C02EB4F
:100F4000014108432168C860206850F8C01FE26B67
:100F50001143016019482064216851F8802FA38E45
:100F600022F4F81242EA03420A60144970316164C3
:100F7000216851F8802F94F8383022F0706242EAEC
:100F800003620A600D49B031A1640D49E1640C4966
:100F9000D83121650A49F031616500F5547120C0EE
:100FA0008842FCD3A5652566012084F85C000020FA
:100FB00012E70000006400400065004000A400400B
:100FC00088A5004070B586B0044614216846FFF736
:100FD00026F923492068884240D12248816D41F09A
:100FE00000718165816D01F000710591C16C41F066
:100FF0000101C164C16C01F001010591C16C41F0B6
:101000000201C164C06C022500F0020005904FF49B
:10101000805000900024CDE901540926CDE9034613
:101020006946F00600F02AF8E8010090CDE9015485
:10103000CDE9034669460C4800F020F80022032160
:10104000152000F08DF9152000F07CF90022032115
:10105000162000F085F9162000F074F906B070BD76
:1010600000640040001002400004004870477047D0
:101070007047704770477047704770472DE9FC4FC5
:10108000DFF8A0A1002301250AF1040B03244FF08F
:101090000F0C0BF1040EBDE005FA03F632406FD0E1
:1010A0004F68012F05D0022F03D0112F01D0122F2E
:1010B00017D1D0F808905F0004FA07F829EA080968
:1010C0000097D1F80C8008FA07F848EA0908C0F838
:1010D00008804768B7430E79C6F300169E403E432A
:1010E0004660C6684FEA430804FA08F7BE43019712
:1010F0008F6807FA08F73743C7604E68022E01D0A1
:10110000122E13D1DE0800EB86060096366A5F07C2
:10111000FF0E0CFA07F926EA0906D1F8109009FA31
:1011200007F949EA0609009EC6F820900668019F63
:10113000BE430F7907F0030707FA08F73743076044
:101140004E68F60065D5384E376E47F001073766B2
:10115000366E23F0030706F001060096334E3E4438
:10116000B146B6689F074FEA17780CFA08F7BE43F6
:10117000B0F1904F05D02E4FB84204D1012717E0AF
:1011800047E0002714E02B4FB84201D102270FE0BF
:10119000294FB84201D103270AE0284FB84201D1B4
:1011A000042705E0264FB84201D1052700E00627B5
:1011B00007FA08F73743C9F80870DAF800605746AD
:1011C000D1F8048096435FEAC83800D516433E60E4
:1011D000DBF800605F46D1F8048096435FEA883808
:1011E00000D516433E60DEF800607746D1F80480F3
:1011F00096435FEAC82800D516433E60094F0C3776
:101200003E68D1F8048096435FEA882800D51643EB
:101210003E605B1C0A6832FA03F67FF43DAFBDE81E
:10122000FC8F00000004014000100240000001405B
:101230000004004800080048000C00480010004866
:10124000001400480AB18161704781627047000054
:101250000148806870470000000000200248816853
:1012600042681144816070470000002010B50024DE
:10127000032000F095F8002000F008F808B10124E0
:1012800001E000F047F8204610BD000030B50546EB
:101290001C4887B0816D41F001018165806D06A910
:1012A00000F00100009001A800F024FB00F042FBD8
:1012B00015494FF08042B0FBF1F11448491E02601D
:1012C000416040F2E7320021C0E90321816000F073
:1012D000EAFE040012D10D4800F018FF04000DD101
:1012E0001C2000F02FF8102D07D2002229461C20C8
:1012F00000F036F80648056000E0012407B02046FB
:1013000030BD00000010024040420F00900100205C
:10131000000000200A4882B0016E41F00101016620
:10132000016E01F001010091816D41F080518165F4
:10133000806D00F08050009002B000F0A1B8000075
:1013400000100240002809DB00F01F02012191403B
:101350004009800000F1E020C0F800117047000053
:10136000F0B40E4B1B680C46C3F30223C3F1070510
:10137000042D00D90425191D072901D2002300E0FE
:10138000DB1E012606FA05F1491E214099409E40C8
:10139000761E16403143F0BC01F01FBD0CED00E09D
:1013A000064900F0070208684FF6FF03184040EABC
:1013B0000220034A10430860704700000CED00E073
:1013C0000000FA052B492C4B0A6832214A432B496D
:1013D00040B1B0F5007F086829D020F4C06040F427
:1013E00080602CE00868C0F34120022804D051F846
:1013F000800F20F4807022E0D1F8800020F480700B
:10140000C1F88000086820F4C06040F400700860F3
:10141000B2FBF3F0401C00E0401E4A69520501D5C2
:101420000028F9D1486940050AD503207047C0F368
:101430004120022806D051F8800F40F480700860E7
:1014400000207047D1F8800040F48070C1F880001F
:10145000086820F4C06040F400700860B2FBF3F04C
:10146000401C00E0401E4A695205DBD50028F9D136
:10147000D8E700000C00002040420F000070004040
:101480000248816841F480418160704700700040EB
:101490002DE9F8430446006800269D4D00035ED503
:1014A000A86D0027C00008D4A86D40F08050A86542
:1014B000A86D012700F080500090DFF85892D9F80D
:1014C000001041F48071C9F80010FFF7C1FE80469A
:1014D00006E000BFFFF7BCFEA0EB080002282BD8F7
:1014E000D9F80000C005F5D5D5F8900010F440708B
:1014F00014D0216C814211D0D5F89000D5F890100D
:1015000020F4407041F48031C5F89010D5F8901067
:1015100021F48031C5F89010C5F89000C00711D0B3
:10152000FFF796FE804641F2883907E0FFF790FE0C
:10153000A0EB0801494501D903260BE0D5F890003E
:101540008007F3D5D5F89000216C20F44070084353
:10155000C5F890001FB1A86D20F08050A8652078D4
:10156000C00707D0D5F88800616820F00300084361
:10157000C5F888002078800707D5D5F88800A168CD
:1015800020F00C000843C5F888002078400707D5F4
:10159000D5F88800E16820F030000843C5F88800DD
:1015A0002078000707D5D5F88800216920F0C00011
:1015B0000843C5F888002078800607D5D5F888004C
:1015C000616920F440600843C5F88800207840062F
:1015D00007D5D5F88800A16920F440500843C5F824
:1015E00088002078000607D5D5F88800E16920F446
:1015F00040400843C5F888002088C00507D5D5F8C5
:101600008800216A20F440300843C5F8880020880B
:10161000800507D5D5F88800616A20F4402008438A
:10162000C5F88800208840050FD5D5F88800A16A44
:1016300020F440100843C5F88800A06AB0F5801F68
:1016400003D1E86840F48010E860208800050FD5D9
:10165000D5F88800E16A20F440000843C5F8880006
:10166000E06AB0F5800F03D1E86840F48010E860CC
:101670002088C0040FD5D5F88800216B20F0407079
:101680000843C5F88800206BB0F1807F03D1E8687B
:1016900040F48010E86020884FF0006180040ED58F
:1016A000D5F88800626B20F040601043C5F88800D0
:1016B000606B884203D1E86840F48010E8602088BD
:1016C00040040ED5D5F88800A26B20F0406010438E
:1016D000C5F88800A06B884203D1E86840F4801008
:1016E000E860208800040FD5D5F88800E16B20F071
:1016F00040500843C5F88800E06BB0F1805F03D12B
:10170000E86840F48030E8603046BDE8F8830000C7
:1017100000100240007000402DE9F0470E46050021
:101720004FF0000725D0DFF8AC81D8F8000000F0BA
:101730000F00B0420CD2D8F8001021F00F01314355
:10174000C8F80010D8F8000000F00F00B04210D127
:101750002968614CC80741F2883A5AD06868DFF8B6
:101760007C91032808D0022820682DD0400500284D
:101770002CDB0120BDE8F08720688001F9D5E06806
:1017800000F00302E068C0F30310401C032A19D0E4
:10179000534A00BFB2FBF0F0E268C2F306225043A6
:1017A000E268C2F34162521C5200B0FBF2F04845BD
:1017B00017D9A06810F0F00F0CD0880711D5A868D1
:1017C00040B10EE0474AE5E78003D0E700F0C4F8F7
:1017D000484506D9A06820F0F00040F08000A060E5
:1017E0008027A068696820F003000843A060FFF725
:1017F0002FFD814606E000BFFFF72AFDA0EB09019F
:1018000051453AD8A068696800F00C00B0EB810F30
:10181000F2D12868810714D5400703D5A06840F4A9
:10182000E060A0602878000705D5A06820F460502B
:1018300040F4E060A060A068A96820F0F0000843D0
:1018400004E0802F03D1A06820F0F000A060D8F859
:101850000010404601F00F01B14216D9016821F095
:101860000F0131430160FFF7F3FC074607E000BFBB
:10187000FFF7EEFCC11B514501D903207AE7D8F8E8
:10188000000000F00F00B042F2D12878400705D5E3
:10189000A068E96820F4E0600843A06028780007A9
:1018A00006D5A068296920F4605040EAC100A06014
:1018B00000F052F8A1680C4AC1F30311515C01F029
:1018C0001F01C8400949086009480068BDE8F047A1
:1018D000FFF7DCBC002002400010024000B4C4044A
:1018E0000024F400005A6202362E00080C0000208A
:1018F000000000200F2202600C4A936803F00303EB
:101900004360936803F0F0038360936803F4E0633B
:10191000C36092684FF4E06303EAD20202610448B4
:10192000006800F00F0008607047000000100240DF
:10193000002002400548064900688968054AC1F34D
:101940000221515C01F01F01C84070470C000020CB
:1019500000100240462E0008184910B58868C0F3F0
:1019600081021748012A0BD08A68164BC2F3810204
:10197000022A06D08A68C2F38102032A03D000201B
:1019800010BD184610BDCA6802F00304CA68C2F34D
:101990000312521C032C02D0B0FBF2F001E0B3FBA7
:1019A000F2F0CA68C968C2F306225043C1F341612C
:1019B000491C4900B0FBF1F010BD000000100240CE
:1019C0000024F400005A62022DE9F84304007AD0A2
:1019D0002078FA4DC00747D0A868E96800F00C00ED
:1019E00001F003010C2802D0082817D001E00329D8
:1019F00014D06068B0F5803F17D0B0F5A02F2868EC
:101A000017D020F480302860286820F480202860D7
:101A10006068E0B1FFF71CFC064614E0286880030C
:101A200022D560680028D2D01EE0286840F48030BB
:101A3000EDE740F480202860F7E700BFFFF708FCDF
:101A4000801B642870D828688003F7D50CE0FFF766
:101A5000FFFB064605E000BFFFF7FAFB801B64288A
:101A6000F0D828688003F7D4207880074CD5A86880
:101A7000E96800F00C0001F003010C2802D00428F2
:101A80000DD001E002290AD0E068002828682BD098
:101A900040F480702860FFF7DBFB064619E02868F9
:101AA000400502D5E068002891D06868217C20F0CC
:101AB000FE4040EA01606860C1480068FFF7E6FB4D
:101AC000002800D120E076E1FFF7C2FB801B02284E
:101AD000B8D828684005F7D56868217C20F0FE401A
:101AE00040EA016068600FE020F480702860FFF732
:101AF000AFFB064605E000BFFFF7AAFB801B0228EC
:101B0000A0D828684005F7D42078000729D5606957
:101B10000028D5F8940013D040F00100C5F89400D7
:101B2000FFF796FB064606E090E000BFFFF790FB4C
:101B3000801B022886D8D5F894008007F6D510E0DF
:101B400020F00100C5F89400FFF782FB064604E090
:101B5000FFF77EFB801B022878D8D5F89400800719
:101B6000F6D42078400761D5A86D0026C00008D4BF
:101B7000A86D40F08050A865A86D012600F0805047
:101B8000009090480168C90511D40168804641F46D
:101B900080710160FFF75CFB074604E0FFF758FB2C
:101BA000C01B022852D8D8F80000C005F6D5A0689E
:101BB000012815D00528D5F8900016D020F0010096
:101BC000C5F89000D5F8900020F00400C5F890000A
:101BD000A06841F28838B8B1FFF73AFB07460EE03B
:101BE000D5F8900040F00100F0E740F00400C5F89F
:101BF0009000F5E7FFF72CFBC11B414526D8D5F82F
:101C000090008007F6D50CE0FFF722FB074604E0C2
:101C1000FFF71EFBC11B414518D8D5F8900080077F
:101C2000F6D41EB1A86D20F08050A86520788006FB
:101C300029D5A0690028D5F8980013D040F00100FC
:101C4000C5F89800FFF704FB064606E077E000BF02
:101C5000FFF7FEFA801B022877D8D5F89800800796
:101C6000F6D510E020F00100C5F89800FFF7F0FA73
:101C7000064604E0FFF7ECFA801B022865D8D5F889
:101C800098008007F6D4E069F0B3A968C1F3810138
:101C9000032961D00228286820F0807028600BD0CA
:101CA000E86820F00300E860E86847490840E86019
:101CB000FFF7CEFA04464BE0FFF7CAFA064604E007
:101CC000FFF7C6FA801B02283FD828688001F7D4A6
:101CD000F4E908016FF00F0202EB01110843218AB9
:101CE0005204490802EB4151A26841EA022108432B
:101CF000217D4FF07E42490802EB41610843217B80
:101D000040EAC160E96800E062E0304A11400843FF
:101D1000E860286840F080702860E86840F08070D3
:101D2000E860FFF795FA044605E000BFFFF790FA78
:101D3000001B022809D828688001F7D548E004E094
:101D4000FFF786FA001B022802D90320BDE8F883BA
:101D500028688001F4D43BE00128F7D0E868226AC3
:101D600000F00301914226D1616A00F0F0020901FE
:101D7000103991421FD1A26A00F4FE41B1EB022F4B
:101D800019D194F82C2000F07841B1EBC26F12D138
:101D9000218E00F4C00249084905A1F500119142C5
:101DA00009D194F8341000F0C06049084906A1F147
:101DB000007181420CD00120C8E7000000100240F1
:101DC0000000002000700040FFFFEEFE0C809F012D
:101DD0000020BBE770B5040009D0606A002540B15F
:101DE00025616561A56294F85D0040B10CE00120B9
:101DF00070BD6068B0F5827FF4D0E561F2E784F8E9
:101E00005C50204600F05CF8022084F85D002068F9
:101E1000016821F040010160E1684FF4E062914205
:101E200001D9002001E04FF48050B1F5706F02D06D
:101E3000914200D0A562A188228901F4827102F446
:101E400004421143227C02F002021143227D02F07F
:101E500001021143228B02F400721143227F02F02F
:101E60003802114394F8202002F080021143228DA1
:101E700002F40052114322681160A169042202EAAF
:101E8000114194F8242000F4805002F01002114314
:101E900094F8342002F008021143A28902F470621F
:101EA00011430143206841602068C16921F4006149
:101EB000C1612566012084F85D00002070BD00002E
:101EC00070B586B0044614216846FEF7A8F91C498F
:101ED0002068884231D11B48016E41F4805101666F
:101EE000016E01F480510591C16C41F00101C164A2
:101EF000C16C01F001010591C16C41F00201C164A6
:101F0000C06C022500F0020005904FF400400090E4
:101F10000024CDE901540526CDE9034669464FF07A
:101F20009040FFF7ABF838200090CDE90154CDE99F
:101F3000034669460448FFF7A1F806B070BD0000EB
:101F40000030014000100240000400487047704714
:101F500070470000F0B590F83C20012A4AD00122D9
:101F600080F83C20CA688B6822F440721A434B68A0
:101F700022F480621A430B6822F400621A430B6950
:101F800022F480521A434B6922F400521A430B6B1D
:101F900022F480421A430B8B22F4702242EA03425D
:101FA000154C03680026154DA34201D0AB4203D166
:101FB000CF6922F080523A43A34201D0AB4214D100
:101FC0000F8D22F4700242EA07520F6A22F08072EB
:101FD0003A434F6A22F000723A43A34201D0AB4227
:101FE00003D1C96A22F000520A435A6480F83C6067
:101FF0000020F0BD0220F0BD002C01400034014063
:102000007047704770470000F0B590F83C20012AF7
:102010003AD0012580F83C50022280F83D20036828
:102020005A689C68194E1A4FB34201D0BB4204D182
:1020300022F4700C4A6842EA0C02DFF858C002EA47
:102040000C02D1F800C04CEA020CC3F804C00268CC
:10205000B2420DD0B2F1804F0AD00F4B9A4207D056
:102060000E4B9A4204D0BA4202D00D4B9A4204D190
:10207000896824F080031943916080F83D50002165
:1020800080F83C100846F0BD0220F0BD002C014055
:10209000003401408FFFFFFD0004004000080040B5
:1020A00000400140704710B5040003D094F83D0093
:1020B00010B107E0012010BD002084F83C0020464C
:1020C00000F022F8022084F83D00211D206800F075
:1020D00095FC012084F8480084F83E0084F83F0015
:1020E00084F8400084F8410084F8420084F84300FA
:1020F00084F8440084F8450084F8460084F84700DA
:1021000084F83D00002010BD7047000090F83D109D
:10211000012901D001207047022180F83D1001689B
:10212000CA6842F00102CA600068104988420ED0B5
:10213000B0F1804F0BD00E49884208D00D4988423B
:1021400005D00D49884202D00C49884207D18168E8
:102150000B4A1140062906D0B1F5803F03D0016833
:1021600041F001010160002070470000002C014097
:1021700000040040000800400034014000400140DD
:1021800007000100704770B50446006801694FF010
:102190000005C943890715D4C168C943890711D40B
:1021A000E91E0161012020772068806980072046B0
:1021B00002D0FFF7E7FF04E000F034F9204600F01A
:1021C00007FA257720680169C943490717D4C16810
:1021D000C943490713D46FF004010161022020773D
:1021E0002068806910F4407F204602D0FFF7CAFFC4
:1021F00004E000F017F9204600F0EAF9257720689E
:102200000169C943090716D4C168C943090712D433
:102210006FF008010161042020772068C069800701
:10222000204602D0FFF7AEFF04E000F0FBF82046A6
:1022300000F0CEF9257720680169C943C90617D493
:10224000C168C943C90613D46FF0100101610820A9
:1022500020772068C06910F4407F204602D0FFF745
:1022600091FF04E000F0DEF8204600F0B1F9257798
:1022700020680169C943C90708D1C168C943C907B2
:1022800004D1891E0161204600F0A3F9206801698C
:10229000C943090609D4C168C943090605D46FF0CA
:1022A000800101612046FFF752FE20680169C943A1
:1022B000C90509D4C168C943090605D46FF4807102
:1022C00001612046FFF742FE20680169C9434906C3
:1022D00009D4C168C943490605D46FF040010161C2
:1022E000204600F07DF920680169C943890609D4B8
:1022F000C168C943890605D46FF0200101612046F9
:10230000FFF726FE20680169C943C90209D4C168E4
:10231000C943C90205D46FF4801101612046FFF75B
:1023200070FE20680169C943890209D4C168C943A4
:10233000890205D46FF4001101612046FFF760FEA9
:1023400020680169C943490209D4C168C9434902E7
:1023500005D46FF4800101612046FFF753FE206829
:102360000169C94309020BD4C168C943090207D4F2
:102370006FF4000101612046BDE87040FFF792BE96
:1023800070BD0000F0B587B0044614216846FDF723
:1023900046FF2049206888423AD11F48C16C41F06D
:1023A0002001C164C16C01F020010591C16C41F0B4
:1023B0000201C164C16C01F002010591C16C41F0E0
:1023C0000101C164C06C0127022500240097CDE9FA
:1023D000015400F001000626CDE90460694603942B
:1023E0000E48FEF74BFE0097CDE90154CDE90346B8
:1023F00069460B48FEF742FE4FF470600090CDE94D
:102400000154CDE9034669464FF09040FEF736FE91
:1024100007B0F0BD002C014000100240001400483D
:1024200000040048704770B5044690F83C000D4623
:1024300001280BD0012084F83C000C2A45D007DC91
:102440005AB1042A1BD0082A78D12CE0022070BD92
:10245000102A4ED0142A71D15DE0206800F026FBCE
:102460002068816941F0080181612068816921F05B
:1024700004018161206881692A69114311E02068A3
:1024800000F062FB2068816941F40061816120688D
:10249000816921F480618161206881692A6941EA4A
:1024A000022181614AE0206800F096FB2068C16942
:1024B00041F00801C1612068C16921F00401C161D6
:1024C0002068C1692A69114311E0206800F0CCFB43
:1024D0002068C16941F40061C1612068C16921F4CB
:1024E0008061C1612068C1692A6941EA0221C16134
:1024F00024E0206800F000FC2068016D41F0080134
:1025000001652068016D21F0040101652068016DFD
:102510002A69114311E0206800F026FC2068016D53
:1025200041F4006101652068016D21F4806101655D
:102530002068016D2A6941EA02210165002084F8C2
:102540003C0070BD10B5040003D094F83D0010B1FC
:1025500007E0012010BD002084F83C00204600F078
:1025600023F8022084F83D00211D206800F046FA7F
:10257000012084F8480084F83E0084F83F0084F885
:10258000400084F8410084F8420084F8430084F855
:10259000440084F8450084F8460084F8470084F835
:1025A0003D00002010BD000008B5006806498842C3
:1025B00008D10648016E41F400610166006E00F426
:1025C0000060009008BD0000002C01400010024097
:1025D00070470068B0F1804F01D1FEF73FBE7047F1
:1025E0007047FEE700EB8100006E00F0F840704796
:1025F0008068C0F3C00070478068C0F380007047F7
:102600008068C0F380007047C06810F4406F01D04C
:102610000020704701207047042303EAD15310B50E
:1026200018444369C1F3045107248C40A3438A40F2
:102630001343436110BD00EB8100016E21F00041A6
:10264000114301667047000070B58CB000240894F7
:102650000994202168460A94FDF7E1FD3A484FF0BD
:10266000A041042501604FF44031C0E901148561A7
:102670000121C460C0E9044104774477062606625C
:1026800080F82440C462046380F83840C46380F852
:102690004040FEF7AFF908B1FDF7E6FD08A92A486A
:1026A0000894FDF7F5FD08B1FDF7DEFD2748CDE9FB
:1026B0000006022002907F200594CDE903056946BB
:1026C0002148FDF74FFE08B1FDF7CEFD20480090F0
:1026D0000C20019069461C48FDF744FE08B1FDF747
:1026E000C3FD1C4800901220019069461648FDF772
:1026F00039FE08B1FDF7B8FD174800901820019089
:1027000069461148FDF72EFE08B1FDF7ADFD1348EF
:1027100000904FF4807001900520029069460A48AD
:10272000FDF720FE08B1FDF79FFD0D4800904FF426
:102730008370019069460448FDF714FE002801D01B
:10274000FDF792FD0CB070BD1000002002003004B7
:10275000040060080800900C1000C010000021C3A5
:10276000000084CB114810B50F4901600021416081
:102770008160C1600174417481740122022342614D
:10278000C0E90623C0E908328262C262C0E90C21B6
:102790008163C163FEF714FB002803D0BDE810403D
:1027A000FDF762BD10BD0000006400407C00002009
:1027B00030B587B014216846FDF731FD1A48C16C69
:1027C00041F02001C164C16C01F020010591C16C90
:1027D00041F00101C164C16C01F001010591C16CBE
:1027E00041F00201C164C06C4FF0904500F002005E
:1027F0000590002230212846FEF724FD302000906D
:1028000001200024CDE90104694628460394FEF71F
:1028100035FC4020CDE90004694628460294FEF7C5
:102820002DFC07B030BD000000100240124810B56A
:10283000104901604FF48271416000214FF44072F1
:10284000C0E902124FF480220161C0E90512C161A2
:10285000016207224162C0E90A1201630821416353
:10286000FFF7B8FA002803D0BDE81040FDF7FCBC24
:1028700010BD000000300140E000002010B598B00D
:102880000024149415941C210DA81694FDF7C7FC80
:1028900034216846FDF7C3FC2C482B4901604A21CE
:1028A000C0E901140A21C0E9031444618461FFF7FF
:1028B00049FE08B1FDF7D8FC1494159414A92348D7
:1028C0001694FFF7A1FB08B1FDF7CEFC6020CDE91F
:1028D0000D040F9410941194129400220DA91B481A
:1028E0001394FFF7A0FD08B1FDF7BEFC04220DA96B
:1028F00016480E94FFF797FD08B1FDF7B5FC0822C6
:102900000DA912480E94FFF78EFD08B1FDF7ACFC3F
:1029100000944FF40050CDE9044003940003CDE946
:10292000084001940294069407940A940B94694613
:1029300006480C94FFF70EFB08B1FDF795FC034821
:10294000FFF720FD18B010BD002C0140440100200D
:10295000FEE7704770477047704700B5A5B0382153
:102960006846FDF75CFC14211FA8FDF758FC4421C4
:102970000EA8FDF754FC4FF40070FEF723FD022073
:10298000C1010391402104910421CDE90801009087
:102990004B21CDE90A1007900C900D906846FFF787
:1029A00013F80F201F9003202090002021902290E8
:1029B000239004211FA8FEF7AFFE4FF410400E90A5
:1029C0004FF000701A9000011D900EA8FEF760FDF8
:1029D00025B000BD0548016841F47001016003495C
:1029E0004FF00060803908607047000088ED00E01B
:1029F0000148FFF7C8BB0000900100202DE9F0431B
:102A00000268234B234D244E244C4FF080499842BA
:102A100007D0484505D0A84203D0B04201D0A0421B
:102A200003D122F070074A683A431D4FDFF874C0A3
:102A3000DFF8748098420DD048450BD0A84209D0E9
:102A4000B04207D0A04205D0B84203D0604501D0C3
:102A5000404503D122F44075CA682A434D6922F0EB
:102A600080022A4302608A68C2620A6882629842CF
:102A700007D0A04205D0B84203D0604501D0404500
:102A800001D10969016301214161BDE8F0830000C2
:102A9000002C0140000400400008004000340140C8
:102AA0000040014000440140004801402DE9F0434E
:102AB000026A22F001020262056A436882691C4CC4
:102AC00025F0020522400C6822F0030214438A68B4
:102AD000194E2A43174D194FDFF864C0DFF8649090
:102AE000A84207D0B04205D0B84203D0604501D01B
:102AF000484506D122F00808CA6842EA080222F0D6
:102B00000402A84207D0B04205D0B84203D06045C5
:102B100001D0484505D14D6923F440731D438B69AD
:102B20002B4343608461496841630262BDE8F083DE
:102B30008FFFFEFF002C01400034014000400140A7
:102B40000044014000480140F0B5026A22F0100242
:102B50000262056A42688369194C1B4E23400C6867
:102B600023F4407343EA042425F020038D6843EAEC
:102B70000513144DA84201D0B04206D1CF6823F00E
:102B8000800343EA071323F04003A8420AD0B0426F
:102B900008D00E4DA84205D00D4DA84202D00D4DD3
:102BA000A84207D14D6922F4406242EA85028D694C
:102BB00042EA850242608461496881630362F0BD34
:102BC000FF8FFFFE002C0140003401400040014017
:102BD0000044014000480140F0B5026A22F48072CE
:102BE0000262056A4368C269194C1B4E22400C6898
:102BF00022F00302144325F400728D6842EA052294
:102C0000144DA84201D0B04206D1CF6822F4006230
:102C100042EA072222F48062A8420AD0B04208D0D9
:102C20000E4DA84205D00E4DA84202D00D4DA8422F
:102C300007D14D6923F4405343EA05138D6943EAF4
:102C400005134360C4614968C1630262F0BD0000BE
:102C50008FFFFEFF002C0140003401400040014086
:102C60000044014000480140F0B5026A22F480525D
:102C70000262056A4268C369194C1B4E23400C6806
:102C800023F4407343EA042425F400538D6843EA97
:102C90000533144DA84201D0B04206D1CF6823F4C9
:102CA000004343EA073323F48043A8420AD0B042EA
:102CB00008D00E4DA84205D00D4DA84202D00D4DB2
:102CC000A84207D14D6922F4404242EA85128D693B
:102CD00042EA85124260C461496801640362F0BD42
:102CE000FF8FFFFE002C01400034014000400140F6
:102CF000004401400048014030B5026A22F48032AD
:102D00000262046A4268036D114D2B400D681D4339
:102D100024F400330C8943EA04430E4CA0420BD048
:102D20000D4CA04208D00D4CA04205D00C4CA04246
:102D300002D00C4CA04204D14C6922F4803242EA09
:102D400004224260056549688164036230BD000069
:102D50008FFFFEFF002C0140003401400040014085
:102D6000004401400048014030B5026A22F480125C
:102D70000262046A4268036D114D24F400142B4072
:102D80000D6843EA05230D8944EA05540D4DA84218
:102D90000BD00D4DA84208D00C4DA84205D00C4DCB
:102DA000A84202D00B4DA84204D14D6922F48022E2
:102DB00042EA8522426003654968C164046230BD0D
:102DC000FF8FFFFE002C0140003401400040014015
:102DD0000044014000480140FEE70907090E0028B1
:102DE00004DB00F1E02080F80014704700F00F00D1
:102DF00000F1E02080F8141D704702E008C8121F9F
:102E000008C1002AFAD170477047002001E001C1D3
:102E1000121F002AFBD17047FEF728FAFFF79DFD2D
:102E2000FFF7C6FCFFF72AFDFFF70EFCFFF79AFC41
:102E3000FFF7FCFCFEE700000000000000000102BC
:102E40000304060708090000000001020304000053
:102E5000702E00080000002010000000FA2D00086D
:102E6000802E000810000020D00500000A2E000867
:102E70001000000001000000000000000024F40029
:04000005080001D915
:00000001FF
