:020000040800F2
:10000000B80B0020ED010008374D0008D747000865
:10001000354D00085D070008675900080000000022
:100020000000000000000000000000002D54000847
:10003000DD0B000800000000615000082F5400088C
:10004000070200080702000807020008070200086C
:10005000070200080702000807020008070200085C
:1000600007020008070200080702000889090008C3
:10007000070200080702000807020008070200083C
:10008000070200080000000007020008070200083D
:1000900007020008B5100008070200080702000860
:1000A00007020008C55400080702000807020008FC
:1000B000D1540008DD5400080702000807020008B8
:1000C0000702000807020008070200086550000840
:1000D00007020008070200080702000807020008DC
:1000E00007020008070200080702000807020008CC
:1000F00007020008070200080702000800000000CD
:1001000000000000070200080000000007020008CD
:1001100007020008000000000702000807020008AC
:1001200095090008A1090008070200080702000855
:10013000070200080000000000000000070200089D
:10014000070200080702000800000000000000008D
:10015000000000000000000000000000000000009F
:10016000000000000000000000000000070200087E
:10017000070200080000000000000000000000006E
:10018000000000000702000800000000000000005E
:10019000000000000000000000000000000000005F
:1001A000000000000000000007020008070200082D
:1001B000070200080702000807020008000000000C
:1001C000000000000702000800000000000000001E
:1001D0000702000807020008DFF80CD000F046F91B
:1001E00000480047A7590008B80B00200648804780
:1001F00006480047FEE7FEE7FEE7FEE7FEE7FEE70C
:10020000FEE7FEE7FEE7FEE7A9540008D901000873
:100210009FED1A1AF5EE000A40EE010ABDEEE00A63
:10022000F5EEC00A10EE100AF1EE10FA38BF401ECB
:1002300000EE100A1349F7EE001AB8EEC00A30EECD
:10024000C00ADFED0F0A20EE200AFCEEC00A10EE15
:10025000900AC0F3080000EE900A01EB8000F8EE6F
:10026000600A90ED011A70EE600A90ED000A71EEDE
:10027000E01A21EE800A00EE810A704783F9223EDF
:1002800000000044E8590008B5EEC00AF1EE10FA8B
:1002900007D2DFED1E0AB4EEE00AF1EE10FAA8BFB5
:1002A0007047DFED1B0AB5EEC00A60EE200ABDEE16
:1002B000E01A11EE100AF1EE10FA38BF401E00EEFF
:1002C000100A1549F7EE001AB8EEC00A30EEC00A5F
:1002D000DFED100A60EE200ABCEEE00A10EE100A14
:1002E000C0F3080000EE100A01EB8000B8EE400AEF
:1002F00090ED011A70EEC00A90ED000A71EEE01A5E
:1003000021EE800A00EE810A70470000CD024CB455
:1003100083F9223E00000044E85900082DE9F05F0F
:100320000546002092469B46884606468146402464
:100330001BE0284641464746224600F04FF8534608
:100340005A46C01A914110D311461846224600F071
:1003500036F82D1A67EB01084F462246012000218E
:1003600000F02DF817EB00094E41201EA4F1010406
:10037000DFDC484631462A464346BDE8F09FD2B20C
:1003800001E000F8012B491EFBD270470022F6E77E
:1003900010B513460A4604461946FFF7F0FF2046FB
:1003A00010BD30B4044696230800214604D0B6237D
:1003B00030BC002200F02BB820460021F8E7202AAC
:1003C00004DB203A00FA02F1002070479140C2F1AC
:1003D000200320FA03F3194390407047202A04DBDE
:1003E000203A21FA02F00021704721FA02F3D040AE
:1003F000C2F1200291400843194670470029A8BF66
:100400007047401C490008BF20F00100704710B43D
:10041000B0FA80FC00FA0CF050EA010404BF10BCF2
:10042000704749B1CCF1200421FA04F411FA0CF11F
:1004300018BF012121430843A3EB0C01CB1D4FEA58
:1004400000614FEA102042BF002010BC704700EB53
:10045000C35010440029A4BF10BC7047401C490081
:1004600008BF20F0010010BC70470000064C074D8B
:1004700006E0E06840F0010394E807009847103474
:10048000AC42F6D3FFF7ACFEEC6100080C6200084A
:1004900010B5846AE16D11F0500F06D0E16DC90608
:1004A00025D5204601F01DFB10BDE06D40F4007025
:1004B000E06520680168090716D504F0C9F978B12C
:1004C0002068C068800400280ADBE06D20F480709A
:1004D000E065E06DC00403D4E06D40F00100E0652C
:1004E000204601F0EDFA10BDC0688007EBE7616DB2
:1004F000496BBDE81040084710B5806AC16D41F0F6
:100500004001C165016E41F00401016601F0E9FAA4
:1005100010BD10B5806A01F0E3FA10BD70B5044655
:10052000006881688268C1F3400112F0010F24D095
:1005300019BB816801F00D01012910D18168104AB1
:100540001140891C816021680320086002F03EF997
:1005500005460EE002F03AF9401B022809D9E06D89
:1005600040F01000E065206E40F0010020660120A0
:1005700070BD20688068C007ECD1002070BD00000D
:10058000C0FFFF7F70B504460068816811F0010F5D
:1005900028D18168144A114215D18168D543294078
:1005A000491C816002F012F9064616E0816811F0DC
:1005B000010F03D181682940491C816002F006F9CE
:1005C000801B022809D9E06D40F01000E065206E24
:1005D00040F001002066012070BD20680168C94319
:1005E000C907E3D1002070BD3F0000809FED0C0AD9
:1005F00080ED000A80ED010A80ED020A80ED030A19
:1006000080ED040A80ED050A80ED060A80ED070AF8
:1006100080ED080AB7EE000A80ED090A7047000075
:100620000000000010B50C48FFF7E0FF7F210B48E9
:1006300000F082FF012001F0CBFD07490622E439DA
:10064000064801F00DFC054801F090FBBDE81040A4
:10065000642001F0BDBD00005C07002040000020C8
:10066000F0B5384C384FDFED390A23789FED381A52
:1006700007F124060021A6F1180000BF37F8112069
:1006800006EB411500EE102A05EB8302B8EE400A96
:1006900020EE200A82ED000AB0EE410A5FF000026F
:1006A00005EB820C521CDCED001A082A31EE800AA0
:1006B000F6DB00EB8102491C82ED000A0629DDDB36
:1006C0005B1C03F0070121701F4990ED010AE43122
:1006D000D1ED060A30EE601A80ED011A90ED020AA3
:1006E000D1ED070A70EE600AC0ED020A90ED030A30
:1006F000D1ED081A30EE610A80ED030A81ED001A8F
:10070000C1ED010A81ED020A90ED000AF2EE060A3F
:100710009FED111A20EE200ADFED0E0A81ED030A8B
:1007200090ED040A70EE600A80EE810AF0EE000A95
:1007300030EE200A81ED040A90ED050A81ED050AEC
:10074000F0BD000024000020780600206740D33868
:10075000000000005C8F423F0AD7233BFEE7000009
:1007600070B500219FED774AF3EE082A20EE842A27
:1007700082EE223ADFED742AF0EE084A63EE223A66
:10078000B0EE423A00EE243A9FED705A00EE642A31
:10079000F5EEC00AC3EE055AC2EE054A25EEA23AAE
:1007A00024EEA22AF1EE10FA01DD012300E000237D
:1007B000F0EE604A50EE044AF5EEC04AF1EE10FA4F
:1007C00001DD012600E000269FED614A50EE040A9B
:1007D000F5EEC00AF1EE10FA01DD012500E000257A
:1007E00003EB460303EB8503072B11D2DFE803F08D
:1007F000100406080A0C0E00022016E0062028E06D
:1008000001200DE004201AE0032013E005201BE086
:10081000072822D2DFE800F02104090E13181D007A
:10082000F1EE421AB0EE631A17E0F0EE421AB0EEA3
:10083000431A12E0F0EE631AB1EE431A0DE0F1EE46
:10084000631AB0EE421A08E0F1EE431AB1EE421A12
:1008500003E0F0EE431AB1EE631A3E4D31EE810A29
:1008600010EE103AAB4207DD61EEA20AC0EE801A2C
:1008700061EE220A80EE801AF5EE000A072832EEB9
:10088000E10AF6EE002A30EE410A20EE200AF0EEF0
:10089000400A41EEA20AB0EE602A01EE222A1CD2E2
:1008A000DFE800F01B040C262E364300BCEEC00A25
:1008B00010EE100ABCEEE00A84B206E0FCEEE00A9C
:1008C000BCEEC00A10EE900A84B210EE100ABCEE24
:1008D000C20A82B210EE100A81B21F480460001DE5
:1008E0000260001D01601D4804864286818670BD3D
:1008F000BCEEC21ABCEEC00A11EE100A84B21BE0B4
:10090000BCEEC21AFCEEE00A11EE100A84B206E058
:10091000FCEEE00A10EE900AFCEEC20A84B210EE81
:10092000900ABCEEC00A82B2D4E7BCEEC00A10EE58
:10093000100ABCEEC20A84B210EE100ABCEEE00A45
:1009400082B2C7E7D7B3DD3F0080D4450000404204
:10095000D7B3DDBF0080D445342C0140880300208C
:10096000DFED071A20EE210A80ED000A30EEC10A01
:10097000DFED040A20EE200A81ED000A7047000036
:100980003ACD933F3ACD133F014801F01DBB000023
:10099000AC000020014801F017BB0000D40100208A
:1009A000014801F011BB0000340200200D4902682B
:1009B0008A4201D20C4901E00B492031D2B2142302
:1009C000083AB2FBF3F2436C02F01F0223F0030378
:1009D0001944816404498031C16401219140016559
:1009E0007047000008040240000802400179074AED
:1009F00002EB81024265054A4432491E826501F0DC
:100A00001F0201219140C16570470000FC080240AF
:100A100030B5D0E913456560446D14B1D0E9164591
:100A2000656090F8444004F01F050124AC40056C5B
:100A30006C60046863608368102B036803D099605E
:100A40000068C26030BD9A600068C16030BD10B5FA
:100A50004FF0904401222021204601F0B2FE642094
:100A600001F0B6FB00222021204601F0AAFE6420FE
:100A700001F0AEFB01221021204601F0A2FE64200D
:100A800001F0A6FB20460022BDE81040102101F035
:100A900098BE00000C4908B50A480A78002A0FD110
:100AA00001220A70094A52680092026A009B9A4227
:100AB00002D9C269521CC261009A02620020087009
:100AC00008BD00008807002028000020001000E07A
:100AD00010B5084C00F038F80749206848436168B1
:100AE00001EB4102C2EBC11100EBC10021890844B6
:100AF000002110BD8807002040420F000F4A10B5AA
:100B00000D49136843F0807313600D4B00225A6047
:100B10001C6844F001041C600A4B58434FF47A737C
:100B20000861B0FBF3F04861064B0869B0FBF3F0D5
:100B3000C1E906020A6210BD88070020FCED00E052
:100B4000001000E040420F002DE9F8432248214CFC
:100B500040680090FFF79EFFE269002500984FF083
:100B6000FF332946E2FB0301C4E90A01D4F81080EF
:100B700007460E4642462B46FFF7D0FB02460B4681
:100B80003146C446ACFB028605FB02660CFB0363E0
:100B9000B7EB080061EB0301226007460E46002315
:100BA0006269FFF7BBFB0246606060690023424355
:100BB000B81A66EB0501A269FFF7B0FB2081D4E902
:100BC000001001EB4102C2EBC11100EBC100E0607B
:100BD000BDE8F88388070020001000E0704738B5B2
:100BE00004460020009021890022606801F0E9FDA0
:100BF00004F12C0104220D46206802F00BFD0422B2
:100C00006946206802F0C8FF21890122606801F06E
:100C1000D8FD2946204600F001F838BD70B50E46D3
:100C20002DED048B0446FFF753FF054630889FEDFA
:100C30003A9A40BA00B200EE100A9FED361AF0EE72
:100C4000498AF8EEC00A9FED320AB4F91400334B1A
:100C500060EE800A50EE818A00EE900AF8EEE00A1B
:100C600038EEE08A18EE102A9A4202DD38EE408A09
:100C700006E018EE102A2A4B9A4201D938EE008A73
:100C800084ED068AB5EEC08AF1EE10FA0ADD10F1A5
:100C90005A0F07DA18EE902A224B9A4202DD208A78
:100CA000401C0DE0B5EEC08AF1EE10FA09D25A28C8
:100CB00007DD18EE900A1C4A904202D9208A401E95
:100CC0002082E068281A61F10001FFF76AFB00EE5C
:100CD000900A9FED161AE56080EE810A9FED141AC6
:100CE000C8EE090A20EE811AC1EE000AC4ED080A16
:100CF00094ED0A0A20EE800A84ED090ABDEEE80AA6
:100D000010EE100AA082208A6082BDEC048B70BDB8
:100D10000000B44300008037000034430000344337
:100D2000000034C30000B4420000B4C2002474497F
:100D3000DA0F4940B0F91410B0F9100000EE101AA3
:100D400000EE900A9FED041AB8EEC00AF8EEE00A31
:100D500000EE810A704700000000B4432DE9FC4713
:100D600004460025C4E90012038180ED0A0A0582C9
:100D7000458285829FED8C0A80ED060AC56180ED73
:100D8000080A80ED090A01F021FDE562E0600195A5
:100D90008DF804508DF8055021890022606801F01B
:100DA00010FD6426009604F12C020223914601A94D
:100DB000206802F0E1FC21890122606801F001FD58
:100DC000012001F005FA8DF804508DF805502189B5
:100DD0000022606801F0F5FC009602234A4601A952
:100DE000206802F0C9FC21890122606801F0E9FC59
:100DF000012001F0EDF98DF804508DF8055021899E
:100E00000022606801F0DDFC009602234A4601A939
:100E1000206802F0B1FC21890122606801F0D1FC58
:100E2000012001F0D5F9EA278DF804704FF054083D
:100E30008DF8058021890022606801F0C2FC0096CF
:100E400002234A4601A9206802F096FC218901226A
:100E5000606801F0B6FC012001F0BAF91C208DF8A1
:100E600004008DF8055021890022606801F0A9FC7A
:100E7000009602234A4601A9206802F07DFC2189E0
:100E80000122606801F09DFC012001F0A1F98DF8BC
:100E900004508DF8055021890022606801F091FC12
:100EA000009602234A4601A9206802F065FC2189C8
:100EB0000122606801F085FC012001F089F90195AB
:100EC00021890022606801F07CFC009604234A46D8
:100ED00001A9206802F050FC21890122606801F01C
:100EE00070FC012001F074F98DF804708DF8058014
:100EF00021890022606801F064FC009602234A46C2
:100F000001A9206802F038FC21890122606801F003
:100F100058FC012001F05CF90D208DF804008DF8DB
:100F2000055021890022606801F04BFC00960223E5
:100F30004A4601A9206802F01FFC2189012260684D
:100F400001F03FFC012001F043F98DF804508DF8C9
:100F5000055021890022606801F033FC00960223CD
:100F60004A4601A9206802F007FC21890122606835
:100F700001F027FC012001F02BF9019521890022C5
:100F8000606801F01EFC009604234A4601A920680F
:100F900002F0F2FB21890122606801F012FC0120BD
:100FA00001F016F9BDE8FC87000000007047000062
:100FB00070B5334C3349E07A4000E072607A40000B
:100FC0006072A07A4000A072207B40002073607B9A
:100FD00040006073A07B4000A07391ED030AD1ED47
:100FE000040A01F1140020EE000A00EEA00AB5EE9A
:100FF000C00AF1EE10FA04DBF1EEC00AC0ED000AFF
:1010000003E09FED210A80ED000A48691F49002591
:10101000884207DDE07A40F00100E072FF2800D14D
:10102000E57070BD1A491B4AC868904207DD607AB6
:1010300040F001006072FF28F3D1657070BD164A60
:10104000904207DAA07A40F00100A072FF28F5D1A3
:10105000A57070BD08691149884207DD607B40F0CA
:1010600001006073FF28F4D1657170BD40214FF01D
:10107000904001F099FB0028F7D1E57170BD0000A8
:101080001400002088030020000000000000F04150
:101090005C0700200000D041000010410000964392
:1010A0000121017041708170C170017141718171C4
:1010B000C1717047014801F0A0B800000C01002088
:1010C00010B5224800F080F92148FFF7E9FFFFF74B
:1010D000A9FAAA20FFF712FD9FED1E0A4FF4004364
:1010E0004FF090421C491D48FFF738FEFFF7AFFC58
:1010F00000F0E6F81A4802F053FF0021184803F008
:101100009BFA0421164803F097FA0821144803F0CB
:1011100093FA0021124803F011FA0421104803F059
:101120000DFA08210E4803F009FA00210C4802F0DC
:1011300077FE04210A4802F073FE0821084802F0F5
:101140006FFEBDE81040074802F02ABF8803002068
:10115000140000200AD7233C70010020480600201C
:1011600094020020E002002010B53D48FFF7E2FDA8
:1011700000F054F93B4C3C489FED3C1A84ED0E0ABC
:1011800090ED000A04F1100131EE400A84ED000AEE
:10119000D0ED010A71EE600AC4ED010AD0ED021A29
:1011A000081F31EE611A84ED021AFFF7D9FB04F132
:1011B0001C0194ED0E1AD4ED040A94ED030A081FE5
:1011C00003F024FF94ED060A04F1500003F018FF29
:1011D0009FED270A04F1500003F015FF04F15000C1
:1011E00003F0AAFDD4ED080A04F1EC0030EE200A69
:1011F00084ED080A94ED070A03F002FFB6EE000A38
:1012000004F1EC0003F0FFFE04F1EC0003F094FDA8
:10121000D4ED090A04F12C01081F70EE200AC4ED78
:10122000090A94ED0E1A94ED080A03F0D5FAD4EDEC
:101230000B0A94ED0A0AFFF793FA103C2089A0F5F7
:101240001C51103905D1002020814021094801F0AE
:10125000B0FA2089401C20812068401C206010BD0D
:1012600048060020880300205C070020E17AD43F74
:10127000000000000004004810B50D48FFF7AFFC67
:101280009FED0C0A0C4803F0BBFE0C4C0A4894ED91
:101290000F0A03F0B8FE084803F04EFD064803F0BD
:1012A0008BFED4ED100A30EE200A84ED100A10BD3A
:1012B00048060020000000001005002088030020E0
:1012C00010B5DFED382A01212DED048BB0EE623A26
:1012D0009FED338ADFED348A9FED349AF0EE484A71
:1012E000B0EE484AF0EE483AB0EE682AF0EE681ADE
:1012F000B0EE681AF0EE490AB0EE490A2C4803F045
:101300005EFEDFED2C2A2A48F0EE484AB0EE484A4D
:10131000F0EE483AB0EE623AB0EE682AF0EE681AA3
:10132000B0EE681AF0EE490AB0EE490A01219C308D
:1013300003F045FEF0EE484AB0EE484AF0EE483A77
:10134000B2EE043AF2EE042AB0EE682AF0EE681A21
:10135000B0EE681ADFED180A9FED180A0021184850
:1013600003F02DFEF0EE484AB0EE484AF0EE483A5F
:10137000B0EE682AF0EE681AB0EE681AF0EE490A8C
:10138000B0EE490ABDEC048B0021DFED0E2A0C48BB
:10139000BDE81040B0EE623A9C3003F010BE000091
:1013A000CDCCCC3D00004842000000006F12833AD3
:1013B000D80300200000C842ACC527370AD7233C19
:1013C00010050020000048439FED120A002180ED27
:1013D000000A80ED010A80ED020A80ED030A80ED2B
:1013E000040A80ED060A80ED070A80ED080A80ED08
:1013F000090A80ED0A0A80ED0B0A01864186DFEDBD
:10140000060A8186C0ED0F0A80ED100A80ED0E0AF3
:1014100070470000000000006666663FDFED0B0AC3
:101420004FF4B47130EE200AF2EE0C0A20EE200ADE
:10143000BCEEC00A10EE100AB0FBF1F201FB120084
:1014400000EE100AB8EE400A704700000000B443F6
:1014500070B504462DED028BB0EE408A01F0B6F96E
:1014600000EE100AD4ED020AB8EE400A30EE600A2F
:10147000BCEEC00A10EE105A01F0A8F900EE100AF6
:10148000B8EE400A84ED020AD4ED010AF5EEC00A76
:10149000F1EE10FA32DD10EE900AB0F17E5F2DDC35
:1014A000B7EE000A94ED051A30EE600A20EE011A3C
:1014B00000EE881A84ED041AB0EE410A84ED051A94
:1014C0007DB101EE105ADFED0F1AB8EE411A21EE90
:1014D000211ADFED0D1A21EE211AC0EE811AC4ED9A
:1014E000001A00EE905A9FED091AF8EE600AC1EE5C
:1014F000201AC4ED031ABDEC028B70BDB0EE480A91
:10150000F9E70000DB0FC9406F12833A00007A440C
:1015100080ED010A9FED020A80ED020A704700008B
:101520000000000006220249024800F099BC0000B9
:101530007806002040000020F8B5002604460096FA
:1015400090F858000D4601280BD0012084F858006F
:101550002046FEF7E3FF0100E06D04D040F01000EC
:101560002AE00220F8BD20F4885040F00200E06537
:1015700020688268134B1A4005F080431A4342F0FA
:1015800000428260104A20680EE0009B5B1C0093C2
:10159000934209D3E06D20F0020040F01000E065B6
:1015A00084F858600120F8BD8368DB0FEDD1E06D51
:1015B00020F0020040F00100E06584F85860084621
:1015C000F8BD0000C0FFFF3F02DE04002DE9F04738
:1015D000044690F858009CB00D464FF000080128D2
:1015E00014D0012084F8580020684FF0A0474FF035
:1015F0000009B8420ED1284E0096304603F024F977
:101600008246206803F020F960B10EE002201CB091
:10161000BDE8F087E16D41F02001E16584F8589064
:101620000120F4E7BAF1000F0AD0E06D40F020008D
:10163000E0654FF0010800BF84F858904046E6E7A7
:1016400016482A6840F61F71002A826822F4604218
:1016500015D094F8383042EA43326B681A438260FE
:10166000BA68B36802F0010203F001031A43E3D140
:10167000AB682A681A4383688B431A430AE0826086
:10168000BA68B36802F0010203F001031A43D3D130
:1016900082688A438260CFE7000100500003005057
:1016A0002DE9F84F00270446009790F85800DFF81E
:1016B000DC930D46B846012811D0012684F8586005
:1016C000206803F0BDF860B1E06D40F02000E065F7
:1016D0005FF0010784F858803846BDE8F88F022093
:1016E000FBE7D5E900210C23206803EA9113184495
:1016F000036B01F01F014FF01F0C0CFA01FCC2F349
:10170000846223EA0C038A4013430363206803F0D6
:1017100097F88246206803F08FF85AEA00003CD11F
:10172000AA6829682068B2F1004F37D003F098F812
:101730002068416921F00041416120686969C268FF
:10174000C2F3C102520091402A69042A31D000EB51
:1017500082002B68026EDFF838C303F0F84302EA18
:101760000C020B431A4342F00041016622682869CB
:10177000A96902EB8000026E22F080720A430266C1
:10178000297F20682A69012910D0002100EB8200FE
:10179000026E22F000720A4302667DE0002203F02E
:1017A0005FF82068416941F00041C5E74FF00071E2
:1017B000ECE7002103F03AF8400320684FF0000105
:1017C00072D003F033F890FAA0F0B0FA80F12868F4
:1017D00042036ED090FAA0F0B0FA80F0814204D1BA
:1017E00000221146206803F04AF80121206803F026
:1017F0001DF8400320684FF001015DD003F016F89A
:1018000090FAA0F0B0FA80F12868420359D090FA1B
:10181000A0F0B0FA80F0814204D1002201212068BA
:1018200003F02DF80221206803F000F8400320683F
:101830004FF0020148D002F0F9FF90FAA0F0B0FAA0
:1018400080F12868420344D090FAA0F0B0FA80F00A
:10185000814204D100220221206803F010F8032104
:10186000206802F0E3FF400320684FF0030133D00B
:1018700002F0DCFF90FAA0F0B0FA80F12868420391
:101880002FD090FAA0F0B0FA80F0814204D100226B
:101890000321206802F0F3FF2068816811F0010F36
:1018A00022D0ACE000E004E002F0C0FFC0F38461AD
:1018B0008DE7C0F3846091E702F0B8FFC0F3846164
:1018C000A2E7C0F38460A6E702F0B0FFC0F3846132
:1018D000B7E7C0F38460BBE702F0A8FFC0F3846100
:1018E000CCE7C0F38460D0E72A7B296850F8B03F8A
:1018F000C1F3120C23EA0C0302F0180C654A22FA19
:101900000CF20A4013430360E968494577D128681F
:1019100041031CD090FAA0F1B1FA81F1491C01F009
:101920001F0109294FEA403132D8002912D000BFE7
:1019300090FAA0F1B1FA81F101F1010101F01F016A
:1019400006FA01F609D100BFC0F3846109E0C0F3D3
:101950008461E3E7C0F38461EEE790FAA0F1B1FAA5
:1019600081F101F1010101F01F0146EA816102D11B
:10197000C0F3846003E090FAA0F0B0FA80F000F1C8
:10198000010000F01F0000EB400041EA005132E08E
:1019900000290ED090FAA0F1B1FA81F101F1010114
:1019A00001F01F0106FA01F606D100BFC0F3846101
:1019B00006E0C0F38461F1E790FAA0F1B1FA81F199
:1019C00001F1010101F01F0146EA816102D1C0F37A
:1019D000846003E090FAA0F0B0FA80F000F101001A
:1019E00000F01F002C4A00EB400002EB005041EADF
:1019F000000141F00071AA68206802F031FF274819
:101A00002A6802423FF466AE25488168254B01F002
:101A1000E0719A4202D0244B9A421BD10B0219D496
:101A20002268B2F1A04F7FF455AE826841F4000104
:101A300022F0E0720A4382601C481D490068B0FB36
:101A4000F1F000EB4000800000E0401E0090002814
:101A5000FBD13FE6174D184BAA4207D1CD0105D463
:101A600022689A42F5D041F0807109E0134DAA42F4
:101A7000EFD14A02EDD422689A42EAD041F48001C3
:101A8000826822F0E0720A43826023E600007F4011
:101A900000F0FF03FFFF0700000020FE00000880A9
:101AA00000030050000021C31000C090100000206F
:101AB000400D0300000052C700010050000084CB1D
:101AC000054900B5884205D1FEF7CAFD034948899A
:101AD000401C488100BD0000400000207803002029
:101AE00070477047F8B54FF0000504002E4600958A
:101AF00002D0E06D10B107E00120F8BD204600F0F3
:101B0000EDF8266684F8586020688168C1F340715A
:101B100019B18168694A1140816020688168C1F308
:101B2000007179B98168664A114041F08051816045
:101B3000644865490068B0FBF1F000E0401E009089
:101B40000028FBD120688168C1F3007141B9E16DC3
:101B500041F01001E165216E41F00101216601258E
:101B600002F06EFEE16DC90600D430B1E06D40F0C8
:101B70001000E06501252846F8BDE06D20F4807076
:101B800040F00200E0652068806810F0010F11D17C
:101B90004FF0A04080684D4900F00100896801F0D5
:101BA0000101084306D14A486168826822F47C1228
:101BB0000A438260E168E06B627F0843A16841EA02
:101BC0004231084394F8241040EA0140012904D12D
:101BD000218D404A02EB41410843E16A29B101F4F9
:101BE0007871226B014342EA01002168CA683A4BCE
:101BF0001A400243CA6020680169626B21F04061AB
:101C000011430161206802F01BFE0646206802F0C5
:101C100013FE30432ED1207F94F83810800340EA21
:101C200041022068C16844F2020399431143C16034
:101C300020690028206801690AD041F480310161DF
:101C4000206850F8C01F22696FF30D01114307E0AF
:101C500021F480310161206850F8C01F6FF30D013D
:101C6000016094F8400001280CD02068016921F03F
:101C700001010161606901282068016B21F00F01F9
:101C800011D013E0D4E911010843D4E91312114330
:101C9000084321680A6940F2FC739A43104340F0FC
:101CA00001000861E6E7226A521E11430163E06DFC
:101CB00020F0020040F00100E0655CE7C0FFFF5F3C
:101CC000C0FFFF7F10000020400D03000001005006
:101CD000000300500000FEFF0740F0FF70B586B023
:101CE000054614216846FEF751FB2868B0F1A04F65
:101CF00033D11B49C86C40F40050C864C86C00F470
:101D000000500590C86C40F00100C864C86C002603
:101D100000F0010005900F2000900320CDE901069E
:101D200069464FF0904000F05BFC0F4C0D4820607E
:101D30000520C4E901068020C4E903604000606119
:101D40008000C4E9060680002062204600F09AF96F
:101D500008B1FFF72BF96C65A56206B070BD0000F5
:101D60000010024008000240AC0000202DE9F041C4
:101D700004463848806800F01F05206802F060FDC6
:101D800018B102210846BDE8F08194F858000128F6
:101D90000CD0012084F858002046FEF7F3FB010028
:101DA0004FF0000304D084F85830EBE70220EAE754
:101DB000E06D40F60162904340F48070E065264A91
:101DC00020684FF0A046904201D1374600E0074618
:101DD000874200D01DB9E76D27F48017E765E76DEE
:101DE000FF0404D5276E27F00607276600E0236668
:101DF0001C27076084F858302068904201D1334690
:101E000000E00346834215D0A5B1052D12D0092D5F
:101E100010D0E36D43F48013E365904200D1304667
:101E2000C0688001AED5E06D20F4005040F48050D1
:101E3000E065A7E7C268920105D5E26D22F4005281
:101E400042F48052E2658268044B1A40121D82609F
:101E500098E700000003005000010050C0FFFF7F22
:101E60002DE9F0410446344817468846806800F062
:101E70001F05206802F0E4FC00285AD194F85800AD
:101E8000012856D0012084F85800002625B1052DE0
:101E900002D0092D00D003E02046FEF773FB18B1F5
:101EA00084F85860BDE8F081E06D40F60161884338
:101EB00040F48070E06521492068884202D14FF0EB
:101EC000A04100E00146814200D01DB9E06D20F440
:101ED0008010E065E06DC00404D5206E20F006009F
:101EE000206600E02666616D1548C862616D154880
:101EF0000863616D1448486321681C20086084F8F9
:101F000058602068416841F0100141602068C16854
:101F100041F00101C16021683B4642464031606D9D
:101F200000F010F921688A68084B1A40121D8A6077
:101F3000B8E70220B6E7000000030050000100509F
:101F40009104000813050008F9040008C0FFFF7F92
:101F500070B590F82520002401212346022A07D0DD
:101F60000422C26380F8251080F82430012429E07F
:101F70000268156825F00E0515600268156825F0E1
:101F800001051560826C156825F48075156090F860
:101F90004420056C02F01F0201FA02F26A60D0E9E7
:101FA00013255560426D32B1156825F480751560B2
:101FB000D0E91625556080F8251080F82430816B13
:101FC00001B18847204670BDF0B4016C0C6801680F
:101FD0000D6890F8442002F01F06042202FA06F36E
:101FE000234211D06B070FD50B689B0603D40B68F7
:101FF00023F004030B6090F8441001F01F018A40A5
:10200000016C4A60016B1DE0022303FA06F72742C8
:102010004FF0000C4FF0010218D0AF0716D50C6836
:10202000A40605D40C6824F00A040C6080F825206E
:1020300090F8441001F01F018B40016C4B6080F858
:1020400024C0C16A00291AD0F0BC08470823B34055
:10205000234214D02B0712D50B6823F00E030B601C
:1020600090F84410036C01F01F0102FA01F159606D
:10207000C26380F8252080F824C0416BE2E7F0BC01
:102080007047000070B504000CD02B4A2168142062
:10209000914209D2294A0A44B2FBF0F08000606400
:1020A00027480AE0012070BD234A52420A44B2FB8D
:1020B000F0F080006064204808382064022084F832
:1020C00025000A6847F6F0708243D4E902031843FA
:1020D000D4E904352B431843A3691843E369184333
:1020E000236A1843104308602046FEF75FFCA0688F
:1020F0000025B0F5804F00D16560A16C20790860A3
:10210000D4E9130141606068401E032808D82046C6
:10211000FEF76CFC606D0560D4E91601416002E0D9
:102120006565A565E565E563012084F8250084F80B
:102130002450002070BD000008040240F8FFFDBFDD
:102140000000024070B5044690F8240000250128E4
:102150000CD0012084F8240094F825600020012E82
:1021600006D084F824000225284670BD022070BDE8
:10217000022684F82560E0632068066826F00106E0
:1021800006602046FEF744FC206B002820680168AA
:1021900002D041F00E0106E021F004010160206848
:1021A000016841F00A010160A06C0168C90303D510
:1021B000016841F480710160606D18B1016841F4FB
:1021C000807101602068016841F001010160CBE786
:1021D00070B5044600F0FAFA0546601C02D00448C7
:1021E0004068044400F0F2FA401BA042FAD370BDEC
:1021F000040000207047704770472DE9F0470446FF
:102200000068016D466D01F4E0510E40016D476DAF
:1022100001F007010F40016D426D01F0380102EA43
:102220000108016D456D01F471010D40016D426DB4
:1022300001F4602102EA0109016D490607D5416DEB
:10224000490604D5402101652046FFF7D5FF2068E7
:10225000016DC9050DD5416DC9050AD5D0F8D82045
:10226000D0F8E01011404FF480720265204600F073
:10227000B3F92EB1206806653146204600F0AEF96C
:102280002FB1206807653946204600F0A1F9B8F162
:10229000000005D0216808654146204600F099F904
:1022A0002068016D890508D5416D890505D54FF474
:1022B00000710165204600F092F92068016D090661
:1022C0000CD5416D090609D5D0F8D420D0F8DC1022
:1022D000114080220265204600F07FF92068016DE0
:1022E000890408D5416D890405D54FF40051016575
:1022F000204600F070F92068016D090408D5416D91
:10230000090405D54FF400410165204600F062F94B
:102310002068016D490409D5416D490406D54FF483
:1023200080410165206E40F080002066B9F1000018
:1023300005D02168086549462046FFF75CFF25B1B6
:1023400020680565206E28432066206E002802D094
:102350002046FFF74FFFBDE8F08700002DE9F04170
:10236000040006D0DFF8E88194F85C00002518B17D
:1023700007E00120BDE8F08184F85D50204600F0C0
:10238000EFF82068816921F01001816100F01EFAE8
:102390000646032705E000BF00F018FA801B0A2854
:1023A00011D8206880690007F6D42068816941F05F
:1023B0000101816100F00AFA06460BE000F006FA1E
:1023C000801B0A2806D9206E40F00100206684F8A0
:1023D0005C70CEE720688069C007EFD02068816913
:1023E00041F0020181612168414502D1594960688B
:1023F0000860207C01282068816937D041F04001C5
:102400008161607C01282068816932D021F480419B
:102410008161A07C0128206881692DD041F4805120
:10242000816120688169A26821F440711143816152
:102430002068816921F0A40181612068016921F08F
:1024400010010161E068012819D010B302281BD0E7
:102450002068816941F0800181612068016941F053
:1024600010010161E06803280ED012E021F0400164
:10247000C6E741F48041CBE721F48051D0E72068E2
:10248000816941F0040103E02068816941F0200185
:102490008161207EE26940066FF0FF0101EB0222BC
:1024A000A0F100701043226AA38A521E10430A0250
:1024B00002EB034318432368D861A068B0F5407F5E
:1024C00010D1D4E90A0301EB0321401E0843216B1C
:1024D000131303EB01110843A18C02EB01410843E4
:1024E0002168C860206850F8C01FE26B114301608A
:1024F00019482064216851F8802FA38E22F4F81225
:1025000042EA03420A60144970316164216851F85B
:10251000802F94F8383022F0706242EA03620A6039
:102520000D49B031A1640D49E1640C49D8312165F0
:102530000A49F031616500F5547120C08842FCD32E
:10254000A5652566012084F85C00002012E70000E4
:10255000006400400065004000A4004088A50040E1
:1025600010B586B0044614216846FDF70FFF1649E2
:102570002068884226D11548816D41F0007181653F
:10258000816D01F000710591C16C41F00101C164E0
:10259000C06C694600F0010005904FF4C0500090F7
:1025A0000220019000200290039009200490C006B0
:1025B00000F016F800220421152000F08FF91520F4
:1025C00000F07EF906B010BD00640040001002402B
:1025D0007047704770477047704770477047704743
:1025E0002DE9FC4FDFF8A0A1002301250AF1040B1F
:1025F00003244FF00F0C0BF1040EBDE005FA03F6B7
:1026000032406FD04F68012F05D0022F03D0112F19
:1026100001D0122F17D1D0F808905F0004FA07F804
:1026200029EA08090097D1F80C8008FA07F848EA67
:102630000908C0F808804768B7430E79C6F300164A
:102640009E403E434660C6684FEA430804FA08F7D6
:10265000BE4301978F6807FA08F73743C7604E6893
:10266000022E01D0122E13D1DE0800EB8606009652
:10267000366A5F07FF0E0CFA07F926EA0906D1F859
:10268000109009FA07F949EA0609009EC6F8209059
:102690000668019FBE430F7907F0030707FA08F7A2
:1026A000374307604E68F60065D5384E376E47F001
:1026B00001073766366E23F0030706F00106009621
:1026C000334E3E44B146B6689F074FEA17780CFA7E
:1026D00008F7BE43B0F1904F05D02E4FB84204D159
:1026E000012717E047E0002714E02B4FB84201D143
:1026F00002270FE0294FB84201D103270AE0284FF3
:10270000B84201D1042705E0264FB84201D1052780
:1027100000E0062707FA08F73743C9F80870DAF827
:1027200000605746D1F8048096435FEAC83800D568
:1027300016433E60DBF800605F46D1F804809643A4
:102740005FEA883800D516433E60DEF800607746C1
:10275000D1F8048096435FEAC82800D516433E604E
:10276000094F0C373E68D1F8048096435FEA882809
:1027700000D516433E605B1C0A6832FA03F67FF40C
:102780003DAFBDE8FC8F0000000401400010024096
:10279000000001400004004800080048000C004808
:1027A00000100048001400480069084000D00120D3
:1027B0007047426921EA02030A4043EA024181610B
:1027C00070470AB181617047816270470148806833
:1027D00070470000040000200248816842681144EC
:1027E000816070470400002010B50024032000F031
:1027F00095F8002000F008F808B1012401E000F08D
:1028000047F8204610BD000030B505461C4887B08B
:10281000816D41F001018165806D06A900F0010024
:10282000009001A800F024FB00F042FB15494FF096
:102830008042B0FBF1F11448491E0260416040F251
:10284000E7320021C0E90321816001F046FB04006A
:1028500012D10D4801F0A4FB04000DD11C2000F0A2
:102860002FF8102D07D2002229461C2000F036F840
:102870000648056000E0012407B0204630BD000096
:102880000010024040420F002C03002004000020F2
:102890000A4882B0016E41F001010166016E01F04B
:1028A00001010091816D41F080518165806D00F0E2
:1028B0008050009002B000F0A1B80000001002406B
:1028C000002809DB00F01F0201219140400980002F
:1028D00000F1E020C0F8001170470000F0B40E4B8A
:1028E0001B680C46C3F30223C3F10705042D00D96E
:1028F0000425191D072901D2002300E0DB1E012653
:1029000006FA05F1491E214099409E40761E164068
:102910003143F0BC03F028B80CED00E0064900F0AC
:10292000070208684FF6FF03184040EA0220034AF6
:1029300010430860704700000CED00E00000FA054D
:102940002B492C4B0A6832214A432B4940B1B0F540
:10295000007F086829D020F4C06040F480602CE03B
:102960000868C0F34120022804D051F8800F20F4F9
:10297000807022E0D1F8800020F48070C1F88000DF
:10298000086820F4C06040F400700860B2FBF3F007
:10299000401C00E0401E4A69520501D50028F9D1CB
:1029A000486940050AD503207047C0F3412002283A
:1029B00006D051F8800F40F4807008600020704706
:1029C000D1F8800040F48070C1F88000086820F4DD
:1029D000C06040F400700860B2FBF3F0401C00E0FF
:1029E000401E4A695205DBD50028F9D1D8E700001E
:1029F0001000002040420F00007000400248816833
:102A000041F4804181607047007000402DE9F84337
:102A10000446006800269D4D00035ED5A86D002782
:102A2000C00008D4A86D40F08050A865A86D0127AB
:102A300000F080500090DFF85892D9F8001041F46F
:102A40008071C9F80010FFF7C1FE804606E000BFA4
:102A5000FFF7BCFEA0EB080002282BD8D9F8000035
:102A6000C005F5D5D5F8900010F4407014D0216C55
:102A7000814211D0D5F89000D5F8901020F4407024
:102A800041F48031C5F89010D5F8901021F48031D0
:102A9000C5F89010C5F89000C00711D0FFF796FE5A
:102AA000804641F2883907E0FFF790FEA0EB08016D
:102AB000494501D903260BE0D5F890008007F3D5EE
:102AC000D5F89000216C20F440700843C5F89000C0
:102AD0001FB1A86D20F08050A8652078C00707D0EE
:102AE000D5F88800616820F003000843C5F8880025
:102AF0002078800707D5D5F88800A16820F00C0061
:102B00000843C5F888002078400707D5D5F8880025
:102B1000E16820F030000843C5F8880020780007FD
:102B200007D5D5F88800216920F0C0000843C5F812
:102B300088002078800607D5D5F88800616920F4E0
:102B400040600843C5F888002078400607D5D5F8CE
:102B50008800A16920F440500843C5F88800207817
:102B6000000607D5D5F88800E16920F44040084305
:102B7000C5F888002088C00507D5D5F88800216AE7
:102B800020F440300843C5F888002088800507D528
:102B9000D5F88800616A20F440200843C5F8880011
:102BA000208840050FD5D5F88800A16A20F4401090
:102BB0000843C5F88800A06AB0F5801F03D1E86813
:102BC00040F48010E860208800050FD5D5F8880013
:102BD000E16A20F440000843C5F88800E06AB0F5D7
:102BE000800F03D1E86840F48010E8602088C004BA
:102BF0000FD5D5F88800216B20F040700843C5F848
:102C00008800206BB0F1807F03D1E86840F4801029
:102C1000E86020884FF0006180040ED5D5F8880068
:102C2000626B20F040601043C5F88800606B8842FA
:102C300003D1E86840F48010E860208840040ED595
:102C4000D5F88800A26B20F040601043C5F88800DA
:102C5000A06B884203D1E86840F48010E8602088C7
:102C600000040FD5D5F88800E16B20F040500843F0
:102C7000C5F88800E06BB0F1805F03D1E86840F4EC
:102C80008030E8603046BDE8F88300000010024064
:102C9000007000402DE9F0470E4605004FF0000798
:102CA00025D0DFF8AC81D8F8000000F00F00B0426A
:102CB0000CD2D8F8001021F00F013143C8F80010F1
:102CC000D8F8000000F00F00B04210D12968614C24
:102CD000C80741F2883A5AD06868DFF87C91032827
:102CE00008D0022820682DD0400500282CDB0120C8
:102CF000BDE8F08720688001F9D5E06800F00302A4
:102D0000E068C0F30310401C032A19D0534A00BFE7
:102D1000B2FBF0F0E268C2F306225043E268C2F36D
:102D20004162521C5200B0FBF2F0484517D9A0682E
:102D300010F0F00F0CD0880711D5A86840B10EE054
:102D4000474AE5E78003D0E700F0C4F8484506D9D4
:102D5000A06820F0F00040F08000A0608027A0680C
:102D6000696820F003000843A060FFF72FFD81464B
:102D700006E000BFFFF72AFDA0EB090151453AD854
:102D8000A068696800F00C00B0EB810FF2D12868F0
:102D9000810714D5400703D5A06840F4E060A06027
:102DA0002878000705D5A06820F4605040F4E06062
:102DB000A060A068A96820F0F000084304E0802F1C
:102DC00003D1A06820F0F000A060D8F800104046C1
:102DD00001F00F01B14216D9016821F00F01314312
:102DE0000160FFF7F3FC074607E000BFFFF7EEFCCA
:102DF000C11B514501D903207AE7D8F8000000F043
:102E00000F00B042F2D12878400705D5A068E968E4
:102E100020F4E0600843A0602878000706D5A06889
:102E2000296920F4605040EAC100A06000F052F827
:102E3000A1680C4AC1F30311515C01F01F01C840A5
:102E40000949086009480068BDE8F047FFF7DCBCA5
:102E5000002002400010024000B4C4040024F4002A
:102E6000005A6202D059000810000020040000201F
:102E70000F2202600C4A936803F0030343609368D7
:102E800003F0F0038360936803F4E063C360926827
:102E90004FF4E06303EAD20202610448006800F0E4
:102EA0000F00086070470000001002400020024040
:102EB0000548064900688968054AC1F30221515C4A
:102EC00001F01F01C84070471000002000100240B0
:102ED000E0590008184910B58868C0F38102174806
:102EE000012A0BD08A68164BC2F38102022A06D04F
:102EF0008A68C2F38102032A03D0002010BD18465D
:102F000010BDCA6802F00304CA68C2F30312521C5F
:102F1000032C02D0B0FBF2F001E0B3FBF2F0CA6880
:102F2000C968C2F306225043C1F34161491C4900FC
:102F3000B0FBF1F010BD0000001002400024F400CE
:102F4000005A62022DE9F84304007AD02078FA4D45
:102F5000C00747D0A868E96800F00C0001F0030141
:102F60000C2802D0082817D001E0032914D060688B
:102F7000B0F5803F17D0B0F5A02F286817D020F407
:102F800080302860286820F4802028606068E0B1E4
:102F9000FFF71CFC064614E02868800322D5606811
:102FA0000028D2D01EE0286840F48030EDE740F4DD
:102FB00080202860F7E700BFFFF708FC801B64282B
:102FC00070D828688003F7D50CE0FFF7FFFB0646B2
:102FD00005E000BFFFF7FAFB801B6428F0D82868E3
:102FE0008003F7D4207880074CD5A868E96800F002
:102FF0000C0001F003010C2802D004280DD001E0E0
:1030000002290AD0E068002828682BD040F480709C
:103010002860FFF7DBFB064619E02868400502D56B
:10302000E068002891D06868217C20F0FE4040EAEA
:1030300001606860C1480068FFF7E6FB002800D126
:1030400020E076E1FFF7C2FB801B0228B8D8286891
:103050004005F7D56868217C20F0FE4040EA016019
:1030600068600FE020F480702860FFF7AFFB064631
:1030700005E000BFFFF7AAFB801B0228A0D8286844
:103080004005F7D42078000729D560690028D5F8D5
:10309000940013D040F00100C5F89400FFF796FBB0
:1030A000064606E090E000BFFFF790FB801B022879
:1030B00086D8D5F894008007F6D510E020F00100FE
:1030C000C5F89400FFF782FB064604E0FFF77EFB9D
:1030D000801B022878D8D5F894008007F6D4207891
:1030E000400761D5A86D0026C00008D4A86D40F047
:1030F0008050A865A86D012600F08050009090488F
:103100000168C90511D40168804641F480710160ED
:10311000FFF75CFB074604E0FFF758FBC01B0228E3
:1031200052D8D8F80000C005F6D5A068012815D0FF
:103130000528D5F8900016D020F00100C5F89000C1
:10314000D5F8900020F00400C5F89000A06841F286
:103150008838B8B1FFF73AFB07460EE0D5F8900083
:1031600040F00100F0E740F00400C5F89000F5E7FA
:10317000FFF72CFBC11B414526D8D5F890008007EE
:10318000F6D50CE0FFF722FB074604E0FFF71EFB35
:10319000C11B414518D8D5F890008007F6D41EB160
:1031A000A86D20F08050A8652078800629D5A069F8
:1031B0000028D5F8980013D040F00100C5F8980019
:1031C000FFF704FB064606E077E000BFFFF7FEFAD4
:1031D000801B022877D8D5F898008007F6D510E034
:1031E00020F00100C5F89800FFF7F0FA064604E069
:1031F000FFF7ECFA801B022865D8D5F89800800705
:10320000F6D4E069F0B3A968C1F38101032961D064
:103210000228286820F0807028600BD0E86820F031
:103220000300E860E86847490840E860FFF7CEFA25
:1032300004464BE0FFF7CAFA064604E0FFF7C6FA79
:10324000801B02283FD828688001F7D4F4E90801E0
:103250006FF00F0202EB01110843218A5204490862
:1032600002EB4151A26841EA02210843217D4FF05F
:103270007E42490802EB41610843217B40EAC1607C
:10328000E96800E062E0304A11400843E8602868DD
:1032900040F080702860E86840F08070E860FFF7D8
:1032A00095FA044605E000BFFFF790FA001B0228DC
:1032B00009D828688001F7D548E004E0FFF786FACE
:1032C000001B022802D90320BDE8F883286880018A
:1032D000F4D43BE00128F7D0E868226A00F003014B
:1032E000914226D1616A00F0F00209011039914241
:1032F0001FD1A26A00F4FE41B1EB022F19D194F85C
:103300002C2000F07841B1EBC26F12D1218E00F475
:10331000C00249084905A1F50011914209D194F86C
:10332000341000F0C06049084906A1F100718142E3
:103330000CD00120C8E7000000100240040000206B
:1033400000700040FFFFEEFE0C809F010020BBE7F5
:103350007047000038B5016804464A688868C04371
:10336000430606D5C30704D1D3435B0601D4E16C01
:1033700005E0830708D4D3431B0605D4216D01B0B3
:103380002046BDE830400847830603D5430601D5F3
:10339000C30551D4D3439B064ED443060AD494F8B4
:1033A0005D30032B49D0236E43F004032366CB68C2
:1033B0008B680093830609D4236E43F001032366D0
:1033C0008B6800930B6823F040030B60C00506D4A4
:1033D000206E40F008002066206880680090206E13
:1033E000002829D02068416821F0E00141600120D7
:1033F00084F85D00900701D4D00722D0206841688E
:1034000021F003014160114DA06D40B18563A06DB5
:10341000FEF79EFD18B1206E40F040002066606D02
:10342000002809D08563606DFEF792FD002803D067
:10343000206E40F04000206638BDC8688868009063
:1034400038BD2046FFF784FF38BD000071500008EA
:1034500070B5040009D0606A002540B1256165613E
:10346000A56294F85D0040B10CE0012070BD606879
:10347000B0F5827FF4D0E561F2E784F85C50204635
:1034800000F05CF8022084F85D002068016821F0FB
:1034900040010160E1684FF4E062914201D90020EF
:1034A00001E04FF48050B1F5706F02D0914200D02E
:1034B000A562A188228901F4827102F404421143B9
:1034C000227C02F002021143227D02F0010211432C
:1034D000228B02F400721143227F02F03802114362
:1034E00094F8202002F080021143228D02F4005251
:1034F000114322681160A169042202EA114194F883
:10350000242000F4805002F01002114394F834207B
:1035100002F008021143A28902F4706211430143D0
:10352000206841602068C16921F40061C16125669D
:10353000012084F85D00002070BD0000F0B587B068
:10354000064614216846FCF721FF2D493068884261
:1035500054D12C48016E41F480510166016E01F492
:1035600080510591C16C41F00201C164C06C694693
:1035700000F0020005903820009002200190012008
:10358000029003200390052004901F48FFF728F8BD
:103590001F4D1E48002428600A20C5E90104802729
:1035A000C5E903476C61AC61EC6128462C62FEF70B
:1035B00069FD08B1FDF7FAFCB565AE62144D13481C
:1035C0006035143028600B20686005F10801102078
:1035D00081E891006C61AC61EC6128462C62FEF7D9
:1035E00051FD08B1FDF7E2FC75650022032123209F
:1035F000AE62FFF773F92320FFF762F907B0F0BD61
:10360000003001400010024000040048080402405D
:10361000D40100202DE9F0410446002680680423EF
:1036200018B96568B5F5827F0ED094F85C50012D0D
:1036300013D0012784F85C7094F85DC00025BCF1BC
:10364000010F0DD002268AE084F85D302046BDE8E7
:10365000F04113460A4600F0C1B90220BDE8F081EE
:1036600081B17AB184F85D3025662164A4F84420E4
:10367000A4F84620E5642565A587E587B0F5004FE9
:1036800002D00BE001266AE02068016821F04001C9
:1036900001602068016821F4804101602068416870
:1036A00021F400514160E068B0F5E06F20684168A6
:1036B00003D921F4805141601CE041F48051416004
:1036C000A06D8069B0F5806F14D12068416821F445
:1036D00080514160B4F84600C0072068416825D099
:1036E00041F400514160B4F8460007EB500000BFC0
:1036F000A4F84600A16D1C480863A16D1B48C86270
:10370000A16D1B484863A06D8563B4F846302168FD
:10371000226C0C31A06DFEF715FD70B1206E40F0EB
:1037200010002066012684F85D7018E021F4005135
:103730004160B4F846004008DAE7206801684906AD
:1037400003D4016841F0400101602068416841F004
:10375000200141602068416841F00101416084F826
:103760005C5030467AE70000A5500008C3500008BE
:1037700083500008704770472DE9F05F044690F8C9
:103780005C0000270A9E1D4692468B464FF00109B9
:1037900001280ED0012084F85C00FFF717F880465E
:1037A00094F85D00616801280CD0B1F5827F07D1E3
:1037B00002E00220BDE8F09FA16809B9042801D009
:1037C000022700E1BBF1000F24D0BAF1000F21D095
:1037D00005B394F85D00042802D0052084F85D004C
:1037E00000202066C4F840A0A4F84650A4F8445035
:1037F000C4F838B0E587A587E0642065E0684FF439
:10380000E061884201D8012D06D92068426822F47F
:10381000805205E00127D6E02068426842F48052D9
:10382000426020680268520603D4026842F04002F7
:103830000260E0688842606845D908B1012D3AD13C
:10384000A06B21680088C860A06B801CA063E08F1B
:10385000401EE0872FE02068816889070FD5E18F3F
:1038600069B1B9F1010F0AD1A16B0988C160A06BE0
:10387000801CA063E08F401EE0874FF000092068A5
:103880008168C9070FD0B4F8461061B1C068216CD7
:103890000880206C801C2064B4F84600401EA4F808
:1038A00046004FF00109FEF791FFA0EB0800B0427F
:1038B00001D3701C75D1E08F0028CCD1B4F846003C
:1038C0000028C8D176E008B1012D6CD1E08F012825
:1038D000A06B08D921680088C860A06B801CA06319
:1038E000E08F801E07E0216800780873A06B401C01
:1038F000A063E08F401EE08755E02068816889075B
:103900001AD5E18FC1B1B9F1010F15D1E18F0129AC
:10391000A16B07D90988C160A06B801CA063E08FF0
:10392000801E06E009780173A06B401CA063E08F45
:10393000401EE0874FF0000920688168C90728D041
:10394000B4F8461029B3B4F84610012914D9C06858
:10395000216C0880206C801C2064B4F84600801E16
:10396000A4F84600B4F84600012810D82068416841
:1039700041F4805141600AE0007B216C0870206CAA
:10398000401C2064B4F84600401EA4F846004FF0E6
:103990000109FEF71BFFA0EB0800B04202D3701C28
:1039A00001D018E0BEB1E08F0028A6D1B4F84600DF
:1039B0000028A2D142463146204601F052FC10B107
:1039C000012720202066012084F85D00002084F873
:1039D0005C003846EEE60327F5E700002DE9F041EC
:1039E000044690F85C00002601280DD0012784F8D9
:1039F0005C7094F85D000025D4F804C001280FD055
:103A0000BCF5827F0AD102E00220BDE8F081D4F843
:103A100008C0BCF1000F01D1042801D00226ADE09E
:103A200011B30AB303B394F85D00042802D0052053
:103A300084F85D002566A163A387E3872264A4F868
:103A40004430A4F84630E56425652068416821F4D7
:103A5000C0414160E068B0F5E06F2068416805D979
:103A600021F4805141602FE0012687E041F480512C
:103A70004160606D4FF48061806988420CD194F898
:103A80003C00C0072068426837D042F48042426060
:103A9000E08F07EB5000E087A06D8069884213D16A
:103AA0002068416821F480514160B4F84600C007A5
:103AB0002068416827D041F400514160B4F84600C5
:103AC00007EB5000A4F8460094F85D00042821D0CC
:103AD000A16D2C4808632C48A16DC862A16D2B48CC
:103AE0004863A06D8563B4F846302168226C0C31C0
:103AF000A06DFEF727FB38BB11E022F48042426044
:103B0000E08F4008C7E721F400514160B4F8460057
:103B10004008D7E7A16D1E4808631E48DCE720680F
:103B2000416841F001014160606D0563606DC562EF
:103B3000606D4563606D8563E38F2268A16B0C3215
:103B4000606DFEF7FFFA38B1206E40F0100020667D
:103B5000012684F85D7011E020680168490603D4ED
:103B6000016841F0400101602068416841F0200196
:103B700041602068416841F00201416084F85C5076
:103B8000304642E7B95000089351000883500008BE
:103B9000A5500008C35000082DE9F041044690F8F4
:103BA0005C000026012809D0012784F85C7094F895
:103BB0005D000025012804D0022670E00220BDE847
:103BC000F08199B192B1032084F85D002566A1636C
:103BD000A287E28725642565E564A4F84450A4F82B
:103BE0004650A068B0F5004F02D00BE0012656E029
:103BF0002068016821F0400101602068016841F4FB
:103C000080410160616D28480863616D2748C86282
:103C1000616D27484863606D85632068416821F4C1
:103C200080414160E068B0F5E06F10D8606D806958
:103C3000B0F5806F0BD1E08FC0072068416816D0C7
:103C400041F480414160E08F07EB5000E087E38F53
:103C50002268A16B0C32606DFEF774FA68B1206EB9
:103C600040F010002066012684F85D7017E021F412
:103C700080414160E08F4008E8E72068016849061C
:103C800003D4016841F0400101602068416841F0BF
:103C9000200141602068416841F00201416084F8E0
:103CA0005C5030468BE70000AF5000082F510008F1
:103CB00083500008704770477047704770477047DF
:103CC00070470000F0B590F83C20012A4AD001224C
:103CD00080F83C20CA688B6822F440721A434B6813
:103CE00022F480621A430B6822F400621A430B69C3
:103CF00022F480521A434B6922F400521A430B6B90
:103D000022F480421A430B8B22F4702242EA0342CF
:103D1000154C03680026154DA34201D0AB4203D1D8
:103D2000CF6922F080523A43A34201D0AB4214D172
:103D30000F8D22F4700242EA07520F6A22F080725D
:103D40003A434F6A22F000723A43A34201D0AB4299
:103D500003D1C96A22F000520A435A6480F83C60D9
:103D60000020F0BD0220F0BD002C014000340140D5
:103D700070470068416D41F4003141650020704793
:103D800070477047F0B590F83C20012A3AD00125E1
:103D900080F83C50022280F83D2003685A689C68F5
:103DA000194E1A4FB34201D0BB4204D122F4700C19
:103DB0004A6842EA0C02DFF858C002EA0C02D1F865
:103DC00000C04CEA020CC3F804C00268B2420DD035
:103DD000B2F1804F0AD00F4B9A4207D00E4B9A4255
:103DE00004D0BA4202D00D4B9A4204D1896824F023
:103DF00080031943916080F83D50002180F83C1009
:103E00000846F0BD0220F0BD002C01400034014006
:103E10008FFFFFFD0004004000080040004001400B
:103E200010B50446022249B104290ED0082913D046
:103E300094F84700012816D0012010BD94F84400E2
:103E40000128F9D184F844200FE094F845000128B6
:103E5000F2D184F8452008E094F846000128EBD11F
:103E600084F8462001E084F847200422206801F00D
:103E7000A0FB2068416C41F4004141641049206876
:103E800088420ED0B0F1804F0BD00E49884208D046
:103E90000D49884205D00D49884202D00C4988421C
:103EA00007D181680B4A1140062906D0B1F5803F41
:103EB00003D0016841F001010160002010BD000045
:103EC000002C014000040040000800400034014084
:103ED0000040014007000100704710B5040003D006
:103EE00094F83D0010B107E0012010BD002084F8D7
:103EF0003C00204600F022F8022084F83D00211DFD
:103F0000206801F0F1FA012084F8480084F83E00AE
:103F100084F83F0084F8400084F8410084F84200AF
:103F200084F8430084F8440084F8450084F846008F
:103F300084F8470084F83D00002010BD08B5154AFC
:103F40000168154891420ED1016E41F4006101668D
:103F5000006E002200F40060009001211920FEF79D
:103F6000BDFC192010E00D4A914211D1816D41F044
:103F700002018165806D002200F0020000900221A4
:103F80001D20FEF7ABFC1D20BDE80840FEF798BCE5
:103F900008BD0000002C0140001002400004004059
:103FA00090F83D10012901D001207047022180F8CE
:103FB0003D100168CA6842F00102CA6000681049F9
:103FC00088420ED0B0F1804F0BD00E49884208D005
:103FD0000D49884205D00D49884202D00C498842DB
:103FE00007D181680B4A1140062906D0B1F5803F00
:103FF00003D0016841F0010101600020704700001A
:10400000002C014000040040000800400034014042
:10401000004001400700010070B5044690F83C00E4
:10402000012814D0012584F83C50022084F83D007A
:1040300022689068344B184020F47F4090600868F4
:10404000702827D010DC10F00F0F03D04AE04FF09B
:10405000020070BD4FEA2012072A43D2DFE802F0C7
:104060005050505048313900284BC21A984247D01E
:1040700009DCB0F5805F35D0B0F5005F15D0B0F148
:10408000101F2FD13CE0102A3AD0202A38D0502AD5
:1040900028D135E0CB68D1E90121206801F096FAFA
:1040A0002068816841F0770109E0CB68D1E90121FE
:1040B000206801F08BFA2068816841F480418160BA
:1040C00010E0CA684968206801F02AFC5021206885
:1040D00006E0CA684968206801F033FC6021206866
:1040E00001F07EFA84F83D50002084F83C0070BD59
:1040F000CA684968206801F013FC40212068EFE796
:10410000226801461046EBE788FFCEFF2000100032
:10411000704770B50446006801694FF00005C94357
:10412000890715D4C168C943890711D4E91E016103
:1041300001202077206880698007204602D0FFF7A1
:10414000E7FF04E000F036F9204600F0F5F92577A6
:1041500020680169C943490717D4C168C9434907A1
:1041600013D46FF004010161022020772068806978
:1041700010F4407F204602D0FFF7CAFF04E000F0B1
:1041800019F9204600F0D8F9257720680169C9435C
:10419000090716D4C168C943090712D46FF0080192
:1041A0000161042020772068C0698007204602D082
:1041B000FFF7AEFF04E000F0FDF8204600F0BCF988
:1041C000257720680169C943C90617D4C168C94366
:1041D000C90613D46FF01001016108202077206810
:1041E000C06910F4407F204602D0FFF791FF04E041
:1041F00000F0E0F8204600F09FF92577206801697B
:10420000C943C90708D1C168C943C90704D1891E78
:104210000161204600F0A2FA20680169C94309063D
:1042200009D4C168C943090605D46FF08001016152
:104230002046FFF744FD20680169C943C90509D438
:10424000C168C943090605D46FF480710161204635
:10425000FFF734FD20680169C943490609D4C168E4
:10426000C943490605D46FF040010161204600F0C2
:10427000B1FA20680169C943890609D4C168C943F4
:10428000890605D46FF0200101612046FFF718FD73
:1042900020680169C943C90209D4C168C943C90278
:1042A00005D46FF4801101612046FFF769FD206895
:1042B0000169C943890209D4C168C943890205D487
:1042C0006FF4001101612046FFF752FD206801697B
:1042D000C943490209D4C168C943490205D46FF4EE
:1042E000800101612046FFF74CFD20680169C94348
:1042F00009020BD4C168C943090207D46FF4000155
:1043000001612046BDE87040FFF7E6BD70BD0000CA
:104310002DE9F04186B0044614216846FCF736F8D2
:104320002049206888423AD11F48C16C41F02001E1
:10433000C164C16C01F020010591C16C41F0010123
:10434000C164C16C01F001010591C16C41F0020131
:10435000C164C06C4FF0010800F002000627CDF8E0
:104360000080CDE9047001AA02240025032682E81A
:10437000700069460D48FEF733F94FF4F0608DE8A0
:10438000F10069464FF09040FEF72AF901AACDF8F6
:10439000008082E8F00069460548FEF721F906B082
:1043A000BDE8F081002C01400010024000140048DC
:1043B00000040048704770B5044690F83C000D4674
:1043C00001280BD0012084F83C000C2A45D007DCE2
:1043D0005AB1042A1BD0082A78D12CE0022070BDE3
:1043E000102A4ED0142A71D15DE0206801F002F944
:1043F0002068816941F0080181612068816921F0AC
:1044000004018161206881692A69114311E02068F3
:1044100001F03EF92068816941F400618161206802
:10442000816921F480618161206881692A6941EA9A
:10443000022181614AE0206801F072F92068C169B7
:1044400041F00801C1612068C16921F00401C16126
:104450002068C1692A69114311E0206801F0A8F9B8
:104460002068C16941F40061C1612068C16921F41B
:104470008061C1612068C1692A6941EA0221C16184
:1044800024E0206801F0DCF92068016D41F00801AA
:1044900001652068016D21F0040101652068016D4E
:1044A0002A69114311E0206801F002FA2068016DC9
:1044B00041F4006101652068016D21F480610165AE
:1044C0002068016D2A6941EA02210165002084F813
:1044D0003C0070BD10B5040003D094F83D0010B14D
:1044E00007E0012010BD002084F83C00204600F0C9
:1044F00022F8022084F83D00211D206800F0F4FF1E
:10450000012084F8480084F83E0084F83F0084F8D5
:10451000400084F8410084F8420084F8430084F8A5
:10452000440084F8450084F8460084F8470084F885
:104530003D00002010BD70477047000030B50446B4
:10454000022269B1042912D0082917D00C291CD0E5
:10455000102921D094F84300012824D0012030BD37
:1045600094F83E000128F9D184F83E201DE094F82B
:104570003F000128F2D184F83F2016E094F8400073
:104580000128EBD184F840200FE094F84100012885
:10459000E4D184F8412008E094F842000128DDD1FC
:1045A00084F8422001E084F843200122206800F0D2
:1045B000F3FF194B20681949194A984209D08842DB
:1045C00007D0904205D0174DA84202D0164DA84200
:1045D00003D1456C45F400454564206898420CD0F1
:1045E000B0F1804F09D0114B984206D0104B984241
:1045F00003D0884201D0904207D181680D4A114012
:10460000062906D0B1F5803F03D0016841F00101D1
:104610000160002030BD0000002C0140003401404A
:1046200000400140004401400048014000040040B7
:10463000000800400700010030B50446022269B1BD
:10464000042916D0082920D00C2929D010292ED0D1
:1046500094F84300012831D0012030BD94F83E0089
:104660000128F9D184F83E202068C26842F0020295
:1046700009E094F83F000128EED184F83F2020683B
:10468000C26842F00402C2601CE094F840000128B5
:10469000E2D184F840202068C26842F00802F2E7C4
:1046A00094F841000128D7D184F8412008E094F81B
:1046B00042000128D0D184F8422003E084F843204E
:1046C0000C2935D00122206800F066FF1B492068C4
:1046D0001B4A1C4B884209D0904207D0984205D013
:1046E000194DA84202D0194DA84203D1456C45F49A
:1046F00000454564206888420CD0B0F1804F09D055
:104700001349884206D01349884203D0904201D011
:10471000984207D18168104A1140062906D0B1F5A8
:10472000803F03D0016841F001010160002030BDED
:104730002068C26842F01002A5E70000002C01408A
:104740000034014000400140004401400048014065
:1047500000040040000800400700010010B50446B6
:104760000068174988420AD116480068006810F0AE
:10477000100F1BD0FCF7D6FEFCF7F6FC16E0124932
:10478000884213D1FCF778FDFCF712FC0F4A118820
:10479000481C1080B1F5FA6F08D30D490020108035
:1047A0004A898A8148810A68C1E900022068B0F11B
:1047B000804F03D1BDE81040FEF70EB810BD0000D9
:1047C000002C014094020020000400400000002062
:1047D000780300207047FEE770B50C462DED048B82
:1047E000F0EE419AF0EE408A0546B0EE608AB0EEF7
:1047F000690AFBF70DFD20EE289AB0EE690AFBF777
:1048000043FD08EE409AB0EE690A85ED009AFBF789
:104810003BFD60EE288AB0EE690AFBF7F9FC48EE32
:10482000008AC4ED008ABDEC048B70BD00EB8100F2
:10483000006E00F0F84070478068C0F3C000704719
:104840008068C0F3800070478068C0F380007047C4
:10485000C06810F4406F01D00020704701207047FD
:10486000042303EAD15310B518444369C1F304513A
:1048700007248C40A3438A401343436110BD00EBDF
:104880008100016E21F00041114301667047000074
:1048900070B58CB0002408940994202168460A94CD
:1048A000FBF774FD3B484FF0A041042501604FF435
:1048B0004031C0E9011485610121C460C0E90441AF
:1048C000047744770626066280F82440C4620463B5
:1048D00080F83840C46380F84040FDF703F908B120
:1048E000FCF764FB08A92B480894FCF76FFE08B19D
:1048F000FCF75CFB2848CDE900067F20CDE90240AB
:1049000004956420CDE9050469462248FCF7C8FEF9
:1049100008B1FCF74BFB214800900C2001900520CA
:10492000059069461B48FCF7BBFE08B1FCF73EFB4F
:104930001B4800901220019069461648FCF7B0FE13
:1049400008B1FCF733FB1748009018200190694626
:1049500005941048FCF7A4FE08B1FCF727FB1248A9
:1049600000904FF48070019069460A48FCF798FE69
:1049700008B1FCF71BFB0D4800904FF483700190C9
:1049800069460448FCF78CFE002801D0FCF70EFBBA
:104990000CB070BD400000201000C01002003004B8
:1049A000040060080800900C000021C3000084CBC4
:1049B000194808B5816C41F004018164816C01F0F3
:1049C00004010091816C41F001018164816C01F06E
:1049D00001010091816C41F002018164806C002230
:1049E00000F00200009011460B20FDF777FF0B202E
:1049F000FDF766FF002211463820FDF76FFF3820D3
:104A0000FDF75EFF002211463920FDF767FFBDE884
:104A100008403920FDF754BF00100240114810B57E
:104A20000F490160002141608160C16001744174DF
:104A30008174012202234261C0E90623C0E90832E1
:104A40008262C262C0E90C218163C163FDF786FC0A
:104A5000002803D0BDE81040FCF7A8BA10BD000044
:104A6000006400400C0100202DE9F04387B01421C0
:104A70006846FBF78BFC2848C16C41F02001C164FB
:104A8000C16C01F020010591C16C41F00101C164CC
:104A9000C16C01F001010591C16C41F00201C164DA
:104AA000C06C4FF0904800F002000590002248F2E0
:104AB00030014046FDF785FEDFF86090002240217E
:104AC0004846FDF77EFE3020009001250024CDE908
:104AD0000154694640460394FDF782FD4026CDE926
:104AE0000064694640460294FDF77AFDE803CDE98B
:104AF00000050327CDE9025769464046FDF770FDE2
:104B000003970096CDE9015469464846FDF768FDD4
:104B100007B0BDE8F0830000001002400004004828
:104B2000124810B5104901604FF4827141600021B4
:104B30004FF4E062C0E902120222026101224261E6
:104B4000520282611822C0E9072107224162C0E9AE
:104B50000A1201634163FEF77BFC002803D0BDE825
:104B60001040FCF723BA10BD003001407001002056
:104B700030B59BB0002419941A9417941894149487
:104B800015941C2168461694FBF700FC342107A8F5
:104B9000FBF7FCFB3F483E49C0E90014202181603F
:104BA00040F64751C0E9031444618461FFF795F969
:104BB00008B1FCF7FBF94FF4805517A93548179554
:104BC000FFF72AFA08B1FCF7F1F93248FFF782FC47
:104BD00008B1FCF7EBF97020CDE9140414A92D48B5
:104BE0001694FFF7CFF808B1FCF7E0F96020CDE9A3
:104BF000000404200294CDE9034005940022694694
:104C000024480694FFF7D7FB08B1FCF7CFF90194CD
:104C1000042269461F480494FFF7CDFB08B1FCF756
:104C2000C5F9082269461B480194FFF7C4FB08B187
:104C3000FCF7BCF901940C22694616480394FFF76F
:104C4000BAFB08B1FCF7B2F91248FFF792F84FF43B
:104C50000060079040100890801009907820CDE9FE
:104C60000A054FF40050CDE90C0400030E94CDE981
:104C70000F401194129407A906481394FFF722F8E5
:104C800008B1FCF793F90348FFF742FB1BB030BDB6
:104C9000002C01409402002010B588B0002419486F
:104CA0000094019402940394049405941449069486
:104CB00001601021C0E9011441F28731C1604FF455
:104CC0008071016180218161FFF707F908B1FCF76C
:104CD0006DF94FF48050009069460A48FFF79CF93F
:104CE00008B1FCF763F9049404A906480694FFF799
:104CF00049F8002801D0FCF759F908B010BD0000B0
:104D000000040040E002002090ED000A01290CD0D0
:104D1000022909D1D0ED020A90ED011AF0EE001A35
:104D200041EE610A30EE800A7047D0ED010A30EEA4
:104D3000600A7047FEE770472DE9F04704462DED05
:104D4000068B04F1500804F1200504F1780610F8F0
:104D5000381B814604F1840711B101297DD025E17A
:104D600094ED1A0AD4ED1B0A0121304630EE608A18
:104D700094ED1F0A84ED200A94ED1E0A84ED1F0AAB
:104D800084ED1E8A84ED268AFFF7BEFFB0EE409ABE
:104D900094ED220A012184ED230A94ED210A38467C
:104DA00084ED220A94ED1A0A84ED210AFFF7ACFF84
:104DB000F0EE409A02213846FFF7A6FFF0EE408A57
:104DC00094ED1C0A70EE080AC4ED1C0A94ED060A64
:104DD000F4EEC00AF1EE10FA06DCB1EE400AF4EE91
:104DE000C00AF1EE10FA01D284ED1C0A94ED040A17
:104DF000484620EE290AFCF72BFBF0EE409A94ED92
:104E0000050A404620EE280AFCF722FB39EE800A0C
:104E1000284684ED250AB0EE490AFCF719FBD4EDCB
:104E2000020A94ED1C1A60EE810A94ED011A41EE1B
:104E3000080A94ED031A41EE000A94ED250A30EEBB
:104E4000800A84ED1D0AD4ED070AB4EEE00AF1EE03
:104E500010FA08DCF1EE600A00E007E0B4EEE00AC8
:104E6000F1EE10FA01D2C4ED1D0A9FE094ED1A0A8A
:104E7000D4ED1B0A0121304630EE608A94ED1F0A02
:104E800084ED200A94ED1E0A84ED1F0A84ED1E8A2B
:104E900084ED268AFFF738FFF0EE408A0221304683
:104EA000FFF732FFF0EE409A94ED220A012184EDE3
:104EB000230A94ED210A384684ED220A94ED1A0A59
:104EC00084ED210AFFF720FFB0EE40AA0221384608
:104ED000FFF71AFFB0EE409A94ED010AB5EEC00A52
:104EE000F1EE10FA02D184ED1C8A07E0D4ED240A19
:104EF00080EE801A31EE080A84ED1C0AD4ED1C0AFB
:104F000094ED060AF4EEC00AF1EE10FA06DCB1EEFA
:104F1000400AF4EEC00AF1EE10FA01D284ED1C0A48
:104F200094ED040A484620EE0A0AFCF791FAB0EE26
:104F3000408A94ED050A404620EE090AFCF788FAFB
:104F400038EE000A284684ED250AB0EE690AFCF71F
:104F50007FFAD4ED020A94ED1C1A60EE810A94EDFA
:104F6000011A41EE280A94ED031A41EE000A94ED6D
:104F7000250A30EE800A84ED1D0AD4ED070AB4EE4E
:104F8000E00AF1EE10FA0BDCB0EE401AF1EE600A26
:104F9000B4EEE01AF1EE10FA02D3D4ED1D0A01E0EE
:104FA000C4ED1D0A30EEC00A84ED240A94ED1D0AFA
:104FB000BDEC068BBDE8F08790ED1D0A704710B57B
:104FC00004462DED028B221D00F8201BB0EE648AF2
:104FD00082EC070AF0EE448AB0EE630AFCF798FA16
:104FE00004F13800B0EE680AFCF792FAB0EE480A15
:104FF000BDEC028B04F15000BDE81040FCF788BA0C
:1050000080ED1B0A704780ED1A0A704770B50C4698
:105010002DED048BF0EE419AF0EE408A0546B0EE9D
:10502000608AB0EE690AFBF7F3F820EE289AB0EE3A
:10503000690AFBF729F908EE009AB0EE690A85EDD6
:10504000009AFBF7E5F820EE088AB0EE690AFBF754
:105050001BF908EEC08A84ED008ABDEC048B70BD9C
:10506000704700000148FEF775B90000700100208C
:1050700010B5806A0021A0F84610C187FEF768F9D4
:1050800010BD10B5806A01684A6822F003024A60C8
:10509000016E41F010010166012180F85D10FEF7FC
:1050A00057F910BD10B5806AFEF765FB10BD10B54D
:1050B000806AFEF700FE10BD10B5806AFEF7FDFDA8
:1050C00010BD70B50546846AFDF780FB024628686E
:1050D0000068800627D42068416821F020014160E3
:1050E000A06818B96068B0F5827F17D02068416861
:1050F00021F0010141606421204600F078F808B1F8
:10510000202020660020A4F84600012084F85D00DD
:10511000206E40B12046FEF71BF970BD2068416843
:1051200021F00301E6E72046FEF724FB70BD38B509
:105130000546846AFDF74AFB024628680068800637
:1051400023D42068416821F0200141602068416833
:1051500021F0020141606421204600F082F818B17C
:10516000206E40F020002066A068002118B9206859
:10517000C26880680090E187012084F85D00206E9D
:1051800018B12046FEF7E4F838BD2046FEF792FD40
:1051900038BD70B50546846AFDF718FB02462868DD
:1051A000006880061FD42068416821F0200141601A
:1051B0006421204600F055F818B1206E40F0200020
:1051C00020662068416821F0030141600020E087EB
:1051D000A4F84600012084F85D00206E18B1204636
:1051E000FEF7B6F870BD2046FEF766FD70BD2DE9EE
:1051F000F843044640684FF48276154689464FF4DA
:1052000000474FF48068B04209D1A068B84201D08D
:10521000404504D12068016821F0400101604B46FF
:10522000002280212046009500F0A4F880B9606833
:10523000B04214D1A068B84201D040450FD14B46CE
:1052400000224FF4C0612046009500F02FF830B1E5
:10525000206E40F0200020660320BDE8F883002087
:10526000FBE7F8B515460E460B46009204460022B1
:105270004FF4C05100F01AF888B93346002280215B
:105280002046009500F076F848B9334600224FF4E6
:10529000C0612046009500F009F8002804D0206E77
:1052A00040F0200020660320F8BD00002DE9F84FF3
:1052B000994617460E4604460A9DFDF787FA411B9C
:1052C000A9EB0105FDF782FA804629484FF4C06A30
:1052D0000068C0EBC00000EB8000000D6843009048
:1052E0003FE0564501D107B9007BB9F1FF3F38D007
:1052F000FDF76CFAA0EB0800A84203D215B10098A4
:1053000060B32CE02068416821F0E00141606068F2
:10531000B0F5827F0BD1A068B0F5004F02D0B0F598
:10532000806F04D12068016821F040010160A06A0B
:10533000B0F5005F09D12068016821F400510160D7
:105340002068016841F400510160012084F85D008B
:10535000002084F85C000320BDE8F88F0025401E83
:105360000090206881683140B942BAD10020F3E74B
:10537000100000202DE9F8431E4691468846044659
:10538000089DFDF723FA401B351AFDF71FFA074663
:1053900025480068C0F3CB30684338E0701C37D034
:1053A000FDF714FAC01BA84203D215B1009860B3F0
:1053B0002CE02068416821F0E00141606068B0F5B0
:1053C000827F0BD1A068B0F5004F02D0B0F5806F9E
:1053D00004D12068016821F040010160A06AB0F5A5
:1053E000005F09D12068016821F400510160206844
:1053F000016841F400510160012084F85D00002043
:1054000084F85C000320BDE8F8830025401E00906E
:105410002068816838EA010004D000214945BDD1E7
:105420000020F0E70121F9E71000002070477047E5
:1054300000B5A5B038216846FAF7A8FF14211FA8C7
:10544000FAF7A4FF44210EA8FAF7A0FF0020FDF709
:1054500077FA0220C1010391402104910421CDE992
:10546000080100905521CDE90A1007900C900D908D
:105470006846FDF767FD0F201F9003202090002055
:1054800021902290239004211FA8FDF703FC4FF4E4
:1054900010400E904FF000701A9000011D900EA861
:1054A000FDF7B4FA25B000BD0548016841F470016C
:1054B000016003494FF000608039086070470000C8
:1054C00088ED00E00148FEF724BE000094020020B1
:1054D0000148FEF71EBE00002C0300200148FEF725
:1054E00018BE0000E00200202DE9F0430268234BC3
:1054F000234D244E244C4FF08049984207D0484514
:1055000005D0A84203D0B04201D0A04203D122F07E
:1055100070074A683A431D4FDFF874C0DFF87480A3
:1055200098420DD048450BD0A84209D0B04207D0D0
:10553000A04205D0B84203D0604501D0404503D118
:1055400022F44075CA682A434D6922F080022A433A
:1055500002608A68C2620A688262984207D0A042EA
:1055600005D0B84203D0604501D0404501D109695A
:10557000016301214161BDE8F0830000002C01407E
:105580000004004000080040003401400040014099
:10559000004401400048014010B501F01F03012103
:1055A000046A99408C430462016A9A401143016283
:1055B00010BD10B501F01F030421046A99408C430B
:1055C0000462016A9A401143016210BD10B58468FB
:1055D00042EA032224F47F440A432243826010BD3E
:1055E0008268034B1A400A4342F00701816070470A
:1055F0008FFFCFFF2DE9F043026A22F00102026221
:10560000056A436882691C4C25F0020522400C683B
:1056100022F0030214438A68194E2A43174D194F8A
:10562000DFF864C0DFF86490A84207D0B04205D02C
:10563000B84203D0604501D0484506D122F00808A1
:10564000CA6842EA080222F00402A84207D0B04227
:1056500005D0B84203D0604501D0484505D14D6919
:1056600023F440731D438B692B4343608461496875
:1056700041630262BDE8F0838FFFFEFF002C014012
:105680000034014000400140004401400048014016
:10569000F0B5026A22F010020262056A426883696C
:1056A000194C1B4E23400C6823F4407343EA042436
:1056B00025F020038D6843EA0513144DA84201D05C
:1056C000B04206D1CF6823F0800343EA071323F0EA
:1056D0004003A8420AD0B04208D00E4DA84205D0DF
:1056E0000D4DA84202D00D4DA84207D14D6922F4BC
:1056F000406242EA85028D6942EA85024260846125
:10570000496881630362F0BDFF8FFFFE002C0140FA
:105710000034014000400140004401400048014085
:10572000F0B5026A22F480720262056A4368C269B7
:10573000194C1B4E22400C6822F00302144325F43E
:1057400000728D6842EA0522144DA84201D0B04291
:1057500006D1CF6822F4006242EA072222F4806276
:10576000A8420AD0B04208D00E4DA84205D00E4D36
:10577000A84202D00D4DA84207D14D6923F44053F1
:1057800043EA05138D6943EA05134360C461496820
:10579000C1630262F0BD00008FFFFEFF002C0140DC
:1057A00000340140004001400044014000480140F5
:1057B000F0B5026A22F480520262056A4268C36947
:1057C000194C1B4E23400C6823F4407343EA042415
:1057D00025F400538D6843EA0533144DA84201D0E7
:1057E000B04206D1CF6823F4004343EA073323F4E1
:1057F0008043A8420AD0B04208D00E4DA84205D03E
:105800000D4DA84202D00D4DA84207D14D6922F49A
:10581000404242EA85128D6942EA85124260C461C3
:10582000496801640362F0BDFF8FFFFE002C014058
:105830000034014000400140004401400048014064
:1058400030B5026A22F480320262046A4268036D53
:10585000114D2B400D681D4324F400330C8943EA9D
:1058600004430E4CA0420BD00D4CA04208D00D4C6E
:10587000A04205D00C4CA04202D00C4CA04204D156
:105880004C6922F4803242EA04224260056549688C
:105890008164036230BD00008FFFFEFF002C0140D9
:1058A00000340140004001400044014000480140F4
:1058B00030B5026A22F480120262046A4268036D03
:1058C000114D24F400142B400D6843EA05230D8983
:1058D00044EA05540D4DA8420BD00D4DA84208D006
:1058E0000C4DA84205D00C4DA84202D00B4DA84249
:1058F00004D14D6922F4802242EA85224260036588
:105900004968C164046230BDFF8FFFFE002C014076
:105910000034014000400140004401400048014083
:1059200010B5036A046A24F001040462846924F057
:10593000F00444EA021423F00A020A43846102627A
:1059400010BD10B5036A23F0100303628369046A73
:1059500023F4704343EA023224F0A00343EA011126
:105960008261016210BDFEE70907090E002804DB11
:1059700000F1E02080F80014704700F00F0000F103
:10598000E02080F8141D704702E008C8121F08C10B
:10599000002AFAD170477047002001E001C1121FB0
:1059A000002AFBD17047FCF71FFFFFF741FDFFF70F
:1059B0005BF8FEF7FDFFFFF7DBF8FEF769FFFFF787
:1059C0002DF8FFF7ADF8FFF767F9FBF779FBFEE776
:1059D000000000000000000001020304060708099F
:1059E000000000000102030400000000920E493C88
:1059F000B10AC93C2BC3163D2EFB483D752B7B3DA0
:105A000004A9963D80B6AF3D36BDC83D2FBCE13DF3
:105A100073B2FA3D87CF093E8340163EB5AB223EB6
:105A2000A2102F3ECF6E3B3EC2C5473E0115543EED
:105A3000135C603E7F9A6C3ECCCF783EC07D823E48
:105A4000938E883E229A8E3E32A0943E86A09A3E45
:105A5000E59AA03E128FA63ED47CAC3EEF63B23EE8
:105A60002A44B83E491DBE3E15EFC33E53B9C93E58
:105A7000CA7BCF3E4136D53E80E8DA3E4F92E03ECB
:105A80007533E63EBBCBEB3EEA5AF13ECBE0F63E49
:105A9000275DFC3EE4E7003F3D9C033F824B063F11
:105AA0009BF5083F6B9A0B3FDA390E3FCDD3103F81
:105AB0002A68133FD9F6153FC07F183FC6021B3F27
:105AC000D17F1D3FCBF61F3F9967223F25D2243F50
:105AD0005636273F1594293F4AEB2B3FDE3B2E3F9E
