:020000040800F2
:10000000680F0020ED010008476100083B5B000815
:10001000396100084D0C00086F6C000800000000FA
:10002000000000000000000000000000B9660008A9
:10003000FD10000800000000B56400083B670008E0
:10004000070200080702000807020008070200086C
:10005000070200080702000807020008070200085C
:10006000070200080702000807020008850E0008C2
:10007000070200080702000807020008070200083C
:10008000070200080000000001090008070200083C
:10009000070200083D1600080702000807020008D2
:1000A000B5670008C16700080702000807020008DA
:1000B000CD670008D967000807020008070200089A
:1000C000070200080702000807020008B9640008D8
:1000D00007020008070200080702000807020008DC
:1000E00007020008070200080702000807020008CC
:1000F00007020008070200080702000800000000CD
:1001000000000000070200080000000007020008CD
:1001100007020008000000000702000807020008AC
:10012000910E00089D0E0008070200080702000853
:10013000070200080000000000000000070200089D
:10014000070200080702000800000000000000008D
:10015000000000000000000000000000000000009F
:10016000000000000000000000000000070200087E
:10017000070200080000000000000000000000006E
:10018000000000000702000800000000000000005E
:10019000000000000000000000000000000000005F
:1001A000000000000000000007020008070200082D
:1001B000070200080702000807020008000000000C
:1001C000000000000702000800000000000000001E
:1001D0000702000807020008DFF80CD000F07EFBE1
:1001E00000480047556D0008680F0020064880470A
:1001F00006480047FEE7FEE7FEE7FEE7FEE7FEE70C
:10020000FEE7FEE7FEE7FEE799670008D901000870
:100210009FED1A1AF5EE000A40EE010ABDEEE00A63
:10022000F5EEC00A10EE100AF1EE10FA38BF401ECB
:1002300000EE100A1349F7EE001AB8EEC00A30EECD
:10024000C00ADFED0F0A20EE200AFCEEC00A10EE15
:10025000900AC0F3080000EE900A01EB8000F8EE6F
:10026000600A90ED011A70EE600A90ED000A71EEDE
:10027000E01A21EE800A00EE810A704783F9223EDF
:1002800000000044A86E0008B5EEC00AF1EE10FAB6
:1002900007D2DFED1E0AB4EEE00AF1EE10FAA8BFB5
:1002A0007047DFED1B0AB5EEC00A60EE200ABDEE16
:1002B000E01A11EE100AF1EE10FA38BF401E00EEFF
:1002C000100A1549F7EE001AB8EEC00A30EEC00A5F
:1002D000DFED100A60EE200ABCEEE00A10EE100A14
:1002E000C0F3080000EE100A01EB8000B8EE400AEF
:1002F00090ED011A70EEC00A90ED000A71EEE01A5E
:1003000021EE800A00EE810A70470000CD024CB455
:1003100083F9223E00000044A86E00082DE9F05F3A
:100320000546002092469B46884606468146402464
:100330001BE0284641464746224600F018FA53463D
:100340005A46C01A914110D311461846224600F071
:10035000FFF92D1A67EB01084F46224601200021C4
:1003600000F0F6F917EB00094E41201EA4F101043C
:10037000DFDC484631462A464346BDE8F09F40EA66
:1003800001039B0703D009E008C9121F08C0042A13
:10039000FAD203E011F8013B00F8013B521EF9D2FA
:1003A0007047D2B201E000F8012B491EFBD2704722
:1003B0000022F6E710B513460A4604461946FFF731
:1003C000F0FF204610BD2DE9FE4F804681EA030074
:1003D000C00F0C46009021F0004123F00045B8EB1F
:1003E0000200A94105D24046214690461C460B46D4
:1003F000024623F00040104347D0270DC7F30A0000
:10040000C3F30A510290401A019040286BDAC3F3FB
:10041000130040F4801B0098924620B10023D2EBD9
:10042000030A63EB0B0B01985946C0F1400250469A
:1004300000F08EF906460D4650465946019A00F0E6
:10044000A6F910EB08006141002487EA115284EA02
:10045000E7731A4340D0009A62B3019A012A4FEA27
:10046000075215DC001B61EB02014FF0004202EA6B
:100470000752CDE90042001C41F5801132462B465F
:1004800000F0DDF903B0BDE8F08F40462146F9E702
:10049000001B61EB0201001C41F5801300185B4159
:1004A0002018A2F5001747EB030140EAD570B619F2
:1004B0006D4111E06D084FEA360645EAC0754FEA16
:1004C0000752001B61EB0201001C41F58011490835
:1004D0004FEA30000019514132462B4603B0BDE8C7
:1004E000F04F00F09DB90098012240000023D0EBAE
:1004F000020263EBE073009821464FEAE074B8EB28
:10050000000061EB0401E9E783F000435BE781F061
:10051000004158E72DE9FE4F81EA030404F000444E
:1005200021F0004100944FF0000B23F0004350EA0B
:1005300001045ED052EA03045BD0C3F30A54C1F352
:100540000A552C44A4F2F3340194A0FB0254C1F3E5
:10055000130141F48011C3F3130343F4801301FB2F
:10056000024400FB034E840A970A44EA815447EA96
:100570008357A4FB076802958D0A05FB07854FEAA0
:10058000932C04FB0C542705029D4FEA065847EABA
:100590001637B5EB08056EEB070C870E920E47EA8F
:1005A000811742EA8312A7FB0201B6EB0B0164EB51
:1005B00000042B0D43EA0C335E1844EB1C50DA4662
:1005C0005146E7FB0201C5F313044FEA0B3343EA3C
:1005D00014534FEA0432019C43EA0603A4F10C04CD
:1005E0000294009CCDE900B400F029F903B0BDE805
:1005F000F08F00200146F9E72DE9F04D81EA030470
:1006000004F0004B21F0004514464FF0000A23F09F
:10061000004150EA050220D054EA01021DD0C5F382
:100620000A570246C5F31303C1F31300C1F30A5678
:1006300040F4801543F48013A7EB0608101BD64640
:1006400008F2FD3873EB050002D308F1010801E060
:1006500092185B41B8F1000F03DA00200146BDE8B3
:10066000F08D00204FF48011064684460EE0171BE3
:1006700073EB050705D3121B63EB050306434CEA36
:10068000010C49084FEA300092185B4150EA01071B
:10069000EDD152EA030012D082EA040083EA050198
:1006A000084305D0101BAB4106D20122002306E00F
:1006B00000224FF0004302E06FF0010253101AEBEA
:1006C00006004CEB085110EB0A0041EB0B01BDE8B2
:1006D000F04D00F0A5B830B404469623080021463A
:1006E00004D0B62330BC002200F06CB820460021B4
:1006F000F8E700F0004230F000400AD0C10D01F5EB
:100700006071C0F3160042EA0151C208400711436C
:10071000704700200146704701F0004330B421F0DB
:10072000004150EA010206D00A0DA2F56072C1F341
:100730001301002A02DC30BC00207047440F44EA59
:10074000C104C100E01830BC00EBC25000F031B869
:10075000202A04DB203A00FA02F100207047914081
:10076000C2F1200320FA03F3194390407047202A76
:1007700004DB203A21FA02F00021704721FA02F34B
:10078000D040C2F120029140084319467047202A08
:1007900006DBCB17203A41FA02F043EAE07306E0A9
:1007A00041FA02F3D040C2F12002914008431946B9
:1007B00070470029A8BF7047401C490008BF20F0BF
:1007C0000100704710B4B0FA80FC00FA0CF050EA57
:1007D000010404BF10BC704749B1CCF1200421FAD8
:1007E00004F411FA0CF118BF012121430843A3EBD3
:1007F0000C01CB1D4FEA00614FEA102042BF0020E0
:1008000010BC704700EBC35010440029A4BF10BCBB
:100810007047401C490008BF20F0010010BC704721
:1008200010B5141E73F1000408DA401C41F10001F8
:1008300092185B411A4301D120F0010010BD2DE94F
:10084000F04D92469B4611B1B1FA81F202E0B0FA46
:1008500080F220329046FFF77BFF04460F4640EAC5
:100860000A0041EA0B0153465A46084313D0114689
:1008700053EA010019D0C8F140025046FFF777FF54
:1008800005460E46504659464246FFF761FF08436B
:1008900005D0012004E020463946BDE8F08D002057
:1008A000054346EAE0762C4337430A986305E40A99
:1008B000A0EB08000022FD0A44EA47540A3002D5A2
:1008C00000200146E9E7010510196941DDE9084505
:1008D00000196941BDE8F04DA2E70000064C074D44
:1008E00006E0E06840F0010394E807009847103400
:1008F000AC42F6D3FFF774FCAC760008CC76000867
:10090000014802F0E5B90000F800002010B5846A43
:10091000E16D11F0500F06D0E16DC90625D52046D6
:1009200002F0D4F910BDE06D40F40070E06520687D
:100930000168090716D505F05BF978B12068C06831
:10094000800400280ADBE06D20F48070E065E06D33
:10095000C00403D4E06D40F00100E065204602F0E1
:10096000B3F910BDC0688007EBE7616D496BBDE866
:100970001040084710B5806AC16D41F04001C16563
:10098000016E41F00401016602F0A0F910BD10B53E
:10099000806A02F09AF910BD70B50446006881685B
:1009A0008268C1F3400112F0010F28D039BB816881
:1009B00001F00D01012914D18168124A1140891CEE
:1009C000816021680320086003F0C6FA054612E042
:1009D00003F0C2FA401B02280DD920688068C007C6
:1009E00009D0E06D40F01000E065206E40F001009D
:1009F0002066012070BD20688068C007E8D1002013
:100A000070BD0000C0FFFF7FF8B5044600200090D5
:100A10002068816811F0010F41D18168214A11429B
:100A20002ED18168D5432940491C81601E488068C9
:100A300000F0E07000020DD51C481D490068B0FBB5
:100A4000F1F0401C00EB4000800000E0401E0090F0
:100A50000028FBD103F080FA06461BE0816811F004
:100A6000010F03D181682940491C816003F074FAA9
:100A7000801B02280ED920680068C043C00709D037
:100A8000E06D40F01000E065206E40F0010020664F
:100A90000120F8BD20680168C943C907DED10020E4
:100AA000F8BD00003F00008000030050F00000206F
:100AB000400D03009FED090A80ED000A80ED010A58
:100AC00080ED020A80ED030A80ED040A80ED050A3C
:100AD000B7EE000A80ED060A704700000000000033
:100AE00070B51748FFF7E6FF1548DFED160A144DFD
:100AF00090ED060A1448002420EE200AC03DA5F11E
:100B0000600680ED000A00BF05EB441106EB0410FF
:100B1000082205F0D3FD641C062CF5DB0B480068A9
:100B2000416841F0200141607F21084801F0AAFAA4
:100B3000064801F0B5FDBDE87040642002F012BD2A
:100B4000640900206740533AB4000020F8000020F8
:100B50002DE9F047174EDFF8608000248146371FEB
:100B6000A8F1180556F82410484601F081FD00EE62
:100B7000100AD7ED000A08EB0410B8EE400A20EE88
:100B8000200A05F0BBFD05EB8400641C80ED000A23
:100B9000032CE7DB094895ED000A80ED000A95ED8E
:100BA000010A80ED010A95ED020A80ED020ABDE816
:100BB000F0870000B80000204408002064090020ED
:100BC0002DE9F0411C4E1D4F032406F1240806F1C7
:100BD0000C0500BF36F81400D7ED000A00EE100A2D
:100BE00008EB0410B8EE400A20EE200A05F086FD5E
:100BF00005EB8400641C80ED000A062CEADB95ED11
:100C0000030AF2EE060A0E4820EE200ADFED0D0A76
:100C10009FED0D1A80ED030A95ED040A70EE600A4F
:100C2000B0EE000A00EE810A80ED040A95ED050A97
:100C300080ED050ABDE8F08120080020B400002006
:100C4000640900205C8F423F0000C843FEE70000BB
:100C50000EB59FED6F1A6F4860EE811AD0ED012A34
:100C6000B0EE081A20EE014A21EEA22A9FED6A1A80
:100C7000F5EEC00A71EE844A62EE013AB6EE002A41
:100C800022EE823A64EE832A71EEC44A62EE812A31
:100C900024EE833A23EE013AF1EE10FA01DD012051
:100CA00000E00020B4EEE14AF1EE10FA01DD01218E
:100CB00000E00021B8EE084A00EB410120EE044AB2
:100CC000B4EEE14AF1EE10FA01DD012000E000206F
:100CD00001EB80005149085CDFED4D1A4D49B6EE3D
:100CE000004A60EEA11AF0EE080AD1ED014A20EEAA
:100CF000200A24EE845A71EEC00A20EE854ADFED08
:100D0000460A31EE800A61EEA41A24EE604A0728F2
:100D100020EE050A61EEE01A20EE600A21D2DFE83B
:100D200000F02004090E11161B00F0EE440AB0EE8C
:100D3000630A1AE0F0EE430AB0EE620A15E0F0EE44
:100D4000630A12E0F0EE610AB0EE430A0DE0F0EE45
:100D5000400AB0EE440A08E0F0EE620AB0EE610A22
:100D600003E09FED2F0AF0EE400A2E4A70EE801A43
:100D700011EE901A914205DDC1EE212A60EEA20A21
:100D800020EE220AF5EE001A244931EE601A00EB3B
:100D900040000831014431EE401A6B4661EE211AE1
:100DA000CDED001AB0EE611A00EE821A8DED011A37
:100DB000F0EE410A40EE020ACDED020A087803EB9C
:100DC000800090ED000ABCEEC00A10EE100A82B25C
:100DD0004878897803EB800003EB810190ED000AED
:100DE000114BBCEEC00A10EE100A91ED000A1A6019
:100DF00080B2BCEEC00A10EE101A89B21B1D18603A
:100E00001B1D1960094B1A87588799870EBD000072
:100E1000D7B3DD3F0400002000D00446606E000818
:100E20000000000000D00446342C0140440400209F
:100E300010B50C4C9FED0A0A84ED010AB0EE080AC9
:100E400005F026FFD4ED010A20EE200A84ED020A07
:100E5000B7EE080A20EE800A84ED030A10BD0000F8
:100E6000ABAA2A3D0400002080ED000A30EEC10A42
:100E7000DFED030A20EE200A81ED000A7047000032
:100E80003ACD133F014802F069BA00006401002026
:100E9000014802F063BA00008C020020014802F011
:100EA0005DBA0000EC0200200D4902688A4201D2BE
:100EB0000C4901E00B492031D2B21423083AB2FBAD
:100EC000F3F2436C02F01F0223F003031944816420
:100ED00004498031C16401219140016570470000DF
:100EE00008040240000802400179074A02EB81022F
:100EF0004265054A4432491E826501F01F02012104
:100F00009140C16570470000FC08024030B5D0E94F
:100F100013456560446D14B1D0E91645656090F8DD
:100F2000444004F01F050124AC40056C6C6004686B
:100F300063608368102B036803D099600068C26007
:100F400030BD9A600068C16030BD10B54FF090446C
:100F500001222021204602F0FAFF642002F002FB69
:100F600001221021204602F0F2FF642002F0FAFA7A
:100F700020460022BDE81040102102F0E8BF00002A
:100F80000C4908B50A480A78002A0FD101220A70D4
:100F9000094A52680092026A009B9A4202D9C269C9
:100FA000521CC261009A02620020087008BD000055
:100FB000C8090020C8000020001000E00B480A4AC1
:100FC0004168D2ED050A4268521AF8EE601A01EE45
:100FD000102AB8EE411A61EE801AB4EEE11AF1EE71
:100FE00010FAF0D370470000C8090020001000E09C
:100FF00010B5084C00F038F807492068484361688C
:1010000001EB4102C2EBC11100EBC1002189084490
:10101000002110BDC809002040420F000F4A10B542
:101020000D49136843F0807313600D4B00225A6022
:101030001C6844F001041C600A4B58434FF47A7357
:101040000861B0FBF3F04861064B0869B0FBF3F0B0
:10105000C1E906020A6210BDC8090020FCED00E0EB
:10106000001000E040420F002DE9F8432248214CD7
:1010700040680090FFF784FFE269002500984FF078
:10108000FF332946E2FB0301C4E90A01D4F81080CA
:1010900007460E4642462B46FFF740F902460B46EE
:1010A0003146C446ACFB028605FB02660CFB0363BB
:1010B000B7EB080061EB0301226007460E460023F0
:1010C0006269FFF72BF902466060606900234243C2
:1010D000B81A66EB0501A269FFF720F92081D4E96F
:1010E000001001EB4102C2EBC11100EBC100E06056
:1010F000BDE8F883C8090020001000E07047000038
:101100007CB5002501950446018940682A4602F015
:101110001EFF0095042304F1480201A9206803F092
:1011200041FE21890122606802F011FF0449A1F10A
:10113000480000F009F80349C889401CC8817CBDFB
:10114000400A0020300400202DE9F0410F462DED2B
:10115000028B0446FFF74CFF05463888DFED3F1A47
:1011600040BA00B200EE100ADFED3D0A0E46B8EEBE
:10117000C00A3C4920EE210A60EE200AC4ED050AAF
:1011800094ED061A30EEC10A10EE100A84ED070A3B
:10119000884202DD30EE610A06E010EE100A3249A4
:1011A000884203D930EE210A84ED070AB5EEC00A61
:1011B0002E48F1EE10FA2E4A0AD211EE101A814290
:1011C00006D910EE901A914202DD208A401E0EE0F0
:1011D000B5EEC00AF1EE10FA0ADD11EE101A9142D6
:1011E00006DD10EE901A814202D9208A401C20822E
:1011F000206B05F083FA84ED0B0AE068B0EE408ABC
:10120000281A66F10001FFF766FA00EE100A9FED5A
:10121000191AE560C0EE010A9FED171A88EE010A5F
:101220009FED161A20EE011A81EE200A84ED0F0AB6
:10123000D4ED110A20EE200A84ED100A94ED050A7F
:1012400084ED060A606A05F059FA84ED080A208ADE
:101250006082BDEC028BBDE8F08100000000B44369
:101260000000803700003443000034C30000B4C2E3
:101270000000B4420024744900003443DA0F4940AE
:1012800090ED080AB0F910009FED041A00EE900AE4
:10129000F8EEE00A00EE810A704700000000B44357
:1012A00090ED0F0A704700002DE9FC4716460446F2
:1012B000DDE90B020F46DDF828900D99C4E9000224
:1012C000218184ED110A00252582984665829FEDD3
:1012D000980A84ED080A84ED0B0AA56384ED0F0AD1
:1012E00084ED100A84ED050A84ED060A84ED070AF0
:1012F00002F032FEE060C4E90C7638463146402206
:10130000C4E9098905F0DAF9D4E90901012205F0F7
:10131000D5F9A56401958DF804508DF80550218903
:101320000022606802F013FE6426009604F1480271
:101330000223914601A9206803F034FD218901228E
:10134000606802F004FE012002F00CF98DF80450F0
:101350008DF8055021890022606802F0F8FD0096A2
:1013600002234A4601A9206803F01CFD21890122BD
:10137000606802F0ECFD012002F0F4F88DF80450F2
:101380008DF8055021890022606802F0E0FD00968A
:1013900002234A4601A9206803F004FD21890122A5
:1013A000606802F0D4FD012002F0DCF8EA278DF835
:1013B00004704FF054088DF8058021890022606880
:1013C00002F0C5FD009602234A4601A9206803F0F9
:1013D000E9FC21890122606802F0B9FD012002F0D8
:1013E000C1F81C208DF804008DF8055021890022D9
:1013F000606802F0ACFD009602234A4601A920680D
:1014000003F0D0FC21890122606802F0A0FD0120D8
:1014100002F0A8F88DF804508DF8055021890022BB
:10142000606802F094FD009602234A4601A92068F4
:1014300003F0B8FC21890122606802F088FD0120D8
:1014400002F090F8019521890022606802F07FFD8A
:10145000009604234A4601A9206803F0A3FC2189D1
:101460000122606802F073FD012002F07BF88DF824
:1014700004708DF8058021890022606802F067FD04
:10148000009602234A4601A9206803F08BFC2189BB
:101490000122606802F05BFD012002F063F80D207C
:1014A0008DF804008DF8055021890022606802F053
:1014B0004EFD009602234A4601A9206803F072FC03
:1014C00021890122606802F042FD012002F04AF801
:1014D0008DF804508DF8055021890022606802F0D3
:1014E00036FD009602234A4601A9206803F05AFC03
:1014F00021890122606802F02AFD012002F032F801
:10150000019521890022606802F021FD00960423E4
:101510004A4601A9206803F045FC21890122606840
:1015200002F015FD012002F01DF8BDE8FC87000067
:10153000000000007047000070B5334C3349E07A7A
:101540004000E072607A40006072A07A4000A072B1
:10155000207B40002073607B40006073A07B4000D4
:10156000A07391ED030AD1ED040A01F1140020EEFD
:10157000000A00EEA00AB5EEC00AF1EE10FA04DB94
:10158000F1EEC00AC0ED000A03E09FED210A80EDF4
:10159000000A48691F490025884207DDE07A40F0CB
:1015A0000100E072FF2800D1E57070BD1A491B4AA6
:1015B000C868904207DD607A40F001006072FF2841
:1015C000F3D1657070BD164A904207DAA07A40F0F8
:1015D0000100A072FF28F5D1A57070BD08691149FE
:1015E000884207DD607B40F001006073FF28F4D182
:1015F000657170BD40214FF0904002F09BFC0028C7
:10160000F7D1E57170BD00001400002044040020F3
:101610000000000000007041640900200000D84173
:101620000000A841000096430121017041708170C3
:10163000C170017141718171C1717047014802F03F
:101640000EB90000C4010020F0B5D1E901650C69B4
:101650002C430D68C6B145F080452C43D1E90665A1
:10166000354391F820704E69406D46EA0766354370
:101670008E8903EBC30300EBC30045EA0645E0E8AF
:1016800002450023084C0AE044EA8544E6E7D61800
:10169000D55CD6F801601B1D45EA062520C0CD6843
:1016A000655D9D42F3D8F0BD7D6E0008704730B592
:1016B0000024039D0160B1F5006F03D34FF080411A
:1016C000416000E04460C0E90242C0E90443C0E96F
:1016D0000654046230BD000010B588B0002402201A
:1016E000CDE90240012004904FF4886005900194F8
:1016F00040F2FA70069001A9144801F0DAFF08B12F
:10170000FFF7D4FF0222002311461048009401F095
:10171000FEFF08B1FFF7CAFF0C4802F0CAFA08B191
:10172000FFF7C4FF00220121084801F02DFF08B196
:10173000FFF7BCFF00224FF40021044801F024FF12
:10174000002801D0FFF7B2FF08B010BDC40100208F
:1017500070B505468AB01E464FF400100C46431083
:101760000090314601A8FFF7A2FF242201A90548F5
:10177000FEF705FE224601A9284601F075FF0AB0D2
:1017800070BD0000800900207CB51B4C0D4640F266
:10179000435694F8642001281BD0022818D1042A4B
:1017A00002D0042084F86400E978286861F31F609F
:1017B00000EE100AB8EEC00A84ED090A694603205B
:1017C00000F020F83346052269460C48FFF7C0FFB9
:1017D0007CBD032A05D00A4804F0F8FD032084F8F4
:1017E0006400E978286861F31F6000EE100AB8EE23
:1017F000C00A84ED140AE1E744040020C40100207B
:101800008006002010B503281AD0042817D11848E4
:1018100002784378C47842EA430283789B0043EA23
:10182000C4031A43037942EA0312437942EA43129A
:101830008379C07942EA831242EAC010087010BD71
:101840000C4810F84C2F0A7042784A7082788A70DF
:10185000C278CA7010F82C2C0A7110F82B2C4A711F
:1018600010F82A2C8A7110F8290CC87110BD0000DC
:101870001400002044040020DFED0F0A4FF4B4717F
:1018800030EE200AF2EE0C0A20EE200ADFED0B0A01
:10189000BDEEC00A10EE100A90FBF1F201FB12003F
:1018A00000EE100AB8EEC00A80EE201A9FED040A7E
:1018B00021EE000A70470000000034430000B443EA
:1018C000DB0FC9401FB52C4800F018FB2B48FFF771
:1018D000ABFEAA20FFF7A2FB2A484FF400434FF0CB
:1018E000904227498DE80F009FED270A274B284A91
:1018F00028492948FFF7D8FCFFF7EEFEFFF7F0F87C
:10190000FFF723FB00F04CFAFFF792FA234803F0AD
:10191000F3FC224803F026FD0021204804F046F89D
:1019200004211E4804F042F808211C4804F03EF847
:1019300000211A4803F0BCFF0421184803F0B8FF47
:101940000821164803F0B4FF0021144803F00CFCF2
:101950000421124803F008FC0821104803F004FC9D
:101960000A2005F073FA05F00BFA04B00C48BDE844
:10197000104003F0F7BC00004404002014000020D5
:1019800028020020E00000200AD7233C540A00204F
:10199000640A0020440A0020F80900204C030020BB
:1019A0009803002010B5844C2DED028B94F8640050
:1019B000D8B9824890ED000ADFED810A60EE200A76
:1019C000C4ED160AD4ED170A9FED7E1A00EE810AC7
:1019D00010EE101A80ED000AB1F17E5F05DBF7EE24
:1019E000000A30EE600A80ED000A774890ED080AA0
:1019F000FFF742FF754884ED150A90ED000A9FED50
:101A0000741A6D4931EE400A103184ED000AD0EDB0
:101A1000010A71EE600AC4ED010AD0ED021A081F36
:101A200031EE611A84ED021AFFF71EFA624994ED55
:101A3000151A2031D4ED040A94ED030AA1F108002F
:101A400004F00EFD94F864009FED628AE8B35A48F2
:101A500094ED060A683004F0FDFC5748B0EE480AE1
:101A6000683004F0FAFC5448683004F06DFBD4EDA3
:101A70000A0A594830EE200A84ED0A0A94ED080A51
:101A800004F0E8FC94ED090A534804F0E6FC5248DF
:101A900004F05AFBD4ED0B0A30EE200A84ED0B0A59
:101AA000D4ED0B0A4D4910EE900A4D4A9FED4D0AB8
:101AB000884203D210EE900A90422BDA10EE900A80
:101AC000884229D3F0EE400A26E0FFE784ED0A8A37
:101AD000206EFEF70EFE41EC180BE06DFEF709FEDE
:101AE0009FED411B53EC112BFEF714FD53EC182B0B
:101AF000FEF782FD9FED3E1B53EC112BFEF763FCBE
:101B00009FED3D1B53EC112BFEF704FDFEF704FE89
:101B1000E062C5E7DFED3A0A3A49C4ED0B0A94EDFD
:101B20000A0A394A10EE100A9FED381A884203D289
:101B300010EE100A904206DA10EE100A884204D322
:101B4000B0EE410A01E09FED320A1B4884ED0A0A1B
:101B500094F8642000F134013030D2B194ED151ABC
:101B600004F000F8D4ED0D0A94ED0C0AFFF770F8BC
:101B7000114C143C2089A0F51C51103905D10020CE
:101B800020814021234802F0DAF9207A400703D06F
:101B900009E094ED161AE3E7FFF712F800F068FA8F
:101BA0006089401C60812089401C20812068401C85
:101BB0002060BDEC028B10BD440400200400002016
:101BC000DB0FC9403480373AF8090020640900204F
:101BD000E17AD43F00000000480500209A99D9C05E
:101BE0009A99D9409A99D9C09A9999999999D93F2E
:101BF000333333333333E33F000000A0999921405E
:101C00009A99D940333313C033331340333313C05D
:101C1000333313400004004870B558482DED028B53
:101C2000FFF76EFA564C94F86400C8B3554E9FED1A
:101C3000568A564DDFED568A02284BD0032846D1EE
:101C40004E48FFF71DFB00F091F9B1EE400A84ED1C
:101C5000130A04F50F7004F0FDFB94ED140A04F56B
:101C60000F7004F0FAFB04F50F7004F06DFA04F540
:101C70000F7004F0CBFBD4ED090A30EE200A10EE11
:101C8000100AA84262D204F50F7004F0BFFBD4ED35
:101C9000090A30EE200A10EE100AB04256DB52E07C
:101CA000FFE794ED170A3B4804F0D4FB94ED180AC3
:101CB000384804F0D2FB374804F046FA354804F0BF
:101CC000A5FBD4ED170A30EE200A84ED170ABDEC0F
:101CD000028B70BD2948FFF7E3FAB1EE400A84EDAC
:101CE000170A2D4804F0B6FB94ED180ADFED2B0A15
:101CF000294820EE200A04F0B0FB274804F024FA1B
:101D0000254804F083FBD4ED090A30EE200A10EEDA
:101D1000100AA8420AD2204804F078FBD4ED090A40
:101D200030EE200A10EE100AB0420CDA1A4804F025
:101D30006DFBD4ED090A30EE200A10EE100AA8421D
:101D400019D2154810E084ED098AC0E711489C3883
:101D500004F05CFBD4ED090A30EE200A10EE100A04
:101D6000A84208D20B489C3804F050FBD4ED090A75
:101D700030EE208AE7E7B0EE688AE4E7F809002051
:101D8000440400209A99D93F9A99D93F9A99D9BF8A
:101D90009A99D9BF1C070020E4050020DB0FC94039
:101DA00010B52DED068B9FED458AB6EE003AF0EEAC
:101DB000484AB0EE484AF0EE483A9FED419AF0EEBC
:101DC000492ADFED408AB0EE682AF0EE681AB0EEDC
:101DD000681ADFED3D9A9FED3DAA0121F0EE690AF8
:101DE000B0EE4A0A3A4804F014FB3948F0EE484A8B
:101DF000B0EE484AF0EE483AB6EE003AF0EE492A24
:101E0000B0EE682AF0EE681AB0EE681AF0EE690AD1
:101E1000B0EE4A0A01219C3004F0FBFA9FED2D9AA6
:101E2000F0EE484AB0EE484AF0EE483AB7EE083ACB
:101E3000F0EE492AB0EE682AF0EE681A9FED261AF5
:101E4000DFED260A9FED260A0121264804F0E1FA7B
:101E50002448F0EE484AB0EE484AF0EE483AB0EE78
:101E6000003AF2EE042AB0EE682AF0EE681AB0EEFC
:101E7000681ADFED1D0A9FED1D0A00219C3004F059
:101E8000C8FAF0EE484AB0EE484AF0EE483AF0EEB2
:101E9000492AB0EE682AF0EE681AB0EE681ABDEC76
:101EA000068BB7EE083A0121BDE81040DFED100ABD
:101EB0009FED100A104804F0ACBA0000CDCCCC3D28
:101EC0009A99B9400000000014AEA7403333234272
:101ED000AC0400200000FA43B00FA134A48C3837C2
:101EE000BC74133CE40500206F12833A0AD7233DEB
:101EF00052491D3954E3A53D1C0700209FED180AE7
:101F0000DFED180A80ED000A80ED010A80ED020A7B
:101F100080ED030A80ED040A80ED060A80ED080AD0
:101F200080ED090A80ED0A0A80ED0B0A80ED0C0AAB
:101F300080ED0D0AC0ED180A80ED170ADFED0A0AE0
:101F400080ED130AC0ED140A80ED150A80ED160A23
:101F50000021018741878187022180F86410704742
:101F6000000000009A997940DB0F49C0DFED080AB4
:101F70009FED081A30EE200ABDEEC00AB8EEC00A86
:101F8000C0EE010A9FED040A20EE800A70470000AF
:101F9000000034430000B443DB0FC94070B5044671
:101FA0002DED028BB0EE408A01F0D6FF00EE100A54
:101FB000D4ED020AB8EE400A30EE600ABCEEC00A68
:101FC00010EE105A01F0C8FF00EE100AB8EE400AF9
:101FD00084ED020AD4ED010AF5EEC00AF1EE10FA22
:101FE00032DD10EE900AB0F17E5F2DDCB7EE000A14
:101FF00094ED051A30EE600A20EE011A00EE881A00
:1020000084ED041AB0EE410A84ED051A7DB101EEAB
:10201000105ADFED0F1AB8EE411A21EE211ADFED4A
:102020000D1A21EE211AC0EE811AC4ED001A00EE3D
:10203000905A9FED091AF8EE600AC1EE201AC4ED1D
:10204000031ABDEC028B70BDB0EE480AF9E7000040
:10205000DB0FC9406F12833A00007A4480ED010A19
:102060009FED020A80ED020A7047000000000000A8
:1020700003220249024801F0BDB8000026080020F2
:10208000F8000020F8B500260446009690F85800A5
:102090000D4601280BD0012084F858002046FEF799
:1020A0007BFC0100E06D04D040F010002AE002202B
:1020B000F8BD20F4885040F00200E0652068826896
:1020C000134B1A4005F080431A4342F000428260ED
:1020D000104A20680EE0009B5B1C0093934209D3DA
:1020E000E06D20F0020040F01000E06584F85860D8
:1020F0000120F8BD8368DB0FEDD1E06D20F0020018
:1021000040F00100E06584F858600846F8BD000022
:10211000C0FFFF3F02DE0400704700002DE9F84FCA
:102120004FF000080446CDF800800D4694F8582082
:10213000DFF8EC93616947464046012A0AD0012640
:10214000F84A84F8586041B1296A012905D0A36E84
:10215000EBB129E00220BDE8F88F6868092838D182
:10216000A96A4FF4785041B12B6801F07C0100EA74
:1021700053400843E96A084302E0296800EA5140F5
:102180002168CB6C13400343CB64606621E0C4E953
:102190001971A96A286A31B101F07C01401E084317
:1021A000E96A084300E0401E29682B79C1F3846185
:1021B00003F01F0399400143A06E401EA066636EAA
:1021C00043EA0103636604D12068C16C11401943DE
:1021D000C164206803F000FD58B995F8250098B156
:1021E0002068C16895F8262021F4401141EA425147
:1021F000C160206803F0F8FC8246206803F0ECFC24
:102200005AEA00000DD0FBE095F8260095F824105E
:10221000400540EA01512068C26822F4401211438F
:10222000E6E7A86A30B1E86A20B195F825000128F0
:102230005ED003E095F82500012804D02068C1682D
:1022400021F0007103E02068C16841F00071C160B5
:1022500095F83000012852D02068016921F0020170
:102260000161AA6829682068B2F1004F38D003F0F4
:10227000D6FC2068416921F000414161206869690C
:10228000C268C2F3C102520091402A69042A44D0B4
:1022900000EB82002B68026EDFF88CC203F0F8437B
:1022A00002EA0C020B431A4342F000410166206827
:1022B0002A69A96900EB8200026E22F080720A434B
:1022C0000266297F22682869012923D05FF0000176
:1022D00002EB8000026E22F000720A4302668FE079
:1022E000002203F09CFC2068416941F00041C4E7F2
:1022F000E06D40F02000E0654FF00108A8E7D5E967
:102300000D1001432068026922F4FF7242F00202BC
:102310001143A5E74FF00071DAE7002103F052FC0A
:10232000400320684FF0000172D003F04BFC90FA9C
:10233000A0F0B0FA80F1286842036ED090FAA0F0C5
:10234000B0FA80F0814204D100221146206803F0E7
:102350007DFC0121206803F035FC400320684FF02C
:1023600001015DD003F02EFC90FAA0F0B0FA80F1EC
:102370002868420359D090FAA0F0B0FA80F0814268
:1023800004D100220121206803F060FC02212068B2
:1023900003F018FC400320684FF0020148D003F01E
:1023A00011FC90FAA0F0B0FA80F12868420344D002
:1023B00090FAA0F0B0FA80F0814204D1002202210C
:1023C000206803F043FC0321206803F0FBFB40037B
:1023D00020684FF0030133D003F0F4FB90FAA0F033
:1023E000B0FA80F1286842032FD090FAA0F0B0FA3A
:1023F00080F0814204D100220321206803F026FCF2
:102400002068816811F0010F22D0B6E000E004E0FE
:1024100003F0D8FBC0F384618DE7C0F3846091E7DB
:1024200003F0D0FBC0F38461A2E7C0F38460A6E7A9
:1024300003F0C8FBC0F38461B7E7C0F38460BBE777
:1024400003F0C0FBC0F38461CCE7C0F38460D0E745
:102450002A7B296850F8B03FC1F3120C23EA0C0321
:1024600002F0180C314A22FA0CF20A4013430360BE
:10247000E96849457ED1286841031CD090FAA0F153
:10248000B1FA81F1491C01F01F0109294FEA4031DD
:1024900032D8002912D000BF90FAA0F1B1FA81F130
:1024A00001F1010101F01F0106FA01F609D100BF97
:1024B000C0F3846109E0C0F38461E3E7C0F38461A1
:1024C000EEE790FAA0F1B1FA81F101F1010101F01A
:1024D0001F0146EA816102D1C0F3846003E090FAF3
:1024E000A0F0B0FA80F000F1010000F01F0000EB56
:1024F000400041EA00513AE000290ED090FAA0F1E4
:10250000B1FA81F101F1010101F01F0106FA01F6B2
:102510000ED100BFC0F384610EE0C0F38461F1E727
:1025200000007F400040100400F0FF03FFFF0700A1
:1025300090FAA0F1B1FA81F101F1010101F01F015E
:1025400046EA816102D1C0F3846003E090FAA0F012
:10255000B0FA80F000F1010000F01F002B4A00EB00
:10256000400002EB005041EA000141F00071AA680E
:10257000206800E001E003F052FB25482A6802428F
:1025800040D024488168244B01F0E0719A4202D087
:10259000224B9A421BD10B0219D42268B2F1A04FF0
:1025A00030D1826841F4000122F0E0720A43826077
:1025B0001B481C490068B0FBF1F0801C00EB400098
:1025C000800000E0401E00900028FBD11AE0164D6C
:1025D000164BAA4207D1CD0105D422689A4211D0E8
:1025E00041F0807109E0124DAA420BD14A0209D490
:1025F00022689A4206D041F48001826822F0E0729B
:102600000A43826084F858704046A4E5000020FE2A
:102610000000088000030050000021C31000C0909B
:10262000F0000020400D0300000052C700010050E0
:10263000000084CB0C4910B5884213D10B480168C7
:10264000C9070FD0094910390968C906016821F086
:102650000101016006D50448FEF77AFABDE8104092
:10266000FFF7A0B910BD0000F8000020102C0140B9
:102670000068A1F580710F390ED0B1F5837F08D0C5
:10268000B1F5037F02D0D0F880007047D0F88C00FD
:102690007047D0F888007047D0F8840070477047C2
:1026A0002DE9F04104464548806800F01F05206888
:1026B00003F092FA08BB2168C868C96C00F00040BA
:1026C00011F4C07F00D190B194F85800012814D0C3
:1026D000012084F858002046FEF796F901004FF0DB
:1026E00000020CD084F858200846BDE8F081E06D67
:1026F00040F02000E0650120F7E70220F5E7E06DFB
:10270000C00504D5206E20F00800206600E0226697
:10271000E06D42F20103984340F48050E065284B9D
:1027200020684FF0A046984201D1374600E00746A6
:10273000874200D01DB9E76D27F48017E765602751
:10274000076084F858202068C268920203D5426866
:1027500042F480624260A06908282068426807D07D
:1027600022F0400242602068426842F0200206E007
:1027700022F0200242602068426842F0400242603B
:102780002068984201D1324600E00246824209D0D8
:1027900045B1062D06D0072D04D0E06D40F4801021
:1027A000E065A1E7C26812F0007F9DD18268054B09
:1027B0001A4042F00802826096E7000000030050D1
:1027C00000010050C0FFFF7F704770472DE9F047C0
:1027D000044690F858009CB00E464FF000090128BE
:1027E00015D0012084F85800002517951895206809
:1027F0004FF0A04840450ED1284F0097384603F0CF
:10280000F3F98246206803F0EFF960B10EE0022090
:102810001CB0BDE8F087E06D40F02000E06584F872
:1028200058500120F4E7BAF1000F09D0E06D40F0F4
:102830002000E0654FF0010984F858504846E7E76A
:102840001748326840F61F71002A826822F46042FD
:1028500016D094F8383042EA433273681A438260E3
:10286000D8F80820BB6802F0010203F001031A4304
:10287000E2D1B36832681A4383688B431A430BE092
:102880008260D8F80820BB6802F0010203F001035F
:102890001A43D1D182688A438260CDE7000100509B
:1028A000000300502DE9F84F00270446009790F8E8
:1028B0005800DFF8E0930D46B846012811D00126F4
:1028C00084F85860206803F08BF960B1E06D40F047
:1028D0002000E0655FF0010784F858803846BDE8C5
:1028E000F88F0220FBE7D5E900210C23206803EADA
:1028F00091131844036B01F01F014FF01F0C0CFAE9
:1029000001FCC2F3846223EA0C038A40134303638D
:10291000206803F065F98246206803F059F95AEA05
:1029200000003CD1AA6829682068B2F1004F37D076
:1029300003F066F92068416921F000414161206897
:102940006969C268C2F3C102520091402A69042A2F
:1029500031D000EB82002B68026EDFF83CC303F03D
:10296000F84302EA0C020B431A4342F000410166AD
:1029700020682A69A96900EB8200026E22F0807249
:102980000A430266297F22682869012910D00021A4
:1029900002EB8000026E22F000720A4302667DE0C4
:1029A000002203F02DF92068416941F00041C5E79C
:1029B0004FF00071ECE7002103F0FEF840032068BF
:1029C0004FF0000172D003F0F7F890FAA0F0B0FADF
:1029D00080F1286842036ED090FAA0F0B0FA80F03F
:1029E000814204D100221146206803F027F9012119
:1029F000206803F0E1F8400320684FF001015DD04A
:102A000003F0DAF890FAA0F0B0FA80F128684203F7
:102A100059D090FAA0F0B0FA80F0814204D100229F
:102A20000121206803F00AF90221206803F0C4F8AC
:102A3000400320684FF0020148D003F0BDF890FA3F
:102A4000A0F0B0FA80F12868420344D090FAA0F0D8
:102A5000B0FA80F0814204D100220221206803F004
:102A6000EDF80321206803F0A7F8400320684FF039
:102A7000030133D003F0A0F890FAA0F0B0FA80F18F
:102A8000286842032FD090FAA0F0B0FA80F081427B
:102A900004D100220321206803F0D0F82068816867
:102AA00011F0010F22D0ACE000E004E003F084F864
:102AB000C0F384618DE7C0F3846091E703F07CF894
:102AC000C0F38461A2E7C0F38460A6E703F074F862
:102AD000C0F38461B7E7C0F38460BBE703F06CF830
:102AE000C0F38461CCE7C0F38460D0E72A7B296817
:102AF00050F8B03FC1F3120C23EA0C0302F0180C9B
:102B0000664A22FA0CF20A4013430360E968494519
:102B100077D1286841031CD090FAA0F1B1FA81F175
:102B2000491C01F01F0109294FEA403132D8002920
:102B300012D000BF90FAA0F1B1FA81F101F10101C8
:102B400001F01F0106FA01F609D100BFC0F384614C
:102B500009E0C0F38461E3E7C0F38461EEE790FA33
:102B6000A0F1B1FA81F101F1010101F01F0146EA82
:102B7000816102D1C0F3846003E090FAA0F0B0FA62
:102B800080F000F1010000F01F0000EB400041EA7E
:102B9000005132E000290ED090FAA0F1B1FA81F193
:102BA00001F1010101F01F0106FA01F606D100BF93
:102BB000C0F3846106E0C0F38461F1E790FAA0F10C
:102BC000B1FA81F101F1010101F01F0146EA8161D1
:102BD00002D1C0F3846003E090FAA0F0B0FA80F074
:102BE00000F1010000F01F002D4A00EB400002EB55
:102BF000005041EA000141F00071AA68206802F02B
:102C0000FFFF28482A6802423FF466AE26488168E2
:102C1000264B01F0E0719A4202D0254B9A421CD11A
:102C20000B021AD42268B2F1A04F7FF455AE82682D
:102C300041F4000122F0E0720A4382601D481E49FF
:102C40000068B0FBF1F0401C00EB4000800000E0A9
:102C5000401E00900028FBD13EE6184D184BAA42BA
:102C600007D1CD0105D422689A42F5D041F0807198
:102C700009E0144DAA42EFD14A02EDD422689A42EB
:102C8000EAD041F48001826822F0E0720A43826057
:102C900022E6000000007F4000F0FF03FFFF070076
:102CA000000020FE0000088000030050000021C347
:102CB0001000C090F0000020400D0300000052C73B
:102CC00000010050000084CB70477047704700003F
:102CD0002DE9F05F0446006806684568DFF854B2E5
:102CE000DBF8080000F01F07B0070ED5A8070CD5C9
:102CF000E06DC00603D4E06D40F40060E06520465E
:102D0000FFF70AFA216802200860DFF82CA270079A
:102D10004FF0A04801D5680703D4300737D52807FE
:102D200035D5E06DC00603D4E06D40F40070E06579
:102D3000206802F05DFF20B32068504501D1424673
:102D400000E00246824208D03FB1052F05D0092F8E
:102D500003D0504503D1414602E0C16801E001467D
:102D6000C96889040DD4016809070AD502F038FF43
:102D700058B3E06D40F01000E065206E40F00100B7
:102D800020662046FFF7A0FF21680C200860B006EF
:102D900001D5A80603D4700658D5680656D5E06D4F
:102DA000C00603D4E06D40F40050E0652068C16CBB
:102DB00011F4C07F1AD00021894602F019FF0246A3
:102DC0002068504514D1434613E02068416821F043
:102DD0000C014160E06D20F48070E065E06DC0049E
:102DE000CFD4E06D40F00100E065CAE70121E3E7E0
:102DF0000346834208D03FB1062F05D0072F03D0EA
:102E0000504503D1414602E0C16801E00146C9686E
:102E1000B9F1000F14D08B0102D58AB18A040FD406
:102E2000026852060CD589020AD402F0D1FEE8B33A
:102E3000E06D40F01000E065206E40F0010020667B
:102E40002046FFF7F7FB21686020086030060BD5AD
:102E5000280609D5E06D40F48030E065204600F09A
:102E600067F9216880200860F0050CD5E8050AD5CF
:102E7000E06D40F40030E0652046FFF7A5FC2168D6
:102E80004FF480700860B0050CD5A8050AD5E06D38
:102E900040F48020E0652046FFF797FC21684FF45E
:102EA00000700860F0062ED5E80600E008E02AD59C
:102EB000E06BD0B1AFB1DBF8080000F4604013E084
:102EC0002068416821F060014160E06D20F480508D
:102ED000E065E06DC005B3D4E06D40F00100E06551
:102EE000AEE72068C068C00750B1E06D40F4806074
:102EF000E065206E40F0020020662046FFF7E6FE07
:102F0000216810200860700512D5680510D5E06DA5
:102F100040F48040E065206E40F0080020662168A3
:102F20004FF4806008602046BDE8F05FFFF7B7BB54
:102F3000BDE8F09F0003005000010050F8B54FF0CD
:102F4000000504002E46009502D0E06D10B107E0A8
:102F50000120F8BD204600F0EDF8266684F85860A0
:102F600020688168C1F3407119B18168684A1140D5
:102F7000816020688168C1F3007189B98168654A00
:102F8000114041F080518160634864490068B0FBA2
:102F9000F1F04000801C00E0401E00900028FBD1B2
:102FA00020688168C1F3007141B9E16D41F0100101
:102FB000E165216E41F001012166012502F010FE5C
:102FC000E16DC90600D430B1E06D40F01000E0655D
:102FD00001252846F8BDE06D20F4807040F0020025
:102FE000E0652068806810F0010F11D14FF0A0401B
:102FF00080684B4900F00100896801F00101084335
:1030000006D148486168826822F47C120A438260D3
:10301000E168E06B627F0843A16841EA42310843FE
:1030200094F8241040EA0140012904D1218D3E4A40
:1030300002EB41410843E16A29B101F47871226B46
:10304000014342EA01002268D168384B194001432C
:10305000D16020680169626B21F040611143016118
:10306000206802F0B5FD70BB207F94F83810800313
:1030700040EA41022168C86844F2020398431043C1
:10308000C86020690028206801690AD041F48031B5
:103090000161206850F8C01F22696FF30D011143D0
:1030A00007E021F480310161206850F8C01F6FF300
:1030B0000D01016094F8400001280CD020680169DE
:1030C00021F001010161606901282068016B21F094
:1030D0000F0111D013E0D4E911010843D4E9131210
:1030E0001143084321680A6940F2FC739A43104374
:1030F00040F001000861E6E7226A521E11430163B5
:10310000E06D20F0020040F00100E06561E70000A2
:10311000C0FFFF5FC0FFFF7FF0000020400D0300F5
:1031200000010050000300500000FEFF0740F0FFC8
:103130007047000070B598B00546142111A8FDF73E
:1031400037F944216846FDF733F92868B0F1A04FFC
:1031500047D14FF40040009080030F90684601F083
:103160001BF808B1FEF7E6F91F49C86C40F400509F
:10317000C864C86C00F400501690C86C40F00100A0
:10318000C864C86C002600F0010016900F20119052
:103190000320CDE9120611A94FF0904000F0A6FDE2
:1031A000134C124820600520C4E901068020C4E9C0
:1031B0000360400060618000C4E906064FF440509F
:1031C0002062204600F028F908B1FEF7B3F96C65DB
:1031D000002211461220A56200F046FF122000F0E6
:1031E00035FF18B070BD000000100240080002401A
:1031F000640100202DE9F041044634481746884612
:10320000806800F01F05206802F0EAFC00285AD10F
:1032100094F85800012856D0012084F85800002660
:1032200025B1052D02D0092D00D003E02046FDF781
:10323000EBFB18B184F85860BDE8F081E06D40F612
:103240000161884340F48070E0652149206888422C
:1032500002D14FF0A04100E00146814200D01DB9EB
:10326000E06D20F48010E065E06DC00404D5206EB0
:1032700020F00600206600E02666616D1548C862F1
:10328000616D15480863616D1448486321681C200E
:10329000086084F858602068416841F0100141607E
:1032A0002068C16841F00101C16021683B46424687
:1032B0004031606D00F010F921688A68084B1A40AF
:1032C000121D8A60B8E70220B6E700000003005034
:1032D000000100500D0900088F0900087509000859
:1032E000C0FFFF7F70B590F8252000240121234600
:1032F000022A07D00422C26380F8251080F8243007
:10330000012429E00268156825F00E0515600268A1
:10331000156825F001051560826C156825F4807527
:10332000156090F84420056C02F01F0201FA02F2C9
:103330006A60D0E913255560426D32B1156825F4F5
:1033400080751560D0E91625556080F8251080F845
:103350002430816B01B18847204670BDF0B4016C08
:103360000C6801680D6890F8442002F01F060422E2
:1033700002FA06F3234211D06B070FD50B689B06A8
:1033800003D40B6823F004030B6090F8441001F0A1
:103390001F018A40016C4A60016B1DE0022303FAA1
:1033A00006F727424FF0000C4FF0010218D0AF078C
:1033B00016D50C68A40605D40C6824F00A040C6029
:1033C00080F8252090F8441001F01F018B40016C1B
:1033D0004B6080F824C0C16A00291AD0F0BC0847AD
:1033E0000823B340234214D02B0712D50B6823F0D7
:1033F0000E030B6090F84410036C01F01F0102FAF9
:1034000001F15960C26380F8252080F824C0416B27
:10341000E2E7F0BC7047000070B504000CD02B4A06
:1034200021681420914209D2294A0A44B2FBF0F0E3
:103430008000606427480AE0012070BD234A5242A0
:103440000A44B2FBF0F08000606420480838206431
:10345000022084F825000A6847F6F0708243D4E918
:1034600002031843D4E904352B431843A3691843D6
:10347000E3691843236A1843104308602046FDF7A8
:1034800013FDA0680025B0F5804F00D16560A16CE8
:1034900020790860D4E9130141606068401E032868
:1034A00008D82046FDF720FD606D0560D4E91601BF
:1034B000416002E06565A565E565E563012084F886
:1034C000250084F82450002070BD0000080402404C
:1034D000F8FFFDBF0000024070B5044690F82400DC
:1034E000002501280CD0012084F8240094F82560E0
:1034F0000020012E06D084F824000225284670BD45
:10350000022070BD022684F82560E063206806680A
:1035100026F0010606602046FDF7F8FC206B002827
:103520002068016802D041F00E0106E021F004019C
:1035300001602068016841F00A010160A06C016827
:10354000C90303D5016841F480710160606D18B151
:10355000016841F4807101602068016841F0010157
:103560000160CBE770B5044600F0F6FC0546601C30
:1035700002D004484068044400F0EEFC401BA04226
:10358000FAD370BDE400002030B590F85C30012B18
:1035900007D0022B05D0016E41F002010166012027
:1035A00030BD0468A36D4D0701D0DD071DD011F0BB
:1035B000380F01D09D0718D511F4E07F01D05D07C9
:1035C00013D511F4F05F01D01D070ED511F4604F33
:1035D00001D0DD0609D511F4403F01D09D0604D588
:1035E00011F47C0F05D05D0603D4E56D45F00105AF
:1035F000E5654C0701D0DC071DD111F0380F01D073
:103600009C0718D411F4E07F01D05C0713D411F4A7
:10361000F05F01D01C070ED411F4604F01D0DC061E
:1036200009D411F4403F01D09C0604D411F47C0F5E
:1036300006D05B0604D50368DC6D44F00204DC654B
:103640000B0604D5036853F8DC4F14431C60CB050C
:1036500004D5036853F8E04F14431C600068426DC2
:103660000A434265002030BD70B5044690F85C0006
:10367000022803D0206E40F0080007E02068D0F850
:10368000C4309B0205D5206E40F4007020660120F6
:1036900070BDD0F8C400C0F301452B462046FDF7AD
:1036A000D3FF21680120A840C1F8CC00A06500200C
:1036B00070BD10B590F85C20012A07D0022A05D011
:1036C000016E41F002010166012010BD0A687AB165
:1036D0000B7B0A690C7A42EA43734A69406C496879
:1036E00042EA847200EBC100C0E90032002010BD44
:1036F0000B7A4A690C8A42EA83720B7B006CDB0608
:10370000496843EA04431A4340F82120EEE730B504
:1037100090F85C50039C012D05D0016E41F004012E
:103720000166012030BD0901006841EA820141EAD9
:10373000430150F8802F214322F03F0211430160E2
:10374000002030BD70477047F0B590F85C40002510
:10375000022C03D0016E41F0080160E004684029AA
:1037600046D0D4F89860360756D0D4F89860F60161
:1037700004D5D4F88060F60500D50125D4F898402A
:10378000C4F301246619C46C06EBC60504EBC5043A
:10379000256815F080455560256843D025F06045C3
:1037A000156025682C4F05F00055956020CC05F07C
:1037B0000045156134F8045BADB2D56154F8045C82
:1037C000C5F30345D56054F8045C05F480155561D4
:1037D00054F8045C05F40015956154F8045CC5F3D5
:1037E0000665156254F8045CED0F5562002522E071
:1037F000D4F8906036070FD0D4F89060F60104D565
:10380000D4F88060B60500D50125D4F89040C4F303
:1038100001246619846CB7E7016E41F4807101667A
:103820000120F0BDC5F38A45BAE700BF14F805C012
:1038300003F805C06D1CD2F80CC017F80CC0AC45DD
:10384000F4D80068402903D0C0F89C600020F0BD87
:10385000C0F89460FAE700007D6E000870472DE91B
:10386000F05F04460068016D426D01F4E05102EA28
:103870000108016D426D01F0070102EA0109016DC5
:10388000426D01F0380102EA010A016D476D01F451
:1038900071010F40016D426D01F46021456D02EA36
:1038A000010B016DCE43710607D4E943490604D4E8
:1038B000402101652046FFF7D1FFF0050ED4E84313
:1038C000C0050BD42068D0F8D820D0F8E010114003
:1038D0004FF480720265204600F003FAB8F1000050
:1038E00005D0216808654146204600F0FCF9B9F191
:1038F000000005D0216808654946204600F0AAF975
:10390000BAF1000005D0216808655146204600F054
:10391000CFF9B00509D4E843800506D421684FF4F7
:1039200000700865204600F0DFF930060DD4E8434A
:1039300000060AD42068D0F8D420D0F8DC1011405A
:1039400080220265204600F0CDF9B00409D4E84396
:10395000800406D421684FF400500865204600F02A
:10396000BFF9300409D4E843000406D421684FF4B9
:1039700000400865204600F0B2F970040AD4E8431C
:10398000400407D421684FF480400865206E40F061
:1039900080002066BBF1000005D02168086559460B
:1039A0002046FFF7D0FE27B120680765206E384318
:1039B0002066206E002802D02046FFF7C3FEBDE837
:1039C000F09F00002DE9F041040006D0DFF8E88107
:1039D00094F85C00002518B107E00120BDE8F081F3
:1039E00084F85D50204600F0EFF82068816921F0EE
:1039F0001001816100F0B0FA0646032705E000BF20
:103A000000F0AAFA801B0A2811D8206880690007F4
:103A1000F6D42068816941F00101816100F09CFACF
:103A200006460BE000F098FA801B0A2806D9206EA3
:103A300040F00100206684F85C70CEE72068806961
:103A4000C007EFD02068816941F0020181612168DF
:103A5000414502D1594960680860207C01282068EE
:103A6000816937D041F040018161607C0128206884
:103A7000816932D021F480418161A07C01282068D5
:103A800081692DD041F48051816120688169A268EB
:103A900021F44071114381612068816921F0A40102
:103AA00081612068016921F010010161E06801284D
:103AB00019D010B302281BD02068816941F0800121
:103AC00081612068016941F010010161E06803280B
:103AD0000ED012E021F04001C6E741F48041CBE76F
:103AE00021F48051D0E72068816941F0040103E0AE
:103AF0002068816941F020018161207EE2694006F1
:103B00006FF0FF0101EB0222A0F100701043226A66
:103B1000A38A521E10430A0202EB03431843236890
:103B2000D861A068B0F5407F10D1D4E90A0301EB59
:103B30000321401E0843216B131303EB01110843BB
:103B4000A18C02EB014108432168C860206850F84D
:103B5000C01FE26B1143016019482064216851F8CD
:103B6000802FA38E22F4F81242EA03420A6014491D
:103B700070316164216851F8802F94F8383022F058
:103B8000706242EA03620A600D49B031A1640D49D6
:103B9000E1640C49D83121650A49F031616500F5CD
:103BA000547120C08842FCD3A5652566012084F8A5
:103BB0005C00002012E70000006400400065004047
:103BC00000A4004088A5004010B598B00446142118
:103BD00011A8FCF7EDFB44216846FCF7E9FB1B4903
:103BE0002068884230D18014009040030C906846D1
:103BF00000F0D2FA08B1FDF79DFC1548816D41F047
:103C000000718165816D01F000711691C16C41F008
:103C10000101C164C06C11A900F0010016904FF4BD
:103C2000C05011900220129000201390149009208F
:103C30001590C00600F05AF800220421152000F06B
:103C400013FA152000F002FA18B010BD006400400D
:103C50000010024010B50446C80723D0124920685E
:103C600088421FD1114B402103F140022046FFF74B
:103C70006BFD0E4840F2FA724030016801F003001B
:103C80001140B1F5886F02D10849FDF77DFD002292
:103C900001212046FFF778FC002803D0BDE8104042
:103CA000FDF704BD10BD000000640040B80700200F
:103CB000704790F85C10012905D0016E41F00401B5
:103CC000016601207047022180F85C1001688A6952
:103CD00022F001028A6100210166084670477047A0
:103CE0007047704770477047704700002DE9F04FEC
:103CF000DFF82092002301260324A9F1040B85B0EC
:103D00000F2709F1040AABF1040EFAE006FA03F5F5
:103D10002A407CD091F804C00CF0030CBCF1010FD8
:103D200002D0BCF1020F26D1D0F808C0CDF800C0F7
:103D30004FEA430C04FA0CF8CDF810C0DDF800C0CF
:103D40002CEA080CCDF800C0D1F80C80DDF810C0CA
:103D500008FA0CF8DDF800C048EA0C08C0F8088042
:103D6000D0F804C02CEA050C0D79C5F300159D4070
:103D700045EA0C0545600D79ED43AD070ED0C568E9
:103D80004FEA430804FA08FC25EA0C05D1F808C0FC
:103D90000CFA08FC4CEA050CC0F80CC00D7905F0D3
:103DA0000305022D16D1DD0800EB850CCDF808C007
:103DB000DCF820805D074FEAD56C07FA0CF528EA9D
:103DC00005080D6905FA0CF5DDF808C045EA080597
:103DD000CCF8205005684FEA430CCDF808C004FA2F
:103DE0000CFC25EA0C0591F804C00CF00308DDF882
:103DF00008C008FA0CF848EA0508C0F800804D68C9
:103E000015F4403F7CD0444DD5F860C000E077E029
:103E10004CF0010CC5F860C02D6E23F0030C05F0CA
:103E2000010500953D4D65440295AD684FEA837CE0
:103E30004FEA1C7807FA08FC25EA0C05B0F1904F10
:103E400006D0DFF8DCC0604505D14FF0010C20E062
:103E50004FF0000C1DE0DFF8CCC0604502D14FF000
:103E6000020C16E0DFF8C0C0604502D14FF0030C31
:103E70000FE0DFF8B8C0604502D14FF0040C08E055
:103E8000DFF8ACC0604502D14FF0050C01E04FF007
:103E9000060C0CFA08FC4CEA050C029DC5F808C09B
:103EA000D9F80050CC46D1F8048095435FEAC82881
:103EB00000D51543CCF80050DAF80050D446D1F8BC
:103EC000048095435FEA882800D51543CCF800505C
:103ED000DBF80050DC46D1F8048095435FEA88386F
:103EE00000D51543CCF80050DEF80050F446D1F868
:103EF000048095435FEAC83800D51543CCF80050DC
:103F00005B1C0A6832FA03F57FF400AF05B0BDE828
:103F1000F08F000008040140001002400000014042
:103F20000004004800080048000C00480010004849
:103F3000001400480069084000D001207047426921
:103F400021EA02030A4043EA0241816170470AB153
:103F50008161704781627047014880687047000046
:103F6000E400002002488168426811448160704783
:103F7000E400002010B50024032000F095F8002094
:103F800000F008F808B1012401E000F047F82046ED
:103F900010BD000030B505461C4887B0816D41F06A
:103FA00001018165806D06A900F00100009001A863
:103FB00000F024FB00F042FB15494FF08042B0FBBB
:103FC000F1F11448491E0260416040F2E7320021DD
:103FD000C0E90321816001F024F9040012D10D48E9
:103FE00001F0C0F904000DD11C2000F02FF8102DB5
:103FF00007D2002229461C2000F036F8064805604A
:1040000000E0012407B0204630BD0000001002404F
:1040100040420F00E4030020E40000200A4882B080
:10402000016E41F001010166016E01F00101009194
:10403000816D41F080518165806D00F0805000906D
:1040400002B000F0A1B8000000100240002809DB17
:1040500000F01F02012191404009800000F1E020A2
:10406000C0F8001170470000F0B40E4B1B680C46FE
:10407000C3F30223C3F10705042D00D90425191D3C
:10408000072901D2002300E0DB1E012606FA05F114
:10409000491E214099409E40761E16403143F0BC97
:1040A00002F0E6BD0CED00E0064900F007020868EA
:1040B0004FF6FF03184040EA0220034A104308600D
:1040C000704700000CED00E00000FA052B492C4B76
:1040D0000A6832214A432B4940B1B0F5007F086895
:1040E00029D020F4C06040F480602CE00868C0F360
:1040F0004120022804D051F8800F20F4807022E083
:10410000D1F8800020F48070C1F88000086820F4A5
:10411000C06040F400700860B2FBF3F0401C00E0A7
:10412000401E4A69520501D50028F9D14869400569
:104130000AD503207047C0F34120022806D051F869
:10414000800F40F48070086000207047D1F8800034
:1041500040F48070C1F88000086820F4C06040F42A
:1041600000700860B2FBF3F0401C00E0401E4A699A
:104170005205DBD50028F9D1D8E70000F000002077
:1041800040420F00007000400248816841F48041C5
:1041900081607047007000402DE9F84304460068D4
:1041A00000269D4D00035ED5A86D0027C00008D4F1
:1041B000A86D40F08050A865A86D012700F08050E0
:1041C0000090DFF85892D9F8001041F48071C9F8D6
:1041D0000010FFF7C1FE804606E000BFFFF7BCFEFF
:1041E000A0EB080002282BD8D9F80000C005F5D5AF
:1041F000D5F8900010F4407014D0216C814211D099
:10420000D5F89000D5F8901020F4407041F480313A
:10421000C5F89010D5F8901021F48031C5F89010B1
:10422000C5F89000C00711D0FFF796FE804641F216
:10423000883907E0FFF790FEA0EB0801494501D956
:1042400003260BE0D5F890008007F3D5D5F8900051
:10425000216C20F440700843C5F890001FB1A86D90
:1042600020F08050A8652078C00707D0D5F88800D6
:10427000616820F003000843C5F8880020788007B3
:1042800007D5D5F88800A16820F00C000843C5F8D0
:1042900088002078400707D5D5F88800E16820F02D
:1042A00030000843C5F888002078000707D5D5F806
:1042B0008800216920F0C0000843C5F888002078F4
:1042C000800607D5D5F88800616920F4406008436E
:1042D000C5F888002078400607D5D5F88800A16980
:1042E00020F440500843C5F888002078000607D520
:1042F000D5F88800E16920F440400843C5F88800FB
:104300002088C00507D5D5F88800216A20F4403000
:104310000843C5F888002088800507D5D5F88800AF
:10432000616A20F440200843C5F8880020884005D1
:104330000FD5D5F88800A16A20F440100843C5F8CD
:104340008800A06AB0F5801F03D1E86840F48010AF
:10435000E860208800050FD5D5F88800E16A20F4D0
:1043600040000843C5F88800E06AB0F5800F03D12B
:10437000E86840F48010E8602088C0040FD5D5F8C4
:104380008800216B20F040700843C5F88800206B3E
:10439000B0F1807F03D1E86840F48010E8602088A5
:1043A0004FF0006180040ED5D5F88800626B20F0D4
:1043B00040601043C5F88800606B884203D1E8680C
:1043C00040F48010E860208840040ED5D5F88800BD
:1043D000A26B20F040601043C5F88800A06B8842B3
:1043E00003D1E86840F48010E860208800040FD50D
:1043F000D5F88800E16B20F040500843C5F88800EC
:10440000E06BB0F1805F03D1E86840F48030E86091
:104410003046BDE8F8830000001002400070004004
:104420002DE9F0470E4605004FF0000725D0DFF8D4
:10443000AC81D8F8000000F00F00B0420CD2D8F8E0
:10444000001021F00F013143C8F80010D8F8000027
:1044500000F00F00B04210D12968614CC80741F24A
:10446000883A5AD06868DFF87C91032808D002287F
:1044700020682DD0400500282CDB0120BDE8F08706
:1044800020688001F9D5E06800F00302E068C0F31D
:104490000310401C032A19D0534A00BFB2FBF0F0AE
:1044A000E268C2F306225043E268C2F34162521C42
:1044B0005200B0FBF2F0484517D9A06810F0F00F99
:1044C0000CD0880711D5A86840B10EE0474AE5E74F
:1044D0008003D0E700F0C4F8484506D9A06820F072
:1044E000F00040F08000A0608027A068696820F09C
:1044F00003000843A060FFF72FFD814606E000BFE0
:10450000FFF72AFDA0EB090151453AD8A068696878
:1045100000F00C00B0EB810FF2D12868810714D5B0
:10452000400703D5A06840F4E060A0602878000749
:1045300005D5A06820F4605040F4E060A060A06859
:10454000A96820F0F000084304E0802F03D1A068A0
:1045500020F0F000A060D8F80010404601F00F01F4
:10456000B14216D9016821F00F0131430160FFF714
:10457000F3FC074607E000BFFFF7EEFCC11B514507
:1045800001D903207AE7D8F8000000F00F00B0420C
:10459000F2D12878400705D5A068E96820F4E060EA
:1045A0000843A0602878000706D5A068296920F490
:1045B000605040EAC100A06000F052F8A1680C4AC7
:1045C000C1F30311515C01F01F01C84009490860A3
:1045D00009480068BDE8F047FFF7DCBC0020024056
:1045E0000010024000B4C4040024F400005A620227
:1045F0008D6E0008F0000020E40000200F22026011
:104600000C4A936803F003034360936803F0F003DC
:104610008360936803F4E063C36092684FF4E063DF
:1046200003EAD20202610448006800F00F0008604B
:104630007047000000100240002002400548064973
:1046400000688968054AC1F30221515C01F01F012D
:10465000C8407047F0000020001002409D6E000826
:10466000184910B58868C0F381021748012A0BD099
:104670008A68164BC2F38102022A06D08A68C2F306
:104680008102032A03D0002010BD184610BDCA685D
:1046900002F00304CA68C2F30312521C032C02D0B6
:1046A000B0FBF2F001E0B3FBF2F0CA68C968C2F3F4
:1046B00006225043C1F34161491C4900B0FBF1F0AF
:1046C00010BD0000001002400024F400005A6202F5
:1046D0002DE9F84304007AD02078F84DC00747D080
:1046E000A868E96800F00C0001F003010C2802D072
:1046F000082817D001E0032914D06068B0F5803F86
:1047000017D0B0F5A02F286817D020F4803028608B
:10471000286820F4802028606068E0B1FFF71CFC66
:10472000064614E02868800322D560680028D2D0AD
:104730001EE0286840F48030EDE740F480202860D7
:10474000F7E700BFFFF708FC801B642870D82868D3
:104750008003F7D50CE0FFF7FFFB064605E000BF3E
:10476000FFF7FAFB801B6428F0D828688003F7D491
:10477000207880074CD5A868E96800F00C0001F0AB
:1047800003010C2802D004280DD001E002290AD030
:10479000E068002828682BD040F480702860FFF77C
:1047A000DBFB064619E02868400502D5E0680028D2
:1047B00091D06868217C20F0FE4040EA016068608A
:1047C000BF480068FFF7E6FB002800D120E072E157
:1047D000FFF7C2FB801B0228B8D828684005F7D530
:1047E0006868217C20F0FE4040EA016068600FE0CC
:1047F00020F480702860FFF7AFFB064605E000BF9D
:10480000FFF7AAFB801B0228A0D828684005F7D430
:104810002078000729D560690028D5F8940013D0C6
:1048200040F00100C5F89400FFF796FB064606E04D
:1048300090E000BFFFF790FB801B022886D8D5F8D8
:1048400094008007F6D510E020F00100C5F8940030
:10485000FFF782FB064604E0FFF77EFB801B022881
:1048600078D8D5F894008007F6D42078400761D531
:10487000A86D0026C00008D4A86D40F08050A8653F
:10488000A86D012600F0805000908E480168C9058F
:1048900011D40168804641F480710160FFF75CFB30
:1048A000074604E0FFF758FBC01B022852D8D8F88F
:1048B0000000C005F6D5A068012815D00528D5F858
:1048C000900016D020F00100C5F89000D5F89000B7
:1048D00020F00400C5F89000A06841F28838B8B113
:1048E000FFF73AFB07460EE0D5F8900040F00100D4
:1048F000F0E740F00400C5F89000F5E7FFF72CFB67
:10490000C11B414526D8D5F890008007F6D50CE0AC
:10491000FFF722FB074604E0FFF71EFBC11B4145E2
:1049200018D8D5F890008007F6D41EB1A86D20F0F5
:104930008050A8652078800629D5A0690028D5F880
:10494000980013D040F00100C5F89800FFF704FB71
:10495000064606E075E000BFFFF7FEFA801B02285E
:104960006FD8D5F898008007F6D510E020F0010048
:10497000C5F89800FFF7F0FA064604E0FFF7ECFAF6
:10498000801B02285DD8D5F898008007F6D4E0692E
:10499000F0B3A968C1F3810103295DD0022828681A
:1049A00020F08070286003D0FFF7D6FA04464BE071
:1049B000FFF7D2FA064604E0FFF7CEFA801B022882
:1049C0003FD828688001F7D4F4E908016FF00F029E
:1049D00002EB01110843218A5204490802EB4151BC
:1049E000A26841EA02210843217D4FF07E42490836
:1049F00002EB41610843217B40EAC160E968324A29
:104A000011400843E860286840F08070286000E0AA
:104A10005EE0E86840F08070E860FFF79DFA0446C9
:104A200005E000BFFFF798FA001B022809D82868A4
:104A30008001F7D54CE000BFFFF78EFA001B02287B
:104A400002D90320BDE8F88328688001F4D4E8681F
:104A50001E490840E8603BE00128F3D0E868226A7C
:104A600000F00301914226D1616A00F0F0020901D1
:104A7000103991421FD1A26A00F4FE41B1EB022F1E
:104A800019D194F82C2000F07841B1EBC26F12D10B
:104A9000218E00F4C00249084905A1F50011914298
:104AA00009D194F8341000F0C06049084906A1F11A
:104AB000007181420CD00120C4E7000000100240C8
:104AC000E4000020007000400C809F01FCFFEEFE1F
:104AD0000020B7E77047000038B5016804464A680F
:104AE0008868C043430606D5C30704D1D3435B0699
:104AF00001D4E16C05E0830708D4D3431B0605D439
:104B0000216D01B02046BDE830400847830603D53B
:104B1000430601D5C30551D4D3439B064ED4430667
:104B20000AD494F85D30032B49D0236E43F004037C
:104B30002366CB688B680093830609D4236E43F009
:104B4000010323668B6800930B6823F040030B601E
:104B5000C00506D4206E40F00800206620688068FA
:104B60000090206E002829D02068416821F0E001E3
:104B70004160012084F85D00900701D4D00722D065
:104B80002068416821F003014160114DA06D40B1E2
:104B90008563A06DFEF7A6FB18B1206E40F04000C3
:104BA0002066606D002809D08563606DFEF79AFB72
:104BB000002803D0206E40F04000206638BDC86851
:104BC0008868009038BD2046FFF784FF38BD00009C
:104BD000C564000870B5040009D0606A002540B1C2
:104BE00025616561A56294F85D0040B10CE001208B
:104BF00070BD6068B0F5827FF4D0E561F2E784F8BB
:104C00005C50204600F05CF8022084F85D002068CB
:104C1000016821F040010160E1684FF4E0629142D7
:104C200001D9002001E04FF48050B1F5706F02D03F
:104C3000914200D0A562A188228901F4827102F418
:104C400004421143227C02F002021143227D02F051
:104C500001021143228B02F400721143227F02F001
:104C60003802114394F8202002F080021143228D73
:104C700002F40052114322681160A169042202EA81
:104C8000114194F8242000F4805002F010021143E6
:104C900094F8342002F008021143A28902F47062F1
:104CA00011430143206841602068C16921F400611B
:104CB000C1612566012084F85D00002070BD000000
:104CC0002DE9F04186B0064614216846FBF770FBDB
:104CD0002F493068884257D12E48016E41F48051E7
:104CE0000166016E01F480510591C16C41F0020131
:104CF000C164C06C694600F0020005903820009045
:104D000002200190012002900320039005200490CE
:104D10002148FEF7EBFF224C2048002520600A20A6
:104D2000C4E901054FF08008C4E9035865614FF4F8
:104D30000057A561C4E907572046FEF76DFB08B18F
:104D4000FCF7F8FBB465A662154C144860341430C7
:104D500020600B20606004F10801102081E821012F
:104D60006561A561C4E907572046FEF755FB08B108
:104D7000FCF7E0FB7465002202212320A662FFF706
:104D800073F92320FFF762F906B0BDE8F081000057
:104D900000300140001002400004004808040240B6
:104DA0008C0200202DE9FF5F1D46934604464FF01C
:104DB00001090E9EFFF7D0F8074694F85D00616880
:104DC000012806D0B1F5827F39D1A168B1BB042892
:104DD00035D1019800287CD0BBF1000FFBD0002D0D
:104DE000F9D094F85C00012829D04FF0010A84F82A
:104DF0005CA094F85D00042802D0052084F85D00D2
:104E00004FF00008C4F86080C4F840B0A4F84650E1
:104E1000A4F844500199A163E587A587C4F84C80A4
:104E2000C4F85080E0684FF4E061884201D8012D59
:104E300009D92068426822F4805208E0FFE7022086
:104E400004B0BDE8F09F2068426842F4805242609E
:104E500020680268520603D4026842F040020260F1
:104E6000E0688842606846D908B1012D3BD1A06B4B
:104E700001882068C160A06B801CA063E08F401E89
:104E8000E08730E02068816889070FD5E18F69B13C
:104E9000B9F1010F0AD1A16B0988C160A06B801C18
:104EA000A063E08F401EE0874FF000092068816812
:104EB000C90711D0B4F8461071B1C068216C0880E0
:104EC000206C801C2064B4F84600401EA4F8460004
:104ED00000E09EE04FF00109FFF73EF8C01BB04232
:104EE00001D3701C74D1E08F0028CBD1B4F84600F8
:104EF0000028C7D175E008B1012D6BD1E08F0128E2
:104F0000A06B08D921680088C860A06B801CA063D2
:104F1000E08F801E07E0216800780873A06B401CBA
:104F2000A063E08F401EE08754E020688168890715
:104F30001AD5E18FC1B1B9F1010F15D1E18F012966
:104F4000A16B07D90988C160A06B801CA063E08FAA
:104F5000801E06E009780173A06B401CA063E08FFF
:104F6000401EE0874FF0000920688168C90728D0FB
:104F7000B4F8461029B3B4F84610012914D9C06812
:104F8000216C0880206C801C2064B4F84600801ED0
:104F9000A4F84600B4F84600012810D820684168FB
:104FA00041F4805141600AE0007B216C0870206C64
:104FB000401C2064B4F84600401EA4F846004FF0A0
:104FC0000109FEF7C9FFC01BB04202D3701C01D01B
:104FD00012E08EB1E08F0028A7D1B4F84600002877
:104FE000A3D13A463146204601F075FA50B120204F
:104FF000206684F85C800CE084F85DA084F85C8016
:1050000003201DE784F85DA084F85C80206E0028F2
:10501000F7D0012014E770477047704730B590F81B
:105020003C20012A42D0012280F83C20CA688B68CB
:1050300022F440721A434B6822F480621A430B68D0
:1050400022F400621A430B6922F480521A434B691E
:1050500022F400521A430B6B22F480421A430B8B4A
:1050600022F4702242EA0342CB6922F080521A43B2
:105070000F4D03680024AB4202D00E4DAB4210D15D
:105080000D8D22F4700242EA05520D6A22F0807200
:105090002A434D6A22F000722A43C96A22F0005264
:1050A0000A435A6480F83C40002030BD022030BDE5
:1050B000002C01400034014070470068416D41F40C
:1050C000003141650020704770477047F0B590F897
:1050D0003C20012A3AD0012580F83C50022280F879
:1050E0003D2003685A689C68194E1A4FB34201D09C
:1050F000BB4204D122F4700C4A6842EA0C02DFF889
:1051000058C002EA0C02D1F800C04CEA020CC3F805
:1051100004C00268B2420DD0B2F1804F0AD00F4BEA
:105120009A4207D00E4B9A4204D0BA4202D00D4B9D
:105130009A4204D1896824F080031943916080F871
:105140003D50002180F83C100846F0BD0220F0BD23
:10515000002C0140003401408FFFFFFD000400409F
:10516000000800400040014010B50446022249B149
:1051700004290ED0082913D094F84700012816D02E
:10518000012010BD94F844000128F9D184F844208E
:105190000FE094F845000128F2D184F8452008E09A
:1051A00094F846000128EBD184F8462001E084F809
:1051B00047200422206801F080FB2068416C41F404
:1051C000004141641049206888420ED0B0F1804F00
:1051D0000BD00E49884208D00D49884205D00D49B0
:1051E000884202D00C49884207D181680B4A11409D
:1051F000062906D0B1F5803F03D0016841F00101D6
:105200000160002010BD0000002C0140000400409F
:105210000008004000340140004001400700010048
:10522000704710B5040003D094F83D0010B107E0BA
:10523000012010BD002084F83C00204600F022F838
:10524000022084F83D00211D206801F0CBFA0120E6
:1052500084F8480084F83E0084F83F0084F8400059
:1052600084F8410084F8420084F8430084F8440044
:1052700084F8450084F8460084F8470084F83D002F
:10528000002010BD08B5194A01681948914216D18D
:10529000016E41F400610166006E002200F40060BE
:1052A000009011461820FEF7DFFE1820FEF7CEFE14
:1052B000002211461920FEF7D7FE192010E00D4AF2
:1052C000914211D1816D41F002018165806D002212
:1052D00000F00200009001211D20FEF7C5FE1D20F8
:1052E000BDE80840FEF7B2BE08BD0000002C01403A
:1052F000001002400004004090F83D10012901D048
:1053000001207047022180F83D1000680F49884253
:105310000ED0B0F1804F0BD00D49884208D00D4916
:10532000884205D00C49884202D00C49884207D1F6
:1053300081680B4A1140062906D0B1F5803F03D0A1
:10534000016841F00101016000207047002C01401C
:1053500000040040000800400034014000400140CB
:105360000700010090F83D10012901D0012070478D
:10537000022180F83D100168CA6842F00102CA604B
:105380000068104988420ED0B0F1804F0BD00E4912
:10539000884208D00D49884205D00D49884202D084
:1053A0000C49884207D181680B4A1140062906D072
:1053B000B1F5803F03D0016841F001010160002098
:1053C00070470000002C014000040040000800402D
:1053D00000340140004001400700010070B5044660
:1053E00090F83C000025012814D0012684F83C6088
:1053F000022084F83D0022689068364B184020F463
:105400007F409060086870282ED010DC10F00F0FDD
:1054100003D021E04FF0020070BD4FEA2012072AAE
:105420001AD2DFE802F0525252524A3840002A4B58
:10543000C21A984249D009DCB0F5805F0DD0B0F5B2
:10544000005F1CD0B0F1101F06D13EE0102A3CD006
:10545000202A3AD0502A38D0012584F83D60002017
:1054600084F83C00284670BDCB68D1E90121206852
:1054700001F030FA2068816841F0770109E0CB68DB
:10548000D1E90121206801F025FA2068816841F402
:1054900080418160E1E7CA684968206801F0C4FB87
:1054A0005021206806E0CA684968206801F0CDFBF9
:1054B0006021206801F018FACFE7CA6849682068BF
:1054C00001F0B2FB40212068F4E722680146104653
:1054D000F0E7000088FFCEFF2000100070472DE9A4
:1054E000F04104460068C66805694FF00007A90747
:1054F00013D5B10711D5F91E01610120207720686D
:1055000080698007204602D0FFF7E8FF04E000F042
:1055100009F9204600F0CBF92777680716D5700700
:1055200014D521686FF004000861022020772068FC
:10553000806910F4407F204602D0FFF7CFFF04E0DF
:1055400000F0F0F8204600F0B2F92777280715D5CB
:10555000300713D521686FF0080008610420207718
:105560002068C0698007204602D0FFF7B7FF04E03B
:1055700000F0D8F8204600F09AF92777E80616D50B
:10558000F00614D521686FF010000861082020771C
:105590002068C06910F4407F204602D0FFF79EFFCC
:1055A00004E000F0BFF8204600F081F92777E80713
:1055B00008D0F00706D021686FF00100086120468E
:1055C00000F088FA280601D4A80408D5300606D5CC
:1055D00021686FF4025008612046FFF71DFDE805C1
:1055E00008D5300606D521686FF480700861204622
:1055F000FFF711FD680608D5700606D521686FF023
:1056000040000861204600F097FAA80608D5B006C9
:1056100006D521686FF0200008612046FFF7FDFCE9
:10562000E80208D5F00206D521686FF48010086101
:105630002046FFF749FDA80208D5B00206D521682B
:105640006FF4001008612046FFF736FD680208D5A8
:10565000700206D521686FF4800008612046FFF7CC
:1056600034FD28020AD5300208D521686FF4000005
:1056700008612046BDE8F041FFF7D2BDBDE8F081EA
:105680002DE9F04186B0044614216846FAF790FEF1
:105690002049206888423AD11F48C16C41F020015E
:1056A000C164C16C01F020010591C16C41F00101A0
:1056B000C164C16C01F001010591C16C41F00201AE
:1056C000C164C06C4FF0010800F002000627CDF85D
:1056D0000080CDE9047001AA02240025032682E897
:1056E000700069460D48FEF701FB4FF4F0608DE84D
:1056F000F10069464FF09040FEF7F8FA01AACDF8A4
:10570000008082E8F00069460548FEF7EFFA06B02F
:10571000BDE8F081002C0140001002400014004858
:1057200000040048704770B5044690F83C0000261D
:105730000D4601280BD0012084F83C000C2A4AD0E9
:1057400007DC82B1042A20D0082A06D131E00220E9
:1057500070BD102A53D0142A63D00126002084F88B
:105760003C00304670BD206801F0C8F820688169AF
:1057700041F0080181612068816921F004018161A3
:10578000206881692A69114311E0206801F004F959
:105790002068816941F4006181612068816921F498
:1057A00080618161206881692A6941EA0221816101
:1057B000D4E7206801F038F92068C16941F0080198
:1057C000C1612068C16921F00401C1612068C1691B
:1057D0002A69114311E0206801F06EF92068C1695F
:1057E00041F40061C1612068C16921F48061C16137
:1057F0002068C1692A6941EA0221C161AEE72068D7
:1058000001F0A2F92068016D41F0080101652068EE
:10581000016D21F0040101652068016D2A691143C1
:1058200011E0206801F0C8F92068016D41F40061C1
:1058300001652068016D21F4806101652068016DBA
:105840002A6941EA0221016588E710B5040003D006
:1058500094F83D0010B107E0012010BD002084F84D
:105860003C00204600F022F8022084F83D00211D73
:10587000206800F0B7FF012084F8480084F83E005B
:1058800084F83F0084F8400084F8410084F8420026
:1058900084F8430084F8440084F8450084F8460006
:1058A00084F8470084F83D00002010BD7047704721
:1058B00030B50446022269B1042912D0082917D054
:1058C0000C291CD0102921D094F84300012824D0A1
:1058D000012030BD94F83E000128F9D184F83E2023
:1058E0001DE094F83F000128F2D184F83F2016E033
:1058F00094F840000128EBD184F840200FE094F8A0
:1059000041000128E4D184F8412008E094F84200E5
:105910000128DDD184F8422001E084F843200122EF
:10592000206800F0BDFF194B20681949194A9842B8
:1059300009D0884207D0904205D0174DA84202D026
:10594000164DA84203D1456C45F4004545642068D6
:1059500098420CD0B0F1804F09D0114B984206D03C
:10596000104B984203D0884201D0904207D1816801
:105970000D4A1140062906D0B1F5803F03D00168D9
:1059800041F001010160002030BD0000002C014009
:105990000034014000400140004401400048014003
:1059A00000040040000800400700010070B5002519
:1059B0000446022269B1042916D0082955D00C29C1
:1059C0005ED0102963D094F84300012866D00120EE
:1059D00070BD94F83E000128F9D184F83E2020687B
:1059E000C26842F0020209E094F83F000128EED1BB
:1059F00084F83F202068C26842F00402C26001229D
:105A0000206800F04DFF2B4920682B4A2B4B884221
:105A100009D0904207D0984205D0294EB04202D01A
:105A2000284EB04203D1466C46F4004646642068D6
:105A300088420CD0B0F1804F09D02349884206D06B
:105A40002249884203D0904201D0984207D1816810
:105A50001F4A1140062906D0B1F5803F03D00168E6
:105A600041F001010160284670BD94F84000012812
:105A7000ADD184F840202068C26842F00802BDE73A
:105A800094F841000128A2D184F8412008E094F85C
:105A9000420001289BD184F8422003E084F843208F
:105AA0000C2901D00125DEE72068C26842F010020F
:105AB000A4E70000002C01400034014000400140F8
:105AC000004401400048014000040040000800403C
:105AD0000700010010B5044600681349884219D038
