:020000040800F2
:10000000700F0020ED010008BF650008A75F000821
:10001000B16500084D0C0008E37000080000000006
:100020000000000000000000000000002D6B000830
:10003000C9110008000000002D690008AF6B00081E
:10004000070200080702000807020008070200086C
:10005000070200080702000807020008070200085C
:10006000070200080702000807020008810E0008C6
:10007000070200080702000807020008070200083C
:10008000070200080000000001090008070200083C
:10009000070200080117000807020008070200080D
:1000A000296C0008356C00080702000807020008E8
:1000B000416C00084D6C00080702000807020008A8
:1000C000070200080702000807020008316900085B
:1000D00007020008070200080702000807020008DC
:1000E00007020008070200080702000807020008CC
:1000F00007020008070200080702000800000000CD
:1001000000000000070200080000000007020008CD
:1001100007020008000000000702000807020008AC
:100120008D0E0008990E000807020008070200085B
:10013000070200080000000000000000070200089D
:10014000070200080702000800000000000000008D
:10015000000000000000000000000000000000009F
:10016000000000000000000000000000070200087E
:10017000070200080000000000000000000000006E
:10018000000000000702000800000000000000005E
:10019000000000000000000000000000000000005F
:1001A000000000000000000007020008070200082D
:1001B000070200080702000807020008000000000C
:1001C000000000000702000800000000000000001E
:1001D0000702000807020008DFF80CD000F07EFBE1
:1001E00000480047C9710008700F0020064880478A
:1001F00006480047FEE7FEE7FEE7FEE7FEE7FEE70C
:10020000FEE7FEE7FEE7FEE70D6C0008D9010008F7
:100210009FED1A1AF5EE000A40EE010ABDEEE00A63
:10022000F5EEC00A10EE100AF1EE10FA38BF401ECB
:1002300000EE100A1349F7EE001AB8EEC00A30EECD
:10024000C00ADFED0F0A20EE200AFCEEC00A10EE15
:10025000900AC0F3080000EE900A01EB8000F8EE6F
:10026000600A90ED011A70EE600A90ED000A71EEDE
:10027000E01A21EE800A00EE810A704783F9223EDF
:100280000000004418730008B5EEC00AF1EE10FA41
:1002900007D2DFED1E0AB4EEE00AF1EE10FAA8BFB5
:1002A0007047DFED1B0AB5EEC00A60EE200ABDEE16
:1002B000E01A11EE100AF1EE10FA38BF401E00EEFF
:1002C000100A1549F7EE001AB8EEC00A30EEC00A5F
:1002D000DFED100A60EE200ABCEEE00A10EE100A14
:1002E000C0F3080000EE100A01EB8000B8EE400AEF
:1002F00090ED011A70EEC00A90ED000A71EEE01A5E
:1003000021EE800A00EE810A70470000CD024CB455
:1003100083F9223E00000044187300082DE9F05FC5
:100320000546002092469B46884606468146402464
:100330001BE0284641464746224600F018FA53463D
:100340005A46C01A914110D311461846224600F071
:10035000FFF92D1A67EB01084F46224601200021C4
:1003600000F0F6F917EB00094E41201EA4F101043C
:10037000DFDC484631462A464346BDE8F09F40EA66
:1003800001039B0703D009E008C9121F08C0042A13
:10039000FAD203E011F8013B00F8013B521EF9D2FA
:1003A0007047D2B201E000F8012B491EFBD2704722
:1003B0000022F6E710B513460A4604461946FFF731
:1003C000F0FF204610BD2DE9FE4F804681EA030074
:1003D000C00F0C46009021F0004123F00045B8EB1F
:1003E0000200A94105D24046214690461C460B46D4
:1003F000024623F00040104347D0270DC7F30A0000
:10040000C3F30A510290401A019040286BDAC3F3FB
:10041000130040F4801B0098924620B10023D2EBD9
:10042000030A63EB0B0B01985946C0F1400250469A
:1004300000F08EF906460D4650465946019A00F0E6
:10044000A6F910EB08006141002487EA115284EA02
:10045000E7731A4340D0009A62B3019A012A4FEA27
:10046000075215DC001B61EB02014FF0004202EA6B
:100470000752CDE90042001C41F5801132462B465F
:1004800000F0DDF903B0BDE8F08F40462146F9E702
:10049000001B61EB0201001C41F5801300185B4159
:1004A0002018A2F5001747EB030140EAD570B619F2
:1004B0006D4111E06D084FEA360645EAC0754FEA16
:1004C0000752001B61EB0201001C41F58011490835
:1004D0004FEA30000019514132462B4603B0BDE8C7
:1004E000F04F00F09DB90098012240000023D0EBAE
:1004F000020263EBE073009821464FEAE074B8EB28
:10050000000061EB0401E9E783F000435BE781F061
:10051000004158E72DE9FE4F81EA030404F000444E
:1005200021F0004100944FF0000B23F0004350EA0B
:1005300001045ED052EA03045BD0C3F30A54C1F352
:100540000A552C44A4F2F3340194A0FB0254C1F3E5
:10055000130141F48011C3F3130343F4801301FB2F
:10056000024400FB034E840A970A44EA815447EA96
:100570008357A4FB076802958D0A05FB07854FEAA0
:10058000932C04FB0C542705029D4FEA065847EABA
:100590001637B5EB08056EEB070C870E920E47EA8F
:1005A000811742EA8312A7FB0201B6EB0B0164EB51
:1005B00000042B0D43EA0C335E1844EB1C50DA4662
:1005C0005146E7FB0201C5F313044FEA0B3343EA3C
:1005D00014534FEA0432019C43EA0603A4F10C04CD
:1005E0000294009CCDE900B400F029F903B0BDE805
:1005F000F08F00200146F9E72DE9F04D81EA030470
:1006000004F0004B21F0004514464FF0000A23F09F
:10061000004150EA050220D054EA01021DD0C5F382
:100620000A570246C5F31303C1F31300C1F30A5678
:1006300040F4801543F48013A7EB0608101BD64640
:1006400008F2FD3873EB050002D308F1010801E060
:1006500092185B41B8F1000F03DA00200146BDE8B3
:10066000F08D00204FF48011064684460EE0171BE3
:1006700073EB050705D3121B63EB050306434CEA36
:10068000010C49084FEA300092185B4150EA01071B
:10069000EDD152EA030012D082EA040083EA050198
:1006A000084305D0101BAB4106D20122002306E00F
:1006B00000224FF0004302E06FF0010253101AEBEA
:1006C00006004CEB085110EB0A0041EB0B01BDE8B2
:1006D000F04D00F0A5B830B404469623080021463A
:1006E00004D0B62330BC002200F06CB820460021B4
:1006F000F8E700F0004230F000400AD0C10D01F5EB
:100700006071C0F3160042EA0151C208400711436C
:10071000704700200146704701F0004330B421F0DB
:10072000004150EA010206D00A0DA2F56072C1F341
:100730001301002A02DC30BC00207047440F44EA59
:10074000C104C100E01830BC00EBC25000F031B869
:10075000202A04DB203A00FA02F100207047914081
:10076000C2F1200320FA03F3194390407047202A76
:1007700004DB203A21FA02F00021704721FA02F34B
:10078000D040C2F120029140084319467047202A08
:1007900006DBCB17203A41FA02F043EAE07306E0A9
:1007A00041FA02F3D040C2F12002914008431946B9
:1007B00070470029A8BF7047401C490008BF20F0BF
:1007C0000100704710B4B0FA80FC00FA0CF050EA57
:1007D000010404BF10BC704749B1CCF1200421FAD8
:1007E00004F411FA0CF118BF012121430843A3EBD3
:1007F0000C01CB1D4FEA00614FEA102042BF0020E0
:1008000010BC704700EBC35010440029A4BF10BCBB
:100810007047401C490008BF20F0010010BC704721
:1008200010B5141E73F1000408DA401C41F10001F8
:1008300092185B411A4301D120F0010010BD2DE94F
:10084000F04D92469B4611B1B1FA81F202E0B0FA46
:1008500080F220329046FFF77BFF04460F4640EAC5
:100860000A0041EA0B0153465A46084313D0114689
:1008700053EA010019D0C8F140025046FFF777FF54
:1008800005460E46504659464246FFF761FF08436B
:1008900005D0012004E020463946BDE8F08D002057
:1008A000054346EAE0762C4337430A986305E40A99
:1008B000A0EB08000022FD0A44EA47540A3002D5A2
:1008C00000200146E9E7010510196941DDE9084505
:1008D00000196941BDE8F04DA2E70000064C074D44
:1008E00006E0E06840F0010394E807009847103400
:1008F000AC42F6D3FFF774FC1C7B00083C7B00087D
:10090000014802F0CFBB0000F800002010B5846A57
:10091000E16D11F0500F06D0E16DC90625D52046D6
:1009200002F0BEFB10BDE06D40F40070E065206891
:100930000168090716D505F099FB78B12068C068F1
:10094000800400280ADBE06D20F48070E065E06D33
:10095000C00403D4E06D40F00100E065204602F0E1
:100960009DFB10BDC0688007EBE7616D496BBDE87A
:100970001040084710B5806AC16D41F04001C16563
:10098000016E41F00401016602F08AFB10BD10B552
:10099000806A02F084FB10BD70B50446006881686F
:1009A000C1F3400505F052FB48B345BB20688168A0
:1009B00001F00D01012914D18168124A1140891CEE
:1009C000816021680320086003F0EAFC054612E01C
:1009D00003F0E6FC401B02280DD920688068C007A0
:1009E00009D0E06D40F01000E065206E40F001009D
:1009F0002066012070BD20688068C007E8D1002013
:100A000070BD0000C0FFFF7FF8B5044600200090D5
:100A1000206805F01BFBE8BB20688168214A114271
:100A20002ED18168D6433140491C81601E488068C0
:100A300000F0E07000020DD51C481D490068B0FBB5
:100A4000F1F0401C00EB4000800000E0401E0090F0
:100A50000028FBD103F0A4FC05461CE005F0F6FAE3
:100A600020B9206881683140491C816003F098FCFE
:100A7000401B02280FD920680068C043C0070AD075
:100A8000E06D40F01000E065206E40F0010020664F
:100A90000120F8BD04E020680168C943C907DDD121
:100AA0000020F6E73F00008000030050F000002027
:100AB000400D03009FED090A80ED000A80ED010A58
:100AC00080ED020A80ED030A80ED040A80ED050A3C
:100AD000B7EE000A80ED060A704700000000000033
:100AE00070B51748FFF7E6FF1548DFED160A144DFD
:100AF00090ED060A1448002420EE200AC03DA5F11E
:100B0000600680ED000A05EB441106EB0410082294
:100B100006F00EF8641C062CF5DB0C4800684168F2
:100B200041F0200141607F21084801F09DFC074809
:100B300001F0A4FFBDE87040642002F0FBBE00009D
:100B4000680900206740533AB4000020F8000020F4
:100B50002DE9F047174EDFF8608000248146371FEB
:100B6000A8F1180556F82410484601F06FFF00EE72
:100B7000100AD7ED000A08EB0410B8EE400A20EE88
:100B8000200A05F0F5FF05EB8400641C80ED000AE7
:100B9000032CE7DB094895ED000A80ED000A95ED8E
:100BA000020A80ED010A95ED010A80ED020ABDE816
:100BB000F0870000B80000204808002068090020E5
:100BC0002DE9F0411C4E1D4F032406F1240806F1C7
:100BD0000C0536F81400D7ED000A00EE100A08EBF9
:100BE0000410B8EE400A20EE200A05F0C1FF05EB24
:100BF0008400641C80ED000A062CEADB95ED030AF4
:100C0000F2EE060A0E4820EE200ADFED0E0A9FEDF6
:100C10000E1A80ED030A95ED040A70EE600AB0EE3C
:100C2000000A00EE810A80ED040A95ED050A80EDC8
:100C3000050ABDE8F081000024080020B40000206F
:100C4000680900205C8F423F0000C843FEE70000B7
:100C50000EB59FED6E1A6E48B6EE005A60EE811A20
:100C6000B0EE081A90ED012A20EE011A9FED694AB4
:100C700022EE053A61EE822A71EE813AF5EEC00A63
:100C800062EE842A23EE832A71EEC13A22EE042A10
:100C900023EE833A23EE043AF1EE10FA01DD01204F
:100CA00000E00020B4EEE11AF1EE10FA01DD0121BE
:100CB00000E00021B8EE081A00EB410120EE011A15
:100CC000B4EEE11AF1EE10FA01DD012000E000209F
:100CD00001EB80005049085C9FED4C1A4C49F6EE40
:100CE000003A60EE810AB0EE081A60EE011A91ED4A
:100CF000011A30EEE10A61EE233A20EE230ADFED1D
:100D0000454A70EEA11A60EE810A20EE640A0728B7
:100D100061EEA31A60EEE40A61EEE41A21D2DFE884
:100D200000F02004090E13181B00B0EE401AB0EEBC
:100D3000620A1AE0B0EE431AB0EE420A15E0B0EED5
:100D4000621AB0EE610A10E0B0EE601AB0EE430A2B
:100D50000BE0B0EE611A08E0B0EE421AB0EE600AA5
:100D600003E09FED2E0AB0EE401A2D4A71EE000A04
:100D700010EE901A914205DDC4EE201A21EE211AE0
:100D800020EE210AF5EE001A234974EE410A00EB29
:100D900040000831084470EEC00A6B4660EEA10ABC
:100DA000B0EE602A01EE052AB0EE421AF0EE411ACA
:100DB00040EE051ACDEC030A017803EB810191EDB9
:100DC000000ABCEEC00A10EE101A8AB24178807890
:100DD00003EB810103EB800091ED000A114BBCEEA7
:100DE000C00A10EE101A90ED000A1A6089B2BCEE2B
:100DF000C00A10EE100A80B21B1D18601B1D19607E
:100E0000094B1A87598798870EBD0000D7B3DD3F7D
:100E10000400002000D00446D0720008000000004A
:100E200000D00446342C01404404002010B50C4C82
:100E30009FED0A0A84ED010AB0EE080A06F062F995
:100E4000D4ED010A20EE200A84ED020AB7EE080A6A
:100E500020EE800A84ED030A10BD0000ABAAAA3D73
:100E60000400002080ED000A30EEC10ADFED030A25
:100E700020EE200A81ED000A704700003ACD133FB2
:100E8000014802F053BC000064010020014802F058
:100E90004DBC00008C020020014802F047BC00005D
:100EA000EC0200200D4902688A4201D20C4901E09F
:100EB0000B492031D2B21423083AB2FBF3F2436C4F
:100EC00002F01F0223F003031944816404498031B6
:100ED000C16401219140016570470000080402408F
:100EE000000802400179074A02EB81024265054A87
:100EF0004432491E826501F01F0201219140C16503
:100F000070470000FC08024030B5D0E91345656029
:100F1000446D14B1D0E91645656090F8444004F082
:100F20001F050124AC40056C6C6004686360836835
:100F3000102B036803D099600068C26030BD9A60CE
:100F40000068C16030BD10B5642002F0F3FC4FF0C2
:100F5000904401221021204603F01DFA642002F083
:100F6000E9FC20460022BDE81040102103F013BA2E
:100F700010B5012220214FF0904003F00CFABDE89B
:100F800010400A2002F0D6BCF0B585B014216846A6
:100F9000FFF70EFA4FF090461021304603F08AF822
:100FA0004021304603F086F8234F0221384603F0F3
:100FB00081F800221021304603F0EDF90022402193
:100FC000304603F0E8F900220221384603F0E3F945
:100FD0002021304603F06EF801222021304603F034
:100FE000DAF91020009001250024CDE9015469466A
:100FF0003046039403F0EAF802200090CDE9015452
:1010000069463846039403F0E1F820200090CDE9CA
:10101000015469463046039403F0D8F84020CDE9E6
:101020000004029469463046039403F0CFF801208F
:1010300002F080FC05B0F0BD0014004810B5FFF7C9
:10104000A3FFFFF795FFBDE81040FFF77CBF00004E
:101050000C4908B50A480A78002A0FD101220A7003
:10106000094A52680092026A009B9A4202D9C269F8
:10107000521CC261009A02620020087008BD000084
:10108000D0090020C8000020001000E00B480A4AE8
:101090004168D2ED050A4268521AF8EE601A01EE74
:1010A000102AB8EE411A61EE801AB4EEE11AF1EEA0
:1010B00010FAF0D370470000D0090020001000E0C3
:1010C00010B5084C00F038F80748216841436068C3
:1010D00000EB4002C2EBC01001EBC00021890844C4
:1010E000002110BDD009002040420F000F4A10B56A
:1010F0000D49136843F0807313600D4B00225A6052
:101100001C6844F001041C600A4B58434FF47A7386
:101110000861B0FBF3F04861064B0869B0FBF3F0DF
:10112000C1E906020A6210BDD0090020FCED00E012
:10113000001000E040420F002DE9F8432148204C08
:1011400040680090FFF784FF0027E16900984FF0A6
:10115000FF323D46E1FB0205C4E90A05D4F81080E0
:10116000064642463B462946FFF7D8F80246304637
:10117000A8FB02C607FB026608FB0161B0EB0C008E
:1011800065EB010522600646002329466269FFF7E8
:10119000C5F860606169002300FB01F2B01A65EBDD
:1011A0000701A269FFF7BAF82081D4E9000100EB3A
:1011B0004002C2EBC01001EBC000E060BDE8F88364
:1011C000D0090020001000E0704700007CB5002529
:1011D00001950446018940682A4603F0DCF8009531
:1011E000042304F1480201A9206804F001F82189D0
:1011F0000122606803F0CFF80449A1F1480000F033
:1012000009F80348C189491CC1817CBD480A0020F6
:10121000300400202DE9F0410F462DED028B0446ED
:10122000FFF74EFF05463888DFED3F1A40BA00B29F
:1012300000EE100ADFED3D0A0E46B8EEC00A3C494A
:1012400020EE210A60EE200AC4ED050A94ED061A8C
:1012500030EEC10A10EE100A84ED070A884202DD62
:1012600030EE610A06E010EE100A3249884203D9D6
:1012700030EE210A84ED070AB5EEC00A2E49F1EEE0
:1012800010FA2E480AD211EE102A8A4206D910EE20
:10129000902A824202DD208A401E0EE0B5EEC00A8E
:1012A000F1EE10FA0ADD11EE102A824206DD10EE90
:1012B000900A884202D9208A401C2082206B05F0C7
:1012C00057FC84ED0B0AE068B0EE408A281A66F1FC
:1012D0000001FFF700FA00EE100A9FED191AE56011
:1012E000C0EE010A9FED171A88EE010A9FED161A4B
:1012F00020EE011A81EE200A84ED0F0AD4ED110AC6
:1013000020EE200A84ED100A94ED050A84ED060A09
:10131000606A05F02DFC84ED080A208A6082BDEC2D
:10132000028BBDE8F08100000000B443000080376C
:1013300000003443000034C30000B4C20000B442D3
:101340000024744900003443DA0F494090ED080A44
:10135000B0F910009FED041A00EE900AF8EEE00AD2
:1013600000EE810A704700000000B44390ED0F0AC0
:10137000704700002DE9FC4717460446DDE90B02E3
:101380000E46DDF828900D99C4E90002218184ED14
:10139000110A00252582984665829FED980A84ED02
:1013A000080A84ED0B0AA56384ED0F0A84ED100A88
:1013B00084ED050A84ED060A84ED070A02F0F0FFC9
:1013C000E060C4E90C67394640223046C4E9098927
:1013D00005F0AEFBD4E90901012205F0A9FBA564E3
:1013E00001958DF804508DF8055021890022606820
:1013F00002F0D1FF6426009604F1480202239146D0
:1014000001A9206803F0F4FE21890122606802F03E
:10141000C2FF012002F08EFA8DF804508DF80550BD
:1014200021890022606802F0B6FF009602234A4636
:1014300001A9206803F0DCFE21890122606802F026
:10144000AAFF012002F076FA8DF804508DF80550BD
:1014500021890022606802F09EFF009602234A461E
:1014600001A9206803F0C4FE21890122606802F00E
:1014700092FF012002F05EFAEA278DF804704FF027
:1014800054088DF8058021890022606802F083FFEE
:10149000009602234A4601A9206803F0A9FE21898B
:1014A0000122606802F077FF012002F043FA1C205D
:1014B0008DF804008DF8055021890022606802F043
:1014C0006AFF009602234A4601A9206803F090FEB5
:1014D00021890122606802F05EFF012002F02AFAF1
:1014E0008DF804508DF8055021890022606802F0C3
:1014F00052FF009602234A4601A9206803F078FEB5
:1015000021890122606802F046FF012002F012FAF0
:10151000019521890022606802F03DFF00960423B6
:101520004A4601A9206803F063FE21890122606810
:1015300002F031FF012002F0FDF98DF804708DF802
:10154000058021890022606802F025FF00960223B1
:101550004A4601A9206803F04BFE218901226068F8
:1015600002F019FF012002F0E5F90D208DF80400CA
:101570008DF8055021890022606802F00CFF00966A
:1015800002234A4601A9206803F032FE2189012284
:10159000606802F000FF012002F0CCF98DF80450E1
:1015A0008DF8055021890022606802F0F4FE009653
:1015B00002234A4601A9206803F01AFE218901226C
:1015C000606802F0E8FE012002F0B4F9019521897B
:1015D0000022606802F0DFFE009604234A4601A95B
:1015E000206803F005FE21890122606802F0D3FE25
:1015F000012002F09FF9BDE8FC8700000000000018
:101600007047000070B5324C3249A07A4000A07299
:10161000207A40002072607A40006072E07A4000D8
:10162000E072207B40002073607B4000607391ED8E
:10163000030AD1ED040A01F1140020EE000A00EEC5
:10164000A00AB5EEC00AF1EE10FA04DBF1EEC00A12
:10165000C0ED000A03E09FED200A80ED000A1F4A5A
:1016600048690025904207DDA07A40F00100A07291
:10167000FF2800D1E57070BD1949C868904207DDA8
:10168000207A40F001002072FF28F4D1657070BD0F
:10169000144A904207DA607A40F001006072FF2835
:1016A000F5D1A57070BD08690F49884207DD207B20
:1016B00040F001002073FF28F4D1657170BD402116
:1016C0004FF0904002F05AFE0028F7D1A57170BD8E
:1016D00014000020440400200000000000007041BD
:1016E00068090020000010410000964301210170AC
:1016F00041708170C170017141718171704700004A
:10170000014802F092BA0000C4010020F0B5D1E90E
:1017100001650C692C430D68C6B145F080452C432A
:10172000D1E90665354391F820704E69406D46EA6F
:10173000076635438E8903EBC30300EBC30345EA19
:101740000645E3E802450020084C0AE044EA8544E7
:10175000E6E71618155CD6F80160001D45EA062577
:1017600020C3CD68655D8542F3D8F0BDED720008F9
:10177000704730B50024039D0160B1F5006F03D3BD
:101780004FF08041416000E04460C0E90242C0E99E
:101790000443C0E90654046230BD000010B588B0AF
:1017A00000240220CDE90240012004904FF48C6017
:1017B0000590019440F2FA70069001A9144802F0D5
:1017C00060F908B1FFF7D4FF022200231146104848
:1017D000009402F084F908B1FFF7CAFF0C4802F048
:1017E0004CFC08B1FFF7C4FF00220121084802F0B9
:1017F000B3F808B1FFF7BCFF00224FF40021044802
:1018000002F0AAF8002801D0FFF7B2FF08B010BD1F
:10181000C401002070B50C468AB04FF400111E467A
:1018200005464B100091314601A8FFF7A2FF242284
:1018300001A90548FEF7A3FD224601A9284602F0AA
:10184000FBF80AB070BD0000840900202DE9FF41BB
:101850007E4D0C46032695F8681040F26357012828
:101860004AD00422022859D0052873D0072870D006
:1018700009286BD1032904D0754804F0E3FF85F8EB
:101880006860E178206861F31F6000EE100A70481C
:10189000B8EEC00A80ED010AE279616862F31F6167
:1018A00000EE101AB8EEC00A80ED020AE27AA168D2
:1018B00062F31F6100EE101AB8EEC00A80ED030A51
:1018C000E27BE16862F31F6100EE101AB8EEC00A15
:1018D00080ED060AE27C216962F31F6100EE101AB6
:1018E0006946B8EEC00A80ED070A0A2000F0B8F891
:1018F00040F26A530A2225E0032904D0544804F038
:10190000A1FF85F86860E178206861F31F6000EE50
:10191000100AB8EEC00A85ED140A0DE0042901D0C2
:1019200085F86820E178206861F31F6000EE100AF6
:10193000B8EEC00A85ED090A6946032000F090F868
:101940003B46082269464348FFF764FFBDE8FF8134
:1019500000E03DE0042901D085F86820E1782068A6
:1019600061F31F6000EE100A3B48B8EEC00A80ED3C
:10197000010AE279616862F31F6100EE101AB8EEA5
:10198000C00A80ED020AE27AA16862F31F6100EEEC
:10199000101AB8EEC00A80ED030AE27BE16862F338
:1019A0001F6100EE101AB8EEC00A80ED060AE27C54
:1019B000216962F31F6100EE101A6946B8EEC00A91
:1019C00080ED070A062000F04BF840F2665391E7DD
:1019D000042901D085F86820E178206861F31F6050
:1019E00000EE100A1D48B8EEC00A80ED010AE27947
:1019F000616862F31F6100EE101AB8EEC00A80ED54
:101A0000020AE27AA16862F31F6100EE101AB8EED2
:101A1000C00A80ED030AE27BE16862F31F6100EE19
:101A2000101AB8EEC00A80ED060AE27C216962F362
:101A30001F6100EE101A6946B8EEC00A80ED070A71
:101A4000082000F00DF84FF4AD6353E74404002084
:101A500084060020C40100204C050020B0040020B2
:101A600010B5032809D004281ED0062832D0082833
:101A700032D00A2817D129482FE0294810F84C2FD6
:101A80000A7042784A7082788A70C278CA7010F8F8
:101A90002C2C0A7110F82B2C4A7110F82A2C8A7100
:101AA00010F8290CC87110BD1E4802784378C4781C
:101AB00042EA430283789B0043EAC4031A43037952
:101AC00042EA03124379807942EA431242EA8010E3
:101AD000087010BD144800E0144802790A70427979
:101AE0004A7082798A70C279CA70027A0A71427A1F
:101AF0004A71827A8A71C27ACA71027B0A72427B07
:101B00004A72827B8A72C27BCA72027F0A73427FE8
:101B10004A73827F8A73C07FC87310BD8406002019
:101B200044040020140000204C050020B0040020D4
:101B3000DFED0F0AB1EE0C1A4FF4B47130EE200A4B
:101B400020EE010ABDEEC00A10EE100A90FBF1F281
:101B500001FB120000EE100A0648B8EEC00A80EE43
:101B6000201A90ED160ADFED040A11EE200A7047E4
:101B70000000B44344040020DB0FC94010B55048B6
:101B80002DED028B84B000F0A1FB4E48FFF7AEFDB7
:101B9000AA20FFF7ABFA4C494C484FF400434FF0F2
:101BA00090429FED4B0A8DE80F004A4B4A4A4B4941
:101BB0004B48FFF7DFFBFFF7F1FDFEF791FFFFF763
:101BC0003DFA00F0D5FAFFF731F9464803F0B8FDC9
:101BD000444803F0EBFD0021424804F011F90421D0
:101BE000404804F00DF908213E4804F009F90021AD
:101BF0003C4804F081F804213A4804F07DF80821BB
:101C0000384804F079F80021364803F0CFFC04216D
:101C1000344803F0CBFC0821324803F0C7FC0A200B
:101C200005F04CFB05F0E6FA9FED2F8A244CB7EE49
:101C3000080AB0EE481A84ED151A84ED098A84ED7D
:101C4000070A04F13401D4ED0B0A94ED0A0A081FC7
:101C500004F0BEF9D4ED0D0A94ED0C0AFEF7F8FF7E
:101C60004FF47A7001F066FE1D48FFF7AFFA1C488A
:101C70009FED1E0AB1EE0C1AD0ED080A4FF4B471B4
:101C800070EE800A60EE810AFDEEE00A10EE900A26
:101C900090FBF1F201FB120000EE900A1448F8EEFE
:101CA000E00A80EE801A84ED161A84ED098A84ED2C
:101CB000078A04B0BDEC028BBDE8104003F076BD8E
:101CC000440400201400002028020020E00000202E
:101CD0000AD7233C5C0A00206C0A00204C0A002032
:101CE000000A00204C030020000000000000B44364
:101CF0009803002010B5894C2DED028B94F86800F4
:101D0000D8B9874890ED000ADFED860A60EE200A18
:101D1000C4ED170AD4ED180A9FED831A00EE810A6C
:101D200010EE101A80ED000AB1F17E5F05DBF7EED0
:101D3000000A30EE600A80ED000A7C4890ED080A47
:101D4000FFF7F6FE7A4884ED150A90ED000A9FED44
:101D5000791A724931EE400A103184ED000AD0ED53
:101D6000010A71EE600AC4ED010AD0ED021A081FE3
:101D700031EE611A84ED021AFFF774F8674994EDA9
:101D8000151A2031D4ED040A94ED030AA1F10800DC
:101D900004F0A2FD94F86800A0B3604894ED060A30
:101DA0006C3004F093FD5D4894ED070A6C3004F04C
:101DB00090FD5A486C3004F003FCD4ED0A0A5E48EA
:101DC00030EE200A84ED0A0A94ED080A04F07EFD44
:101DD00094ED090A584804F07CFD574804F0F0FBE4
:101DE000D4ED0B0A30EE200A84ED0B0AD4ED0B0A79
:101DF000524910EE900A9FED521A884229D2B0EE55
:101E0000600A28E0FFE79FED4F0A84ED0A0A606E42
:101E1000FEF76FFC41EC180B206EFEF76AFC9FED9D
:101E20004A1B53EC112BFEF775FB53EC182BFEF7F6
:101E3000E3FB9FED471B53EC112BFEF7C4FA9FED1C
:101E4000461B53EC112BFEF765FBFEF765FCE062C9
:101E5000CCE7B0EE410A10EE100A414A904206DA91
:101E600010EE900A884204D3F0EE410A01E0DFED63
:101E70003D0A3D49C4ED0B0A94ED0A0ADFED3B1A19
:101E800010EE100A884202D2B0EE401A01E0B0EE25
:101E9000611A11EE100A364A904206DA10EE100A64
:101EA000884204D3B0EE610A01E09FED320A1B487C
:101EB00084ED0A0A94F8682000F134013030D2B180
:101EC00094ED151A04F084F8D4ED0D0A94ED0C0A83
:101ED000FEF7BEFE114C143C2089A0F51C511039B0
:101EE00005D1002020810221234802F04CFA207AFB
:101EF000400703D009E094ED171AE3E7FEF760FE10
:101F000000F0A8FA6089401C60812089401C208173
:101F10002068401C2060BDEC028B10BD44040020F2
:101F200004000020DB0FC9403480B739000A0020CC
:101F300068090020E17AD43F4C0500209A99D9C065
:101F40009A99D9C0000000009A9999999999D93F16
:101F5000333333333333E33F0000000000000C40E1
:101F60009A99D9409A99D940333313C0333313C067
:101F700033331340333313400014004870B57348B3
:101F80002DED028BFFF722F9714C94F86800E0B355
:101F9000704EDFED718A714D9FED718A02284ED02F
:101FA000032849D16948FFF7D1F900F0CBF9B1EE28
:101FB000400A84ED130A04F5107004F087FC94EDD8
:101FC000140A04F5107004F084FC04F5107004F099
:101FD000F7FA04F510700078002870D001282BD192
:101FE00004F5107004F04EFCD4ED090A30EE200A1E
:101FF00010EE100AA84273D204F5107004F042FCEF
:10200000D4ED090A30EE200A84E0FFE794ED180AC7
:10201000544804F05BFC94ED190A524804F059FC52
:10202000504804F0CDFA4F4804F02CFCD4ED180AC7
:1020300030EE200A84ED180ABDEC028B70BD4348D7
:10204000FFF794F9B1EE400A84ED180A464804F00F
:102050003DFC94ED190ADFED450A434820EE200AC5
:1020600004F037FC404804F0ABFA3F4804F00AFCA7
:10207000D4ED090A30EE200A10EE100AA84207D269
:10208000394804F0FFFBD4ED090A30EE200A01E0E4
:10209000B0EE480A10EE100AB04254DA324804F0AA
:1020A000F1FBD4ED090A30EE200A10EE100AA84226
:1020B00001D22D4840E084ED098ABDE7FFE72948B9
:1020C0009C3804F0DFFBB1EE400A10EE100AA84283
:1020D00007D224489C3804F0D5FBB1EE400A02E058
:1020E00016E0B0EE480A10EE100AB0422BDA1D4896
:1020F0009C3804F0C7FBB1EE400A10EE100AA8426B
:10210000D9D218489C3804F0BDFBB1EE408AD2E722
:10211000B0EE480A10EE100AB04214DA11489C38AA
:1021200004F0B0FBD4ED090A30EE200A10EE100ADC
:10213000A842C0D20B489C3804F0A4FBD4ED090A95
:1021400030EE208AB7E7B0EE688AB4E7000A0020D4
:10215000440400209A99D93F9A99D93F9A99D9BFB6
:102160009A99D9BF20070020E8050020DB0FC9405D
:1021700010B52DED068B9FED458AF0EE484AB0EE86
:10218000484AF0EE483A9FED429AB0EE493ADFED08
:10219000419AF0EE692ADFED408AB0EE682AF0EE4F
:1021A000681AB0EE681A9FED3DAAB1EE060A012149
:1021B000F0EE4A0A3A4804F068FB3948F0EE484A23
:1021C000B0EE484AF0EE483AB0EE493AF0EE692AED
:1021D000B0EE682AF0EE681AB0EE681AF0EE4A0A1D
:1021E000B1EE060A01219C3004F04FFB9FED2E9AC0
:1021F000F0EE484AB0EE484AF0EE483A9FED293AF0
:10220000F0EE492AB0EE682AF0EE681A9FED271A20
:10221000DFED270A9FED270A0121274804F035FB4F
:102220002548F0EE484AB0EE484AF0EE483AB6EE9D
:10223000003AF0EE082AB0EE682AF0EE681AB0EE26
:10224000681ADFED1E0AB0EE000A00219C3004F08F
:102250001CFBF0EE484AB0EE484AF0EE483AF0EE89
:10226000492AB0EE682AF0EE681AB0EE681ABDECA2
:10227000068BB0EE043A0121BDE81040DFED100AF4
:102280009FED100A104804F000BB0000CDCCCC3DFF
:10229000295C0F3ECDCC0C4100000000B81E053F6C
:1022A000B00400208FC2F53D0000FA43BD378635EB
:1022B000DE21C5388FC2753CE80500206F12833AD5
:1022C0003480B7393D0A573E200700209FED1A0A97
:1022D000DFED1A0A80ED000A80ED010A80ED020AA6
:1022E00080ED030A80ED040A80ED060A80ED070AFE
:1022F00080ED080A80ED090A80ED0A0A80ED0B0ADC
:1023000080ED0C0A80ED0D0AC0ED190A80ED180A67
:10231000DFED0B0A80ED130AC0ED140A80ED150AFB
:1023200080ED160A80ED170A002101874187818719
:10233000032180F86810704700000000000084410D
:10234000DB0FC9C00B48F1EE0C1AD0ED160A80EE77
:10235000A11ADFED090A30EE200ABDEEC00AB8EE80
:10236000C00AC0EE201ADFED050AB0EE410A11EEF8
:10237000A00A7047440400200000B443DB0FC940AA
:1023800070B504462DED028BB0EE408A02F008F8DD
:1023900000EE900A94ED021AF8EE600A70EEC10A9F
:1023A000FCEEE00A10EE905A01F0FAFF00EE900AFF
:1023B000B8EE600A84ED020AD4ED010AF5EEC00A17
:1023C000F1EE10FA32DD10EE900AB0F17E5F2DDCF6
:1023D000B7EE001AD4ED051A31EE601A21EE211A7B
:1023E00000EE881A84ED041A84ED051A7DB100EE22
:1023F000105ADFED101AB8EE400A20EE210ADFED88
:102400000E1A20EE210AC0EE801AC4ED001A00EE6A
:10241000105ADFED0A0AB8EE400AC0EE801AB0EE9C
:10242000410AC4ED031ABDEC028B70BDB0EE480A40
:10243000F9E70000DB0FC9406F12833A00007A44CD
:1024400080ED010A9FED020A80ED020A704700004C
:102450000000000003220249024801F0B3B8000066
:102460002A080020F8000020F8B500250446009551
:1024700090F858000E4601280BD0012084F858002F
:102480002046FEF789FA0200E06D04D040F010000B
:102490002AE00220F8BD20F4885040F00200E065F8
:1024A00020688168134B194006F08043194341F0BE
:1024B00000418160104B20680EE00099491C00919A
:1024C000994209D3E06D20F0020040F01000E06571
:1024D00084F858500120F8BD8168C90FEDD1E06D36
:1024E00020F0020040F00100E06584F858501046EA
:1024F000F8BD0000C0FFFF3F02DE0400704700008F
:102500002DE9F84F4FF000080446CDF800800D4645
:1025100094F85820DFF80094616947464046012A44
:102520000AD00126FD4A84F8586041B1296A012980
:1025300005D0A36EEBB129E00220BDE8F88F6868F2
:10254000092838D1A96A4FF4785041B12B6801F0BD
:102550007C0100EA53400843E96A084302E0296825
:1025600000EA51402168CB6C13400343CB646066A2
:1025700021E0C4E91971A96A286A31B101F07C012E
:10258000401E0843E96A084300E0401E2968C1F381
:102590008463297901F01F018B400343A06E401E24
:1025A000A066616E41EA0301616604D12068C36CD4
:1025B00013400B43C364206803F044FD58B995F8F9
:1025C000250098B12068C16895F8262021F44011B3
:1025D00041EA4251C160206803F044FD8246206810
:1025E00003F030FD5AEA00010DD0FAE095F826001C
:1025F00095F82410400540EA01512068C26822F491
:1026000040121143E6E7A86A30B1E86A20B195F8B4
:10261000250001285DD003E095F82500012804D0AD
:102620002068C16821F0007103E02068C16841F0B2
:102630000071C16095F83000012851D0206801690F
:1026400021F002010161AA6829682068B2F1004FF7
:1026500037D003F022FD2068416921F0004141613B
:1026600020686A69C168C1F3C10149008A402969CB
:10267000042943D000EB81002B68016EDFF8A0C273
:1026800003F0F84301EA0C011343194341F0004100
:10269000016622682869A96902EB8000026E22F0B7
:1026A00080720A430266297F22682869012922D0A4
:1026B000002102EB8000026E22F000720A430266E3
:1026C0008FE0002203F0E9FC2068416941F00041FD
:1026D000C5E7E06D40F02000E0654FF00108A9E794
:1026E000D5E90D1001432068026922F4FF7242F01F
:1026F00002021143A6E74FF00071DAE7002103F070
:1027000097FC400320684FF0000171D003F090FC6B
:1027100090FAA0F0B0FA80F1286842036DD090FAE8
:10272000A0F0B0FA80F0814204D100221146206866
:1027300003F0CAFC0121206803F07AFC4003206802
:102740004FF001015CD003F073FC90FAA0F0B0FAF6
:1027500080F12868420358D090FAA0F0B0FA80F0D7
:10276000814204D100220121206803F0ADFC022146
:10277000206803F05DFC400320684FF0020147D061
:1027800003F056FC90FAA0F0B0FA80F128684203FA
:1027900043D090FAA0F0B0FA80F0814204D1002238
:1027A0000221206803F090FC0321206803F040FC24
:1027B000400320684FF0030132D003F039FC90FA57
:1027C000A0F0B0FA80F1286842032ED090FAA0F071
:1027D000B0FA80F0814204D100220321206803F086
:1027E00073FC206803F036FC10B3B3E000E004E0B3
:1027F00003F01EFCC0F384618EE7C0F3846092E7AF
:1028000003F016FCC0F38461A3E7C0F38460A7E77C
:1028100003F00EFCC0F38461B8E7C0F38460BCE74A
:1028200003F006FCC0F38461CDE7C0F38460D1E718
:1028300021682A7B286851F8B03FC0F3120C23EAC4
:102840000C0302F0180C374A22FA0CF20240134330
:102850000B60E96849457DD1286841031AD090FA98
:10286000A0F1B1FA81F1491C01F01F0109294FEAD9
:10287000403130D8002910D090FAA0F1B1FA81F19E
:1028800001F1010101F01F0106FA01F608D1C0F3C0
:10289000846109E0C0F38461E5E7C0F38461EFE798
:1028A00090FAA0F1B1FA81F101F1010101F01F01EB
:1028B00046EA816102D1C0F3846003E090FAA0F09F
:1028C000B0FA80F000F1010000F01F0000EB4000C2
:1028D00041EA00513AE000290DD090FAA0F1B1FA96
:1028E00081F101F1010101F01F0106FA01F605D1A4
:1028F000C0F3846106E0C0F38461F2E790FAA0F1CE
:10290000B1FA81F101F1010101F01F0146EA816193
:102910000BD1C0F384600CE000007F400040100445
:1029200000F0FF03FFFF070014E090FAA0F0B0FAF8
:1029300080F000F1010000F01F002B4A00EB400086
:1029400002EB005041EA000141F00071AA682068E2
:1029500003F0A3FB25482968014240D0244A90682F
:10296000244B00F0E070994202D0234B99421BD1D6
:10297000030219D42168B1F1A04F30D1916840F41D
:10298000000021F0E071014391601C481C4900687F
:10299000B0FBF1F0801C00EB4000800000E0401E26
:1029A00000900028FBD11AE0164D174BA94207D121
:1029B000C50105D42168994211D040F0807009E02A
:1029C000124DA9420BD1410209D42168994206D087
:1029D00040F48000916821F0E0710143916084F837
:1029E00058704046A9E50000000020FE0000088065
:1029F00000030050000021C31000C090F000002030
:102A0000400D0300000052C700010050000084CBBD
:102A10000C4910B5884213D10B480168C9070FD083
:102A2000094910390968C906016821F001010160EE
:102A300006D50448FEF78CF8BDE81040FFF75AB9F8
:102A400010BD0000F8000020102C01400068A1F526
:102A500080710F390ED0B1F5837F08D0B1F5037FB7
:102A600002D0D0F880007047D0F88C007047D0F8C2
:102A700088007047D0F88400704770472DE9F04116
:102A800004464548806800F01F05206803F0DAFA24
:102A900008BB2068C168C06C01F0004110F4C07F21
:102AA00000D191B194F85800012814D0012084F885
:102AB00058002046FDF7A8FF01004FF000070CD09A
:102AC00084F858700846BDE8F081E06D40F02000C1
:102AD000E0650120F7E70220F5E7E06DC00504D5C9
:102AE000206E20F00800206600E02766E06D42F2CC
:102AF0000102904340F48050E065284B20684FF07D
:102B0000A046984201D1324600E00246824200D0FF
:102B10001DB9E26D22F48012E2656022026084F841
:102B200058702068C268920203D5426842F48062FD
:102B30004260A06908282068426807D022F040025D
:102B400042602068426842F0200206E022F0200243
:102B500042602068426842F0400242602068984229
:102B600001D1324600E00246824209D045B1062D2D
:102B700006D0072D04D0E06D40F48010E065A1E799
:102B8000C26812F0007F9DD18268054B1A4042F066
:102B90000802826096E70000000300500001005028
:102BA000C0FFFF7F704770472DE9F047044690F85B
:102BB00058009CB00D464FF00009012815D00120A7
:102BC00084F8580000261796189620684FF0A04801
:102BD00040450ED1284F0097384603F043FA82460D
:102BE000206803F03FFA60B10EE002201CB0BDE89F
:102BF000F087E06D40F02000E06584F85860012027
:102C0000F4E7BAF1000F09D0E06D40F02000E06574
:102C10004FF0010984F858604846E7E717482968EB
:102C200040F61F720029816821F4604116D094F8A3
:102C3000383041EA43316B6819438160D8F8081095
:102C4000BB68C1F30001C3F300031943E2D1AB68D1
:102C5000296819438368934319430BE08160D8F8CE
:102C60000810BB68C1F30001C3F300031943D1D1BD
:102C7000816891438160CDE700010050000300505E
:102C80002DE9F84F00270446009790F85800DFF828
:102C9000D8930D46B846012810D0012684F8586014
:102CA000206803F0DBF958B1E06D40F02000E065EA
:102CB000012784F858803846BDE8F88F0220FBE7EA
:102CC000D5E900210C23206803EA91131844036B13
:102CD00001F01F014FF01F0C0CFA01FCC2F38462DB
:102CE00023EA0C038A4013430363206803F0B6F918
:102CF0008246206803F0A2F95AEA00013CD1AA6892
:102D000029682068B2F1004F37D003F0B7F9206886
:102D1000416921F00041416120686A69C168C1F3DD
:102D2000C10149008A402969042931D000EB8100A2
:102D30002B68016EDFF834C303F0F84301EA0C019D
:102D40001343194341F00041016622682869A969CB
:102D500002EB8000026E22F080720A430266297F35
:102D600022682869012910D0002102EB8000026E40
:102D700022F000720A4302667DE0002203F07EF931
:102D80002068416941F00041C5E74FF00071ECE770
:102D9000002103F047F9400320684FF0000171D093
:102DA00003F040F990FAA0F0B0FA80F128684203ED
:102DB0006DD090FAA0F0B0FA80F0814204D10022E8
:102DC0001146206803F078F90121206803F02AF900
:102DD000400320684FF001015CD003F023F990FA22
:102DE000A0F0B0FA80F12868420358D090FAA0F021
:102DF000B0FA80F0814204D100220121206803F062
:102E00005BF90221206803F00DF9400320684FF0C0
:102E1000020147D003F006F990FAA0F0B0FA80F171
:102E20002868420343D090FAA0F0B0FA80F08142C3
:102E300004D100220221206803F03EF9032120681A
:102E400003F0F0F8400320684FF0030132D003F0A4
:102E5000E9F890FAA0F0B0FA80F1286842032ED089
:102E600090FAA0F0B0FA80F0814204D10022032150
:102E7000206803F021F9206803F0E8F810B3AAE015
:102E800000E004E003F0CEF8C0F384618EE7C0F305
:102E9000846092E703F0C6F8C0F38461A3E7C0F34F
:102EA0008460A7E703F0BEF8C0F38461B8E7C0F31D
:102EB0008460BCE703F0B6F8C0F38461CDE7C0F3EB
:102EC0008460D1E721682A7B286851F8B03FC0F3BD
:102ED000120C23EA0C0302F0180C654A22FA0CF2D9
:102EE000024013430B60E968494574D128684103E7
:102EF0001AD090FAA0F1B1FA81F1491C01F01F013A
:102F000009294FEA403130D8002910D090FAA0F1B9
:102F1000B1FA81F101F1010101F01F0106FA01F698
:102F200008D1C0F3846109E0C0F38461E5E7C0F330
:102F30008461EFE790FAA0F1B1FA81F101F10101AA
:102F400001F01F0146EA816102D1C0F3846003E011
:102F500090FAA0F0B0FA80F000F1010000F01F003C
:102F600000EB400041EA005131E000290DD090FA19
:102F7000A0F1B1FA81F101F1010101F01F0106FA9E
:102F800001F605D1C0F3846106E0C0F38461F2E785
:102F900090FAA0F1B1FA81F101F1010101F01F01F4
:102FA00046EA816102D1C0F3846003E090FAA0F0A8
:102FB000B0FA80F000F1010000F01F002D4A00EB94
:102FC000400002EB005041EA000141F00071AA68A4
:102FD000206803F053F82848296801423FF469AE9D
:102FE000264A9068264B00F0E070994202D0254BAB
:102FF00099421CD103021AD42168B1F1A04F7FF489
:1030000058AE916840F4000021F0E07101439160F6
:103010001D481E490068B0FBF1F0401C00EB400069
:10302000800000E0401E00900028FBD141E6184DD2
:10303000184BA94207D1C50105D421689942F5D0A2
:1030400040F0807009E0144DA942EFD14102EDD467
:1030500021689942EAD040F48000916821F0E07143
:103060000143916025E6000000007F4000F0FF036F
:10307000FFFF0700000020FE000008800003005052
:10308000000021C31000C090F0000020400D03009C
:10309000000052C700010050000084CB7047704709
:1030A000704700002DE9F05F044600680668456837
:1030B000DFF854B2DBF8080000F01F07B0070ED5A8
:1030C000A8070CD5E06DC00603D4E06D40F40060A5
:1030D000E0652046FFF712FA216802200860DFF859
:1030E0002CA270074FF0A04801D5680703D4300721
:1030F00037D5280735D5E06DC00603D4E06D40F420
:103100000070E065206802F0B1FF20B320685045F0
:1031100001D1414600E00146814208D03FB1052F70
:1031200005D0092F03D0504503D1414602E0C168C4
:1031300001E00146C96889040DD4016809070AD570
:1031400002F08CFF58B3E06D40F01000E065206E97
:1031500040F0010020662046FFF7A0FF21680C2008
:103160000860B00601D5A80603D4700658D56806D5
:1031700056D5E06DC00603D4E06D40F40050E06524
:103180002068C16C11F4C07F1AD00021894602F07A
:103190006DFF02462068504514D1414613E0206877
:1031A000416821F00C014160E06D20F48070E06521
:1031B000E06DC004CFD4E06D40F00100E065CAE7E7
:1031C0000121E3E70146814208D03FB1062F05D037
:1031D000072F03D0504503D1414602E0C16801E00A
:1031E0000146C968B9F1000F14D08B0102D58AB12C
:1031F0008A040FD4026852060CD589020AD402F060
:103200001DFFE8B3E06D40F01000E065206E40F077
:10321000010020662046FFF7FBFB21686020086064
:1032200030060BD5280609D5E06D40F48030E06506
:10323000204600F065F9216880200860F0050CD573
:10324000E8050AD5E06D40F40030E0652046FFF760
:10325000A9FC21684FF480700860B0050CD5A80562
:103260000AD5E06D40F48020E0652046FFF79BFC26
:1032700021684FF400700860F0062ED5E80600E0E3
:1032800008E02AD5E06BD0B1AFB1DBF8080000F45C
:10329000604013E02068416821F060014160E06D0A
:1032A00020F48050E065E06DC005B3D4E06D40F0DF
:1032B0000100E065AEE72068C068C00750B1E06D6E
:1032C00040F48060E065206E40F0020020662046F9
:1032D000FFF7E6FE216810200860700512D568052A
:1032E00010D5E06D40F48040E065206E40F00800AD
:1032F000206621684FF4806008602046BDE8F05FDA
:10330000FFF7BBBBBDE8F09F000300500001005079
:10331000F8B54FF0000504002E46009502D0E06D90
:1033200010B107E00120F8BD204600F0EBF826665A
:1033300084F8586020688168C1F3407119B18168D0
:10334000674A1140816020688168C1F3007189B9C2
:103350008168644A114041F080518160624863494C
:103360000068B0FBF1F04000801C00E0401E0090BF
:103370000028FBD120688168C1F3007141B9E16D7B
:1033800041F01001E165216E41F001012166012546
:1033900002F064FEE16DC90600D430B1E06D40F08A
:1033A0001000E06501252846F8BDE06D20F480702E
:1033B00040F00200E065206802F048FE88B94FF056
:1033C000A04080684A49C0F300008968C1F3000149
:1033D000084306D1474960688A6822F47C12024398
:1033E0008A60E168E06B627F0843A16841EA42318C
:1033F000084394F8241040EA0140012904D1218DAA
:103400003D4A02EB41410843E16A29B101F4787178
:10341000226B014342EA01002168CA68374B1A4017
:103420000243CA6020680169626B21F04061114368
:103430000161206802F002FE70BB207F94F8381012
:10344000800340EA41012068C26844F202039A43C3
:103450000A43C26020690028206801690AD041F44B
:1034600080310161206850F8C01F22696FF30D019F
:10347000114307E021F480310161206850F8C01F3A
:103480006FF30D01016094F8400001280CD0206812
:10349000016921F001010161606901282068016B67
:1034A00021F00F0110D012E0D4E911100143D4E94A
:1034B0001302104301432068026940F2FC739A43EF
:1034C000114341F00101E6E7226A521E11430163F4
:1034D000E06D20F0020040F00100E06563E70000CD
:1034E000C0FFFF5FC0FFFF7FF0000020400D030022
:1034F00000010050000300500000FEFF0740F0FFF5
:103500007047000070B598B00546142111A8FCF76B
:103510004FFF44216846FCF74BFF2868B0F1A04FED
:1035200047D14FF40040009080030F90684601F0AF
:1035300057F808B1FEF764F81F49C86C40F4005012
:10354000C864C86C00F400501690C86C40F00100CC
:10355000C864C86C002600F0010016900F2011907E
:103560000320CDE9120611A94FF0904000F02EFE85
:10357000134C124820600520C4E901068020C4E9EC
:103580000360400060618000C4E906064FF44050CB
:103590002062204600F028F908B1FEF731F86C658A
:1035A000002211461220A56200F082FF122000F0D6
:1035B00071FF18B070BD000000100240080002400A
:1035C000640100202DE9F04104463448174688463E
:1035D000806800F01F05206802F040FD00285AD1E5
:1035E00094F85800012856D0012084F8580000268D
:1035F00025B1052D02D0092D00D003E02046FDF7AE
:1036000003FA18B184F85860BDE8F081E06D40F627
:103610000161884340F48070E06521492068884258
:1036200002D14FF0A04100E00146814200D01DB917
:10363000E06D20F48010E065E06DC00404D5206EDC
:1036400020F00600206600E02666616D1548C8621D
:10365000616D15480863616D1448486321681C203A
:10366000086084F858602068416841F010014160AA
:103670002068C16841F00101C16021683B464246B3
:103680004031606D00F010F921688A68084B1A40DB
:10369000121D8A60B8E70220B6E700000003005060
:1036A000000100500D0900088F0900087509000885
:1036B000C0FFFF7F70B590F825100024012223463B
:1036C000022907D00421C16380F8252080F8243026
:1036D000012429E001680D6825F00E050D600168E0
:1036E0000D6825F001050D60816C0D6825F480756D
:1036F0000D6090F84410154601F01F018A40016CDE
:103700004A60D0E913124A60416D31B10A6822F46F
:1037100080720A60D0E916124A6080F8255080F85D
:103720002430816B01B18847204670BDF0B4016C34
:103730000B6801680A6890F84440042504F01F04EF
:1037400005FA04F61E4211D056070FD50A689206F4
:1037500003D40A6822F004020A6090F8441001F0D1
:103760001F018D40016C4D60016B1DE0022606FAC1
:1037700004F71F424FF0000C4FF0010518D09707D7
:1037800016D50A68920605D40A6822F00A020A6071
:1037900080F8255090F8441001F01F018E40016C14
:1037A0004E6080F824C0C16A00291AD0F0BC0847D6
:1037B0000826A6401E4214D0120712D50A6822F02D
:1037C0000E020A6090F84410026C01F01F0105FA25
:1037D00001F15160C56380F8255080F824C0416B29
:1037E000E2E7F0BC7047000070B504000CD02B4A33
:1037F00020681421904209D2294A0244B2FBF1F117
:103800008900616427490AE0012070BD234A5242C1
:103810000244B2FBF1F18900616420490839216456
:10382000022184F82510016847F6F0729143D4E92B
:1038300002231A43D4E904352B431A43A3691A43DC
:10384000E3691A43236A1A430A4302602046FDF7DC
:1038500029FBA0680025B0F5804F00D16560A16C00
:1038600020790860D4E9130141606068401E032894
:1038700008D82046FDF736FB606D0560D4E91601D7
:10388000416002E06565A565E565E563012084F8B2
:10389000250084F82450002070BD00000804024078
:1038A000F8FFFDBF0000024070B5044690F8240008
:1038B000002501280CD0012084F8240094F825600C
:1038C0000020012E06D084F824000225284670BD71
:1038D000022070BD022684F82560E0632068066837
:1038E00026F0010606602046FDF70EFB206B00283F
:1038F0002068016802D041F00E0106E021F00401C9
:1039000001602068016841F00A010160A06C016853
:10391000C90303D5016841F480710160606D18B17D
:10392000016841F4807101602068016841F0010183
:103930000160CBE770B5044600F032FD0546601C1F
:1039400002D004484068044400F02AFD401BA04215
:10395000FAD370BDE400002030B590F85C30012B44
:1039600007D0022B05D0016E41F002010166012053
:1039700030BD0468A36D4D0701D0DD071DD011F0E7
:10398000380F01D09D0718D511F4E07F01D05D07F5
:1039900013D511F4F05F01D01D070ED511F4604F5F
:1039A00001D0DD0609D511F4403F01D09D0604D5B4
:1039B00011F47C0F05D05D0603D4E56D45F00105DB
:1039C000E5654C0701D0DC071DD111F0380F01D09F
:1039D0009C0718D411F4E07F01D05C0713D411F4D4
:1039E000F05F01D01C070ED411F4604F01D0DC064B
:1039F00009D411F4403F01D09C0604D411F47C0F8B
:103A000006D05B0604D50368DC6D44F00204DC6577
:103A10000B0604D5036853F8DC4F14431C60CB0538
:103A200004D5036853F8E04F14431C600068426DEE
:103A30000A434265002030BD70B5044690F85C0032
:103A4000022803D0206E40F0080007E02068D0F87C
:103A5000C4309B0205D5206E40F400702066012022
:103A600070BDD0F8C400C0F301452B462046FDF7D9
:103A70004DFE21680120A840C1F8CC00A0650020BF
:103A800070BD10B590F85C20012A07D0022A05D03D
:103A9000016E41F002010166012010BD0A687AB191
:103AA0000B7B0A690C7A42EA43734A69406C4968A5
:103AB00042EA847200EBC100C0E90032002010BD70
:103AC0000B7A4A690C8A42EA83720B7B006CDB0634
:103AD000496843EA04431A4340F82120EEE730B531
:103AE00090F85C50039C012D05D0016E41F004015B
:103AF0000166012030BD0901006841EA820141EA06
:103B0000430150F8802F214322F03F02114301600E
:103B1000002030BD70477047F0B590F85C5000242D
:103B2000022D03D0016E41F0080160E005684029D4
:103B300046D0D5F89860360756D0D5F89860F6018B
:103B400004D5D5F88060F60500D50124D5F8985045
:103B5000C5F301252E19C46C06EBC60504EBC5059B
:103B60002C6814F0804454602C6843D024F06044E6
:103B700014602C682B4F04F00054946010CD04F0B6
:103B80000044146135F8044BA4B2D46155F8044CD8
:103B9000C4F30344D46055F8044C04F48014546115
:103BA00055F8044C04F40014946155F8044CC4F323
:103BB0000664146255F8044CE40F5462002421E0BA
:103BC000D5F8906036070FD0D5F89060F60104D58F
:103BD000D5F88060B60500D50124D5F89050C5F31E
:103BE00001252E19846CB7E7016E41F480710166DE
:103BF0000120F0BDC4F38A44BAE715F804C003F805
:103C000004C0641CD2F80CC017F80CC0A445F4D84A
:103C10000068402903D0C0F89C600020F0BDC0F8C7
:103C20009460FAE7ED72000870472DE9F05F0446F2
:103C30000068016D426D01F4E05102EA0108016D76
:103C4000426D01F0070102EA0109016D426D01F0C8
:103C5000380102EA010A016D476D01F471010F405C
:103C6000016D426D01F46021456D02EA010B016DA9
:103C7000CE43710607D4E943490604D440210165C7
:103C80002046FFF7D1FFF0050ED4E843C0050BD462
:103C90002068D0F8D820D0F8E01011404FF480729E
:103CA0000265204600F001FAB8F1000005D0216855
:103CB00008654146204600F0FAF9B9F1000005D048
:103CC000216808654946204600F0AAF9BAF10000CB
:103CD00005D0216808655146204600F0CDF9B005B1
:103CE00009D4E843800506D421684FF400700865C4
:103CF000204600F0DDF930060DD4E84300060AD472
:103D00002068D0F8D420D0F8DC1011408022026561
:103D1000204600F0CBF9B00409D4E843800406D46F
:103D200021684FF400500865204600F0BDF93004CA
:103D300009D4E843000406D421684FF40040086524
:103D4000204600F0B0F970040AD4E843400407D4D8
:103D500021684FF480400865206E40F080002066A6
:103D6000BBF1000005D02168086559462046FFF7E1
:103D7000D2FE27B120680765206E38432066206E8A
:103D8000002802D02046FFF7C5FEBDE8F09F0000E6
:103D90002DE9F041040006D0DFF8E88194F85C00DA
:103DA000002518B107E00120BDE8F08184F85D50DE
:103DB000204600F0EFF82068816921F01001816150
:103DC00000F0EEFA0646032704E000F0E9FA801B53
:103DD0000A2811D8206880690007F6D42068816914
:103DE00041F00101816100F0DBFA06460BE000F0D2
:103DF000D7FA801B0A2806D9206E40F00100206601
:103E000084F85C70CFE720688069C007EFD0206835
:103E1000816941F0020181612168414502D15A491D
:103E200060680860207C01282068816937D041F0F3
:103E300040018161607C01282068816932D021F4D1
:103E400080418161A07C0128206881692DD041F4E6
:103E50008051816120688169A26821F44071114319
:103E600081612068816921F0A40181612068016974
:103E700021F010010161E068012819D010B3022877
:103E80001BD02068816941F080018161206801694F
:103E900041F010010161E06803280ED012E021F02A
:103EA0004001C6E741F48041CBE721F48051D0E7DF
:103EB0002068816941F0040103E02068816941F0D4
:103EC00020018161207EE16940066FF0FF0202EB74
:103ED0000121A0F100700843216AA38A491E08430A
:103EE000110201EB034318432368D861A068B0F5C1
:103EF000407F10D1D4E90A0302EB0322401E104395
:103F0000226B0B1303EB02121043A28C01EB024154
:103F100008432168C860206850F8C01FE26B114355
:103F200001601A482064226852F8801FA38E21F491
:103F3000F81141EA0341116014497031616422684B
:103F400052F8801F94F8383021F0706141EA036123
:103F500011600E49B031A1640D49E1640C49D831BA
:103F600021650B49F031616500F5547100E020C016
:103F70008842FCD3A5652566012084F85C000020FA
:103F800012E70000006400400065004000A400400B
:103F900088A5004010B598B00446142111A8FCF77C
:103FA00007FA44216846FCF703FA1B492068884257
:103FB00030D18014009040030C90684600F010FB54
:103FC00008B1FDF71DFB1548816D41F00071816559
:103FD000816D01F000711691C16C41F00101C16465
:103FE000C06C11A900F0010016904FF4C050119060
:103FF0000220129000201390149009201590C00602
:1040000000F0E4F800220421152000F051FA1520F8
:1040100000F040FA18B010BD0064004000100240EB
:1040200010B50446C80722D01149206888421ED125
:10403000104B402103F140022046FFF76DFD0D4873
:104040004030018801F4FE6001F00F01B1F58C6F82
:1040500002D10849FDF7FAFB002201212046FFF7B3
:104060007BFC002803D0BDE81040FDF781BB10BDEC
:1040700000640040BC070020704790F85C100129E4
:1040800005D0016E41F00401016601207047022154
:1040900080F85C1001688A6922F001028A610021BF
:1040A0000166084670477047704770477047704711
:1040B000704700002DE9F04F0022DFF8F4A04FF028
:1040C000010B4FF00F096EE00BFA02F717EA01043B
:1040D00068D022F003055544AB6896074FEA167C7A
:1040E00009FA0CF606EA0308B0F1904F04D0314B00
:1040F000984203D1012316E0002314E02E4B98428E
:1041000001D102230FE02D4B984201D103230AE095
:104110002B4B984201D1042305E02A4B984201D150
:10412000052300E0062303FA0CF3434520D1DFF812
:1041300098C0DCF80030A343CCF800300CF1040C3C
:10414000DCF80030A343CCF80030DFF87CC00CF181
:104150000C0CDCF80030A343CCF80030ACF1040CBC
:10416000DCF80030A343CCF80030AB68B343AB605D
:10417000046855000323AB401C430460D40800EBE3
:104180008404266A55074FEAD56C09FA0CF5AE434C
:104190002662C4689C43C4604468BC43446084682D
:1041A0009C438460521C31FA02F38DD1BDE8F08F3C
:1041B000000001400004004800080048000C0048CE
:1041C0000010004800140048000401402DE9F84F99
:1041D000DFF888910022A9F1040B03274FF00F0CA0
:1041E00009F1040AABF1040EB1E0012595402B4022
:1041F00073D00C7904F00304012C01D0022C15D1EA
:104200008668540007FA04F826EA0806D1F80C80FC
:1042100008FA04F848EA0608C0F808804468AC4385
:104220000D79C5F300159540254345600C79E443AD
:10423000A40708D0C568540007FA04F6B5438E6891
:10424000A6402E43C6600C7904F00304022C11D161
:10425000D40800EB8406356A5407E40E0CFA04F81F
:1042600025EA0805D1F8108008FA04F848EA05089C
:10427000C6F820800568540007FA04F6B5430E79A5
:1042800006F00306A6402E4306604C6814F4403F37
:104290005CD0334C256E45F001052566246E22F076
:1042A000030504F0010400942E4C05EB0408D8F833
:1042B00008509407260F0CFA06F4A543B0F1904F6E
:1042C00004D0294CA04203D1012417E0002415E0BA
:1042D000264CA04202D1022410E037E0244CA04238
:1042E00001D103240AE0234CA04201D1042405E0BB
:1042F000214CA04201D1052400E00624B4402C4307
:10430000C8F80840D9F800404D464E689C43F60274
:1043100000D51C432C60DAF8004055464E689C439B
:10432000B60200D51C432C60DBF800405D464E68A9
:104330009C43B60300D51C432C60DEF80040754654
:104340004E689C43F60300D51C432C60521C0B683E
:1043500033FA02F47FF449AFBDE8F88F0804014056
:10436000001002400000014000040048000800481E
:10437000000C004800100048001400480069084084
:1043800000D001207047426921EA02030A4043EA53
:104390000241816170470AB1816170478162704753
:1043A0000148806870470000E400002002488168EE
:1043B0004268114481607047E400002010B5002479
:1043C000032000F095F8002000F008F808B101245F
:1043D00001E000F047F8204610BD000030B505466A
:1043E0001C4887B0816D41F001018165806D05A990
:1043F00000F001000690684600F02EFB00F04CFB38
:1044000015494FF08042B0FBF1F11448491E02609B
:10441000416040F2E7320021C0E90321816001F0F0
:1044200024F9040012D10D4801F0C0F904000DD1A7
:104430001C2000F02FF8102D07D2002229461C2046
:1044400000F036F80648056000E0012407B0204679
:1044500030BD00000010024040420F00E403002085
:10446000E40000200A4882B0016E41F001010166BB
:10447000016E01F001010091816D41F08051816573
:10448000806D00F08050009002B000F0A1B80000F4
:1044900000100240002809DB00F01F0201219140BA
:1044A0004009800000F1E020C0F8001170470000D2
:1044B000F0B40E4B1B68C3F30223C3F10704042CB2
:1044C00000D904241D1D072D01D2002300E0DB1EAE
:1044D000012606FA04F56D1E0D409D409E40761E95
:1044E000164045EA0601F0BC02F0FCBD0CED00E010
:1044F000064A00F0070110684FF6FF03184040EA33
:104500000120034908431060704700000CED00E0F3
:104510000000FA052B492C4B0A6832214A432B49EB
:1045200040B1B0F5007F086829D020F4C06040F4A5
:1045300080602CE00868C0F34120022804D051F8C4
:10454000800F20F4807022E0D1F8800020F4807089
:10455000C1F88000086820F4C06040F40070086072
:10456000B2FBF3F0401C00E0401E4A69520501D541
:104570000028F9D1486940050AD503207047C0F3E7
:104580004120022806D051F8800F40F48070086066
:1045900000207047D1F8800040F48070C1F880009E
:1045A000086820F4C06040F400700860B2FBF3F0CB
:1045B000401C00E0401E4A695205DBD50028F9D1B5
:1045C000D8E70000F000002040420F0000700040DB
:1045D0000248816841F4804181607047007000406A
:1045E0002DE9F84F044600260068A24D3746000327
:1045F0005CD5A86D4FF00009C00009D4A86D40F04B
:104600008050A865A86D4FF0010900F0805000901F
:10461000DFF864A2DAF8001041F48071CAF80010E3
:10462000FFF7BEFE804607E0FFF7BAFEA0EB0800EA
:10463000022801D9032631E0DAF80000C005F3D5DD
:1046400066BBD5F8900010F4407014D0216C814204
:1046500011D0D5F89000D5F8901020F4407041F4B6
:104660008031C5F89010D5F8901021F48031C5F84C
:104670009010C5F89000C0074ED0FFF791FE80461D
:1046800041F2883A05E0FFF78BFEA0EB08015145A7
:10469000D0D8D5F890008007F5D5EEB33746B9F1FC
:1046A000000F03D0A86D20F08050A8652078C007C7
:1046B00007D0D5F88800616820F003000843C5F8EA
:1046C00088002078800707D5D5F88800A16820F0F9
:1046D0000C000843C5F888002078400707D5D5F8B6
:1046E0008800E16820F030000843C5F88800207891
:1046F000000707D5D5F88800216920F0C0000843DD
:10470000C5F888002078800609D5D5F88800616949
:1047100020F44060084300E03DE0C5F888002078C0
:10472000400607D5D5F88800A16920F44050084319
:10473000C5F888002078000607D5D5F88800E1691B
:1047400020F440400843C5F888002088C00507D5FC
:10475000D5F88800216A20F440300843C5F8880065
:104760002088800507D5D5F88800616A20F44020AC
:104770000843C5F888002088400519D5D5F8880079
:10478000A16A20F440100843C5F88800A06AB0F57B
:10479000801F09D00CE0D5F89000216C20F4407007
:1047A0000843C5F890007AE7E86840F48010E860B4
:1047B000208800050FD5D5F88800E16A20F4400074
:1047C0000843C5F88800E06AB0F5800F03D1E868B7
:1047D00040F48010E8602088C0040FD5D5F8880028
:1047E000216B20F040700843C5F88800206BB0F1C1
:1047F000807F03D1E86840F48010E860208881045D
:104800004FF000600ED5D5F88810626B21F0406142
:104810001143C5F88810616B814203D1E96841F406
:104820008011E960218849040ED5D5F88810A26B63
:1048300021F040611143C5F88810A16B814203D17A
:10484000E86840F48010E860208800040FD5D5F8AF
:104850008800E16B20F040500843C5F88800E06B09
:10486000B0F1805F03D1E86840F48030E8603846FA
:10487000BDE8F88F00100240007000402DE9F047BD
:104880000D4604004FF0000725D0DFF8AC91D9F8B1
:10489000000000F00F00A8420CD2D9F8001021F05F
:1048A0000F012943C9F80010D9F8000000F00F00EB
:1048B000A84210D12168614EC80741F2883A58D009
:1048C0006068DFF87C81032808D0022830682CD08B
:1048D000400500282BDB0120BDE8F087306880010F
:1048E000F9D5F06800F00302F068C0F30310401C33
:1048F000032A18D0534AB2FBF0F0F268C2F3062242
:104900005043F268C2F34162521C5200B0FBF2F015
:10491000404517D9B06810F0F00F0CD0880711D5BA
:10492000A06840B10EE0484AE5E78003D1E700F017
:10493000C5F8404506D9B06820F0F00040F080008E
:10494000B0608027B068616820F003000843B06061
:10495000FFF726FD804605E0FFF722FDA0EB0801EA
:1049600051453BD8B068616800F00C00B0EB810F96
:10497000F2D12068810714D5400703D5B06840F410
:10498000E060B0602078000705D5B06820F4605082
:1049900040F4E060B060B068A16820F0F000084327
:1049A00004E0802F03D1B06820F0F000B060D9F8A7
:1049B0000010484601F00F01A94217D90168C84606
:1049C00021F00F0129430160FFF7EAFC0746D146B9
:1049D00006E0FFF7E5FCC11B494501D903207BE751
:1049E000D8F8000000F00F00A842F2D1207840076C
:1049F00005D5B068E16820F4E0600843B060207835
:104A0000000706D5B068216920F4605040EAC10073
:104A1000B06000F053F8B1680C4AC1F30311515C67
:104A200001F01F01C8400A4908600A480068BDE853
:104A3000F047FFF7D3BC0000002002400010024006
:104A400000B4C4040024F400005A6202FD7200089D
:104A5000F0000020E40000200F2202600C4A93685E
:104A600003F003034360936803F0F00383609368EB
:104A700003F4E063C36092684FF4E06303EAD20298
:104A800002610448006800F00F00086070470000F1
:104A9000001002400020024005480649006889686D
:104AA000054AC1F30221515C01F01F01C840704763
:104AB000F0000020001002400D730008184A10B5E5
:104AC0009068C0F38101174801290BD09168164CFA
:104AD000C1F38101022906D09168C1F38101032944
:104AE00003D0002010BD204610BDD16801F00303A3
:104AF000D168C1F30311491C032B02D0B0FBF1F0C4
:104B000001E0B4FBF1F0D168C1F306214843D1685C
:104B1000C1F34161491C4900B0FBF1F010BD000038
:104B2000001002400024F400005A62022DE9F8430C
:104B3000040078D02078F54DC00745D0A868E96812
:104B400000F00C0001F003010C2802D0082817D057
:104B500001E0032914D06068B0F5803F17D0B0F5AC
:104B6000A02F286817D020F480302860286820F40F
:104B7000802028606068D8B1FFF712FC064613E079
:104B80002868800320D560680028D2D01CE02868FF
:104B900040F48030EDE740F480202860F7E7FFF72D
:104BA000FFFB801B64286ED828688003F7D50BE0D4
:104BB000FFF7F6FB064604E0FFF7F2FB801B6428D4
:104BC000F1D828688003F7D4207880074BD5A868EF
:104BD000E96800F00C0001F003010C2802D0042861
:104BE0000DD001E002290AD0E068002828682BD007
:104BF00040F480702860FFF7D3FB064619E0286870
:104C0000400502D5E068002893D06868217C20F038
:104C1000FE4040EA01606860BD480068FFF7DEFBC7
:104C2000002800D11FE06DE1FFF7BAFB801B0228CE
:104C3000B9D828684005F7D56868217C20F0FE4087
:104C400040EA016068600EE020F480702860FFF7A1
:104C5000A7FB064604E0FFF7A3FB801B0228A2D8AF
:104C600028684005F7D42078000728D56069002817
:104C7000D5F8940012D040F00100C5F89400FFF779
:104C80008FFB064605E08FE0FFF78AFB801B0228BA
:104C900089D8D5F894008007F6D510E020F00100FF
:104CA000C5F89400FFF77CFB064604E0FFF778FBAD
:104CB000801B022878D8D5F894008007F6D4207895
:104CC000400761D5A86D0027C00008D4A86D40F04A
:104CD0008050A865A86D012700F0805000908D4895
:104CE0000168C90511D40168804641F480710160F2
:104CF000FFF756FB064604E0FFF752FB801B022835
:104D000052D8D8F80000C005F6D5A068012815D003
:104D10000528D5F8900016D020F00100C5F89000C5
:104D2000D5F8900020F00400C5F89000A06841F28A
:104D30008838B8B1FFF734FB06460EE0D5F890008E
:104D400040F00100F0E740F00400C5F89000F5E7FE
:104D5000FFF726FB811B414526D8D5F89000800738
:104D6000F6D50CE0FFF71CFB064604E0FFF718FB46
:104D7000811B414518D8D5F890008007F6D41FB1A3
:104D8000A86D20F08050A8652078800628D5A069FD
:104D90000028D5F8980012D040F00100C5F898001E
:104DA000FFF7FEFA064605E072E0FFF7F9FA801B0E
:104DB00002286DD8D5F898008007F6D510E020F0CD
:104DC0000100C5F89800FFF7EBFA064604E0FFF78C
:104DD000E7FA801B02285BD8D5F898008007F6D444
:104DE000E069E8B3A968C1F3810103295BD0022817
:104DF000286820F08070286003D0FFF7D1FA0446BD
:104E000049E0FFF7CDFA064604E0FFF7C9FA801B38
:104E100002283DD828688001F7D4F4E908016FF032
:104E20000F0202EB01110843218A5204490802EBE8
:104E30004151A26841EA02210843217D4FF07E42A0
:104E4000490802EB41610843217B40EAC160E968FF
:104E5000314A11400843E860286840F0807000E063
:104E600052E02860E86840F08070E860FFF798FA48
:104E7000044604E0FFF794FA001B022808D82868CB
:104E80008001F7D540E0FFF78BFA001B022802D91A
:104E90000320BDE8F88328688001F4D4E8681F493E
:104EA0000840E86030E00128F3D0E868226A00F0AA
:104EB0000301914226D1616A00F0F0020901103924
:104EC00091421FD1A26A00F4FE41B1EB022F19D129
:104ED00094F82C2000F07841B1EBC26F12D1218EF2
:104EE00000F4C00249084905A1F50011914209D119
:104EF00094F8341000F0C06049084906A1F100712F
:104F0000814201D00120C4E70020C2E70010024026
:104F1000E4000020007000400C809F01FCFFEEFECA
:104F20007047000038B5016804464A688868C04385
:104F3000430606D5C30704D1D3435B0601D4E16C15
:104F400005E0830708D4D3431B0605D4216D01B0C7
:104F50002046BDE830400847830603D5430601D507
:104F6000C30551D4D3439B064ED443060AD494F8C8
:104F70005D30032B49D0236E43F004032366CB68D6
:104F80008B680093830609D4236E43F001032366E4
:104F90008B6800930B6823F040030B60C00506D4B8
:104FA000206E40F008002066206880680090206E27
:104FB000002829D02068416821F0E00141600120EB
:104FC00084F85D00900701D4D00722D020684168A2
:104FD00021F003014160114DA06D40B18563A06DCA
:104FE000FEF768FB18B1206E40F040002066606D4F
:104FF000002809D08563606DFEF75CFB002803D0B4
:10500000206E40F04000206638BDC8688868009077
:1050100038BD2046FFF784FF38BD00003D69000819
:1050200070B5040009D0606A002540B12561656152
:10503000A56294F85D0040B10CE0012070BD60688D
:10504000B0F5827FF4D0E561F2E784F85C50204649
:1050500000F05CF8022084F85D002068016821F00F
:1050600040010160E0684FF4E062904201D9002104
:1050700001E04FF48051B0F5706F02D0904200D043
:10508000A562A088228900F4827002F404421043D1
:10509000227C02F002021043227D02F00102104342
:1050A000228B02F400721043227F02F03802104378
:1050B00094F8202002F080021043228D02F4005266
:1050C000104322681060A069042202EA104094F89C
:1050D000242001F4805102F01002104394F834208F
:1050E00002F008021043A28902F4706210430843E0
:1050F000216848602068C16921F40061C1612566AA
:10510000012084F85D00002070BD00002DE9F04111
:1051100086B0044614216846FBF74AF92F492068F7
:10512000884257D12E48016E41F480510166016ECC
:1051300001F480510591C16C41F00201C164C06C61
:10514000694600F00200059038200090022001908E
:105150000120029003200390052004902148FFF7CE
:1051600035F8224D2048002628600A20C5E90106AE
:105170004FF08008C5E903686E614FF40057AE61D7
:105180002846C5E90767FEF72FFB08B1FCF738FA98
:10519000A565AC62154D14486035143028600B20AD
:1051A000686005F10801102081E841016E61AE617F
:1051B0002846C5E90767FEF717FB08B1FCF720FA98
:1051C0006565002202212320AC62FFF771F92320DC
:1051D000FFF760F906B0BDE8F08100000030014043
:1051E0000010024000040048080402408C02002025
:1051F0002DE9FF5F1F469346044601250E9EFFF7EB
:10520000CFF8804694F85D006168012806D0B1F5BA
:10521000827F39D1A168B1BB042835D1019800281B
:105220007DD0BBF1000FFBD0002FF9D094F85C00CB
:10523000012829D04FF0010A84F85CA094F85D00A1
:10524000042802D0052084F85D004FF00009C4F85E
:105250006090C4F840B0A4F84670A4F84470019976
:10526000A163E787A787C4F84C90C4F85090E06822
:105270004FF4E061884201D8012F09D920684268C3
:1052800022F4805208E0FFE7022004B0BDE8F09F5E
:105290002068426842F480524260206802685206E8
:1052A00003D4026842F040020260E068884260680D
:1052B00044D908B1012F39D1A06B21680088C8609A
:1052C000A06B801CA063E08F401EE0872EE020686A
:1052D000816889070DD5E18F59B1012D09D1A16BE5
:1052E0000988C160A06B801CA063E08F401EE0872E
:1052F000002520688168C9070ED0B4F8461059B15E
:10530000C068216C0880206C801C2064B4F84600C2
:10531000401EA4F846000125FFF742F800E099E09E
:10532000A0EB0800B04201D3701C72D1E08F0028BE
:10533000CDD1B4F846000028C9D173E008B1012FDF
:1053400069D1E08F0128A06B08D921680088C86066
:10535000A06B801CA063E08F801E07E021680078AE
:105360000873A06B401CA063E08F401EE08752E0F2
:1053700020688168890718D5E18FB1B1012D14D15A
:10538000E18F0129A16B07D90988C160A06B801C3E
:10539000A063E08F801E06E009780173A06B401CBB
:1053A000A063E08F401EE087002520688168C90760
:1053B00027D0B4F8461021B3B4F84610012914D907
:1053C000C068216C0880206C801C2064B4F8460002
:1053D000801EA4F84600B4F84600012810D82068C2
:1053E000416841F4805141600AE0007B216C087003
:1053F000206C401C2064B4F84600401EA4F846000F
:105400000125FEF7CDFFA0EB0800B04202D3701CCF
:1054100001D012E08EB1E08F0028A9D1B4F8460087
:105420000028A5D142463146204601F090FA50B1FD
:105430002020206684F85C900CE084F85DA084F85D
:105440005C90032021E784F85DA084F85C90206ED6
:105450000028F7D0012018E7704770477047000018
:1054600030B590F83C20012A42D0012280F83C203F
:10547000CA688B6822F440721A434B6822F4806237
:105480001A430B6822F400621A430B6922F480521B
:105490001A434B6922F400521A430B6B22F48042E8
:1054A0001A430B8B22F4702242EA0342CB6922F0AA
:1054B00080521A430F4D03680024AB4202D00E4DB8
:1054C000AB4210D10D8D22F4700242EA05520D6AF2
:1054D00022F080722A434D6A22F000722A43C96A80
:1054E00022F000520A435A6480F83C40002030BD4C
:1054F000022030BD002C014000340140704700689C
:10550000416D41F40031416500207047704770479C
:10551000F0B590F83C20012A3AD0012580F83C50A3
:10552000022280F83D2003685A689C68194E1A4F81
:10553000B34201D0BB4204D122F4700C4A6842EA63
:105540000C02DFF858C002EA0C02D1F800C04CEAA5
:10555000020CC3F804C00268B2420DD0B2F1804F11
:105560000AD00F4B9A4207D00E4B9A4204D0BA424F
:1055700002D00D4B9A4204D1896824F0800319436C
:10558000916080F83D50002180F83C100846F0BD45
:105590000220F0BD002C0140003401408FFFFFFDD0
:1055A00000040040000800400040014010B50446DF
:1055B00049B104290AD008290BD094F847000128E2
:1055C0000AD0012010BD94F84400F8E794F8450093
:1055D000F5E794F84600F2E7022079B3042931D0C8
:1055E000082932D084F847000422206801F09FFB8C
:1055F0002068416C41F400414164154920688842AB
:105600000ED0B0F1804F0BD01249884208D0124919
:10561000884205D01149884202D01149884207D1F9
:105620008168104A1140062906D0B1F5803F03D0A9
:10563000016841F001010160002010BDFFE784F81E
:105640004400D1E784F84500CEE784F84600CBE774
:10565000002C0140000400400008004000340140DC
:105660000040014007000100704710B5040003D05E
:1056700094F83D0010B107E0012010BD002084F82F
:105680003C00204600F022F8022084F83D00211D55
:10569000206801F0E1FA012084F8480084F83E0017
:1056A00084F83F0084F8400084F8410084F8420008
:1056B00084F8430084F8440084F8450084F84600E8
:1056C00084F8470084F83D00002010BD08B500684C
:1056D000184A1949904216D1086E40F400600866D5
:1056E000086E002200F40060009011461820FEF7BA
:1056F000DFFE1820FEF7CEFE002211461920FEF72D
:10570000D7FE192010E00D4A904211D1886D40F06B
:1057100002008865886D002200F0020000900121DF
:105720001D20FEF7C5FE1D20BDE80840FEF7B2BEF5
:1057300008BD0000002C01400010024000040040A1
:1057400090F83D10012901D001207047022180F816
:105750003D1000680F4988420ED0B0F1804F0BD049
:105760000D49884208D00D49884205D00C4988422D
:1057700002D00C49884207D181680B4A11400629A2
:1057800006D0B1F5803F03D0016841F0010101600E
:1057900000207047002C0140000400400008004039
:1057A00000340140004001400700010090F83D1026
:1057B000012901D001207047022180F83D100168C5
:1057C000CA6842F00102CA600068104988420ED0DF
:1057D000B0F1804F0BD00E49884208D00D49884265
:1057E00005D00D49884202D00C49884207D1816812
:1057F0000B4A1140062906D0B1F5803F03D001685D
:1058000041F001010160002070470000002C0140C0
:105810000004004000080040003401400040014006
:105820000700010070B5044690F83C0000250128EF
:1058300014D0012684F83C60022084F83D002068E2
:105840008268364B1A4022F47F42826008687028D2
:105850002ED010DC10F00F0F03D021E04FF002002B
:1058600070BD4FEA2012072A1AD2DFE802F0525226
:1058700052524A3840002A4BC21A984249D009DC99
:10588000B0F5805F0DD0B0F5005F1CD0B0F1101FF7
:1058900006D13EE0102A3CD0202A3AD0502A38D0F7
:1058A000012584F83D60002084F83C00284670BD46
:1058B000CB68D1E90121206801F046FA20688168AF
:1058C00041F0770109E0CB68D1E90121206801F0BE
:1058D0003BFA2068816841F480418160E1E7CA6851
:1058E0004968206801F0DAFB5021206806E0CA68A8
:1058F0004968206801F0E3FB6021206801F02EFA7E
:10590000CFE7CA684968206801F0C8FB40212068D9
:10591000F4E7226801461046F0E7000088FFCEFF5A
:105920002000100070472DE9F04104460068C66869
:1059300005694FF00007A90713D5B10711D5F91E66
:10594000016101202077206880698007204602D00D
:10595000FFF7E8FF04E000F009F9204600F0CBF97A
:105960002777680716D5700714D521686FF00400F3
:105970000861022020772068806910F4407F20466B
:1059800002D0FFF7CFFF04E000F0F0F8204600F06F
:10599000B2F92777280715D5300713D521686FF09E
:1059A00008000861042020772068C069800720462D
:1059B00002D0FFF7B7FF04E000F0D8F8204600F06F
:1059C0009AF92777E80616D5F00614D521686FF006
:1059D00010000861082020772068C06910F4407F1B
:1059E000204602D0FFF79EFF04E000F0BFF82046FB
:1059F00000F081F92777E80708D0F00706D0216882
:105A00006FF001000861204600F09AFA280601D4E0
:105A1000A80408D5300606D521686FF40250086145
:105A20002046FFF71AFDE80508D5300606D521689F
:105A30006FF4807008612046FFF70EFD680608D5F8
:105A4000700606D521686FF040000861204600F01E
:105A5000A9FAA80608D5B00606D521686FF020007F
:105A600008612046FFF7FAFCE80208D5F00206D5E7
:105A700021686FF4801008612046FFF747FDA802F7
:105A800008D5B00206D521686FF4001008612046E1
:105A9000FFF734FD680208D5700206D521686FF45F
:105AA000800008612046FFF732FD28020AD5300247
:105AB00008D521686FF4000008612046BDE8F04178
:105AC000FFF7D2BDBDE8F0812DE9F04186B0044674
:105AD00014216846FAF76CFC2049206888423AD1C4
