:020000040800F2
:10000000A80B0020ED0100081F5C00081F56000827
:10001000115C0008850B00085B6800080000000008
:100020000000000000000000000000001563000850
:10003000D910000800000000495F0008176300089D
:10004000070200080702000807020008070200086C
:10005000070200080702000807020008070200085C
:10006000070200080702000807020008610E0008E6
:10007000070200080702000807020008070200083C
:100080000702000800000000DD0800080702000861
:1000900007020008A115000807020008070200086F
:1000A000AD630008B96300080702000807020008F2
:1000B000C5630008D16300080702000807020008B2
:1000C0000702000807020008070200084D5F000849
:1000D00007020008070200080702000807020008DC
:1000E00007020008070200080702000807020008CC
:1000F00007020008070200080702000800000000CD
:1001000000000000070200080000000007020008CD
:1001100007020008000000000702000807020008AC
:100120006D0E0008790E000807020008070200089B
:10013000070200080000000000000000070200089D
:10014000070200080702000800000000000000008D
:10015000000000000000000000000000000000009F
:10016000000000000000000000000000070200087E
:10017000070200080000000000000000000000006E
:10018000000000000702000800000000000000005E
:10019000000000000000000000000000000000005F
:1001A000000000000000000007020008070200082D
:1001B000070200080702000807020008000000000C
:1001C000000000000702000800000000000000001E
:1001D0000702000807020008DFF80CD000F06CFBF3
:1001E00000480047FD680008A80B0020064880472B
:1001F00006480047FEE7FEE7FEE7FEE7FEE7FEE70C
:10020000FEE7FEE7FEE7FEE791630008D90100087C
:100210009FED1A1AF5EE000A40EE010ABDEEE00A63
:10022000F5EEC00A10EE100AF1EE10FA38BF401ECB
:1002300000EE100A1349F7EE001AB8EEC00A30EECD
:10024000C00ADFED0F0A20EE200AFCEEC00A10EE15
:10025000900AC0F3080000EE900A01EB8000F8EE6F
:10026000600A90ED011A70EE600A90ED000A71EEDE
:10027000E01A21EE800A00EE810A704783F9223EDF
:1002800000000044106A0008B5EEC00AF1EE10FA52
:1002900007D2DFED1E0AB4EEE00AF1EE10FAA8BFB5
:1002A0007047DFED1B0AB5EEC00A60EE200ABDEE16
:1002B000E01A11EE100AF1EE10FA38BF401E00EEFF
:1002C000100A1549F7EE001AB8EEC00A30EEC00A5F
:1002D000DFED100A60EE200ABCEEE00A10EE100A14
:1002E000C0F3080000EE100A01EB8000B8EE400AEF
:1002F00090ED011A70EEC00A90ED000A71EEE01A5E
:1003000021EE800A00EE810A70470000CD024CB455
:1003100083F9223E00000044106A00082DE9F05FD6
:100320000546002092469B46884606468146402464
:100330001BE0284641464746224600F006FA53464F
:100340005A46C01A914110D311461846224600F071
:10035000EDF92D1A67EB01084F46224601200021D6
:1003600000F0E4F917EB00094E41201EA4F101044E
:10037000DFDC484631462A464346BDE8F09FD2B20C
:1003800001E000F8012B491EFBD270470022F6E77E
:1003900010B513460A4604461946FFF7F0FF2046FB
:1003A00010BD2DE9FE4F804681EA0300C00F0C46C8
:1003B000009021F0004123F00045B8EB0200A94174
:1003C00005D24046214690461C460B46024623F085
:1003D0000040104347D0270DC7F30A00C3F30A516A
:1003E0000290401A019040286BDAC3F3130040F4E6
:1003F000801B0098924620B10023D2EB030A63EBE6
:100400000B0B01985946C0F14002504600F08EF99E
:1004100006460D4650465946019A00F0A6F910EBE3
:1004200008006141002487EA115284EAE7731A4305
:1004300040D0009A62B3019A012A4FEA075215DCB4
:10044000001B61EB02014FF0004202EA0752CDE9C6
:100450000042001C41F5801132462B4600F0DDF9C8
:1004600003B0BDE8F08F40462146F9E7001B61EB81
:100470000201001C41F5801300185B412018A2F511
:10048000001747EB030140EAD570B6196D4111E042
:100490006D084FEA360645EAC0754FEA0752001B61
:1004A00061EB0201001C41F5801149084FEA300060
:1004B0000019514132462B4603B0BDE8F04F00F021
:1004C0009DB90098012240000023D0EB020263EBAB
:1004D000E073009821464FEAE074B8EB000061EB4E
:1004E0000401E9E783F000435BE781F0004158E74E
:1004F0002DE9FE4F81EA030404F0004421F000419D
:1005000000944FF0000B23F0004350EA01045ED04A
:1005100052EA03045BD0C3F30A54C1F30A552C44D6
:10052000A4F2F3340194A0FB0254C1F3130141F48B
:100530008011C3F3130343F4801301FB024400FB57
:10054000034E840A970A44EA815447EA8357A4FB7E
:10055000076802958D0A05FB07854FEA932C04FB7B
:100560000C542705029D4FEA065847EA1637B5EBAB
:1005700008056EEB070C870E920E47EA811742EAD8
:100580008312A7FB0201B6EB0B0164EB00042B0DF9
:1005900043EA0C335E1844EB1C50DA465146E7FB45
:1005A0000201C5F313044FEA0B3343EA14534FEA35
:1005B0000432019C43EA0603A4F10C040294009C5B
:1005C000CDE900B400F029F903B0BDE8F08F0020B8
:1005D0000146F9E72DE9F04D81EA030404F0004BF0
:1005E00021F0004514464FF0000A23F0004150EA84
:1005F000050220D054EA01021DD0C5F30A57024675
:10060000C5F31303C1F31300C1F30A5640F4801578
:1006100043F48013A7EB0608101BD64608F2FD38FA
:1006200073EB050002D308F1010801E092185B4169
:10063000B8F1000F03DA00200146BDE8F08D00207C
:100640004FF48011064684460EE0171B73EB050736
:1006500005D3121B63EB050306434CEA010C490862
:100660004FEA300092185B4150EA0107EDD152EA9F
:10067000030012D082EA040083EA0501084305D092
:10068000101BAB4106D20122002306E000224FF0EE
:10069000004302E06FF0010253101AEB06004CEB2E
:1006A000085110EB0A0041EB0B01BDE8F04D00F0E2
:1006B000A5B830B4044696230800214604D0B623DA
:1006C00030BC002200F06CB820460021F8E700F0B2
:1006D000004230F000400AD0C10D01F56071C0F356
:1006E000160042EA0151C20840071143704700203A
:1006F0000146704701F0004330B421F0004150EA58
:10070000010206D00A0DA2F56072C1F31301002A9E
:1007100002DC30BC00207047440F44EAC104C10031
:10072000E01830BC00EBC25000F031B8202A04DBE6
:10073000203A00FA02F1002070479140C2F12003F4
:1007400020FA03F3194390407047202A04DB203A33
:1007500021FA02F00021704721FA02F3D040C2F1E1
:1007600020029140084319467047202A06DBCB1728
:10077000203A41FA02F043EAE07306E041FA02F35C
:10078000D040C2F120029140084319467047002929
:10079000A8BF7047401C490008BF20F00100704707
:1007A00010B4B0FA80FC00FA0CF050EA010404BF67
:1007B00010BC704749B1CCF1200421FA04F411FABD
:1007C0000CF118BF012121430843A3EB0C01CB1D01
:1007D0004FEA00614FEA102042BF002010BC704772
:1007E00000EBC35010440029A4BF10BC7047401C4C
:1007F000490008BF20F0010010BC704710B5141E5E
:1008000073F1000408DA401C41F1000192185B41C9
:100810001A4301D120F0010010BD2DE9F04D9246A0
:100820009B4611B1B1FA81F202E0B0FA80F22032B7
:100830009046FFF77BFF04460F4640EA0A0041EA74
:100840000B0153465A46084313D0114653EA0100A0
:1008500019D0C8F140025046FFF777FF05460E4613
:10086000504659464246FFF761FF084305D0012034
:1008700004E020463946BDE8F08D0020054346EAF5
:10088000E0762C4337430A986305E40AA0EB08009E
:100890000022FD0A44EA47540A3002D500200146EE
:1008A000E9E7010510196941DDE9084500196941C9
:1008B000BDE8F04DA2E70000064C074D06E0E068F9
:1008C00040F0010394E8070098471034AC42F6D397
:1008D000FFF786FC1472000834720008014801F02A
:1008E00021BF0000F800002010B5846AE16D11F00E
:1008F000500F06D0E16DC90625D5204601F011FF45
:1009000010BDE06D40F40070E065206801680907E3
:1009100016D504F0DFFE78B12068C0688004002896
:100920000ADBE06D20F48070E065E06DC00403D464
:10093000E06D40F00100E065204601F0E9FE10BDE9
:10094000C0688007EBE7616D496BBDE81040084760
:1009500010B5806AC16D41F04001C165016E41F082
:100960000401016601F0DDFE10BD10B5806A01F0E2
:10097000D7FE10BD70B50446006881688268C1F377
:10098000400112F0010F24D019BB816801F00D0164
:10099000012910D18168104A1140891C81602168A9
:1009A0000320086002F0F8FD05460EE002F0F4FDB9
:1009B000401B022809D9E06D40F01000E065206E70
:1009C00040F001002066012070BD20688068C007EB
:1009D000ECD1002070BD0000C0FFFF7F70B5044661
:1009E0000068816811F0010F28D18168144A114212
:1009F00015D18168D5432940491C816002F0CCFDA6
:100A0000064616E0816811F0010F03D18168294084
:100A1000491C816002F0C0FD801B022809D9E06DED
:100A200040F01000E065206E40F0010020660120DB
:100A300070BD20680168C943C907E3D1002070BDBB
:100A40003F0000809FED090A80ED000A80ED010A59
:100A500080ED020A80ED030A80ED040A80ED050AAC
:100A6000B7EE000A80ED060A7047000000000000A3
:100A700010B50A48FFF7E6FF09480068416841F0F1
:100A8000200141607F21064801F016F8044801F07A
:100A90002FFBBDE81040642002F080BA5C07002004
:100AA000F80000202DE9F041154E174D07462DEDB9
:100AB000028B00249FED138A56F82410384601F06B
:100AC000FFFA00EE100A05EB8400641CB8EE400A41
:100AD000032C20EE080A80ED000AEDDB0A4895EDB4
:100AE000000A183080ED000A95ED010A80ED010A38
:100AF00095ED020A80ED020ABDEC028BBDE8F081A3
:100B0000BC0000206740533A44070020194ADFED3B
:100B10001A0A032002F10C0132F8103000EE103AEC
:100B200001EB8003401CB8EE400A062820EE200AA4
:100B300083ED000AF0DB91ED030AF2EE060A0D48A0
:100B400020EE200A2430DFED0D0A80ED030A91ED3E
:100B5000040A9FED0B1A30EE600AC0EE010AB0EEF7
:100B6000000A30EE800A80ED040A91ED050A80ED5E
:100B7000050A7047380700206740533A5C8F423FB0
:100B80000AD7233BFEE700002DE9F04100252DEDBB
:100B90000C8BF0EE608AB0EE40CADFED9DCA28EE05
:100BA000AC8A18EE100AFFF792FD9FED9A1B53ECEA
:100BB000112BFFF70FFD9FED99AB53EC1A2BFFF7AD
:100BC00097FCFFF797FDB0EE08DAF0EE480ADFF881
:100BD00054824CEE0D0A09EE900AC8ED019A10EE0F
:100BE000900AFFF774FD9FED90BB53EC1B2BFFF7B2
:100BF000F1FC53EC1A2BFFF77BFCFFF77BFD0CEEAF
:100C00004D8A09EE100A88ED029A18EE100AFFF7D5
:100C10005EFD53EC1B2BFFF7DDFC53EC1A2BFFF7AB
:100C200067FCFFF767FD00EE900AF5EEC08AC8ED9D
:100C3000030AF1EE10FA01DD012000E00020B0EE21
:100C4000680A1CEE2C0AB5EEC00AF1EE10FA01DDBE
:100C5000012200E000229FED760A5CEE008AF5EEAC
:100C6000C08AF1EE10FA01DD012100E0002100EB65
:100C7000420000EB8100072811D2DFE800F01004E9
:100C800006080A0C0E00022418E0062467E001247E
:100C90000DE004241CE0032415E005241FE0072CCC
:100CA00025D2DFE804F024040B10151C5C00B1EE23
:100CB000600A88ED040AC8ED059A18E0C8ED040A38
:100CC00088ED059A13E0C8ED049AB1EE490A0CE0EC
:100CD000B1EE690A88ED040AC8ED050A07E0B1EE35
:100CE000490A88ED040AB1EE600A88ED050AD8EDDC
:100CF000041A98ED051A4F4A404671EE810A10EE2B
:100D0000901A9FED4D0A91420BDD61EE801A21EEA3
:100D1000001A81EEA02AC1EE201A80ED042AC0ED4F
:100D2000051A90ED041A98ED052AF5EE000A30EE4A
:100D3000410AF6EE001A072C30EE420A60EE200A55
:100D4000B0EE600A01EE210AB0EE401A02EE211A5E
:100D500021D2DFE804F0200911333B43500088ED35
:100D6000049AB1EE690AC0E7FCEEE00ABCEEC00AE4
:100D700010EE900A87B206E0BCEEC00A10EE100A30
:100D8000BCEEE00A87B210EE100ABCEEC10A86B2D1
:100D900010EE100A85B229480760001D0660001D8C
:100DA000056026494FF47A700C3108602448878624
:100DB000C6860587BDEC0C8BBDE8F081BCEEC11A80
:100DC000FCEEE00A11EE100A87B21BE0BCEEC11A7D
:100DD000BCEEC00A11EE100A87B206E0BCEEC00AF3
:100DE00010EE100ABCEEC10A87B210EE100ABCEE7B
:100DF000E00A86B2CCE7FCEEE00A10EE900AFCEEC8
:100E0000C10A87B210EE900ABCEEC00A86B2BFE7F4
:100E1000D7B3DD3F9A99999999992D400000000028
:100E20000090BA40040000209A99999999993D4000
:100E3000D7B3DDBF0080D4450080D445342C0140B9
:100E40004004002080ED000A30EEC10ADFED030A05
:100E500020EE200A81ED000A704700003ACD133FD2
:100E6000014801F097BF000064010020014801F033
:100E700091BF00008C020020014801F08BBF0000F0
:100E8000EC0200200D4902688A4201D20C4901E0BF
:100E90000B492031D2B21423083AB2FBF3F2436C6F
:100EA00002F01F0223F003031944816404498031D6
:100EB000C1640121914001657047000008040240AF
:100EC000000802400179074A02EB81024265054AA7
:100ED0004432491E826501F01F0201219140C16523
:100EE00070470000FC08024030B5D0E9134565604A
:100EF000446D14B1D0E91645656090F8444004F0A3
:100F00001F050124AC40056C6C6004686360836855
:100F1000102B036803D099600068C26030BD9A60EE
:100F20000068C16030BD10B54FF09044012220210F
:100F3000204602F02CFB642002F030F80122102140
:100F4000204602F024FB642002F028F8204600220C
:100F5000BDE81040102102F01ABB00000C4908B592
:100F60000A480A78002A0FD101220A70094A5268F9
:100F70000092026A009B9A4202D9C269521CC26165
:100F8000009A02620020087008BD00007807002067
:100F9000D0000020001000E00B480A4A4168D2ED62
:100FA000050A4268521AF8EE601A01EE102AB8EEED
:100FB000411A61EE801AB4EEE11AF1EE10FAF0D3A4
:100FC0007047000078070020001000E010B5084CC2
:100FD00000F038F8074920684843616801EB410296
:100FE000C2EBC11100EBC10021890844002110BDF2
:100FF0007807002040420F000F4A10B50D491368D2
:1010000043F0807313600D4B00225A601C6844F05B
:1010100001041C600A4B58434FF47A730861B0FB1B
:10102000F3F04861064B0869B0FBF3F0C1E9060232
:101030000A6210BD78070020FCED00E0001000E01F
:1010400040420F002DE9F8432248214C40680090AF
:10105000FFF784FFE269002500984FF0FF3329462F
:10106000E2FB0301C4E90A01D4F8108007460E46EA
:1010700042462B46FFF752F902460B463146C4461C
:10108000ACFB028605FB02660CFB0363B7EB0800B2
:1010900061EB0301226007460E4600236269FFF7F9
:1010A0003DF902466060606900234243B81A66EB6E
:1010B0000501A269FFF732F92081D4E9001001EBA4
:1010C0004102C2EBC11100EBC100E060BDE8F88352
:1010D00078070020001000E0704738B50446002073
:1010E000009021890022606802F051FA04F12C017D
:1010F00004220D46206803F073F904226946206833
:1011000003F030FC21890122606802F040FA294690
:10111000204600F001F838BD70B50E462DED028B6B
:101120000446FFF753FF05463088DFED350A40BA25
:1011300000B200EE100A9FED331A334AB8EEC00A2F
:1011400020EE200A60EE018A94ED050A38EEC08A8E
:1011500018EE100A904202DD38EE608A06E018EEC2
:10116000100A2A4A904201D938EE208A2848294A92
:1011700084ED068AB5EEC08AF1EE10FA0ADD10EEB3
:10118000103A834206D918EE903A934202DD208A43
:10119000401C0EE0B5EEC08AF1EE10FA0AD210EE55
:1011A000103A934206DD18EE902A824202D9208A34
:1011B000401E2082E068281A61F10001FFF779FAE9
:1011C00000EE900A9FED141AE56080EE810A9FED13
:1011D000131AC8EE010A9FED121A20EE811AC1EE11
:1011E000000AC4ED080A94ED0A0A20EE800A84ED94
:1011F000090AC4ED058A208A6082BDEC028B70BDAD
:101200000000B4430000803700003443000034C3C2
:101210000000B4C20000B44200247449000034430A
:10122000DA0F494090ED050AB0F910009FED041A5D
:1012300000EE900AF8EEE00A00EE810A7047000026
:101240000000B4432DE9FC4704460025C4E9001220
:10125000038180ED0A0A058245829FED8E0A80EDAA
:10126000050A80ED060AC56180ED080A80ED090ACD
:1012700002F092F9E562E06001958DF804508DF876
:10128000055021890022606802F081F964260096E9
:1012900004F12C020223914601A9206803F052F9BF
:1012A00021890122606802F072F9012001F076FEC6
:1012B0008DF804508DF8055021890022606802F0F5
:1012C00066F9009602234A4601A9206803F03AF91C
:1012D00021890122606802F05AF9012001F05EFEC6
:1012E0008DF804508DF8055021890022606802F0C5
:1012F0004EF9009602234A4601A9206803F022F91C
:1013000021890122606802F042F9012001F046FEC5
:10131000EA278DF804704FF054088DF80580218974
:101320000022606802F033F9009602234A4601A9C0
:10133000206803F007F921890122606802F027F98B
:10134000012001F02BFE1C208DF804008DF80550C3
:1013500021890022606802F01AF9009602234A46A9
:1013600001A9206803F0EEF821890122606802F0EB
:101370000EF9012001F012FE8DF804508DF8055091
:1013800021890022606802F002F9009602234A4691
:1013900001A9206803F0D6F821890122606802F0D3
:1013A000F6F8012001F0FAFD01952189002260681C
:1013B00002F0EDF8009604234A4601A9206803F0E4
:1013C000C1F821890122606802F0E1F8012001F0F2
:1013D000E5FD8DF804708DF8058021890022606894
:1013E00002F0D5F8009602234A4601A9206803F0CE
:1013F000A9F821890122606802F0C9F8012001F0F2
:10140000CDFD0D208DF804008DF8055021890022B6
:10141000606802F0BCF8009602234A4601A92068E1
:1014200003F090F821890122606802F0B0F80120F1
:1014300001F0B4FD8DF804508DF80550218900228B
:10144000606802F0A4F8009602234A4601A92068C9
:1014500003F078F821890122606802F098F80120F1
:1014600001F09CFD019521890022606802F08FF84F
:10147000009604234A4601A9206803F063F82189F5
:101480000122606802F083F8012001F087FDBDE8C9
:10149000FC870000000000007047000070B5334C6E
:1014A0003349E07A4000E072607A40006072A07ACE
:1014B0004000A072207B40002073607B400060737E
:1014C000A07B4000A07391ED030AD1ED040A01F165
:1014D000140020EE000A00EEA00AB5EEC00AF1EEFC
:1014E00010FA04DBF1EEC00AC0ED000A03E09FED44
:1014F000210A80ED000A48691F490025884207DD5E
:10150000E07A40F00100E072FF2800D1E57070BD84
:101510001A491B4AC868904207DD607A40F0010012
:101520006072FF28F3D1657070BD164A904207DAE9
:10153000A07A40F00100A072FF28F5D1A57070BD1F
:1015400008691149884207DD607B40F00100607343
:10155000FF28F4D1657170BD40214FF0904002F03A
:1015600009F80028F7D1E57170BD00001C000020CB
:101570004004002000000000000070415C070020D3
:101580000000D0410000A0400000964301210170FE
:1015900041708170C170017141718171C171704779
:1015A000014801F010BD0000C401002010B528481A
:1015B00000F0BAF92748FFF7E9FFAA20FFF71CFD62
:1015C0009FED250A4FF400434FF0904223492448F1
:1015D000FFF738FEFFF7A7FC00F01EF9214803F0E3
:1015E000CDFB204803F000FC00211E4803F048FF1B
:1015F00004211C4803F044FF08211A4803F040FF6F
:101600000021184803F0BEFE0421164803F0BAFE7C
:101610000821144803F0B6FE0021124803F0E6FA50
:101620000421104803F0E2FA08210E4803F0DEFA24
:101630000A2005F0D7F905F077F9FFF719FA4FF40A
:10164000FA7001F0ABFCBDE81040074803F0CCBBDA
:10165000400400201C0000200AD7233C2802002060
:10166000080700204C0300209803002010B54A48CA
:101670002DED048B90ED000ADFED480A484C60EE3A
:10168000200AC4ED0F0AD4ED120A9FED461A00EEAF
:10169000810A10EE101A80ED000AB1F17E5F05DBC1
:1016A000F7EE000A30EE600A80ED000A3E48FFF7D0
:1016B000B9FD00F067F93D4884ED100A9FED3C1A32
:1016C00090ED000A364931EE400A103184ED000AEF
:1016D000D0ED010A71EE600AC4ED010AD0ED021AE4
:1016E000081F31EE611A84ED021AFFF7ABFB2C499B
:1016F00094ED101A1C31D4ED040A94ED030A081F6E
:1017000004F0F8FB9FED2B9A84ED099A606CFEF7CC
:10171000DEFF41EC180BA06CFEF7D9FF9FED260B06
:1017200053EC102BFEF7E4FE53EC182BFEF752FFA0
:101730009FED230B53EC102BFEF733FE9FED220B96
:1017400053EC102BFEF7D4FEFEF7D4FF00EE900A08
:101750001349C4ED0A0A303194ED0F1A081FB0EE98
:10176000490A03F071FFD4ED0C0A94ED0B0AFFF760
:101770000BFA0B4810380189A1F51C52103A01D11F
:101780000021018189B2491C01810168491C016065
:10179000BDEC048B10BD000004000020DB0FC9402D
:1017A00040040020F7CC9239080700205C07002095
:1017B000E17AD43F000000009A9999999999E93FFC
:1017C0009A9999999999C93F000000000000284012
:1017D00010B50F48FFF781FC0E4C04F5C87094ED6E
:1017E000120A04F081FB94ED110A04F5C87004F0AC
:1017F0007EFB04F5C87004F013FA04F5C87004F019
:101800004FFBD4ED120A30EE200A84ED120A10BD0F
:10181000080700204004002010B5B6EE003A2DED78
:10182000048BB2EE0F0A01219FED348ADFED358A79
:101830009FED339ADFED349AF0EE484AB0EE484A15
:10184000F0EE483AF0EE492AB0EE682AF0EE681A57
:10185000B0EE681AF0EE690A2C4804F024FB2B481D
:10186000F0EE484AB0EE484AF0EE483AB6EE003A9A
:10187000F0EE492AB0EE682AF0EE681AB0EE681A67
:10188000F0EE690AB2EE0F0A01219C3004F00BFB66
:10189000DFED1F2AF0EE484AB0EE484AF0EE483A33
:1018A000B0EE623AB0EE682AF0EE681AB0EE681A4E
:1018B000DFED180A9FED180A0121184804F0F3FA29
:1018C000F0EE484AB0EE484AF0EE483AB0EE682AE8
:1018D000F0EE681AB0EE681ABDEC048B0021DFED63
:1018E000102A9FED100A0D48BDE81040B0EE623A94
:1018F000F0EE400A9C3004F0D6BA0000CDCCCC3DCE
:101900009A99B9400000000085EBD13F980400206F
:101910000000964352499D39A69B443BD0050020C8
:10192000000048436F12833A9FED140A002180EDB6
:10193000000A80ED010A80ED020A80ED030A80EDC5
:10194000040A80ED060A80ED070A80ED080A80EDA2
:10195000090A80ED0A0A80ED0B0A80ED0C0A8186E7
:10196000C186DFED070A0187C0ED110A80ED120A7A
:1019700080ED100A80ED0F0A7047000000000000A3
:1019800000004642DFED0F0A4FF4B47130EE200A3A
:10199000F1EE0C0A20EE200ADFED0B0ABCEEC00AC5
:1019A00010EE100AB0FBF1F201FB120000EE100A7B
:1019B000B8EE400A80EE201A9FED040A21EE000ADC
:1019C00070470000000034430000B443DB0FC940FF
:1019D00070B504462DED028BB0EE408A01F0DCFDBF
:1019E00000EE100AD4ED020AB8EE400A30EE600AAA
:1019F000BCEEC00A10EE105A01F0CEFD00EE100A47
:101A0000B8EE400A84ED020AD4ED010AF5EEC00AF0
:101A1000F1EE10FA32DD10EE900AB0F17E5F2DDCAF
:101A2000B7EE000A94ED051A30EE600A20EE011AB6
:101A300000EE881A84ED041AB0EE410A84ED051A0E
:101A40007DB101EE105ADFED0F1AB8EE411A21EE0A
:101A5000211ADFED0D1A21EE211AC0EE811AC4ED14
:101A6000001A00EE905A9FED091AF8EE600AC1EED6
:101A7000201AC4ED031ABDEC028B70BDB0EE480A0B
:101A8000F9E70000DB0FC9406F12833A00007A4487
:101A900080ED010A9FED020A80ED020A7047000006
:101AA0000000000003220249024801F0BFB8000014
:101AB0003E070020F8000020F8B5002604460096F6
:101AC00090F858000D4601280BD0012084F85800EA
:101AD0002046FEF74FFF0100E06D04D040F01000FB
:101AE0002AE00220F8BD20F4885040F00200E065B2
:101AF00020688268134B1A4005F080431A4342F075
:101B000000428260104A20680EE0009B5B1C00933C
:101B1000934209D3E06D20F0020040F01000E06530
:101B200084F858600120F8BD8368DB0FEDD1E06DCB
:101B300020F0020040F00100E06584F8586008469B
:101B4000F8BD0000C0FFFF3F02DE04007047000048
:101B50002DE9F84F4FF000080446CDF800800D46FF
:101B600094F85820DFF8EC93616947464046012A13
:101B70000AD00126F84A84F8586041B1296A01293F
:101B800005D0A36EEBB129E00220BDE8F88F6868AC
:101B9000092838D1A96A4FF4785041B12B6801F077
:101BA0007C0100EA53400843E96A084302E02968DF
:101BB00000EA51402368D96C11400143D964606642
:101BC00021E0C4E91971A96A286A31B101F07C01E8
:101BD000401E0843E96A084300E0401E29682B794B
:101BE000C1F3846103F01F0399400143A06E401EBE
:101BF000A066636E43EA0103636604D12068C16C8A
:101C000011401943C164206803F058FD58B995F894
:101C1000250098B12068C16895F8262021F440116C
:101C200041EA4251C160206803F050FD82462068BD
:101C300003F044FD5AEA00000DD0FBE095F82600C1
:101C400095F82410400540EA01512068C26822F44A
:101C500040121143E6E7A86A30B1E86A20B195F86E
:101C6000250001285ED003E095F82500012804D066
:101C70002068C16821F0007103E02068C16841F06C
:101C80000071C16095F83000012852D020680169C8
:101C900021F002010161AA6829682068B2F1004FB1
:101CA00038D003F02EFD2068416921F000414161E8
:101CB00020686969C268C2F3C102520091402A6972
:101CC000042A44D000EB82002B68026EDFF88CC23D
:101CD00003F0F84302EA0C020B431A4342F00041BE
:101CE000016620682A69A96900EB8200026E22F071
:101CF00080720A430266297F20682A69012923D05D
:101D00005FF0000100EB8200026E22F000720A43D5
:101D100002668FE0002203F0F4FC2068416941F084
:101D20000041C4E7E06D40F02000E0654FF001089D
:101D3000A8E7D5E90D1001432068026922F4FF727B
:101D400042F002021143A5E74FF00071DAE70021EB
:101D500003F0AAFC400320684FF0000172D003F0AA
:101D6000A3FC90FAA0F0B0FA80F1286842036ED08C
:101D700090FAA0F0B0FA80F0814204D1002211461E
:101D8000206803F0D5FC0121206803F08DFC40039E
:101D900020684FF001015DD003F086FC90FAA0F0BE
:101DA000B0FA80F12868420359D090FAA0F0B0FA56
:101DB00080F0814204D100220121206803F0B8FCA8
:101DC0000221206803F070FC400320684FF00201FC
:101DD00048D003F069FC90FAA0F0B0FA80F12868CE
:101DE000420344D090FAA0F0B0FA80F0814204D1CE
:101DF00000220221206803F09BFC0321206803F0ED
:101E000053FC400320684FF0030133D003F04CFC37
:101E100090FAA0F0B0FA80F1286842032FD090FA2F
:101E2000A0F0B0FA80F0814204D1002203212068A2
:101E300003F07EFC2068816811F0010F22D0B6E02B
:101E400000E004E003F030FCC0F384618DE7C0F3F0
:101E5000846091E703F028FCC0F38461A2E7C0F33B
:101E60008460A6E703F020FCC0F38461B7E7C0F309
:101E70008460BBE703F018FCC0F38461CCE7C0F3D7
:101E80008460D0E72A7B296850F8B03FC1F3120C78
:101E900023EA0C0302F0180C314A22FA0CF20A4031
:101EA00013430360E96849457ED1286841031CD08B
:101EB00090FAA0F1B1FA81F1491C01F01F01092942
:101EC0004FEA403132D8002912D000BF90FAA0F179
:101ED000B1FA81F101F1010101F01F0106FA01F6E9
:101EE00009D100BFC0F3846109E0C0F38461E3E776
:101EF000C0F38461EEE790FAA0F1B1FA81F101F14B
:101F0000010101F01F0146EA816102D1C0F3846042
:101F100003E090FAA0F0B0FA80F000F1010000F0C8
:101F20001F0000EB400041EA00513AE000290ED0CA
:101F300090FAA0F1B1FA81F101F1010101F01F0164
:101F400006FA01F60ED100BFC0F384610EE0C0F3C3
:101F50008461F1E700007F400040100400F0FF03BF
:101F6000FFFF070090FAA0F1B1FA81F101F1010140
:101F700001F01F0146EA816102D1C0F3846003E0F1
:101F800090FAA0F0B0FA80F000F1010000F01F001C
:101F90002B4A00EB400002EB005041EA000141F007
:101FA0000071AA68206800E001E003F0AAFB254860
:101FB0002A6802423FD024488168244B01F0E07136
:101FC0009A4202D0224B9A421AD10B0218D42268AC
:101FD000B2F1A04F2FD1826841F4000122F0E072EB
:101FE0000A4382601B481C490068B0FBF1F000EB1B
:101FF0004000800000E0401E00900028FBD11AE065
:10200000164D174BAA4207D1CD0105D422689A423A
:1020100011D041F0807109E0124DAA420BD14A0261
:1020200009D422689A4206D041F48001826822F0E5
:10203000E0720A43826084F858704046A5E50000CB
:10204000000020FE0000088000030050000021C3B3
:102050001000C090F4000020400D0300000052C7A3
:1020600000010050000084CB114910B588421ED1F8
:1020700010480168C9071AD00E4910390968C90605
:10208000016821F00101016011D50B4C402120466F
:1020900001F075FA0648FEF705FD084A2046518909
:1020A000491C5181BDE81040402101F068BA10BDC3
:1020B000F8000020102C01400004004830040020EB
:1020C0000068A1F580710F390ED0B1F5837F08D07B
:1020D000B1F5037F02D0D0F880007047D0F88C00B3
:1020E0007047D0F888007047D0F884007047704778
:1020F0002DE9F04104464548806800F01F0520683E
:1021000003F0DCFA08BB2168C868C96C00F0004025
:1021100011F4C07F00D190B194F85800012814D078
:10212000012084F858002046FEF758FC01004FF0CB
:1021300000020CD084F858200846BDE8F081E06D1C
:1021400040F02000E0650120F7E70220F5E7E06DB0
:10215000C00504D5206E20F00800206600E022664D
:10216000E06D42F20103984340F48050E065284B53
:1021700020684FF0A046984201D1374600E007465C
:10218000874200D01DB9E76D27F48017E765602707
:10219000076084F858202068C268920203D542681C
:1021A00042F480624260A06908282068426807D033
:1021B00022F0400242602068426842F0200206E0BD
:1021C00022F0200242602068426842F040024260F1
:1021D0002068984201D1324600E00246824209D08E
:1021E00045B1062D06D0072D04D0E06D40F48010D7
:1021F000E065A1E7C26812F0007F9DD18268054BBF
:102200001A4042F00802826096E700000003005086
:1022100000010050C0FFFF7F704770472DE9F04775
:10222000044690F858009CB00D464FF00008012875
:1022300014D0012084F8580020684FF0A0474FF0D8
:102240000009B8420ED1284E0096304603F03EFAFF
:102250008246206803F03AFA60B10EE002201CB01A
:10226000BDE8F087E16D41F02001E16584F8589008
:102270000120F4E7BAF1000F0AD0E06D40F0200031
:10228000E0654FF0010800BF84F858904046E6E74B
:1022900016482A6840F61F71002A826822F46042BC
:1022A00015D094F8383042EA43326B681A438260A2
:1022B000BA68B36802F0010203F001031A43E3D1E4
:1022C000AB682A681A4383688B431A430AE082602A
:1022D000BA68B36802F0010203F001031A43D3D1D4
:1022E00082688A438260CFE70001005000030050FB
:1022F0002DE9F84F00270446009790F85800DFF8C2
:10230000DC930D46B846012811D0012684F85860A8
:10231000206803F0D7F960B1E06D40F02000E0657F
:102320005FF0010784F858803846BDE8F88F022036
:10233000FBE7D5E900210C23206803EA9113184438
:10234000036B01F01F014FF01F0C0CFA01FCC2F3EC
:10235000846223EA0C038A4013430363206803F07A
:10236000B1F98246206803F0A5F95AEA00003CD191
:10237000AA6829682068B2F1004F37D003F0B2F99B
:102380002068416921F00041416120686969C268A3
:10239000C2F3C102520091402A69042A31D000EBF5
:1023A00082002B68026EDFF838C303F0F84302EABC
:1023B0000C020B431A4342F000410166226828696F
:1023C000A96902EB8000026E22F080720A43026665
:1023D000297F20682A69012910D0002100EB8200A2
:1023E000026E22F000720A4302667DE0002203F0D2
:1023F00079F92068416941F00041C5E74FF000716B
:10240000ECE7002103F04AF9400320684FF0000197
:1024100072D003F043F990FAA0F0B0FA80F1286886
:1024200042036ED090FAA0F0B0FA80F0814204D15D
:1024300000221146206803F073F90121206803F09F
:102440002DF9400320684FF001015DD003F026F91B
:1024500090FAA0F0B0FA80F12868420359D090FABF
:10246000A0F0B0FA80F0814204D10022012120685E
:1024700003F056F90221206803F010F940032068A8
:102480004FF0020148D003F009F990FAA0F0B0FA39
:1024900080F12868420344D090FAA0F0B0FA80F0AE
:1024A000814204D100220221206803F039F903217E
:1024B000206803F0F3F8400320684FF0030133D0A5
:1024C00003F0ECF890FAA0F0B0FA80F1286842032B
:1024D0002FD090FAA0F0B0FA80F0814204D100220F
:1024E0000321206803F01CF92068816811F0010FB6
:1024F00022D0ACE000E004E003F0D0F8C0F3846147
:102500008DE7C0F3846091E703F0C8F8C0F38461FD
:10251000A2E7C0F38460A6E703F0C0F8C0F38461CB
:10252000B7E7C0F38460BBE703F0B8F8C0F3846199
:10253000CCE7C0F38460D0E72A7B296850F8B03F2D
:10254000C1F3120C23EA0C0302F0180C654A22FABC
:102550000CF20A4013430360E968494577D12868C3
:1025600041031CD090FAA0F1B1FA81F1491C01F0AD
:102570001F0109294FEA403132D8002912D000BF8B
:1025800090FAA0F1B1FA81F101F1010101F01F010E
:1025900006FA01F609D100BFC0F3846109E0C0F377
:1025A0008461E3E7C0F38461EEE790FAA0F1B1FA49
:1025B00081F101F1010101F01F0146EA816102D1BF
:1025C000C0F3846003E090FAA0F0B0FA80F000F16C
:1025D000010000F01F0000EB400041EA005132E032
:1025E00000290ED090FAA0F1B1FA81F101F10101B8
:1025F00001F01F0106FA01F606D100BFC0F38461A5
:1026000006E0C0F38461F1E790FAA0F1B1FA81F13C
:1026100001F1010101F01F0146EA816102D1C0F31D
:10262000846003E090FAA0F0B0FA80F000F10100BD
:1026300000F01F002C4A00EB400002EB005041EA82
:10264000000141F00071AA68206803F04BF82748A8
:102650002A6802423FF466AE25488168254B01F0A6
:10266000E0719A4202D0244B9A421BD10B0219D43A
:102670002268B2F1A04F7FF455AE826841F40001A8
:1026800022F0E0720A4382601C481D490068B0FBDA
:10269000F1F000EB4000800000E0401E00900028B8
:1026A000FBD13FE6174D184BAA4207D1CD0105D407
:1026B00022689A42F5D041F0807109E0134DAA4298
:1026C000EFD14A02EDD422689A42EAD041F4800167
:1026D000826822F0E0720A43826023E600007F40B5
:1026E00000F0FF03FFFF0700000020FE000008804D
:1026F00000030050000021C31000C090F40000202F
:10270000400D0300000052C700010050000084CBC0
:102710000249884201D1FEF7F9B97047F80000205C
:10272000704770472DE9F05F044600680668456809
:10273000DFF854B2DBF8080000F01F07B0070ED531
:10274000A8070CD5E06DC00603D4E06D40F400602E
:10275000E0652046FFF7FAF9216802200860DFF8FB
:102760002CA270074FF0A04801D5680703D43007AA
:1027700037D5280735D5E06DC00603D4E06D40F4A9
:102780000070E065206802F0A5FF20B32068504586
:1027900001D1424600E00246824208D03FB1052FF7
:1027A00005D0092F03D0504503D1414602E0C1684E
:1027B00001E00146C96889040DD4016809070AD5FA
:1027C00002F080FF58B3E06D40F01000E065206E2D
:1027D00040F0010020662046FFF79AFF21680C2098
:1027E0000860B00601D5A80603D4700658D568065F
:1027F00056D5E06DC00603D4E06D40F40050E065AE
:102800002068C16C11F4C07F1AD00021894602F003
:1028100061FF02462068504514D1434613E020680A
:10282000416821F00C014160E06D20F48070E065AA
:10283000E06DC004CFD4E06D40F00100E065CAE770
:102840000121E3E70346834208D03FB1062F05D0BC
:10285000072F03D0504503D1414602E0C16801E093
:102860000146C968B9F1000F04D18B0112D48AB1B5
:102870008A040FD4026852060CD589020AD402F0E9
:1028800019FFE8B3E06D40F01000E065206E40F005
:10289000010020662046FFF7E7FB21686020086002
:1028A00030060BD5280609D5E06D40F48030E06590
:1028B000204600F069F9216880200860F0050CD5F9
:1028C000E8050AD5E06D40F40030E0652046FFF7EA
:1028D000A3FC21684FF480700860B0050CD5A805F2
:1028E0000AD5E06D40F48020E0652046FFF795FCB6
:1028F00021684FF400700860F0062ED5E80600E06D
:1029000008E02AD5E06BD0B1AFB1DBF8080000F4E5
:10291000604013E02068416821F060014160E06D93
:1029200020F48050E065E06DC005B3D4E06D40F068
:102930000100E065AEE72068C068C00750B1E06DF7
:1029400040F48060E065206E40F002002066204682
:10295000FFF7E7FE216810200860700512D56805B2
:1029600010D5E06D40F48040E065206E40F0080036
:10297000206621684FF4806008602046BDE8F05F63
:10298000FFF7B5BBBDE8F09F000300500001005009
:10299000F8B54FF0000504002E46009502D0E06D1A
:1029A00010B107E00120F8BD204600F0EFF82666E0
:1029B00084F8586020688168C1F3407119B181685A
:1029C000694A1140816020688168C1F3007179B95A
:1029D0008168664A114041F08051816064486549D0
:1029E0000068B0FBF1F000E0401E00900028FBD131
:1029F00020688168C1F3007141B9E16D41F01001B7
:102A0000E165216E41F001012166012502F05AFEC7
:102A1000E16DC90600D430B1E06D40F01000E06512
:102A200001252846F8BDE06D20F4807040F00200DA
:102A3000E0652068806810F0010F11D14FF0A040D0
:102A400080684D4900F00100896801F001010843E8
:102A500006D14A486168826822F47C120A43826087
:102A6000E168E06B627F0843A16841EA42310843B4
:102A700094F8241040EA0140012904D1218D404AF4
:102A800002EB41410843E16A29B101F47871226BFC
:102A9000014342EA01002168CA683A4B1A400243E6
:102AA000CA6020680169626B21F0406111430161D5
:102AB000206802F007FE0646206802F0FBFD304366
:102AC0002ED1207F94F83810800340EA410220681C
:102AD000C16844F2020399431143C1602069002890
:102AE000206801690AD041F480310161206850F802
:102AF000C01F22696FF30D01114307E021F48031FB
:102B00000161206850F8C01F6FF30D01016094F857
:102B1000400001280CD02068016921F00101016109
:102B2000606901282068016B21F00F0111D013E0CA
:102B3000D4E911010843D4E9131211430843216871
:102B40000A6940F2FC739A43104340F001000861A7
:102B5000E6E7226A521E11430163E06D20F0020095
:102B600040F00100E0655CE7C0FFFF5FC0FFFF7F52
:102B7000F4000020400D030000010050000300504D
:102B80000000FEFF0740F0FF7047000070B586B000
:102B9000054614216846FDF7F9FB2868B0F1A04FFF
:102BA0003BD11F49C86C40F40050C864C86C00F4A5
:102BB00000500590C86C40F00100C864C86C002645
:102BC00000F0010005900F2000900320CDE90106E0
:102BD00069464FF0904000F0E9FB134C114820602B
:102BE0000520C4E901068020C4E90360400060615B
:102BF0008000C4E9060680002062204600F028F923
:102C000008B1FEF749FC6C65002211461220A5624E
:102C100000F04AFD122000F039FD06B070BD000042
:102C20000010024008000240640100202DE9F0413C
:102C30000446344817468846806800F01F0520681F
:102C400002F040FD00285AD194F85800012856D0CF
:102C5000012084F85800002625B1052D02D0092D49
:102C600000D003E02046FDF7B9FE18B184F85860A3
:102C7000BDE8F081E06D40F60161884340F480706A
:102C8000E06521492068884202D14FF0A04100E070
:102C90000146814200D01DB9E06D20F48010E0654E
:102CA000E06DC00404D5206E20F00600206600E030
:102CB0002666616D1548C862616D15480863616DCF
:102CC0001448486321681C20086084F85860206814
:102CD000416841F0100141602068C16841F0010184
:102CE000C16021683B4642464031606D00F010F9FA
:102CF00021688A68084B1A40121D8A60B8E70220D2
:102D0000B6E700000003005000010050E908000889
:102D10006B09000851090008C0FFFF7F70B590F8EB
:102D20002520002401212346022A07D00422C26361
:102D300080F8251080F82430012429E00268156805
:102D400025F00E0515600268156825F0010515606F
:102D5000826C156825F48075156090F84420056C28
:102D600002F01F0201FA02F26A60D0E913255560F1
:102D7000426D32B1156825F480751560D0E91625CD
:102D8000556080F8251080F82430816B01B18847A8
:102D9000204670BDF0B4016C0C6801680D6890F8B5
:102DA000442002F01F06042202FA06F3234211D047
:102DB0006B070FD50B689B0603D40B6823F0040345
:102DC0000B6090F8441001F01F018A40016C4A60CA
:102DD000016B1DE0022303FA06F727424FF0000CB7
:102DE0004FF0010218D0AF0716D50C68A40605D421
:102DF0000C6824F00A040C6080F8252090F8441038
:102E000001F01F018B40016C4B6080F824C0C16A47
:102E100000291AD0F0BC08470823B340234214D03D
:102E20002B0712D50B6823F00E030B6090F84410AB
:102E3000036C01F01F0102FA01F15960C26380F8CE
:102E4000252080F824C0416BE2E7F0BC7047000009
:102E500070B504000CD02B4A21681420914209D28D
:102E6000294A0A44B2FBF0F08000606427480AE077
:102E7000012070BD234A52420A44B2FBF0F08000A8
:102E80006064204808382064022084F825000A681D
:102E900047F6F0708243D4E902031843D4E90435BD
:102EA0002B431843A3691843E3691843236A184363
:102EB000104308602046FDF7E5FFA0680025B0F547
:102EC000804F00D16560A16C20790860D4E91301BE
:102ED00041606068401E032808D82046FDF7F2FFD5
:102EE000606D0560D4E91601416002E06565A56585
:102EF000E565E563012084F8250084F8245000206E
:102F000070BD000008040240F8FFFDBF0000024051
:102F100070B5044690F82400002501280CD001204B
:102F200084F8240094F825600020012E06D084F84F
:102F300024000225284670BD022070BD022684F8B8
:102F40002560E0632068066826F0010606602046DA
:102F5000FDF7CAFF206B00282068016802D041F00D
:102F60000E0106E021F0040101602068016841F0D3
:102F70000A010160A06C0168C90303D5016841F42E
:102F800080710160606D18B1016841F48071016069
:102F90002068016841F001010160CBE770B504468B
:102FA00000F0FAFA0546601C02D004484068044468
:102FB00000F0F2FA401BA042FAD370BDE8000020F6
:102FC0007047704770472DE9F04704460068016D6F
:102FD000466D01F4E0510E40016D476D01F00701AF
:102FE0000F40016D426D01F0380102EA0108016DE8
:102FF000456D01F471010D40016D426D01F46021D8
:1030000002EA0109016D490607D5416D490604D55B
:10301000402101652046FFF7D5FF2068016DC905F5
:103020000DD5416DC9050AD5D0F8D820D0F8E010EB
:1030300011404FF480720265204600F0B3F92EB1C2
:10304000206806653146204600F0AEF92FB12068B1
:1030500007653946204600F0A1F9B8F1000005D017
:10306000216808654146204600F099F92068016D05
:10307000890508D5416D890505D54FF400710165B5
:10308000204600F092F92068016D09060CD5416DCB
:10309000090609D5D0F8D420D0F8DC1011408022E0
:1030A0000265204600F07FF92068016D890408D58B
:1030B000416D890405D54FF400510165204600F0AB
:1030C00070F92068016D090408D5416D090405D522
:1030D0004FF400410165204600F062F92068016D5F
:1030E000490409D5416D490406D54FF48041016575
:1030F000206E40F080002066B9F1000005D0216804
:10310000086549462046FFF75CFF25B12068056544
:10311000206E28432066206E002802D02046FFF74C
:103120004FFFBDE8F08700002DE9F041040006D014
:10313000DFF8E88194F85C00002518B107E0012071
:10314000BDE8F08184F85D50204600F0EFF820687B
:10315000816921F01001816100F01EFA0646032703
:1031600005E000BF00F018FA801B0A2811D820687B
:1031700080690007F6D42068816941F0010181610E
:1031800000F00AFA06460BE000F006FA801B0A2857
:1031900006D9206E40F00100206684F85C70CEE70E
:1031A00020688069C007EFD02068816941F0020182
:1031B00081612168414502D1594960680860207CDD
:1031C00001282068816937D041F040018161607C2D
:1031D00001282068816932D021F480418161A07C7E
:1031E0000128206881692DD041F4805181612068D7
:1031F0008169A26821F4407111438161206881696D
:1032000021F0A40181612068016921F010010161B0
:10321000E068012819D010B302281BD0206881690A
:1032200041F0800181612068016941F01001016174
:10323000E06803280ED012E021F04001C6E741F417
:103240008041CBE721F48051D0E72068816941F0CB
:10325000040103E02068816941F020018161207E42
:10326000E26940066FF0FF0101EB0222A0F100705D
:103270001043226AA38A521E10430A0202EB034340
:1032800018432368D861A068B0F5407F10D1D4E915
:103290000A0301EB0321401E0843216B131303EBC8
:1032A00001110843A18C02EB014108432168C86069
:1032B000206850F8C01FE26B114301601948206478
:1032C000216851F8802FA38E22F4F81242EA0342BB
:1032D0000A60144970316164216851F8802F94F8B4
:1032E000383022F0706242EA03620A600D49B03160
:1032F000A1640D49E1640C49D83121650A49F031D6
:10330000616500F5547120C08842FCD3A56525662F
:10331000012084F85C00002012E7000000640040F7
:103320000065004000A4004088A5004010B586B0AC
:10333000044614216846FDF729F81649206888429A
:1033400026D11548816D41F000718165816D01F0D4
:1033500000710591C16C41F00101C164C06C694606
:1033600000F0010005904FF4C05000900220019041
:1033700000200290039009200490C00600F016F887
:1033800000220421152000F08FF9152000F07EF9AD
:1033900006B010BD00640040001002407047704746
:1033A0007047704770477047704770472DE9FC4F72
:1033B000DFF8A0A1002301250AF1040B03244FF03C
:1033C0000F0C0BF1040EBDE005FA03F632406FD08E
:1033D0004F68012F05D0022F03D0112F01D0122FDB
:1033E00017D1D0F808905F0004FA07F829EA080915
:1033F0000097D1F80C8008FA07F848EA0908C0F8E5
:1034000008804768B7430E79C6F300169E403E43D6
:103410004660C6684FEA430804FA08F7BE430197BE
:103420008F6807FA08F73743C7604E68022E01D04D
:10343000122E13D1DE0800EB86060096366A5F076F
:10344000FF0E0CFA07F926EA0906D1F8109009FADE
:1034500007F949EA0609009EC6F820900668019F10
:10346000BE430F7907F0030707FA08F737430760F1
:103470004E68F60065D5384E376E47F0010737665F
:10348000366E23F0030706F001060096334E3E44E5
:10349000B146B6689F074FEA17780CFA08F7BE43A3
:1034A000B0F1904F05D02E4FB84204D1012717E05C
:1034B00047E0002714E02B4FB84201D102270FE06C
:1034C000294FB84201D103270AE0284FB84201D161
:1034D000042705E0264FB84201D1052700E0062762
:1034E00007FA08F73743C9F80870DAF8006057465A
:1034F000D1F8048096435FEAC83800D516433E6091
:10350000DBF800605F46D1F8048096435FEA8838B4
:1035100000D516433E60DEF800607746D1F804809F
:1035200096435FEAC82800D516433E60094F0C3722
:103530003E68D1F8048096435FEA882800D5164398
:103540003E605B1C0A6832FA03F67FF43DAFBDE8CB
:10355000FC8F000000040140001002400000014008
:103560000004004800080048000C00480010004813
:10357000001400480069084000D0012070474269EB
:1035800021EA02030A4043EA0241816170470AB11D
:103590008161704781627047014880687047000010
:1035A000E800002002488168426811448160704749
:1035B000E800002010B50024032000F095F800205A
:1035C00000F008F808B1012401E000F047F82046B7
:1035D00010BD000030B505461C4887B0816D41F034
:1035E00001018165806D06A900F00100009001A82D
:1035F00000F024FB00F042FB15494FF08042B0FB85
:10360000F1F11448491E0260416040F2E7320021A6
:10361000C0E90321816001F046FB040012D10D488E
:1036200001F0E2FB04000DD11C2000F02FF8102D5A
:1036300007D2002229461C2000F036F80648056013
:1036400000E0012407B0204630BD00000010024019
:1036500040420F00E4030020E80000200A4882B046
:10366000016E41F001010166016E01F0010100915E
:10367000816D41F080518165806D00F08050009037
:1036800002B000F0A1B8000000100240002809DBE1
:1036900000F01F02012191404009800000F1E0206C
:1036A000C0F8001170470000F0B40E4B1B680C46C8
:1036B000C3F30223C3F10705042D00D90425191D06
:1036C000072901D2002300E0DB1E012606FA05F1DE
:1036D000491E214099409E40761E16403143F0BC61
:1036E00003F0BCB80CED00E0064900F007020868E2
:1036F0004FF6FF03184040EA0220034A10430860D7
:10370000704700000CED00E00000FA052B492C4B3F
:103710000A6832214A432B4940B1B0F5007F08685E
:1037200029D020F4C06040F480602CE00868C0F329
:103730004120022804D051F8800F20F4807022E04C
:10374000D1F8800020F48070C1F88000086820F46F
:10375000C06040F400700860B2FBF3F0401C00E071
:10376000401E4A69520501D50028F9D14869400533
:103770000AD503207047C0F34120022806D051F833
:10378000800F40F48070086000207047D1F88000FE
:1037900040F48070C1F88000086820F4C06040F4F4
:1037A00000700860B2FBF3F0401C00E0401E4A6964
:1037B0005205DBD50028F9D1D8E70000F40000203D
:1037C00040420F00007000400248816841F480418F
:1037D00081607047007000402DE9F843044600689E
:1037E00000269D4D00035ED5A86D0027C00008D4BB
:1037F000A86D40F08050A865A86D012700F08050AA
:103800000090DFF85892D9F8001041F48071C9F89F
:103810000010FFF7C1FE804606E000BFFFF7BCFEC8
:10382000A0EB080002282BD8D9F80000C005F5D578
:10383000D5F8900010F4407014D0216C814211D062
:10384000D5F89000D5F8901020F4407041F4803104
:10385000C5F89010D5F8901021F48031C5F890107B
:10386000C5F89000C00711D0FFF796FE804641F2E0
:10387000883907E0FFF790FEA0EB0801494501D920
:1038800003260BE0D5F890008007F3D5D5F890001B
:10389000216C20F440700843C5F890001FB1A86D5A
:1038A00020F08050A8652078C00707D0D5F88800A0
:1038B000616820F003000843C5F88800207880077D
:1038C00007D5D5F88800A16820F00C000843C5F89A
:1038D00088002078400707D5D5F88800E16820F0F7
:1038E00030000843C5F888002078000707D5D5F8D0
:1038F0008800216920F0C0000843C5F888002078BE
:10390000800607D5D5F88800616920F44060084337
:10391000C5F888002078400607D5D5F88800A16949
:1039200020F440500843C5F888002078000607D5E9
:10393000D5F88800E16920F440400843C5F88800C4
:103940002088C00507D5D5F88800216A20F44030CA
:103950000843C5F888002088800507D5D5F8880079
:10396000616A20F440200843C5F88800208840059B
:103970000FD5D5F88800A16A20F440100843C5F897
:103980008800A06AB0F5801F03D1E86840F4801079
:10399000E860208800050FD5D5F88800E16A20F49A
:1039A00040000843C5F88800E06AB0F5800F03D1F5
:1039B000E86840F48010E8602088C0040FD5D5F88E
:1039C0008800216B20F040700843C5F88800206B08
:1039D000B0F1807F03D1E86840F48010E86020886F
:1039E0004FF0006180040ED5D5F88800626B20F09E
:1039F00040601043C5F88800606B884203D1E868D6
:103A000040F48010E860208840040ED5D5F8880086
:103A1000A26B20F040601043C5F88800A06B88427C
:103A200003D1E86840F48010E860208800040FD5D6
:103A3000D5F88800E16B20F040500843C5F88800B5
:103A4000E06BB0F1805F03D1E86840F48030E8605B
:103A50003046BDE8F88300000010024000700040CE
:103A60002DE9F0470E4605004FF0000725D0DFF89E
:103A7000AC81D8F8000000F00F00B0420CD2D8F8AA
:103A8000001021F00F013143C8F80010D8F80000F1
:103A900000F00F00B04210D12968614CC80741F214
:103AA000883A5AD06868DFF87C91032808D0022849
:103AB00020682DD0400500282CDB0120BDE8F087D0
:103AC00020688001F9D5E06800F00302E068C0F3E7
:103AD0000310401C032A19D0534A00BFB2FBF0F078
:103AE000E268C2F306225043E268C2F34162521C0C
:103AF0005200B0FBF2F0484517D9A06810F0F00F63
:103B00000CD0880711D5A86840B10EE0474AE5E718
:103B10008003D0E700F0C4F8484506D9A06820F03B
:103B2000F00040F08000A0608027A068696820F065
:103B300003000843A060FFF72FFD814606E000BFA9
:103B4000FFF72AFDA0EB090151453AD8A068696842
:103B500000F00C00B0EB810FF2D12868810714D57A
:103B6000400703D5A06840F4E060A0602878000713
:103B700005D5A06820F4605040F4E060A060A06823
:103B8000A96820F0F000084304E0802F03D1A0686A
:103B900020F0F000A060D8F80010404601F00F01BE
:103BA000B14216D9016821F00F0131430160FFF7DE
:103BB000F3FC074607E000BFFFF7EEFCC11B5145D1
:103BC00001D903207AE7D8F8000000F00F00B042D6
:103BD000F2D12878400705D5A068E96820F4E060B4
:103BE0000843A0602878000706D5A068296920F45A
:103BF000605040EAC100A06000F052F8A1680C4A91
:103C0000C1F30311515C01F01F01C840094908606C
:103C100009480068BDE8F047FFF7DCBC002002401F
:103C20000010024000B4C4040024F400005A6202F0
:103C3000F8690008F4000020E80000200F2202606C
:103C40000C4A936803F003034360936803F0F003A6
:103C50008360936803F4E063C36092684FF4E063A9
:103C600003EAD20202610448006800F00F00086015
:103C7000704700000010024000200240054806493D
:103C800000688968054AC1F30221515C01F01F01F7
:103C9000C8407047F400002000100240086A000885
:103CA000184910B58868C0F381021748012A0BD063
:103CB0008A68164BC2F38102022A06D08A68C2F3D0
:103CC0008102032A03D0002010BD184610BDCA6827
:103CD00002F00304CA68C2F30312521C032C02D080
:103CE000B0FBF2F001E0B3FBF2F0CA68C968C2F3BE
:103CF00006225043C1F34161491C4900B0FBF1F079
:103D000010BD0000001002400024F400005A6202BE
:103D10002DE9F84304007AD02078FA4DC00747D047
:103D2000A868E96800F00C0001F003010C2802D03B
:103D3000082817D001E0032914D06068B0F5803F4F
:103D400017D0B0F5A02F286817D020F48030286055
:103D5000286820F4802028606068E0B1FFF71CFC30
:103D6000064614E02868800322D560680028D2D077
:103D70001EE0286840F48030EDE740F480202860A1
:103D8000F7E700BFFFF708FC801B642870D828689D
:103D90008003F7D50CE0FFF7FFFB064605E000BF08
:103DA000FFF7FAFB801B6428F0D828688003F7D45B
:103DB000207880074CD5A868E96800F00C0001F075
:103DC00003010C2802D004280DD001E002290AD0FA
:103DD000E068002828682BD040F480702860FFF746
:103DE000DBFB064619E02868400502D5E06800289C
:103DF00091D06868217C20F0FE4040EA0160686054
:103E0000C1480068FFF7E6FB002800D120E076E11A
:103E1000FFF7C2FB801B0228B8D828684005F7D5F9
:103E20006868217C20F0FE4040EA016068600FE095
:103E300020F480702860FFF7AFFB064605E000BF66
:103E4000FFF7AAFB801B0228A0D828684005F7D4FA
:103E50002078000729D560690028D5F8940013D090
:103E600040F00100C5F89400FFF796FB064606E017
:103E700090E000BFFFF790FB801B022886D8D5F8A2
:103E800094008007F6D510E020F00100C5F89400FA
:103E9000FFF782FB064604E0FFF77EFB801B02284B
:103EA00078D8D5F894008007F6D42078400761D5FB
:103EB000A86D0026C00008D4A86D40F08050A86509
:103EC000A86D012600F08050009090480168C90557
:103ED00011D40168804641F480710160FFF75CFBFA
:103EE000074604E0FFF758FBC01B022852D8D8F859
:103EF0000000C005F6D5A068012815D00528D5F822
:103F0000900016D020F00100C5F89000D5F8900080
:103F100020F00400C5F89000A06841F28838B8B1DC
:103F2000FFF73AFB07460EE0D5F8900040F001009D
:103F3000F0E740F00400C5F89000F5E7FFF72CFB30
:103F4000C11B414526D8D5F890008007F6D50CE076
:103F5000FFF722FB074604E0FFF71EFBC11B4145AC
:103F600018D8D5F890008007F6D41EB1A86D20F0BF
:103F70008050A8652078800629D5A0690028D5F84A
:103F8000980013D040F00100C5F89800FFF704FB3B
:103F9000064606E077E000BFFFF7FEFA801B022826
:103FA00077D8D5F898008007F6D510E020F001000A
:103FB000C5F89800FFF7F0FA064604E0FFF7ECFAC0
:103FC000801B022865D8D5F898008007F6D4E069F0
:103FD000F0B3A968C1F38101032961D002282868E0
:103FE00020F0807028600BD0E86820F00300E860C3
:103FF000E86847490840E860FFF7CEFA04464BE01E
:10400000FFF7CAFA064604E0FFF7C6FA801B02284B
:104010003FD828688001F7D4F4E908016FF00F0257
:1040200002EB01110843218A5204490802EB415175
:10403000A26841EA02210843217D4FF07E424908EF
:1040400002EB41610843217B40EAC160E96800E07E
:1040500062E0304A11400843E860286840F0807010
:104060002860E86840F08070E860FFF795FA044641
:1040700005E000BFFFF790FA001B022809D8286866
:104080008001F7D548E004E0FFF786FA001B02281C
:1040900002D90320BDE8F88328688001F4D43BE00E
:1040A0000128F7D0E868226A00F00301914226D186
:1040B000616A00F0F0020901103991421FD1A26A31
:1040C00000F4FE41B1EB022F19D194F82C2000F03E
:1040D0007841B1EBC26F12D1218E00F4C0024908C1
:1040E0004905A1F50011914209D194F8341000F06E
:1040F000C06049084906A1F1007181420CD001203D
:10410000C8E7000000100240E800002000700040F6
:10411000FFFFEEFE0C809F010020BBE77047000010
:1041200038B5016804464A688868C043430606D526
:10413000C30704D1D3435B0601D4E16C05E08307D8
:1041400008D4D3431B0605D4216D01B02046BDE839
:1041500030400847830603D5430601D5C30551D433
:10416000D3439B064ED443060AD494F85D30032B08
:1041700049D0236E43F004032366CB688B68009319
:10418000830609D4236E43F0010323668B680093F2
:104190000B6823F040030B60C00506D4206E40F08E
:1041A00008002066206880680090206E002829D0D2
:1041B0002068416821F0E0014160012084F85D0041
:1041C000900701D4D00722D02068416821F0030174
:1041D0004160114DA06D40B18563A06DFEF79EFD5D
:1041E00018B1206E40F040002066606D002809D0B4
:1041F0008563606DFEF792FD002803D0206E40F0CD
:104200004000206638BDC8688868009038BD2046E8
:10421000FFF784FF38BD0000595F000870B5040047
:1042200009D0606A002540B125616561A56294F8F6
:104230005D0040B10CE0012070BD6068B0F5827F88
:10424000F4D0E561F2E784F85C50204600F05CF8B9
:10425000022084F85D002068016821F040010160BF
:10426000E1684FF4E062914201D9002001E04FF48F
:104270008050B1F5706F02D0914200D0A562A18844
:10428000228901F4827102F404421143227C02F07B
:1042900002021143227D02F001021143228B02F43B
:1042A00000721143227F02F03802114394F820205B
:1042B00002F080021143228D02F400521143226861
:1042C0001160A169042202EA114194F8242000F44B
:1042D000805002F01002114394F8342002F00802DA
:1042E0001143A28902F470621143014320684160C6
:1042F0002068C16921F40061C1612566012084F84C
:104300005D00002070BD0000F0B587B006461421A6
:104310006846FCF73BF82D493068884254D12C4858
:10432000016E41F480510166016E01F480510591E6
:10433000C16C41F00201C164C06C694600F002002A
:104340000590382000900220019001200290032067
:104350000390052004901F48FFF728F81F4D1E48C2
:10436000002428600A20C5E901048027C5E9034725
:104370006C61AC61EC6128462C62FEF769FD08B106
:10438000FDF78AF8B565AE62144D134860351430F8
:1043900028600B20686005F10801102081E8910079
:1043A0006C61AC61EC6128462C62FEF751FD08B1EE
:1043B000FDF772F87565002203212320AE62FFF736
:1043C00073F92320FFF762F907B0F0BD0030014018
:1043D0000010024000040048080402408C02002043
:1043E0002DE9F041044600268068042318B9656869
:1043F000B5F5827F0ED094F85C50012D13D00127C3
:1044000084F85C7094F85DC00025BCF1010F0DD0FC
:1044100002268AE084F85D302046BDE8F04113466C
:104420000A4600F0C1B90220BDE8F08181B17AB13D
:1044300084F85D3025662164A4F84420A4F8462061
:10444000E5642565A587E587B0F5004F02D00BE050
:1044500001266AE02068016821F0400101602068BF
:10446000016821F4804101602068416821F4005115
:104470004160E068B0F5E06F2068416803D921F43D
:10448000805141601CE041F480514160A06D806921
:10449000B0F5806F14D12068416821F480514160EB
:1044A000B4F84600C0072068416825D041F40051A7
:1044B0004160B4F8460007EB500000BFA4F8460086
:1044C000A16D1C480863A16D1B48C862A16D1B4803
:1044D0004863A06D8563B4F846302168226C0C31C6
:1044E000A06DFEF715FD70B1206E40F01000206643
:1044F000012684F85D7018E021F400514160B4F8A1
:1045000046004008DAE720680168490603D40168DC
:1045100041F0400101602068416841F020014160A4
:104520002068416841F00101416084F85C503046E8
:104530007AE700008D5F0008AB5F00086B5F000842
:10454000704770472DE9F05F044690F85C00002743
:104550000A9E1D4692468B464FF0010901280ED057
:10456000012084F85C00FFF717F8804694F85D009E
:10457000616801280CD0B1F5827F07D102E00220EA
:10458000BDE8F09FA16809B9042801D0022700E125
:10459000BBF1000F24D0BAF1000F21D005B394F87D
:1045A0005D00042802D0052084F85D00002020660C
:1045B000C4F840A0A4F84650A4F84450C4F838B059
:1045C000E587A587E0642065E0684FF4E0618842F4
:1045D00001D8012D06D92068426822F4805205E0F6
:1045E0000127D6E02068426842F480524260206889
:1045F0000268520603D4026842F040020260E0689A
:104600008842606845D908B1012D3AD1A06B216874
:104610000088C860A06B801CA063E08F401EE0870C
:104620002FE02068816889070FD5E18F69B1B9F162
:10463000010F0AD1A16B0988C160A06B801CA06327
:10464000E08F401EE0874FF0000920688168C907AD
:104650000FD0B4F8461061B1C068216C0880206C9E
:10466000801C2064B4F84600401EA4F846004FF0B9
:104670000109FEF791FFA0EB0800B04201D3701CC6
:1046800075D1E08F0028CCD1B4F846000028C8D1FD
:1046900076E008B1012D6CD1E08F0128A06B08D91C
:1046A00021680088C860A06B801CA063E08F801E1A
:1046B00007E0216800780873A06B401CA063E08FBE
:1046C000401EE08755E02068816889071AD5E18F90
:1046D000C1B1B9F1010F15D1E18F0129A16B07D942
:1046E0000988C160A06B801CA063E08F801E06E07B
:1046F00009780173A06B401CA063E08F401EE08727
:104700004FF0000920688168C90728D0B4F8461026
:1047100029B3B4F84610012914D9C068216C088067
:10472000206C801C2064B4F84600801EA4F846006B
:10473000B4F84600012810D82068416841F480513F
:1047400041600AE0007B216C0870206C401C2064F2
:10475000B4F84600401EA4F846004FF00109FEF7E9
:104760001BFFA0EB0800B04202D3701C01D018E080
:10477000BEB1E08F0028A6D1B4F846000028A2D12F
:1047800042463146204601F0E0FC10B101272020CE
:104790002066012084F85D00002084F85C00384623
:1047A000EEE60327F5E700002DE9F041044690F816
:1047B0005C00002601280DD0012784F85C7094F875
:1047C0005D000025D4F804C001280FD0BCF5827F1D
:1047D0000AD102E00220BDE8F081D4F808C0BCF1A3
:1047E000000F01D1042801D00226ADE011B30AB3B5
:1047F00003B394F85D00042802D0052084F85D001E
:104800002566A163A387E3872264A4F84430A4F853
:104810004630E56425652068416821F4C041416067
:10482000E068B0F5E06F2068416805D921F4805157
:1048300041602FE0012687E041F480514160606DC6
:104840004FF48061806988420CD194F83C00C00725
:104850002068426837D042F480424260E08F07EB24
:104860005000E087A06D8069884213D120684168BC
:1048700021F480514160B4F84600C00720684168C7
:1048800027D041F400514160B4F8460007EB5000D6
:10489000A4F8460094F85D00042821D0A16D2C48AE
:1048A00008632C48A16DC862A16D2B484863A06DB8
:1048B0008563B4F846302168226C0C31A06DFEF798
:1048C00027FB38BB11E022F480424260E08F4008B1
:1048D000C7E721F400514160B4F846004008D7E72B
:1048E000A16D1E4808631E48DCE72068416841F05E
:1048F00001014160606D0563606DC562606D456377
:10490000606D8563E38F2268A16B0C32606DFEF7EA
:10491000FFFA38B1206E40F010002066012684F8BE
:104920005D7011E020680168490603D4016841F018
:10493000400101602068416841F020014160206829
:10494000416841F00201416084F85C50304642E722
:10495000A15F00087B6000086B5F00088D5F0008A6
:10496000AB5F00082DE9F041044690F85C0000269A
:10497000012809D0012784F85C7094F85D000025B7
:10498000012804D0022670E00220BDE8F08199B130
:1049900092B1032084F85D002566A163A287E287B7
:1049A00025642565E564A4F84450A4F84650A06841
:1049B000B0F5004F02D00BE0012656E020680168F8
:1049C00021F0400101602068016841F480410160EC
:1049D000616D28480863616D2748C862616D27488A
:1049E0004863606D85632068416821F480414160BF
:1049F000E068B0F5E06F10D8606D8069B0F5806F49
:104A00000BD1E08FC0072068416816D041F4804187
:104A10004160E08F07EB5000E087E38F2268A16BD5
:104A20000C32606DFEF774FA68B1206E40F0100031
:104A30002066012684F85D7017E021F48041416012
:104A4000E08F4008E8E720680168490603D4016860
:104A500041F0400101602068416841F0200141605F
:104A60002068416841F00201416084F85C503046A2
:104A70008BE70000975F0008176000086B5F000875
:104A80007047704770477047704770477047000025
:104A9000F0B590F83C20012A4AD0012280F83C2051
:104AA000CA688B6822F440721A434B6822F4806211
:104AB0001A430B6822F400621A430B6922F48052F5
:104AC0001A434B6922F400521A430B6B22F48042C2
:104AD0001A430B8B22F4702242EA0342154C0368FE
:104AE0000026154DA34201D0AB4203D1CF6922F07D
:104AF00080523A43A34201D0AB4214D10F8D22F42D
:104B0000700242EA07520F6A22F080723A434F6AFB
:104B100022F000723A43A34201D0AB4203D1C96AEA
:104B200022F000520A435A6480F83C600020F0BD35
:104B30000220F0BD002C01400034014070470068A5
:104B4000416D41F400314165002070477047704766
:104B5000F0B590F83C20012A3AD0012580F83C506D
:104B6000022280F83D2003685A689C68194E1A4F4B
:104B7000B34201D0BB4204D122F4700C4A6842EA2D
:104B80000C02DFF858C002EA0C02D1F800C04CEA6F
:104B9000020CC3F804C00268B2420DD0B2F1804FDB
:104BA0000AD00F4B9A4207D00E4B9A4204D0BA4219
:104BB00002D00D4B9A4204D1896824F08003194336
:104BC000916080F83D50002180F83C100846F0BD0F
:104BD0000220F0BD002C0140003401408FFFFFFD9A
:104BE00000040040000800400040014010B50446A9
:104BF000022249B104290ED0082913D094F84700A5
:104C0000012816D0012010BD94F844000128F9D1E4
:104C100084F844200FE094F845000128F2D184F88C
:104C2000452008E094F846000128EBD184F846209E
:104C300001E084F847200422206801F034FC206859
:104C4000416C41F4004141641049206888420ED013
:104C5000B0F1804F0BD00E49884208D00D498842F0
:104C600005D00D49884202D00C49884207D181689D
:104C70000B4A1140062906D0B1F5803F03D00168E8
:104C800041F001010160002010BD0000002C014036
:104C90000004004000080040003401400040014092
:104CA00007000100704710B5040003D094F83D00E0
:104CB00010B107E0012010BD002084F83C00204620
:104CC00000F022F8022084F83D00211D206801F048
:104CD00085FB012084F8480084F83E0084F83F00FA
:104CE00084F8400084F8410084F8420084F84300CE
:104CF00084F8440084F8450084F8460084F84700AE
:104D000084F83D00002010BD08B5194A0168194813
:104D1000914216D1016E41F400610166006E0022DD
:104D200000F40060009001211820FEF7BDFC18205F
:104D3000FEF7ACFC002211461920FEF7B5FC192045
:104D400010E00D4A914211D1816D41F0020181655F
:104D5000806D002200F00200009002211D20FEF76D
:104D6000A3FC1D20BDE80840FEF790BC08BD000074
:104D7000002C0140001002400004004090F83D105B
:104D8000012901D001207047022180F83D10006800
:104D90000F4988420ED0B0F1804F0BD00D498842A8
:104DA00008D00D49884205D00C49884202D00C49F0
:104DB000884207D181680B4A1140062906D0B1F517
:104DC000803F03D0016841F001010160002070477D
:104DD000002C014000040040000800400034014065
:104DE000004001400700010090F83D10012901D06A
:104DF00001207047022180F83D100168CA6842F026
:104E00000102CA600068104988420ED0B0F1804F9C
:104E10000BD00E49884208D00D49884205D00D4973
:104E2000884202D00C49884207D181680B4A114060
:104E3000062906D0B1F5803F03D0016841F0010199
:104E40000160002070470000002C01400004004079
:104E5000000800400034014000400140070001000C
:104E600070B5044690F83C00012814D0012584F860
:104E70003C50022084F83D0022689068344B184072
:104E800020F47F4090600868702827D010DC10F074
:104E90000F0F03D04AE04FF0020070BD4FEA20121E
:104EA000072A43D2DFE802F0505050504831390011
:104EB000284BC21A984247D009DCB0F5805F35D044
:104EC000B0F5005F15D0B0F1101F2FD13CE0102AD3
:104ED0003AD0202A38D0502A28D135E0CB68D1E901
:104EE0000121206801F0ECFA2068816841F0770127
:104EF00009E0CB68D1E90121206801F0E1FA2068DE
:104F0000816841F48041816010E0CA684968206886
:104F100001F080FC5021206806E0CA6849682068DA
:104F200001F089FC6021206801F0D4FA84F83D503A
:104F3000002084F83C0070BDCA684968206801F010
:104F400069FC40212068EFE7226801461046EBE744
:104F500088FFCEFF20001000704770B5044600683F
:104F600001694FF00005C943890715D4C168C943D9
:104F7000890711D4E91E016101202077206880692A
:104F80008007204602D0FFF7E7FF04E000F036F983
:104F9000204600F0F5F9257720680169C9434907E3
:104FA00017D4C168C943490713D46FF004010161E4
:104FB000022020772068806910F4407F204602D0CC
:104FC000FFF7CAFF04E000F019F9204600F0D8F915
:104FD000257720680169C943090716D4C168C94308
:104FE000090712D46FF008010161042020772068BE
:104FF000C0698007204602D0FFF7AEFF04E000F052
:10500000FDF8204600F0BCF9257720680169C94306
:10501000C90617D4C168C943C90613D46FF010017B
:105020000161082020772068C06910F4407F204685
:1050300002D0FFF791FF04E000F0E0F8204600F016
:105040009FF9257720680169C943C90708D1C1685C
:10505000C943C90704D1891E0161204600F0A2FAA4
:1050600020680169C943090609D4C168C943090612
:1050700005D46FF0800101612046FFF706FD20682E
:105080000169C943C90509D4C168C943090605D4E2
:105090006FF4807101612046FFF7F6FC206801691A
:1050A000C943490609D4C168C943490605D46FF00C
:1050B00040010161204600F0B1FA20680169C9434E
:1050C000890609D4C168C943890605D46FF0200157
:1050D00001612046FFF7DAFC20680169C943C90273
:1050E00009D4C168C943C90205D46FF480110161B4
:1050F0002046FFF72BFD20680169C943890209D4C6
:10510000C168C943890205D46FF4001101612046CA
:10511000FFF714FD20680169C943490209D4C16839
:10512000C943490205D46FF4800101612046FFF7AD
:105130000EFD20680169C94309020BD4C168C94347
:10514000090207D46FF4000101612046BDE87040F8
:10515000FFF7A8BD70BD00002DE9F04186B0044600
:1051600014216846FBF712F92049206888423AD199
:105170001F48C16C41F02001C164C16C01F02001E5
:105180000591C16C41F00101C164C16C01F00101E4
:105190000591C16C41F00201C164C06C4FF001087F
:1051A00000F002000627CDF80080CDE9047001AAC6
:1051B00002240025032682E8700069460D48FEF7A8
:1051C000F5F84FF4F0608DE8F10069464FF090403B
:1051D000FEF7ECF801AACDF8008082E8F0006946FD
:1051E0000548FEF7E3F806B0BDE8F081002C014069
:1051F000001002400014004800040048704770B5D9
:10520000044690F83C000D4601280BD0012084F89C
:105210003C000C2A45D007DC5AB1042A1BD0082ACE
:1052200078D12CE0022070BD102A4ED0142A71D102
:105230005DE0206801F058F92068816941F00801BB
:1052400081612068816921F00401816120688169A0
:105250002A69114311E0206801F094F920688169FE
:1052600041F4006181612068816921F4806181617C
:10527000206881692A6941EA022181614AE0206847
:1052800001F0C8F92068C16941F00801C1612068D6
:10529000C16921F00401C1612068C1692A69114313
:1052A00011E0206801F0FEF92068C16941F4006155
:1052B000C1612068C16921F48061C1612068C16950
:1052C0002A6941EA0221C16124E0206801F032FA32
:1052D0002068016D41F0080101652068016D21F031
:1052E000040101652068016D2A69114311E02068FD
:1052F00001F058FA2068016D41F4006101652068F1
:10530000016D21F4806101652068016D2A6941EA1F
:1053100002210165002084F83C0070BD10B5040036
:1053200003D094F83D0010B107E0012010BD00202B
:1053300084F83C00204600F022F8022084F83D006A
:10534000211D206801F04AF8012084F8480084F803
:105350003E0084F83F0084F8400084F8410084F85F
:10536000420084F8430084F8440084F8450084F83F
:10537000460084F8470084F83D00002010BD7047C7
:105380007047000030B50446022269B1042912D0EA
:10539000082917D00C291CD0102921D094F84300DB
:1053A000012824D0012030BD94F83E000128F9D115
:1053B00084F83E201DE094F83F000128F2D184F8E3
:1053C0003F2016E094F840000128EBD184F84020FB
:1053D0000FE094F841000128E4D184F8412008E06E
:1053E00094F842000128DDD184F8422001E084F8DD
:1053F00043200122206801F049F8194B206819491F
:10540000194A984209D0884207D0904205D0174DDA
:10541000A84202D0164DA84203D1456C45F4004580
:105420004564206898420CD0B0F1804F09D0114BF0
:10543000984206D0104B984203D0884201D0904247
:1054400007D181680D4A1140062906D0B1F5803F89
:1054500003D0016841F001010160002030BD00006F
:10546000002C014000340140004001400044014054
:10547000004801400004004000080040070001000F
:1054800030B50446022269B1042916D0082920D07B
:105490000C2929D010292ED094F84300012831D0AE
:1054A000012030BD94F83E000128F9D184F83E2057
:1054B0002068C26842F0020209E094F83F00012827
:1054C000EED184F83F202068C26842F00402C26036
:1054D0001CE094F840000128E2D184F840202068C4
:1054E000C26842F00802F2E794F841000128D7D1DF
:1054F00084F8412008E094F842000128D0D184F8D3
:10550000422003E084F843200C2935D00122206892
:1055100000F0BCFF1B4920681B4A1C4B884209D085
:10552000904207D0984205D0194DA84202D0194D9B
:10553000A84203D1456C45F4004545642068884283
:105540000CD0B0F1804F09D01349884206D01349DE
:10555000884203D0904201D0984207D18168104A16
:105560001140062906D0B1F5803F03D0016841F013
:1055700001010160002030BD2068C26842F01002C5
:10558000A5E70000002C014000340140004001402C
:105590000044014000480140000400400008004071
:1055A0000700010010B5044600681749884208D179
:1055B00016480068006810F0100F1BD0FCF756F872
:1055C00018E01349884215D1FCF76CFAFCF700F992
:1055D000FBF764FF0F4A1188481C1080B1F5FA6F81
:1055E00008D30D49002010804A898A8148810A68C1
:1055F000C1E900022068B0F1804F03D1BDE810403E
:10560000FDF7D0BF10BD0000002C01404C0300206E
:105610000004004000000020300400207047FEE736
:10562000DFED070AB1EE001A40EE010A9FED050A10
:1056300080EE201ABCEEC10A10EE100A704700007E
:10564000000016440024744970B50C462DED048BFF
:10565000F0EE419AF0EE408A0546B0EE608AB0EE78
:10566000690AFAF7D5FD20EE289AB0EE690AFAF732
:105670000BFE08EE409AB0EE690A85ED009AFAF743
:1056800003FE60EE288AB0EE690AFAF7C1FD48EE23
:10569000008AC4ED008ABDEC048B70BD00EB810074
:1056A000006E00F0F840704700EB8100006E00F0E3
:1056B000F84070478068C0F3C00070478068C0F34E
:1056C000C00070478068C0F3800070478068C0F3F6
:1056D00080007047C06810F4406F01D00020704710
:1056E00001207047042303EAD15310B518444369DD
:1056F000C1F3045107248C40A3438A401343436100
:1057000010BD042303EAD15310B518444369C1F313
:10571000045107248C40A3438A401343436110BDC6
:1057200000EB8100016E21F00041114301667047DA
:1057300000EB8100016E21F00041114301667047CA
:10574000F0B59BB00024179418943C216846199436
:10575000FAF71CFE20210FA8FAF718FE41484FF077
:10576000A041042501604FF44031C0E90114856176
:105770000121C460C0E9044104774477032606622E
:1057800080F82440C462046380F83840C46380F821
:105790004040FDF7FDF808B1FBF77EFE17A9314840
:1057A0001794FCF73BFD08B1FBF776FE2E480090FE
:1057B00001A909207F2781E89100CDE904548020C8
:1057C0008DF824408DF825400A900B9008968DF8AE
:1057D00026408DF8304069462248FCF7B9F908B1F7
:1057E000FBF75AFE2148009040F20F1001906946E5
:1057F0001C48FCF7ADF908B1FBF74EFE1C480090C1
:1058000040F21520019069461648FCF7A1F908B14D
:10581000FBF742FE17480F9010A9062081E891007F
:10582000CDE913540FA90F48FCF762FD08B1FBF74F
:1058300033FE11480F900C2010900FA90948FCF777
:1058400057FD08B1FBF728FE0C480F90122010906E
:105850000FA90448FCF74CFD002801D0FBF71CFE03
:105860001BB0F0BDF8000020020030040400600806
:105870000800900C1000C010000021C3000084CB71
:10588000194808B5816C41F004018164816C01F014
:1058900004010091816C41F001018164816C01F08F
:1058A00001010091816C41F002018164806C002251
:1058B00000F00200009011460B20FDF7F5FE0B20D2
:1058C000FDF7E4FE002211463820FDF7EDFE3820FA
:1058D000FDF7DCFE002211463920FDF7E5FEBDE8AC
:1058E00008403920FDF7D2BE00100240114810B523
:1058F0000F490160002141608160C1600174417401
:105900008174012202234261C0E90623C0E9083202
:105910008262C262C0E90C218163C163FDF704FCAD
:10592000002803D0BDE81040FBF7B6BD10BD000055
:1059300000640040C40100202DE9F04387B0142129
:105940006846FAF723FD2F48C16C41F02001C1647D
:10595000C16C01F020010591C16C41F00101C164ED
:10596000C16C01F001010591C16C41F00201C164FB
:10597000C06C254E00F00200059000220221304646
:10598000FDF705FE4FF09048002248F230014046F6
:10599000FDF7FDFDDFF87490002240214846FDF739
:1059A000F6FD0220009001250024CDE9015469464E
:1059B00030460394FDF7FAFC30200090CDE9015405
:1059C000694640460394FDF7F1FC4026CDE90064AA
:1059D000694640460294FDF7E9FCE803CDE900057D
:1059E0000327CDE9025769464046FDF7DFFC0397E0
:1059F0000096CDE9015469464846FDF7D7FC07B04B
:105A0000BDE8F08300100240001400480004004884
:105A1000124810B5104901604FF4827141600021B5
:105A20004FF4E062C0E902120222026101224261E7
:105A3000520282611822C0E9072107224162C0E9AF
:105A40000A1201634163FEF7E9FB002803D0BDE8B9
:105A50001040FBF721BD10BD00300140280200209E
:105A600070B59CB0002419941A9417941894149447
:105A700015941C210DA81694FAF788FC3421684669
:105A8000FAF784FC3A483949202680E8520040F66B
:105A90004751C0E9031444618461FFF704F908B178
:105AA000FBF7FAFC4FF4805517A931481795FFF71B
:105AB000D7F908B1FBF7F0FC2D48FFF72FFC08B130
:105AC000FBF7EAFCCDE9146414A929481694FFF702
:105AD0003FF808B1FBF7E0FC6020CDE90D0404209D
