:020000040800F2
:10000000A80B0020ED010008935700089351000849
:100010008557000881070008D7630008000000002A
:10002000000000000000000000000000A15E0008C9
:10003000310C000800000000BD5A0008A35E000853
:10004000070200080702000807020008070200086C
:10005000070200080702000807020008070200085C
:10006000070200080702000807020008B909000893
:10007000070200080702000807020008070200083C
:1000800007020008000000009104000807020008B1
:100090000702000801110008070200080702000813
:1000A0001D5F0008295F000807020008070200081A
:1000B000355F0008415F00080702000807020008DA
:1000C000070200080702000807020008C15A0008DA
:1000D00007020008070200080702000807020008DC
:1000E00007020008070200080702000807020008CC
:1000F00007020008070200080702000800000000CD
:1001000000000000070200080000000007020008CD
:1001100007020008000000000702000807020008AC
:10012000C5090008D10900080702000807020008F5
:10013000070200080000000000000000070200089D
:10014000070200080702000800000000000000008D
:10015000000000000000000000000000000000009F
:10016000000000000000000000000000070200087E
:10017000070200080000000000000000000000006E
:10018000000000000702000800000000000000005E
:10019000000000000000000000000000000000005F
:1001A000000000000000000007020008070200082D
:1001B000070200080702000807020008000000000C
:1001C000000000000702000800000000000000001E
:1001D0000702000807020008DFF80CD000F046F91B
:1001E00000480047BD640008A80B0020064880476F
:1001F00006480047FEE7FEE7FEE7FEE7FEE7FEE70C
:10020000FEE7FEE7FEE7FEE7015F0008D901000810
:100210009FED1A1AF5EE000A40EE010ABDEEE00A63
:10022000F5EEC00A10EE100AF1EE10FA38BF401ECB
:1002300000EE100A1349F7EE001AB8EEC00A30EECD
:10024000C00ADFED0F0A20EE200AFCEEC00A10EE15
:10025000900AC0F3080000EE900A01EB8000F8EE6F
:10026000600A90ED011A70EE600A90ED000A71EEDE
:10027000E01A21EE800A00EE810A704783F9223EDF
:100280000000004400660008B5EEC00AF1EE10FA66
:1002900007D2DFED1E0AB4EEE00AF1EE10FAA8BFB5
:1002A0007047DFED1B0AB5EEC00A60EE200ABDEE16
:1002B000E01A11EE100AF1EE10FA38BF401E00EEFF
:1002C000100A1549F7EE001AB8EEC00A30EEC00A5F
:1002D000DFED100A60EE200ABCEEE00A10EE100A14
:1002E000C0F3080000EE100A01EB8000B8EE400AEF
:1002F00090ED011A70EEC00A90ED000A71EEE01A5E
:1003000021EE800A00EE810A70470000CD024CB455
:1003100083F9223E00000044006600082DE9F05FEA
:100320000546002092469B46884606468146402464
:100330001BE0284641464746224600F04FF8534608
:100340005A46C01A914110D311461846224600F071
:1003500036F82D1A67EB01084F462246012000218E
:1003600000F02DF817EB00094E41201EA4F1010406
:10037000DFDC484631462A464346BDE8F09FD2B20C
:1003800001E000F8012B491EFBD270470022F6E77E
:1003900010B513460A4604461946FFF7F0FF2046FB
:1003A00010BD30B4044696230800214604D0B6237D
:1003B00030BC002200F02BB820460021F8E7202AAC
:1003C00004DB203A00FA02F1002070479140C2F1AC
:1003D000200320FA03F3194390407047202A04DBDE
:1003E000203A21FA02F00021704721FA02F3D040AE
:1003F000C2F1200291400843194670470029A8BF66
:100400007047401C490008BF20F00100704710B43D
:10041000B0FA80FC00FA0CF050EA010404BF10BCF2
:10042000704749B1CCF1200421FA04F411FA0CF11F
:1004300018BF012121430843A3EB0C01CB1D4FEA58
:1004400000614FEA102042BF002010BC704700EB53
:10045000C35010440029A4BF10BC7047401C490081
:1004600008BF20F0010010BC70470000064C074D8B
:1004700006E0E06840F0010394E807009847103474
:10048000AC42F6D3FFF7ACFE046E0008246E000801
:10049000014801F0DFBE0000F400002010B5846ABE
:1004A000E16D11F0500F06D0E16DC90625D520464B
:1004B00001F0CEFE10BDE06D40F40070E0652068F4
:1004C0000168090716D504F0BFFE78B12068C0683E
:1004D000800400280ADBE06D20F48070E065E06DA8
:1004E000C00403D4E06D40F00100E065204601F057
:1004F000ADFE10BDC0688007EBE7616D496BBDE8DC
:100500001040084710B5806AC16D41F04001C165D7
:10051000016E41F00401016601F09AFE10BD10B5B4
:10052000806A01F094FE10BD70B5044600688168D1
:100530008268C1F3400112F0010F28D039BB8168F5
:1005400001F00D01012914D18168124A1140891C62
:10055000816021680320086002F012FE054612E067
:1005600002F00EFE401B02280DD920688068C007EB
:1005700009D0E06D40F01000E065206E40F0010011
:100580002066012070BD20688068C007E8D1002087
:1005900070BD0000C0FFFF7FF8B50446002000904A
:1005A0002068816811F0010F41D18168214A114210
:1005B0002ED18168D5432940491C81601E4880683E
:1005C00000F0E07000020DD51C481D490068B0FB2A
:1005D000F1F0401C00EB4000800000E0401E009065
:1005E0000028FBD102F0CCFD06461BE0816811F02B
:1005F000010F03D181682940491C816002F0C0FDD0
:10060000801B02280ED920680068C043C00709D0AB
:10061000E06D40F01000E065206E40F001002066C3
:100620000120F8BD20680168C943C907DED1002058
:10063000F8BD00003F00008000030050EC000020E7
:10064000400D03009FED090A80ED000A80ED010ACC
:1006500080ED020A80ED030A80ED040A80ED050AB0
:10066000B7EE000A80ED060A7047000000000000A7
:1006700010B50A48FFF7E6FF09480068416841F0F5
:10068000200141607F21064800F0B4FF044801F0DA
:10069000C9FABDE81040642002F024BA5C070020CB
:1006A000F40000202DE9F041144E0024144D804642
:1006B000371F00BF56F82410404601F09BFA00EEA9
:1006C000100AD7ED000A05EB8400B8EE400A641C5E
:1006D000032C20EE200A80ED000AEBDB084895EDA4
:1006E000000A183080ED000A95ED010A80ED010A3C
:1006F00095ED020A80ED020ABDE8F081B400002009
:10070000440700201A491B4A032091ED000A02F118
:100710000C0100BF32F8103000EE903A01EB80037C
:10072000401CF8EE600A062860EE800AC3ED000A5D
:10073000F0DB91ED030AF2EE060A0E4820EE200AE5
:100740002430DFED0D0A80ED030A91ED040A9FEDE0
:100750000B1A30EE600AC0EE010AB0EE000A30EE6D
:10076000800A80ED040A91ED050A80ED050A7047C4
:10077000B0000020380700205C8F423F0AD7233B9F
:10078000FEE700000EB59FED6F1A6F4860EE811A0C
:10079000D0ED002AB0EE081A20EE014A21EEA22A7E
:1007A0009FED6A1AF5EEC00A71EE844A62EE013AD4
:1007B000B6EE002A22EE823A64EE832A71EEC44A33
:1007C00062EE812A24EE833A23EE013AF1EE10FA2A
:1007D00001DD012000E00020B4EEE14AF1EE10FA64
:1007E00001DD012100E00021B8EE084A00EB4101E3
:1007F00020EE044AB4EEE14AF1EE10FA01DD0120E8
:1008000000E0002001EB80005149085CDFED4D1A4B
:100810004D49B6EE004A60EEA11AF0EE080AD1ED9D
:10082000004A20EE200A24EE845A71EEC00A20EE1F
:10083000854ADFED460A31EE800A61EEA41A24EE05
:10084000604A072820EE050A61EEE01A20EE600AF1
:1008500021D2DFE800F02004090E11161B00F0EE93
:10086000440AB0EE630A1AE0F0EE430AB0EE620A00
:1008700015E0F0EE630A12E0F0EE610AB0EE430A12
:100880000DE0F0EE400AB0EE440A08E0F0EE620A35
:10089000B0EE610A03E09FED2F0AF0EE400A2E4A07
:1008A00070EE801A11EE901A914205DDC1EE212AF8
:1008B00060EEA20A20EE220AF5EE001A244931EE7B
:1008C000601A00EB40000831014431EE401A6B46DB
:1008D00061EE211ACDED001AB0EE611A00EE821A17
:1008E0008DED011AF0EE410A40EE020ACDED020A4A
:1008F000087803EB800090ED000ABCEEC00A10EE11
:10090000100A82B24878897803EB800003EB8101FA
:1009100090ED000A114BBCEEC00A10EE100A91EDEA
:10092000000A1A6080B2BCEEC00A10EE101A89B23A
:100930001B1D18601B1D1960094B9A86D8861987E4
:100940000EBD0000D7B3DD3F0400002000D00446F8
:10095000C86500080000000000D00446342C0140A7
:100960004004002010B50C4C9FED0A0A84ED000AEB
:10097000B0EE080A05F040FDD4ED000A20EE200A92
:1009800084ED010AB7EE080A20EE800A84ED020A1F
:1009900010BD0000ABAA2A3D0400002080ED000A33
:1009A00030EEC10ADFED030A20EE200A81ED000AD5
:1009B000704700003ACD133F014801F08FBF00009F
:1009C00060010020014801F089BF0000880200207A
:1009D000014801F083BF0000E80200200D490268D1
:1009E0008A4201D20C4901E00B492031D2B21423D2
:1009F000083AB2FBF3F2436C02F01F0223F0030348
:100A00001944816404498031C16401219140016528
:100A10007047000008040240000802400179074ABC
:100A200002EB81024265054A4432491E826501F0AB
:100A30001F0201219140C16570470000FC0802407F
:100A400030B5D0E913456560446D14B1D0E9164561
:100A5000656090F8444004F01F050124AC40056C2B
:100A60006C60046863608368102B036803D099602E
:100A70000068C26030BD9A600068C16030BD10B5CA
:100A80004FF0904401222021204602F074FB6420A4
:100A900002F028F801221021204602F06CFB6420AD
:100AA00002F020F820460022BDE81040102102F09C
:100AB00062BB00000C4908B50A480A78002A0FD129
:100AC00001220A70094A52680092026A009B9A4207
:100AD00002D9C269521CC261009A026200200870E9
:100AE00008BD000078070020C8000020001000E0CA
:100AF0000B480A4A4168D2ED050A4268521AF8EEDC
:100B0000601A01EE102AB8EE411A61EE801AB4EEB6
:100B1000E11AF1EE10FAF0D37047000078070020D8
:100B2000001000E010B5084C00F038F807492068C4
:100B30004843616801EB4102C2EBC11100EBC10007
:100B400021890844002110BD7807002040420F0091
:100B50000F4A10B50D49136843F0807313600D4BB5
:100B600000225A601C6844F001041C600A4B584380
:100B70004FF47A730861B0FBF3F04861064B0869E3
:100B8000B0FBF3F0C1E906020A6210BD780700204D
:100B9000FCED00E0001000E040420F002DE9F843BA
:100BA0002248214C40680090FFF784FFE26900254D
:100BB00000984FF0FF332946E2FB0301C4E90A0124
:100BC000D4F8108007460E4642462B46FFF7A6FB98
:100BD00002460B463146C446ACFB028605FB026664
:100BE0000CFB0363B7EB080061EB030122600746CF
:100BF0000E4600236269FFF791FB02466060606960
:100C000000234243B81A66EB0501A269FFF786FB91
:100C10002081D4E9001001EB4102C2EBC11100EBCD
:100C2000C100E060BDE8F88378070020001000E014
:100C3000704738B504460020009021890022606882
:100C400002F099FA04F12C0104220D46206803F009
:100C5000B7F904226946206803F074FC2189012257
:100C6000606802F088FA2946204600F001F838BD95
:100C700070B50E462DED028B0446FFF753FF054677
:100C80003088DFED350A40BA00B200EE100A9FED61
:100C9000331A334AB8EEC00A20EE200A60EE018A09
:100CA00094ED050A38EEC08A18EE100A904202DD73
:100CB00038EE608A06E018EE100A2A4A904201D9FE
:100CC00038EE208A2848294A84ED068AB5EEC08A83
:100CD000F1EE10FA0ADD10EE103A834206D918EE52
:100CE000903A934202DD208A401C0EE0B5EEC08AA5
:100CF000F1EE10FA0AD210EE103A934206DD18EE29
:100D0000902A824202D9208A401E2082E068281A56
:100D100061F10001FFF745FB00EE900A9FED141A08
:100D2000E56080EE810A9FED131AC8EE010A9FED7F
:100D3000121A20EE811AC1EE000AC4ED080A94EDE1
:100D40000A0A20EE800A84ED090AC4ED058A208A89
:100D50006082BDEC028B70BD0000B44300008037A0
:100D600000003443000034C30000B4C20000B442A9
:100D70000024744900003443DA0F494090ED050A1D
:100D8000B0F910009FED041A00EE900AF8EEE00AA8
:100D900000EE810A704700000000B44390ED080A9D
:100DA000704700002DE9FC4704460025C4E9001205
:100DB000038180ED0A0A058245829FED8E0A80ED4F
:100DC000050A80ED060AC56180ED080A80ED090A72
:100DD00002F0D6F9E562E06001958DF804508DF8D7
:100DE000055021890022606802F0C5F9642600964A
:100DF00004F12C020223914601A9206803F08EF928
:100E000021890122606802F0B6F9012001F06AFE32
:100E10008DF804508DF8055021890022606802F099
:100E2000AAF9009602234A4601A9206803F076F940
:100E300021890122606802F09EF9012001F052FE32
:100E40008DF804508DF8055021890022606802F069
:100E500092F9009602234A4601A9206803F05EF940
:100E600021890122606802F086F9012001F03AFE32
:100E7000EA278DF804704FF054088DF80580218919
:100E80000022606802F077F9009602234A4601A921
:100E9000206803F043F921890122606802F06BF9B0
:100EA000012001F01FFE1C208DF804008DF8055074
:100EB00021890022606802F05EF9009602234A460A
:100EC00001A9206803F02AF921890122606802F053
:100ED00052F9012001F006FE8DF804508DF80550FE
:100EE00021890022606802F046F9009602234A46F2
:100EF00001A9206803F012F921890122606802F03B
:100F00003AF9012001F0EEFD019521890022606887
:100F100002F031F9009604234A4601A9206803F043
:100F2000FDF821890122606802F025F9012001F015
:100F3000D9FD8DF804708DF8058021890022606844
:100F400002F019F9009602234A4601A9206803F02D
:100F5000E5F821890122606802F00DF9012001F015
:100F6000C1FD0D208DF804008DF805502189002267
:100F7000606802F000F9009602234A4601A9206841
:100F800003F0CCF821890122606802F0F4F8012016
:100F900001F0A8FD8DF804508DF80550218900223C
:100FA000606802F0E8F8009602234A4601A920682A
:100FB00003F0B4F821890122606802F0DCF8012016
:100FC00001F090FD019521890022606802F0D3F8BC
:100FD000009604234A4601A9206803F09FF821895E
:100FE0000122606802F0C7F8012001F07BFDBDE836
:100FF000FC870000000000007047000070B5334C13
:101000003349E07A4000E072607A40006072A07A72
:101010004000A072207B40002073607B4000607322
:10102000A07B4000A07391ED030AD1ED040A01F109
:10103000140020EE000A00EEA00AB5EEC00AF1EEA0
:1010400010FA04DBF1EEC00AC0ED000A03E09FEDE8
:10105000210A80ED000A48691F490025884207DD02
:10106000E07A40F00100E072FF2800D1E57070BD29
:101070001A491B4AC868904207DD607A40F00100B7
:101080006072FF28F3D1657070BD164A904207DA8E
:10109000A07A40F00100A072FF28F5D1A57070BDC4
:1010A00008691149884207DD607B40F001006073E8
:1010B000FF28F4D1657170BD40214FF0904002F0DF
:1010C0004DF80028F7D1E57170BD00001000002038
:1010D0004004002000000000000070415C07002078
:1010E0000000D0410000A0400000964301210170A3
:1010F00041708170C170017141718171C17170471E
:10110000014801F004BD0000C001002010B52948CD
:1011100000F0A8F92848FFF7E9FFAA20FFF718FD1B
:101120009FED260A4FF400434FF090422449254892
:10113000FFF738FEFFF7A3FC00F00CF9FFF712FCF5
:10114000214803F0FFFB204803F032FC00211E4839
:1011500003F052FF04211C4803F04EFF08211A48F7
:1011600003F04AFF0021184803F0C8FE0421164886
:1011700003F0C4FE0821144803F0C0FE0021124809
:1011800003F018FB0421104803F014FB08210E485B
:1011900003F010FB0A2005F00DFA05F0A5F9FFF7A2
:1011A00067FA4FF4FA7001F09DFCBDE81040074863
:1011B00003F0FEBB40040020100000200AD7233CAF
:1011C0002402002008070020480300209403002088
:1011D00010B54248FFF7D2FD00F072F9404C41488B
:1011E00084ED100A90ED000A9FED3F1A04F1100102
:1011F00031EE400A84ED000AD0ED010A71EE600A7A
:10120000C4ED010AD0ED021A081F31EE611A84ED17
:10121000021AFFF7C3FB04F11C0194ED101AD4ED80
:10122000040A94ED030A081F04F01EFC94ED060A5C
:1012300004F1580004F012FC9FED2C0A04F1580050
:1012400004F00FFC04F1580004F0A4FAD4ED090AEC
:1012500004F1F40030EE200A84ED090A94ED070A47
:1012600004F0FCFB9FED220A04F1F40004F0F9FB0A
:1012700004F1F40004F08EFAD4ED0A0A04F130010E
:10128000081F70EE200AC4ED0A0A94ED101A94EDBE
:10129000090A03F093FFD4ED0C0A94ED0B0AFFF753
:1012A00071FA143C2089A0F51C51103901D100209D
:1012B000208180B20A21B0FBF1F201FB120030B9AB
:1012C000FFF720FA00F08CF96089401C60812089CA
:1012D000401C20812068401C206010BD08070020B1
:1012E000400400205C070020E17AD43F00000000A9
:1012F0000AD7A33D10B51348FFF79BFC1249C889D4
:10130000401CC8810F48FFF749FDB1EE400A0F4865
:1013100004F0A4FB0C4CDFED0E0A14340B4894EDE2
:10132000110A20EE200A04F09CFB084804F032FA6F
:10133000064804F06FFBD4ED080A30EE200A84ED75
:10134000080A10BD080700202C040020D00500204A
:10135000DB0FC94010B5B6EE003A2DED048BB6EEAA
:10136000000A01219FED348ADFED358A9FED339A23
:10137000DFED349AF0EE484AB0EE484AF0EE483AD3
:10138000F0EE492AB0EE682AF0EE681AB0EE681A5C
:10139000F0EE690A2C4804F040FB2B48F0EE484A76
:1013A000B0EE484AF0EE483AB6EE003AF0EE492A7E
:1013B000B0EE682AF0EE681AB0EE681AF0EE690A2C
:1013C000B6EE000A01219C3004F027FBF0EE484AFB
:1013D000B0EE484AF0EE483AB7EE083ADFED1B2A85
:1013E000B0EE682AF0EE681AB0EE681ADFED180A5F
:1013F0009FED180A0121184804F00FFBF0EE484A4F
:10140000B0EE484AF0EE483AB0EE682AF0EE681ABC
:10141000B0EE681ABDEC048B0021DFED102A9FEDC1
:10142000100A0D48BDE81040B0EE623AF0EE400AF6
:101430009C3004F0F2BA0000CDCCCC3D9A99B94072
:10144000000000000AD7233D980400200000FA4362
:1014500082A87B37DD989E3AD005002000004843E3
:101460006F12833A9FED140A002180ED000A80ED8F
:10147000010A80ED020A80ED030A80ED040A80ED86
:10148000060A80ED070A80ED080A80ED090A80ED62
:101490000A0A80ED0B0A80ED0C0A8186C186DFED19
:1014A000070A0187C0ED110A80ED120A80ED100ACB
:1014B00080ED0F0A7047000000000000CDCCBC405A
:1014C000DFED0F0A4FF4B47130EE200AF2EE0C0A91
:1014D00020EE200ADFED0B0ABCEEC00A10EE100A67
:1014E000B0FBF1F201FB120000EE100AB8EE400A68
:1014F00080EE201A9FED040A21EE000A70470000DA
:10150000000034430000B443DB0FC94070B504460B
:101510002DED028BB0EE408A01F032FE00EE100A93
:10152000D4ED020AB8EE400A30EE600ABCEEC00A02
:1015300010EE105A01F024FE00EE100AB8EE400A38
:1015400084ED020AD4ED010AF5EEC00AF1EE10FABC
:1015500032DD10EE900AB0F17E5F2DDCB7EE000AAE
:1015600094ED051A30EE600A20EE011A00EE881A9A
:1015700084ED041AB0EE410A84ED051A7DB101EE46
:10158000105ADFED0F1AB8EE411A21EE211ADFEDE5
:101590000D1A21EE211AC0EE811AC4ED001A00EED8
:1015A000905A9FED091AF8EE600AC1EE201AC4EDB8
:1015B000031ABDEC028B70BDB0EE480AF9E70000DB
:1015C000DB0FC9406F12833A00007A4480ED010AB4
:1015D0009FED020A80ED020A704700000000000043
:1015E00003220249024801F0C5B800003E0700206E
:1015F000F4000020F8B500260446009690F8580044
:101600000D4601280BD0012084F858002046FEF733
:101610008BFF0100E06D04D040F010002AE00220B2
:10162000F8BD20F4885040F00200E0652068826830
:10163000134B1A4005F080431A4342F00042826087
:10164000104A20680EE0009B5B1C0093934209D374
:10165000E06D20F0020040F01000E06584F8586072
:101660000120F8BD8368DB0FEDD1E06D20F00200B2
:1016700040F00100E06584F858600846F8BD0000BD
:10168000C0FFFF3F02DE0400704700002DE9F84F65
:101690004FF000080446CDF800800D4694F858201D
:1016A000DFF8EC93616947464046012A0AD00126DB
:1016B000F84A84F8586041B1296A012905D0A36E1F
:1016C000EBB129E00220BDE8F88F6868092838D11D
:1016D000A96A4FF4785041B12B6801F07C0100EA0F
:1016E00053400843E96A084302E0296800EA514090
:1016F0002168CB6C13400343CB64606621E0C4E9EE
:101700001971A96A286A31B101F07C01401E0843B1
:10171000E96A084300E0401E29682B79C1F384611F
:1017200003F01F0399400143A06E401EA066636E44
:1017300043EA0103636604D12068C16C1140194378
:10174000C164206803F074FD58B995F8250098B17C
:101750002068C16895F8262021F4401141EA4251E1
:10176000C160206803F06CFD8246206803F060FDD4
:101770005AEA00000DD0FBE095F8260095F82410F9
:10178000400540EA01512068C26822F4401211432A
:10179000E6E7A86A30B1E86A20B195F8250001288B
:1017A0005ED003E095F82500012804D02068C168C8
:1017B00021F0007103E02068C16841F00071C16050
:1017C00095F83000012852D02068016921F002010B
:1017D0000161AA6829682068B2F1004F38D003F08F
:1017E0004AFD2068416921F0004141612068696932
:1017F000C268C2F3C102520091402A69042A44D04F
:1018000000EB82002B68026EDFF88CC203F0F84315
:1018100002EA0C020B431A4342F0004101662068C1
:101820002A69A96900EB8200026E22F080720A43E5
:101830000266297F22682869012923D05FF0000110
:1018400002EB8000026E22F000720A4302668FE013
:10185000002203F010FD2068416941F00041C4E717
:10186000E06D40F02000E0654FF00108A8E7D5E901
:101870000D1001432068026922F4FF7242F0020257
:101880001143A5E74FF00071DAE7002103F0C6FC31
:10189000400320684FF0000172D003F0BFFC90FAC3
:1018A000A0F0B0FA80F1286842036ED090FAA0F060
:1018B000B0FA80F0814204D100221146206803F082
:1018C000F1FC0121206803F0A9FC400320684FF0DF
:1018D00001015DD003F0A2FC90FAA0F0B0FA80F113
:1018E0002868420359D090FAA0F0B0FA80F0814203
:1018F00004D100220121206803F0D4FC02212068D9
:1019000003F08CFC400320684FF0020148D003F044
:1019100085FC90FAA0F0B0FA80F12868420344D028
:1019200090FAA0F0B0FA80F0814204D100220221A6
:10193000206803F0B7FC0321206803F06FFC40032C
:1019400020684FF0030133D003F068FC90FAA0F058
:10195000B0FA80F1286842032FD090FAA0F0B0FAD4
:1019600080F0814204D100220321206803F09AFC18
:101970002068816811F0010F22D0B6E000E004E099
:1019800003F04CFCC0F384618DE7C0F3846091E701
:1019900003F044FCC0F38461A2E7C0F38460A6E7CF
:1019A00003F03CFCC0F38461B7E7C0F38460BBE79D
:1019B00003F034FCC0F38461CCE7C0F38460D0E76B
:1019C0002A7B296850F8B03FC1F3120C23EA0C03BC
:1019D00002F0180C314A22FA0CF20A401343036059
:1019E000E96849457ED1286841031CD090FAA0F1EE
:1019F000B1FA81F1491C01F01F0109294FEA403178
:101A000032D8002912D000BF90FAA0F1B1FA81F1CA
:101A100001F1010101F01F0106FA01F609D100BF31
:101A2000C0F3846109E0C0F38461E3E7C0F384613B
:101A3000EEE790FAA0F1B1FA81F101F1010101F0B4
:101A40001F0146EA816102D1C0F3846003E090FA8D
:101A5000A0F0B0FA80F000F1010000F01F0000EBF0
:101A6000400041EA00513AE000290ED090FAA0F17E
:101A7000B1FA81F101F1010101F01F0106FA01F64D
:101A80000ED100BFC0F384610EE0C0F38461F1E7C2
:101A900000007F400040100400F0FF03FFFF07003C
:101AA00090FAA0F1B1FA81F101F1010101F01F01F9
:101AB00046EA816102D1C0F3846003E090FAA0F0AD
:101AC000B0FA80F000F1010000F01F002B4A00EB9B
:101AD000400002EB005041EA000141F00071AA68A9
:101AE000206800E001E003F0C6FB25482A680242B6
:101AF00040D024488168244B01F0E0719A4202D022
:101B0000224B9A421BD10B0219D42268B2F1A04F8A
:101B100030D1826841F4000122F0E0720A43826011
:101B20001B481C490068B0FBF1F0801C00EB400032
:101B3000800000E0401E00900028FBD11AE0164D06
:101B4000164BAA4207D1CD0105D422689A4211D082
:101B500041F0807109E0124DAA420BD14A0209D42A
:101B600022689A4206D041F48001826822F0E07235
:101B70000A43826084F858704046A4E5000020FEC5
:101B80000000088000030050000021C31000C09036
:101B9000EC000020400D0300000052C7000100507F
:101BA000000084CB104910B588421CD10F48016851
:101BB000C90718D00D4910390968C906016821F014
:101BC000010101600FD50A4C4021204601F0CBFAFB
:101BD0000548FEF767FDFFF7FBFA2046BDE8104019
:101BE000402101F0C0BA10BDF4000020102C0140CB
:101BF000000400480068A1F580710F390ED0B1F5DE
:101C0000837F08D0B1F5037F02D0D0F88000704701
:101C1000D0F88C007047D0F888007047D0F8840066
:101C2000704770472DE9F04104464548806800F050
:101C30001F05206803F0FCFA08BB2168C868C96C5E
:101C400000F0004011F4C07F00D190B194F858002A
:101C5000012814D0012084F858002046FEF79CFC8F
:101C600001004FF000020CD084F858200846BDE86F
:101C7000F081E06D40F02000E0650120F7E70220F0
:101C8000F5E7E06DC00504D5206E20F00800206661
:101C900000E02266E06D42F20103984340F4805078
:101CA000E065284B20684FF0A046984201D13746A6
:101CB00000E00746874200D01DB9E76D27F4801782
:101CC000E7656027076084F858202068C2689202A0
:101CD00003D5426842F480624260A0690828206807
:101CE000426807D022F0400242602068426842F019
:101CF000200206E022F0200242602068426842F0A2
:101D0000400242602068984201D1324600E002461B
:101D1000824209D045B1062D06D0072D04D0E06DD2
:101D200040F48010E065A1E7C26812F0007F9DD109
:101D30008268054B1A4042F00802826096E7000074
:101D40000003005000010050C0FFFF7F7047704744
:101D50002DE9F047044690F858009CB00E464FF02D
:101D60000009012815D0012084F858000025179596
:101D7000189520684FF0A04840450ED1284F009795
:101D8000384603F05DFA8246206803F059FA60B1E4
:101D90000EE002201CB0BDE8F087E06D40F02000AE
:101DA000E06584F858500120F4E7BAF1000F09D03B
:101DB000E06D40F02000E0654FF0010984F85850D4
:101DC0004846E7E71748326840F61F71002A8268E4
:101DD00022F4604216D094F8383042EA43327368F5
:101DE0001A438260D8F80820BB6802F0010203F0B1
:101DF00001031A43E2D1B36832681A4383688B4304
:101E00001A430BE08260D8F80820BB6802F0010298
:101E100003F001031A43D1D182688A438260CDE77F
:101E200000010050000300502DE9F84F0027044640
:101E3000009790F85800DFF8E0930D46B846012867
:101E400011D0012684F85860206803F0F5F960B1DC
:101E5000E06D40F02000E0655FF0010784F85880F5
:101E60003846BDE8F88F0220FBE7D5E900210C23B6
:101E7000206803EA91131844036B01F01F014FF02F
:101E80001F0C0CFA01FCC2F3846223EA0C038A40A3
:101E900013430363206803F0CFF98246206803F000
:101EA000C3F95AEA00003CD1AA6829682068B2F157
:101EB000004F37D003F0D0F92068416921F000418C
:101EC000416120686969C268C2F3C1025200914051
:101ED0002A69042A31D000EB82002B68026EDFF8F9
:101EE0003CC303F0F84302EA0C020B431A4342F0EE
:101EF0000041016620682A69A96900EB8200026E30
:101F000022F080720A430266297F2268286901292B
:101F100010D0002102EB8000026E22F000720A4312
:101F200002667DE0002203F097F92068416941F0E4
:101F30000041C5E74FF00071ECE7002103F068F9BC
:101F4000400320684FF0000172D003F061F990FA6D
:101F5000A0F0B0FA80F1286842036ED090FAA0F0A9
:101F6000B0FA80F0814204D100221146206803F0CB
:101F700091F90121206803F04BF9400320684FF0EC
:101F800001015DD003F044F990FAA0F0B0FA80F1BD
:101F90002868420359D090FAA0F0B0FA80F081424C
:101FA00004D100220121206803F074F90221206885
:101FB00003F02EF9400320684FF0020148D003F0EF
:101FC00027F990FAA0F0B0FA80F12868420344D0D3
:101FD00090FAA0F0B0FA80F0814204D100220221F0
:101FE000206803F057F90321206803F011F940033A
:101FF00020684FF0030133D003F00AF990FAA0F003
:10200000B0FA80F1286842032FD090FAA0F0B0FA1D
:1020100080F0814204D100220321206803F03AF9C4
:102020002068816811F0010F22D0ACE000E004E0EC
:1020300003F0EEF8C0F384618DE7C0F3846091E7AC
:1020400003F0E6F8C0F38461A2E7C0F38460A6E77A
:1020500003F0DEF8C0F38461B7E7C0F38460BBE748
:1020600003F0D6F8C0F38461CCE7C0F38460D0E716
:102070002A7B296850F8B03FC1F3120C23EA0C0305
:1020800002F0180C664A22FA0CF20A40134303606D
:10209000E968494577D1286841031CD090FAA0F13E
:1020A000B1FA81F1491C01F01F0109294FEA4031C1
:1020B00032D8002912D000BF90FAA0F1B1FA81F114
:1020C00001F1010101F01F0106FA01F609D100BF7B
:1020D000C0F3846109E0C0F38461E3E7C0F3846185
:1020E000EEE790FAA0F1B1FA81F101F1010101F0FE
:1020F0001F0146EA816102D1C0F3846003E090FAD7
:10210000A0F0B0FA80F000F1010000F01F0000EB39
:10211000400041EA005132E000290ED090FAA0F1CF
:10212000B1FA81F101F1010101F01F0106FA01F696
:1021300006D100BFC0F3846106E0C0F38461F1E71B
:1021400090FAA0F1B1FA81F101F1010101F01F0152
:1021500046EA816102D1C0F3846003E090FAA0F006
:10216000B0FA80F000F1010000F01F002D4A00EBF2
:10217000400002EB005041EA000141F00071AA6802
:10218000206803F069F828482A6802423FF466AEE6
:1021900026488168264B01F0E0719A4202D0254B17
:1021A0009A421CD10B021AD42268B2F1A04F7FF4DC
:1021B00055AE826841F4000122F0E0720A43826069
:1021C0001D481E490068B0FBF1F0401C00EB4000C8
:1021D000800000E0401E00900028FBD13EE6184D34
:1021E000184BAA4207D1CD0105D422689A42F5D0F6
:1021F00041F0807109E0144DAA42EFD14A02EDD4BA
:1022000022689A42EAD041F48001826822F0E072AA
:102210000A43826022E6000000007F4000F0FF03D6
:10222000FFFF0700000020FE0000088000030050B0
:10223000000021C31000C090EC000020400D0300FE
:10224000000052C700010050000084CB7047704767
:10225000704700002DE9F05F044600680668456895
:10226000DFF854B2DBF8080000F01F07B0070ED506
:10227000A8070CD5E06DC00603D4E06D40F4006003
:10228000E0652046FFF700FA216802200860DFF8C9
:102290002CA270074FF0A04801D5680703D430077F
:1022A00037D5280735D5E06DC00603D4E06D40F47E
:1022B0000070E065206802F0C7FF20B32068504539
:1022C00001D1424600E00246824208D03FB1052FCC
:1022D00005D0092F03D0504503D1414602E0C16823
:1022E00001E00146C96889040DD4016809070AD5CF
:1022F00002F0A2FF58B3E06D40F01000E065206EE0
:1023000040F0010020662046FFF7A0FF21680C2066
:102310000860B00601D5A80603D4700658D5680633
:1023200056D5E06DC00603D4E06D40F40050E06582
:102330002068C16C11F4C07F1AD00021894602F0D8
:1023400083FF02462068504514D1434613E02068BD
:10235000416821F00C014160E06D20F48070E0657F
:10236000E06DC004CFD4E06D40F00100E065CAE745
:102370000121E3E70346834208D03FB1062F05D091
:10238000072F03D0504503D1414602E0C16801E068
:102390000146C968B9F1000F14D08B0102D58AB18A
:1023A0008A040FD4026852060CD589020AD402F0BE
:1023B0003BFFE8B3E06D40F01000E065206E40F0B8
:1023C000010020662046FFF7EDFB216860200860D1
:1023D00030060BD5280609D5E06D40F48030E06565
:1023E000204600F067F9216880200860F0050CD5D0
:1023F000E8050AD5E06D40F40030E0652046FFF7BF
:10240000A5FC21684FF480700860B0050CD5A805C4
:102410000AD5E06D40F48020E0652046FFF797FC88
:1024200021684FF400700860F0062ED5E80600E041
:1024300008E02AD5E06BD0B1AFB1DBF8080000F4BA
:10244000604013E02068416821F060014160E06D68
:1024500020F48050E065E06DC005B3D4E06D40F03D
:102460000100E065AEE72068C068C00750B1E06DCC
:1024700040F48060E065206E40F002002066204657
:10248000FFF7E6FE216810200860700512D5680588
:1024900010D5E06D40F48040E065206E40F008000B
:1024A000206621684FF4806008602046BDE8F05F38
:1024B000FFF7B7BBBDE8F09F0003005000010050DC
:1024C000F8B54FF0000504002E46009502D0E06DEF
:1024D00010B107E00120F8BD204600F0EDF82666B7
:1024E00084F8586020688168C1F3407119B181682F
:1024F000684A1140816020688168C1F3007189B920
:102500008168654A114041F08051816063486449A7
:102510000068B0FBF1F04000801C00E0401E00901D
:102520000028FBD120688168C1F3007141B9E16DD9
:1025300041F01001E165216E41F0010121660125A4
:1025400002F07AFEE16DC90600D430B1E06D40F0D2
:102550001000E06501252846F8BDE06D20F480708C
:1025600040F00200E0652068806810F0010F11D192
:102570004FF0A04080684B4900F00100896801F0ED
:102580000101084306D148486168826822F47C1240
:102590000A438260E168E06B627F0843A16841EA18
:1025A0004231084394F8241040EA0140012904D143
:1025B000218D3E4A02EB41410843E16A29B101F411
:1025C0007871226B014342EA01002268D168384BDE
:1025D00019400143D16020680169626B21F04061BC
:1025E00011430161206802F01FFE70BB207F94F848
:1025F0003810800340EA41022168C86844F20203AF
:1026000098431043C86020690028206801690AD0F7
:1026100041F480310161206850F8C01F22696FF3D6
:102620000D01114307E021F480310161206850F869
:10263000C01F6FF30D01016094F8400001280CD019
:102640002068016921F001010161606901282068A9
:10265000016B21F00F0111D013E0D4E911010843FF
:10266000D4E913121143084321680A6940F2FC734C
:102670009A43104340F001000861E6E7226A521EC7
:1026800011430163E06D20F0020040F00100E065BD
:1026900061E70000C0FFFF5FC0FFFF7FEC0000208C
:1026A000400D030000010050000300500000FEFF39
:1026B0000740F0FF7047000070B598B00546142140
:1026C00011A8FDF763FE44216846FDF75FFE286808
:1026D000B0F1A04F46D14FF40040009080030F901E
:1026E000684600F06DFE08B1FEF786FC1E49C86C16
:1026F00040F40050C864C86C00F400501690C86CD8
:1027000040F00100C864C86C002600F0010016907B
:102710000F2011900320CDE9120611A94FF090402F
:1027200000F0F8FB124C114820600520C4E90106B6
:102730008020C4E90360400060618000C4E90606AF
:1027400080002062204600F027F908B1FEF754FC13
:102750006C65002211461220A56200F099FD12203E
:1027600000F088FD18B070BD001002400800024063
:10277000600100202DE9F0410446344817468846A0
:10278000806800F01F05206802F056FD00285AD12D
:1027900094F85800012856D0012084F858000026EB
:1027A00025B1052D02D0092D00D003E02046FDF70C
:1027B000F3FE18B184F85860BDE8F081E06D40F692
:1027C0000161884340F48070E065214920688842B7
:1027D00002D14FF0A04100E00146814200D01DB976
:1027E000E06D20F48010E065E06DC00404D5206E3B
:1027F00020F00600206600E02666616D1548C8627C
:10280000616D15480863616D1448486321681C2098
:10281000086084F858602068416841F01001416008
:102820002068C16841F00101C16021683B46424611
:102830004031606D00F010F921688A68084B1A4039
:10284000121D8A60B8E70220B6E7000000030050BE
:10285000000100509D0400081F0500080505000840
:10286000C0FFFF7F70B590F825200024012123468A
:10287000022A07D00422C26380F8251080F8243091
:10288000012429E00268156825F00E05156002682C
:10289000156825F001051560826C156825F48075B2
:1028A000156090F84420056C02F01F0201FA02F254
:1028B0006A60D0E913255560426D32B1156825F480
:1028C00080751560D0E91625556080F8251080F8D0
:1028D0002430816B01B18847204670BDF0B4016C93
:1028E0000C6801680D6890F8442002F01F0604226D
:1028F00002FA06F3234211D06B070FD50B689B0633
:1029000003D40B6823F004030B6090F8441001F02B
:102910001F018A40016C4A60016B1DE0022303FA2B
:1029200006F727424FF0000C4FF0010218D0AF0716
:1029300016D50C68A40605D40C6824F00A040C60B3
:1029400080F8252090F8441001F01F018B40016CA5
:102950004B6080F824C0C16A00291AD0F0BC084737
:102960000823B340234214D02B0712D50B6823F061
:102970000E030B6090F84410036C01F01F0102FA83
:1029800001F15960C26380F8252080F824C0416BB2
:10299000E2E7F0BC7047000070B504000CD02B4A91
:1029A00021681420914209D2294A0A44B2FBF0F06E
:1029B0008000606427480AE0012070BD234A52422B
:1029C0000A44B2FBF0F080006064204808382064BC
:1029D000022084F825000A6847F6F0708243D4E9A3
:1029E00002031843D4E904352B431843A369184361
:1029F000E3691843236A1843104308602046FDF733
:102A0000EDFFA0680025B0F5804F00D16560A16C96
:102A100020790860D4E9130141606068401E0328F2
:102A200008D82046FDF7FAFF606D0560D4E916016D
:102A3000416002E06565A565E565E563012084F810
:102A4000250084F82450002070BD000008040240D6
:102A5000F8FFFDBF0000024070B5044690F8240066
:102A6000002501280CD0012084F8240094F825606A
:102A70000020012E06D084F824000225284670BDCF
:102A8000022070BD022684F82560E0632068066895
:102A900026F0010606602046FDF7D2FF206B0028D5
:102AA0002068016802D041F00E0106E021F0040127
:102AB00001602068016841F00A010160A06C0168B2
:102AC000C90303D5016841F480710160606D18B1DC
:102AD000016841F4807101602068016841F00101E2
:102AE0000160CBE770B5044600F04AFB0546601C68
:102AF00002D004484068044400F042FB401BA0425E
:102B0000FAD370BDE00000207047704770472DE990
:102B1000F05F04460068016D426D01F4E05102EA85
:102B20000108016D426D01F0070102EA0109016D22
:102B3000426D01F0380102EA010A016D476D01F4AE
:102B400071010F40016D426D01F46021456D02EA93
:102B5000010B016DCE43710607D4E943490604D445
:102B6000402101652046FFF7D1FFF0050ED4E84370
:102B7000C0050BD42068D0F8D820D0F8E010114060
:102B80004FF480720265204600F0C0F9B8F10000F1
:102B900005D0216808654146204600F0B9F9B9F131
:102BA000000005D0216808654946204600F0AAF9D2
:102BB000BAF1000005D0216808655146204600F0B2
:102BC000A2F9B00509D4E843800506D421684FF482
:102BD00000700865204600F09CF930060DD4E843EB
:102BE00000060AD42068D0F8D420D0F8DC101140B8
:102BF00080220265204600F08AF9B00409D4E84337
:102C0000800406D421684FF400500865204600F087
:102C10007CF9300409D4E843000406D421684FF459
:102C200000400865204600F06FF970040AD4E843BC
:102C3000400407D421684FF480400865206E40F0BE
:102C400080002066BBF1000005D021680865594668
:102C50002046FFF75AFF27B120680765206E3843EA
:102C60002066206E002802D02046FFF74DFFBDE809
:102C7000F09F00002DE9F041040006D0DFF8E88164
:102C800094F85C00002518B107E00120BDE8F08150
:102C900084F85D50204600F0EFF82068816921F04B
:102CA0001001816100F06CFA0646032705E000BFC1
:102CB00000F066FA801B0A2811D820688069000796
:102CC000F6D42068816941F00101816100F058FA71
:102CD00006460BE000F054FA801B0A2806D9206E45
:102CE00040F00100206684F85C70CEE720688069BF
:102CF000C007EFD02068816941F00201816121683D
:102D0000414502D1594960680860207C012820684B
:102D1000816937D041F040018161607C01282068E1
:102D2000816932D021F480418161A07C0128206832
:102D300081692DD041F48051816120688169A26848
:102D400021F44071114381612068816921F0A4015F
:102D500081612068016921F010010161E0680128AA
:102D600019D010B302281BD02068816941F080017E
:102D700081612068016941F010010161E068032868
:102D80000ED012E021F04001C6E741F48041CBE7CC
:102D900021F48051D0E72068816941F0040103E00B
:102DA0002068816941F020018161207EE26940064E
:102DB0006FF0FF0101EB0222A0F100701043226AC4
:102DC000A38A521E10430A0202EB034318432368EE
:102DD000D861A068B0F5407F10D1D4E90A0301EBB7
:102DE0000321401E0843216B131303EB0111084319
:102DF000A18C02EB014108432168C860206850F8AB
:102E0000C01FE26B1143016019482064216851F82A
:102E1000802FA38E22F4F81242EA03420A6014497A
:102E200070316164216851F8802F94F8383022F0B5
:102E3000706242EA03620A600D49B031A1640D4933
:102E4000E1640C49D83121650A49F031616500F52A
:102E5000547120C08842FCD3A5652566012084F802
:102E60005C00002012E700000064004000650040A4
:102E700000A4004088A5004010B598B00446142175
:102E800011A8FDF783FA44216846FDF77FFA1B4934
:102E90002068884230D18014009040030C9068462E
:102EA00000F08EFA08B1FEF7A7F81548816D41F0E1
:102EB00000718165816D01F000711691C16C41F066
:102EC0000101C164C06C11A900F0010016904FF41B
:102ED000C0501190022012900020139014900920ED
:102EE0001590C00600F016F800220421152000F00D
:102EF000CFF9152000F0BEF918B010BD00640040F5
:102F00000010024070477047704770477047704725
:102F1000704770472DE9F04FDFF82092002301261B
:102F20000324A9F1040B85B00F2709F1040AABF1C2
:102F3000040EFAE006FA03F52A407CD091F804C0AA
:102F40000CF0030CBCF1010F02D0BCF1020F26D132
:102F5000D0F808C0CDF800C04FEA430C04FA0CF8D2
:102F6000CDF810C0DDF800C02CEA080CCDF800C088
:102F7000D1F80C80DDF810C008FA0CF8DDF800C0BC
:102F800048EA0C08C0F80880D0F804C02CEA050C08
:102F90000D79C5F300159D4045EA0C0545600D7996
:102FA000ED43AD070ED0C5684FEA430804FA08FCAC
:102FB00025EA0C05D1F808C00CFA08FC4CEA050C0F
:102FC000C0F80CC00D7905F00305022D16D1DD08FF
:102FD00000EB850CCDF808C0DCF820805D074FEAD7
:102FE000D56C07FA0CF528EA05080D6905FA0CF509
:102FF000DDF808C045EA0805CCF8205005684FEA1E
:10300000430CCDF808C004FA0CFC25EA0C0591F835
:1030100004C00CF00308DDF808C008FA0CF848EA10
:103020000508C0F800804D6815F4403F7CD0444D41
:10303000D5F860C000E077E04CF0010CC5F860C046
:103040002D6E23F0030C05F0010500953D4D654400
:103050000295AD684FEA837C4FEA1C7807FA08FCBA
:1030600025EA0C05B0F1904F06D0DFF8DCC06045D2
:1030700005D14FF0010C20E04FF0000C1DE0DFF80F
:10308000CCC0604502D14FF0020C16E0DFF8C0C0A2
:10309000604502D14FF0030C0FE0DFF8B8C0604587
:1030A00002D14FF0040C08E0DFF8ACC0604502D15B
:1030B0004FF0050C01E04FF0060C0CFA08FC4CEA4E
:1030C000050C029DC5F808C0D9F80050CC46D1F8CF
:1030D000048095435FEAC82800D51543CCF800501A
:1030E000DAF80050D446D1F8048095435FEA882886
:1030F00000D51543CCF80050DBF80050DC46D1F881
:10310000048095435FEA883800D51543CCF8005019
:10311000DEF80050F446D1F8048095435FEAC838E1
:1031200000D51543CCF800505B1C0A6832FA03F551
:103130007FF400AF05B0BDE8F08F00000804014047
:103140000010024000000140000400480008004850
:10315000000C0048001000480014004800690840B6
:1031600000D001207047426921EA02030A4043EA85
:103170000241816170470AB1816170478162704785
:103180000148806870470000E00000200248816824
:103190004268114481607047E000002010B50024AF
:1031A000032000F095F8002000F008F808B1012491
:1031B00001E000F047F8204610BD000030B505469C
:1031C0001C4887B0816D41F001018165806D06A9C1
:1031D00000F00100009001A800F024FB00F042FB89
:1031E00015494FF08042B0FBF1F11448491E0260CE
:1031F000416040F2E7320021C0E90321816001F023
:1032000036FB040012D10D4801F0D2FB04000DD1B1
:103210001C2000F02FF8102D07D2002229461C2078
:1032200000F036F80648056000E0012407B02046AB
:1032300030BD00000010024040420F00E0030020BB
:10324000E00000200A4882B0016E41F001010166F1
:10325000016E01F001010091816D41F080518165A5
:10326000806D00F08050009002B000F0A1B8000026
:1032700000100240002809DB00F01F0201219140EC
:103280004009800000F1E020C0F800117047000004
:10329000F0B40E4B1B680C46C3F30223C3F10705C1
:1032A000042D00D90425191D072901D2002300E0AF
:1032B000DB1E012606FA05F1491E214099409E4079
:1032C000761E16403143F0BC03F086B80CED00E0EA
:1032D000064900F0070208684FF6FF03184040EA6D
:1032E0000220034A10430860704700000CED00E024
:1032F0000000FA052B492C4B0A6832214A432B491E
:1033000040B1B0F5007F086829D020F4C06040F4D7
:1033100080602CE00868C0F34120022804D051F8F6
:10332000800F20F4807022E0D1F8800020F48070BB
:10333000C1F88000086820F4C06040F400700860A4
:10334000B2FBF3F0401C00E0401E4A69520501D573
:103350000028F9D1486940050AD503207047C0F319
:103360004120022806D051F8800F40F48070086098
:1033700000207047D1F8800040F48070C1F88000D0
:10338000086820F4C06040F400700860B2FBF3F0FD
:10339000401C00E0401E4A695205DBD50028F9D1E7
:1033A000D8E70000EC00002040420F000070004011
:1033B0000248816841F4804181607047007000409C
:1033C0002DE9F8430446006800269D4D00035ED5B4
:1033D000A86D0027C00008D4A86D40F08050A865F3
:1033E000A86D012700F080500090DFF85892D9F8BE
:1033F000001041F48071C9F80010FFF7C1FE80464B
:1034000006E000BFFFF7BCFEA0EB080002282BD8A7
:10341000D9F80000C005F5D5D5F8900010F440703B
:1034200014D0216C814211D0D5F89000D5F89010BD
:1034300020F4407041F48031C5F89010D5F8901018
:1034400021F48031C5F89010C5F89000C00711D064
:10345000FFF796FE804641F2883907E0FFF790FEBD
:10346000A0EB0801494501D903260BE0D5F89000EF
:103470008007F3D5D5F89000216C20F44070084304
:10348000C5F890001FB1A86D20F08050A865207885
:10349000C00707D0D5F88800616820F00300084312
:1034A000C5F888002078800707D5D5F88800A1687E
:1034B00020F00C000843C5F888002078400707D5A5
:1034C000D5F88800E16820F030000843C5F888008E
:1034D0002078000707D5D5F88800216920F0C000C2
:1034E0000843C5F888002078800607D5D5F88800FD
:1034F000616920F440600843C5F8880020784006E0
:1035000007D5D5F88800A16920F440500843C5F8D4
:1035100088002078000607D5D5F88800E16920F4F6
:1035200040400843C5F888002088C00507D5D5F875
:103530008800216A20F440300843C5F888002088BC
:10354000800507D5D5F88800616A20F4402008433B
:10355000C5F88800208840050FD5D5F88800A16AF5
:1035600020F440100843C5F88800A06AB0F5801F19
:1035700003D1E86840F48010E860208800050FD58A
:10358000D5F88800E16A20F440000843C5F88800B7
:10359000E06AB0F5800F03D1E86840F48010E8607D
:1035A0002088C0040FD5D5F88800216B20F040702A
:1035B0000843C5F88800206BB0F1807F03D1E8682C
:1035C00040F48010E86020884FF0006180040ED540
:1035D000D5F88800626B20F040601043C5F8880081
:1035E000606B884203D1E86840F48010E86020886E
:1035F00040040ED5D5F88800A26B20F0406010433F
:10360000C5F88800A06B884203D1E86840F48010B8
:10361000E860208800040FD5D5F88800E16B20F021
:1036200040500843C5F88800E06BB0F1805F03D1DB
:10363000E86840F48030E8603046BDE8F883000078
:1036400000100240007000402DE9F0470E460500D2
:103650004FF0000725D0DFF8AC81D8F8000000F06B
:103660000F00B0420CD2D8F8001021F00F01314306
:10367000C8F80010D8F8000000F00F00B04210D1D8
:103680002968614CC80741F2883A5AD06868DFF867
:103690007C91032808D0022820682DD040050028FE
:1036A0002CDB0120BDE8F08720688001F9D5E068B7
:1036B00000F00302E068C0F30310401C032A19D095
:1036C000534A00BFB2FBF0F0E268C2F30622504357
:1036D000E268C2F34162521C5200B0FBF2F048456E
:1036E00017D9A06810F0F00F0CD0880711D5A86882
:1036F00040B10EE0474AE5E78003D0E700F0C4F8A8
:10370000484506D9A06820F0F00040F08000A06095
:103710008027A068696820F003000843A060FFF7D5
:103720002FFD814606E000BFFFF72AFDA0EB09014F
:1037300051453AD8A068696800F00C00B0EB810FE1
:10374000F2D12868810714D5400703D5A06840F45A
:10375000E060A0602878000705D5A06820F46050DC
:1037600040F4E060A060A068A96820F0F000084381
:1037700004E0802F03D1A06820F0F000A060D8F80A
:103780000010404601F00F01B14216D9016821F046
:103790000F0131430160FFF7F3FC074607E000BF6C
:1037A000FFF7EEFCC11B514501D903207AE7D8F899
:1037B000000000F00F00B042F2D12878400705D594
:1037C000A068E96820F4E0600843A060287800075A
:1037D00006D5A068296920F4605040EAC100A060C5
:1037E00000F052F8A1680C4AC1F30311515C01F0DA
:1037F0001F01C8400949086009480068BDE8F04752
:10380000FFF7DCBC002002400010024000B4C404FA
:103810000024F400005A6202E5650008EC00002074
:10382000E00000200F2202600C4A936803F00303BB
:103830004360936803F0F0038360936803F4E063EC
:10384000C36092684FF4E06303EAD2020261044865
:10385000006800F00F000860704700000010024090
:10386000002002400548064900688968054AC1F3FE
:103870000221515C01F01F01C8407047EC0000209C
:1038800000100240F5650008184910B58868C0F3BB
:1038900081021748012A0BD08A68164BC2F38102B5
:1038A000022A06D08A68C2F38102032A03D00020CC
:1038B00010BD184610BDCA6802F00304CA68C2F3FE
:1038C0000312521C032C02D0B0FBF2F001E0B3FB58
:1038D000F2F0CA68C968C2F306225043C1F34161DD
:1038E000491C4900B0FBF1F010BD0000001002407F
:1038F0000024F400005A62022DE9F84304007AD053
:103900002078F84DC00747D0A868E96800F00C009F
:1039100001F003010C2802D0082817D001E0032988
:1039200014D06068B0F5803F17D0B0F5A02F28689C
:1039300017D020F480302860286820F48020286088
:103940006068E0B1FFF71CFC064614E028688003BD
:1039500022D560680028D2D01EE0286840F480306C
:10396000EDE740F480202860F7E700BFFFF708FC90
:10397000801B642870D828688003F7D50CE0FFF717
:10398000FFFB064605E000BFFFF7FAFB801B64283B
:10399000F0D828688003F7D4207880074CD5A86831
:1039A000E96800F00C0001F003010C2802D00428A3
:1039B0000DD001E002290AD0E068002828682BD049
:1039C00040F480702860FFF7DBFB064619E02868AA
:1039D000400502D5E068002891D06868217C20F07D
:1039E000FE4040EA01606860BF480068FFF7E6FB00
:1039F000002800D120E072E1FFF7C2FB801B022803
:103A0000B8D828684005F7D56868217C20F0FE40CA
:103A100040EA016068600FE020F480702860FFF7E2
:103A2000AFFB064605E000BFFFF7AAFB801B02289C
:103A3000A0D828684005F7D42078000729D5606908
:103A40000028D5F8940013D040F00100C5F8940088
:103A5000FFF796FB064606E090E000BFFFF790FBFD
:103A6000801B022886D8D5F894008007F6D510E090
:103A700020F00100C5F89400FFF782FB064604E041
:103A8000FFF77EFB801B022878D8D5F894008007CA
:103A9000F6D42078400761D5A86D0026C00008D470
:103AA000A86D40F08050A865A86D012600F08050F8
:103AB00000908E480168C90511D40168804641F420
:103AC00080710160FFF75CFB074604E0FFF758FBDD
:103AD000C01B022852D8D8F80000C005F6D5A0684F
:103AE000012815D00528D5F8900016D020F0010047
:103AF000C5F89000D5F8900020F00400C5F89000BB
:103B0000A06841F28838B8B1FFF73AFB07460EE0EB
:103B1000D5F8900040F00100F0E740F00400C5F84F
:103B20009000F5E7FFF72CFBC11B414526D8D5F8DF
:103B300090008007F6D50CE0FFF722FB074604E073
:103B4000FFF71EFBC11B414518D8D5F89000800730
:103B5000F6D41EB1A86D20F08050A86520788006AC
:103B600029D5A0690028D5F8980013D040F00100AD
:103B7000C5F89800FFF704FB064606E075E000BFB5
:103B8000FFF7FEFA801B02286FD8D5F8980080074F
:103B9000F6D510E020F00100C5F89800FFF7F0FA24
:103BA000064604E0FFF7ECFA801B02285DD8D5F842
:103BB00098008007F6D4E069F0B3A968C1F38101E9
:103BC00003295DD00228286820F08070286003D087
:103BD000FFF7D6FA04464BE0FFF7D2FA064604E0B8
:103BE000FFF7CEFA801B02283FD828688001F7D45F
:103BF000F4E908016FF00F0202EB01110843218A7A
:103C00005204490802EB4151A26841EA02210843EB
:103C1000217D4FF07E42490802EB41610843217B40
:103C200040EAC160E968324A11400843E860286808
:103C300040F08070286000E05EE0E86840F080704E
:103C4000E860FFF79DFA044605E000BFFFF798FA29
:103C5000001B022809D828688001F7D54CE000BF76
:103C6000FFF78EFA001B022802D90320BDE8F88373
:103C700028688001F4D4E8681E490840E8603BE009
:103C80000128F3D0E868226A00F00301914226D1AE
:103C9000616A00F0F0020901103991421FD1A26A55
:103CA00000F4FE41B1EB022F19D194F82C2000F062
:103CB0007841B1EBC26F12D1218E00F4C0024908E5
:103CC0004905A1F50011914209D194F8341000F092
:103CD000C06049084906A1F1007181420CD0012061
:103CE000C4E7000000100240E00000200070004027
:103CF0000C809F01FCFFEEFE0020B7E7704700003C
:103D000038B5016804464A688868C043430606D54A
:103D1000C30704D1D3435B0601D4E16C05E08307FC
:103D200008D4D3431B0605D4216D01B02046BDE85D
:103D300030400847830603D5430601D5C30551D457
:103D4000D3439B064ED443060AD494F85D30032B2C
:103D500049D0236E43F004032366CB688B6800933D
:103D6000830609D4236E43F0010323668B68009316
:103D70000B6823F040030B60C00506D4206E40F0B2
:103D800008002066206880680090206E002829D0F6
:103D90002068416821F0E0014160012084F85D0065
:103DA000900701D4D00722D02068416821F0030198
:103DB0004160114DA06D40B18563A06DFEF752FDCD
:103DC00018B1206E40F040002066606D002809D0D8
:103DD0008563606DFEF746FD002803D0206E40F03D
:103DE0004000206638BDC8688868009038BD20460D
:103DF000FFF784FF38BD0000CD5A000870B50400FD
:103E000009D0606A002540B125616561A56294F81A
:103E10005D0040B10CE0012070BD6068B0F5827FAC
:103E2000F4D0E561F2E784F85C50204600F05CF8DD
:103E3000022084F85D002068016821F040010160E3
:103E4000E1684FF4E062914201D9002001E04FF4B3
:103E50008050B1F5706F02D0914200D0A562A18868
:103E6000228901F4827102F404421143227C02F09F
:103E700002021143227D02F001021143228B02F45F
:103E800000721143227F02F03802114394F820207F
:103E900002F080021143228D02F400521143226885
:103EA0001160A169042202EA114194F8242000F46F
:103EB000805002F01002114394F8342002F00802FE
:103EC0001143A28902F470621143014320684160EA
:103ED0002068C16921F40061C1612566012084F870
:103EE0005D00002070BD0000F0B587B006461421CB
:103EF0006846FCF74BFA2D493068884254D12C486B
:103F0000016E41F480510166016E01F4805105910A
:103F1000C16C41F00201C164C06C694600F002004E
:103F2000059038200090022001900120029003208B
:103F30000390052004901F48FEF7ECFF1F4D1E481C
:103F4000002428600A20C5E901048027C5E9034749
:103F50006C61AC61EC6128462C62FEF71DFD08B176
:103F6000FDF74AF8B565AE62144D1348603514305C
:103F700028600B20686005F10801102081E891009D
:103F80006C61AC61EC6128462C62FEF705FD08B15E
:103F9000FDF732F87565002202212320AE62FFF79B
:103FA00077F92320FFF766F907B0F0BD0030014034
:103FB000001002400004004808040240880200206B
:103FC00070B5044690F85D0001282CD121B11AB1DA
:103FD000A368042513B105E0012070BD6068B0F549
:103FE000827F17D094F85C0001281CD0012084F84F
:103FF0005C0084F85D50002525662164A4F8442007
:10400000A4F84620E5642565A587E587B3F5004F4C
:104010000BD014E084F85D502046BDE87040134694
:104020000A4600F0B5B9022070BD21680A6822F086
:1040300040020A6021680A6822F480420A6021680E
:104040004A6822F400524A60E168B1F5E06F05D990
:104050002068416821F4805141601DE021684A6870
:1040600042F480524A60A16D8969B1F5806F13D125
:1040700021684A6822F480524A60B4F84610C907A1
:1040800025D021684A6842F400524A60B4F84610CC
:1040900000EB5100A4F84600A16D1C480863A16D17
:1040A0001B48C862A16D1B484863A06D8563B4F8C6
:1040B00046302168226C0C31A06DFEF7CDFC78B142
:1040C000206E40F01000206684F85C5084E7206881
:1040D000416821F400514160B4F846004008D9E736
:1040E00020680168490603D4016841F0400101607D
:1040F00084F85C502068416841F0200141602068EC
:10410000416841F001014160002070BD015B000881
:104110001F5B0008DF5A0008704770472DE9FF5FFA
:104120001D46934604464FF001090E9EFFF728F8FE
:10413000074694F85D006168012806D0B1F5827FDA
:1041400039D1A168B1BB042835D1019800287CD0B1
:10415000BBF1000FFBD0002DF9D094F85C000128D2
:1041600029D04FF0010A84F85CA094F85D0004287F
:1041700002D0052084F85D004FF00008C4F860808C
:10418000C4F840B0A4F84650A4F844500199A16383
:10419000E587A587C4F84C80C4F85080E0684FF4E8
:1041A000E061884201D8012D09D92068426822F4D3
:1041B000805208E0FFE7022004B0BDE8F09F2068CD
:1041C000426842F48052426020680268520603D47A
:1041D000026842F040020260E0688842606846D9A6
:1041E00008B1012D3BD1A06B01882068C160A06B94
:1041F000801CA063E08F401EE08730E0206881686B
:1042000089070FD5E18F69B1B9F1010F0AD1A16B0F
:104210000988C160A06B801CA063E08F401EE0870E
:104220004FF0000920688168C90711D0B4F8461022
:1042300071B1C068216C0880206C801C2064B4F8C7
:104240004600401EA4F8460000E09EE04FF0010941
:10425000FEF796FFC01BB04201D3701C74D1E08FF3
:104260000028CBD1B4F846000028C7D175E008B1CA
:10427000012D6BD1E08F0128A06B08D9216800883F
:10428000C860A06B801CA063E08F801E07E02168DF
:1042900000780873A06B401CA063E08F401EE0878D
:1042A00054E02068816889071AD5E18FC1B1B9F15E
:1042B000010F15D1E18F0129A16B07D90988C160D0
:1042C000A06B801CA063E08F801E06E0097801735C
:1042D000A06B401CA063E08F401EE0874FF00009F8
:1042E00020688168C90728D0B4F8461029B3B4F80B
:1042F0004610012914D9C068216C0880206C801CEC
:104300002064B4F84600801EA4F84600B4F84600C5
:10431000012810D82068416841F4805141600AE0CA
:10432000007B216C0870206C401C2064B4F84600AF
:10433000401EA4F846004FF00109FEF721FFC01B04
:10434000B04202D3701C01D012E08EB1E08F002881
:10435000A7D1B4F846000028A3D13A4631462046FA
:1043600001F0ADFC50B12020206684F85C800CE0A8
:1043700084F85DA084F85C8003201DE784F85DA0CC
:1043800084F85C80206E0028F7D0012014E700003C
:1043900070B5044690F85D006568012806D0B5F553
:1043A000827F32D1A5687DBB04282ED151B34AB398
:1043B00043B394F85C00012827D0012084F85C0006
:1043C00094F85D50042D02D0052584F85D50002539
:1043D0002566A163A387E3872264A4F84430A4F888
:1043E0004630E564256521684A6822F4C0424A6087
:1043F000E168B1F5E06F0AD92068416821F4805185
:10440000416035E0012070BDFFE70220FBE7216835
:104410004A6842F480524A60616D4FF48062896953
:1044200091420CD194F83C10C90721684B6838D0F0
:1044300043F480434B60E18F00EB5101E187A16DB4
:104440008969914214D121684A6822F480524A60F5
:10445000B4F84610C9072AD021684A6842F40052CD
:104460004A60B4F8461000EB510000BFA4F84600C3
:1044700094F85D00042823D0A16D2D4808632D48D1
:10448000A16DC862A16D2C484863A06D8563B4F826
:1044900046302168226C0C31A06DFEF7DDFA48BB76
:1044A00013E023F480434B60E18F4908C6E720689E
:1044B000416821F400514160B4F846004008D5E756
:1044C000A16D1E4808631E48DAE72068416841F084
:1044D00001014160606D0563606DC562606D45639B
:1044E000606D8563E38F2268A16B0C32606DFEF70F
:1044F000B3FA30B1206E40F01000206684F85C50B2
:1045000080E720680168490603D4016841F0400152
:10451000016084F85C502068416841F020014160EE
:104520002068416841F00201416000206BE7000013
:10453000155B0008EF5B0008DF5A0008015B00080C
:104540001F5B000870B5044690F85D0001281ED17D
:10455000D9B1D2B194F85C00012818D0012084F8B8
:104560005C00032384F85D3000252566A163A287E3
:10457000E28725642565E564A4F84450A4F8465014
:10458000A168B1F5004F04D00DE0012070BD0220FC
:1045900070BD21680A6822F040020A6021680A683A
:1045A00042F480420A60626D28491163626D2849B5
:1045B000D162626D27495163616D8D6321684A68DC
:1045C00022F480424A60E168B1F5E06F10D8616D75
:1045D0008969B1F5806F0BD1E18FC90717D02168C8
:1045E0004A6842F480424A60E18F00EB5100E08764
:1045F000E38F2268A16B0C32606DFEF72DFA70B16B
:10460000206E40F01000206684F85C50BDE7206802
:10461000416821F480414160E08F4008E7E720686D
:104620000168490603D4016841F04001016084F843
:104630005C502068416841F0200141602068416879
:1046400041F002014160002070BD00000B5B0008DA
:104650008B5B0008DF5A000870477047704770474F
:10466000704770477047000030B590F83C20012A31
:1046700042D0012280F83C20CA688B6822F4407244
:104680001A434B6822F480621A430B6822F40062DA
:104690001A430B6922F480521A434B6922F40052E8
:1046A0001A430B6B22F480421A430B8B22F47022C4
:1046B00042EA0342CB6922F080521A430F4D03684D
:1046C0000024AB4202D00E4DAB4210D10D8D22F42E
:1046D000700242EA05520D6A22F080722A434D6A46
:1046E00022F000722A43C96A22F000520A435A6437
:1046F00080F83C40002030BD022030BD002C01403D
:104700000034014070470068416D41F4003141655B
:104710000020704770477047F0B590F83C20012AA0
:104720003AD0012580F83C50022280F83D200368F1
:104730005A689C68194E1A4FB34201D0BB4204D14B
:1047400022F4700C4A6842EA0C02DFF858C002EA10
:104750000C02D1F800C04CEA020CC3F804C0026895
:10476000B2420DD0B2F1804F0AD00F4B9A4207D01F
:104770000E4B9A4204D0BA4202D00D4B9A4204D159
:10478000896824F080031943916080F83D5000212E
:1047900080F83C100846F0BD0220F0BD002C01401E
:1047A000003401408FFFFFFD00040040000800407E
:1047B0000040014010B50446022249B104290ED040
:1047C000082913D094F84700012816D0012010BD05
:1047D00094F844000128F9D184F844200FE094F8BB
:1047E00045000128F2D184F8452008E094F84600FD
:1047F0000128EBD184F8462001E084F84720042208
:10480000206801F00EFC2068416C41F400414164D5
:104810001049206888420ED0B0F1804F0BD00E496D
:10482000884208D00D49884205D00D49884202D0FF
:104830000C49884207D181680B4A1140062906D0ED
:10484000B1F5803F03D0016841F001010160002013
:1048500010BD0000002C0140000400400008004092
:10486000003401400040014007000100704710B5CE
:10487000040003D094F83D0010B107E0012010BD02
:10488000002084F83C00204600F022F8022084F842
:104890003D00211D206801F059FB012084F84800EB
:1048A00084F83E0084F83F0084F8400084F841001A
:1048B00084F8420084F8430084F8440084F84500FA
:1048C00084F8460084F8470084F83D00002010BDBD
:1048D00008B5194A01681948914216D1016E41F490
:1048E00000610166006E002200F400600090114635
:1048F0001820FEF7CDFC1820FEF7BCFC0022114664
:104900001920FEF7C5FC192010E00D4A914211D183
:10491000816D41F002018165806D002200F002008E
:10492000009001211D20FEF7B3FC1D20BDE80840CA
:10493000FEF7A0BC08BD0000002C014000100240A2
:104940000004004090F83D10012901D0012070477B
:10495000022180F83D1000680F4988420ED0B0F166
:10496000804F0BD00D49884208D00D49884205D0B0
:104970000C49884202D00C49884207D181680B4A11
:104980001140062906D0B1F5803F03D0016841F0FF
:104990000101016000207047002C0140000400402C
:1049A00000080040003401400040014007000100C1
:1049B00090F83D10012901D001207047022180F8B4
:1049C0003D100168CA6842F00102CA6000681049DF
:1049D00088420ED0B0F1804F0BD00E49884208D0EB
:1049E0000D49884205D00D49884202D00C498842C1
:1049F00007D181680B4A1140062906D0B1F5803FE6
:104A000003D0016841F001010160002070470000FF
:104A1000002C014000040040000800400034014028
:104A2000004001400700010070B5044690F83C00CA
:104A30000025012814D0012684F83C60022084F867
:104A40003D0022689068364B184020F47F4090600B
:104A5000086870282ED010DC10F00F0F03D021E072
:104A60004FF0020070BD4FEA2012072A1AD2DFE889
:104A700002F0525252524A3840002A4BC21A98420F
:104A800049D009DCB0F5805F0DD0B0F5005F1CD0D7
:104A9000B0F1101F06D13EE0102A3CD0202A3AD0B7
:104AA000502A38D0012584F83D60002084F83C006D
:104AB000284670BDCB68D1E90121206801F0BEFA1B
:104AC0002068816841F0770109E0CB68D1E90121D4
:104AD000206801F0B3FA2068816841F48041816068
:104AE000E1E7CA684968206801F052FC502120685B
:104AF00006E0CA684968206801F05BFC6021206814
:104B000001F0A6FACFE7CA684968206801F040FCC6
:104B100040212068F4E7226801461046F0E70000D3
:104B200088FFCEFF2000100070472DE9F0410446B9
:104B30000068C66805694FF00007A90713D5B107DB
:104B400011D5F91E01610120207720688069800756
:104B5000204602D0FFF7E8FF04E000F009F9204604
:104B600000F0CBF92777680716D5700714D52168B0
:104B70006FF004000861022020772068806910F43B
:104B8000407F204602D0FFF7CFFF04E000F0F0F8AE
:104B9000204600F0B2F92777280715D5300713D53E
:104BA00021686FF008000861042020772068C06940
:104BB0008007204602D0FFF7B7FF04E000F0D8F8E6
:104BC000204600F09AF92777E80616D5F00614D5A6
:104BD00021686FF010000861082020772068C06904
:104BE00010F4407F204602D0FFF79EFF04E000F063
:104BF000BFF8204600F081F92777E80708D0F007D2
:104C000006D021686FF001000861204600F088FAA4
:104C1000280601D4A80408D5300606D521686FF40B
:104C2000025008612046FFF71CFDE80508D5300654
:104C300006D521686FF4807008612046FFF710FDEB
:104C4000680608D5700606D521686FF04000086137
:104C5000204600F09DFAA80608D5B00606D52168C2
:104C60006FF0200008612046FFF7FCFCE80208D541
:104C7000F00206D521686FF4801008612046FFF726
:104C800049FDA80208D5B00206D521686FF40010CE
:104C900008612046FFF736FD680208D5700206D588
:104CA00021686FF4800008612046FFF734FD280278
:104CB0000AD5300208D521686FF40000086120464B
:104CC000BDE8F041FFF7D2BDBDE8F0812DE9F0412C
:104CD00086B0044614216846FBF758FB204920683B
:104CE00088423AD11F48C16C41F02001C164C16CB7
:104CF00001F020010591C16C41F00101C164C16C5A
:104D000001F001010591C16C41F00201C164C06C68
:104D10004FF0010800F002000627CDF80080CDE931
:104D2000047001AA02240025032682E87000694667
:104D30000D48FEF7EFF84FF4F0608DE8F10069469A
:104D40004FF09040FEF7E6F801AACDF8008082E827
:104D5000F00069460548FEF7DDF806B0BDE8F081D1
:104D6000002C0140001002400014004800040048DC
:104D7000704770B5044690F83C0000260D460128A7
:104D80000BD0012084F83C000C2A4AD007DC82B109
:104D9000042A20D0082A06D131E0022070BD102A52
:104DA00053D0142A63D00126002084F83C003046FA
:104DB00070BD206801F056F92068816941F0080152
:104DC00081612068816921F0040181612068816925
:104DD0002A69114311E0206801F092F92068816985
:104DE00041F4006181612068816921F48061816101
:104DF000206881692A6941EA02218161D4E720683B
:104E000001F0C6F92068C16941F00801C16120685C
:104E1000C16921F00401C1612068C1692A69114397
:104E200011E0206801F0FCF92068C16941F40061DB
:104E3000C1612068C16921F48061C1612068C169D4
:104E40002A6941EA0221C161AEE7206801F030FA27
:104E50002068016D41F0080101652068016D21F0B5
:104E6000040101652068016D2A69114311E0206881
:104E700001F056FA2068016D41F400610165206877
:104E8000016D21F4806101652068016D2A6941EAA4
:104E90000221016588E710B5040003D094F83D00B5
:104EA00010B107E0012010BD002084F83C0020462E
:104EB00000F022F8022084F83D00211D206801F056
:104EC00045F8012084F8480084F83E0084F83F004B
:104ED00084F8400084F8410084F8420084F84300DC
:104EE00084F8440084F8450084F8460084F84700BC
:104EF00084F83D00002010BD7047704730B504466F
:104F0000022269B1042912D0082917D00C291CD01B
:104F1000102921D094F84300012824D0012030BD6D
:104F200094F83E000128F9D184F83E201DE094F861
:104F30003F000128F2D184F83F2016E094F84000A9
:104F40000128EBD184F840200FE094F841000128BB
:104F5000E4D184F8412008E094F842000128DDD132
:104F600084F8422001E084F843200122206801F007
:104F70004BF8194B20681949194A984209D08842C0
:104F800007D0904205D0174DA84202D0164DA84236
:104F900003D1456C45F400454564206898420CD027
:104FA000B0F1804F09D0114B984206D0104B984277
:104FB00003D0884201D0904207D181680D4A114048
:104FC000062906D0B1F5803F03D0016841F0010108
:104FD0000160002030BD0000002C01400034014081
:104FE00000400140004401400048014000040040EE
:104FF000000800400700010070B5002504460222A9
:1050000069B1042916D0082955D00C295ED0102981
:1050100063D094F84300012866D0012070BD94F855
:105020003E000128F9D184F83E202068C26842F091
:10503000020209E094F83F000128EED184F83F20F5
:105040002068C26842F00402C2600122206800F0B9
:10505000DBFF2B4920682B4A2B4B884209D090421A
:1050600007D0984205D0294EB04202D0284EB04217
:1050700003D1466C46F400464664206888420CD052
:10508000B0F1804F09D02349884206D02249884296
:1050900003D0904201D0984207D181681F4A114045
:1050A000062906D0B1F5803F03D0016841F0010127
:1050B0000160284670BD94F840000128ADD184F805
:1050C00040202068C26842F00802BDE794F8410021
:1050D0000128A2D184F8412008E094F84200012878
:1050E0009BD184F8422003E084F843200C2901D0AE
:1050F0000125DEE72068C26842F01002A4E7000044
:10510000002C0140003401400040014000440140B7
:105110000048014000040040000800400700010072
:1051200010B5044600681549884203D11448006848
:10513000006819E01349884216D1FCF7DBF8FBF749
:105140005DFF11490888421C0A80B0F57A6F0BD3C5
:1051500000220A800D49488988814A810868C1E98E
:105160000020C8890882CA812068B0F1804F03D12D
:10517000BDE81040FEF70AB810BD0000002C014049
:105180004803002000040040000000202C04002000
:105190007047FEE7DFED070AB1EE001A40EE010AA4
:1051A0009FED050A80EE201ABCEEC10A10EE100A2F
:1051B00070470000000016440024744970B50C4686
:1051C0002DED048BF0EE419AF0EE408A0546B0EEEC
:1051D000608AB0EE690AFBF71BF820EE289AB0EE61
:1051E000690AFBF751F808EE409AB0EE690A85EDBE
:1051F000009AFBF749F860EE288AB0EE690AFBF7DF
:1052000007F848EE008AC4ED008ABDEC048B70BD3F
:1052100000EB8100006E00F0F840704700EB810069
:10522000006E00F0F84070478068C0F3C00070471F
:105230008068C0F3C00070478068C0F3800070478A
:105240008068C0F380007047C06810F4406F01D0E0
:105250000020704701207047042303EAD15310B5A2
:1052600018444369C1F3045107248C40A3438A4086
:105270001343436110BD042303EAD15310B518440E
:105280004369C1F3045107248C40A3438A4013436C
:10529000436110BD00EB8100016E21F0004111431C
:1052A0000166704700EB8100016E21F0004111435F
:1052B00001667047F0B59BB00024179418943C2108
:1052C00068461994FBF762F820210FA8FBF75EF8F7
:1052D00041484FF0A041042501604FF44031C0E93E
:1052E000011485610121C460C0E904410477447759
:1052F0000326066280F82440C462046380F83840C4
:10530000C46380F84040FDF7DBF808B1FBF774FE9A
:1053100017A931481794FCF71BFD08B1FBF76CFE89
:105320002E48009001A909207F2781E89100CDE94E
:10533000045480208DF824408DF825400A900B906D
:1053400008968DF826408DF8304069462248FCF7D3
:105350009DF908B1FBF750FE2148009040F20F1074
:10536000019069461C48FCF791F908B1FBF744FE2F
:105370001C48009040F21520019069461648FCF741
:1053800085F908B1FBF738FE17480F9010A90620E1
:1053900081E89100CDE913540FA90F48FCF744FDB3
:1053A00008B1FBF729FE11480F900C2010900FA9AF
:1053B0000948FCF739FD08B1FBF71EFE0C480F90B9
:1053C000122010900FA90448FCF72EFD002801D0F0
:1053D000FBF712FE1BB0F0BDF40000200200300409
:1053E000040060080800900C1000C010000021C3E9
:1053F000000084CB194808B5816C41F00401816438
:10540000816C01F004010091816C41F00101816423
:10541000816C01F001010091816C41F00201816415
:10542000806C002200F00200009011460B20FDF776
:105430002FFF0B20FDF71EFF002211463820FDF73D
:1054400027FF3820FDF716FF002211463920FDF70F
:105450001FFFBDE808403920FDF70CBF00100240D7
:10546000114810B50F490160002141608160C160A1
:105470000174417481741022426101228261C2610F
:10548000026242628262C262C0E90C218163C1632E
:10549000FDF7F0FB002803D0BDE81040FBF7ACBDE2
:1054A00010BD000000640040C00100202DE9F04361
:1054B00087B014216846FAF769FF2F48C16C41F0A4
:1054C0002001C164C16C01F020010591C16C41F063
:1054D0000101C164C16C01F001010591C16C41F091
:1054E0000201C164C06C254E00F00200059000224C
:1054F00002213046FDF73FFE4FF09048002248F26F
:1055000030014046FDF737FEDFF87490002240215D
:105510004846FDF730FE0220009001250024CDE929
:105520000154694630460394FDF7F4FC30200090A6
:10553000CDE90154694640460394FDF7EBFC402653
:10554000CDE90064694640460294FDF7E3FCE803B8
:10555000CDE900050327CDE9025769464046FDF72E
:10556000D9FC03970096CDE9015469464846FDF7FA
:10557000D1FC07B0BDE8F0830010024000140048E1
:1055800000040048124810B5104901604FF48271C0
:10559000416000214FF4E062C0E902120222026180
:1055A00001224261520282611822C0E907210722CA
:1055B0004162C0E90A1201634163FEF71FFC002843
:1055C00003D0BDE81040FBF717BD10BD003001400F
:1055D0002402002070B59CB0002419941A941794EA
:1055E0001894149415941C210DA81694FAF7CEFE65
:1055F00034216846FAF7CAFE3A483949202680E83D
:10560000520041F29901C0E9031444618461FFF73B
:105610002EF908B1FBF7F0FC4FF4805517A931487B
:105620001795FFF701FA08B1FBF7E6FC2D48FFF7E5
:1056300032FC08B1FBF7E0FCCDE9146414A9294859
:105640001694FFF769F808B1FBF7D6FC6020CDE9A6
:105650000D040420CDE910400F94129400220DA9EE
:1056600020481394FFF785FB08B1FBF7C5FC40F217
:10567000A4600E9004220DA911941A48FFF779FB3B
:1056800008B1FBF7B9FC08220DA91648FFF771FB1A
:1056900008B1FBF7B1FC1348FFF735F84FF4006091
:1056A000009040100190801002907820CDE9030511
:1056B0004FF40050CDE905040003CDE908400794FC
:1056C0000A940B94694607480C94FEF7CDFF08B185
:1056D000FBF792FC0348FFF7F9FA1CB070BD00001D
:1056E000002C01404803002010B588B00024194860
:1056F000009401940294039404940594144906942C
:1057000001601021C0E9011440F6C311C1604FF4DB
:105710008071016180218161FFF7A9F808B1FBF771
:105720006BFC4FF48050009069460A48FFF77CF903
:1057300008B1FBF761FC049404A906480694FEF73F
:10574000EBFF002801D0FBF757FC08B010BD0000AC
:10575000000400409403002090ED000A01290CD0C1
:10576000022909D1D0ED020A90ED011AF0EE001ADB
:1057700041EE610A30EE800A7047D0ED010A30EE4A
:10578000600A7047FEE700EE100AB8EE400AFBF729
:10579000AFB970472DE9F04704462DED068B04F1B3
:1057A000500804F1200504F1780610F8381B8146F2
:1057B00004F1840711B101297DD025E194ED1A0A85
:1057C000D4ED1B0A0121304630EE608A94ED1F0AA9
:1057D00084ED200A94ED1E0A84ED1F0A84ED1E8AD2
:1057E00084ED268AFFF7B8FFB0EE409A94ED220AC6
:1057F000012184ED230A94ED210A384684ED220A22
:1058000094ED1A0A84ED210AFFF7A6FFF0EE409A04
:1058100002213846FFF7A0FFF0EE408A94ED1C0A03
:1058200070EE080AC4ED1C0A94ED060AF4EEC00AF4
:10583000F1EE10FA06DCB1EE400AF4EEC00AF1EE29
:1058400010FA01D284ED1C0A94ED040A484620EEB9
:10585000290AFBF75BFEF0EE409A94ED050A4046FC
:1058600020EE280AFBF752FE39EE800A284684ED26
:10587000250AB0EE490AFBF749FED4ED020A94ED81
:105880001C1A60EE810A94ED011A41EE080A94EDAB
:10589000031A41EE000A94ED250A30EE800A84EDE9
:1058A0001D0AD4ED070AB4EEE00AF1EE10FA08DCA6
:1058B000F1EE600A00E007E0B4EEE00AF1EE10FA63
:1058C00001D2C4ED1D0A9FE094ED1A0AD4ED1B0A23
:1058D0000121304630EE608A94ED1F0A84ED200AE3
:1058E00094ED1E0A84ED1F0A84ED1E8A84ED268A3B
:1058F000FFF732FFF0EE408A02213046FFF72CFF1F
:10590000F0EE409A94ED220A012184ED230A94EDF1
:10591000210A384684ED220A94ED1A0A84ED210A00
:10592000FFF71AFFB0EE40AA02213846FFF714FF36
:10593000B0EE409A94ED010AB5EEC00AF1EE10FA0D
:1059400002D184ED1C8A07E0D4ED240A80EE801A8F
:1059500031EE080A84ED1C0AD4ED1C0A94ED060A07
:10596000F4EEC00AF1EE10FA06DCB1EE400AF4EEF5
:10597000C00AF1EE10FA01D284ED1C0A94ED040A7B
:10598000484620EE0A0AFBF7C1FDB0EE408A94EDCE
:10599000050A404620EE090AFBF7B8FD38EE000A7A
:1059A000284684ED250AB0EE690AFBF7AFFDD4ED79
:1059B000020A94ED1C1A60EE810A94ED011A41EE80
:1059C000280A94ED031A41EE000A94ED250A30EE00
:1059D000800A84ED1D0AD4ED070AB4EEE00AF1EE68
:1059E00010FA0BDCB0EE401AF1EE600AB4EEE01AE9
:1059F000F1EE10FA02D3D4ED1D0A01E0C4ED1D0A48
:105A000030EEC00A84ED240A94ED1D0ABDEC068B2D
:105A1000BDE8F08790ED1D0A704710B504462DEDE6
:105A2000028B221D00F8201BB0EE648A82EC070A6C
:105A3000F0EE448AB0EE630AFBF7C8FD04F13800CB
:105A4000B0EE680AFBF7C2FDB0EE480ABDEC028B6F
:105A500004F15000BDE81040FBF7B8BD80ED1B0A13
:105A6000704780ED1A0A704770B50C462DED048B17
:105A7000F0EE419AF0EE408A0546B0EE608AB0EE54
:105A8000690AFAF7C5FB20EE289AB0EE690AFAF720
:105A9000FBFB08EE009AB0EE690A85ED009AFAF772
:105AA000B7FB20EE088AB0EE690AFAF7EDFB08EEC4
:105AB000C08A84ED008ABDEC048B70BD7047000085
:105AC0000148FEF71DB900002402002010B5806ACD
:105AD0000021A0F84610C187FEF710F910BD10B5DF
