:020000040800F2
:1000000010090020ED0100087B430008873E00082E
:1000100079430008690900086749000800000000EA
:100020000000000000000000000000002D44000857
:10003000590C000800000000F54300082F44000898
:10004000070200080702000807020008070200086C
:10005000070200080702000807020008070200085C
:10006000070200080702000807020008A10A0008AA
:10007000AD0A00080702000807020008070200088E
:10008000070200080000000007020008070200083D
:1000900007020008650D00080702000807020008B3
:1000A00007020008C544000807020008070200080C
:1000B000D1440008DD4400080702000807020008D8
:1000C000070200080702000807020008F9430008B9
:1000D00007020008070200080702000807020008DC
:1000E00007020008070200080702000807020008CC
:1000F00007020008070200080702000800000000CD
:1001000000000000070200080000000007020008CD
:1001100007020008000000000702000807020008AC
:10012000070200080702000807020008070200088B
:10013000070200080000000000000000070200089D
:10014000070200080702000800000000000000008D
:10015000000000000000000000000000000000009F
:10016000000000000000000000000000070200087E
:10017000070200080000000000000000000000006E
:10018000000000000702000800000000000000005E
:10019000000000000000000000000000000000005F
:1001A000000000000000000007020008070200082D
:1001B000070200080702000807020008000000000C
:1001C000000000000702000800000000000000001E
:1001D0000702000807020008DFF80CD000F03CFA24
:1001E00000480047A749000810090020064880473A
:1001F00006480047FEE7FEE7FEE7FEE7FEE7FEE70C
:10020000FEE7FEE7FEE7FEE7A9440008D901000883
:100210009FED1A1AF5EE000A40EE010ABDEEE00A63
:10022000F5EEC00A10EE100AF1EE10FA38BF401ECB
:1002300000EE100A1349F7EE001AB8EEC00A30EECD
:10024000C00ADFED0F0A20EE200AFCEEC00A10EE15
:10025000900AC0F3080000EE900A01EB8000F8EE6F
:10026000600A90ED011A70EE600A90ED000A71EEDE
:10027000E01A21EE800A00EE810A704783F9223EDF
:1002800000000044E8490008B5EEC00AF1EE10FA9B
:1002900007D2DFED1E0AB4EEE00AF1EE10FAA8BFB5
:1002A0007047DFED1B0AB5EEC00A60EE200ABDEE16
:1002B000E01A11EE100AF1EE10FA38BF401E00EEFF
:1002C000100A1549F7EE001AB8EEC00A30EEC00A5F
:1002D000DFED100A60EE200ABCEEE00A10EE100A14
:1002E000C0F3080000EE100A01EB8000B8EE400AEF
:1002F00090ED011A70EEC00A90ED000A71EEE01A5E
:1003000021EE800A00EE810A70470000CD024CB455
:1003100083F9223E00000044E8490008D2B201E01F
:1003200000F8012B491EFBD270470022F6E710B5FA
:1003300013460A4604461946FFF7F0FF204610BD53
:100340002DE9FE4F804681EA0300C00F0C46009065
:1003500021F0004123F00045B8EB0200A94105D28D
:100360004046214690461C460B46024623F000407C
:10037000104347D0270DC7F30A00C3F30A51029078
:10038000401A019040286BDAC3F3130040F4801B3D
:100390000098924620B10023D2EB030A63EB0B0BCB
:1003A00001985946C0F14002504600F09FF80646B9
:1003B0000D4650465946019A00F0A7F810EB080088
:1003C0006141002487EA115284EAE7731A4340D05E
:1003D000009A62B3019A012A4FEA075215DC001B0A
:1003E00061EB02014FF0004202EA0752CDE9004200
:1003F000001C41F5801132462B4600F0DEF803B0B8
:10040000BDE8F08F40462146F9E7001B61EB020191
:10041000001C41F5801300185B412018A2F500175D
:1004200047EB030140EAD570B6196D4111E06D0844
:100430004FEA360645EAC0754FEA0752001B61EBEA
:100440000201001C41F5801149084FEA30000019F3
:10045000514132462B4603B0BDE8F04F00F09EB844
:100460000098012240000023D0EB020263EBE0730E
:10047000009821464FEAE074B8EB000061EB0401FC
:10048000E9E783F000435BE781F0004158E700F0C3
:10049000004230F000400AD0C10D01F56071C0F398
:1004A000160042EA0151C20840071143704700207C
:1004B0000146704701F0004330B421F0004150EA9A
:1004C000010206D00A0DA2F56072C1F31301002AE1
:1004D00002DC30BC00207047440F44EAC104C10074
:1004E000E01830BC00EBC25000F021B8202A04DB39
:1004F000203A00FA02F1002070479140C2F1200337
:1005000020FA03F3194390407047202A06DBCB17EB
:10051000203A41FA02F043EAE07306E041FA02F3BE
:10052000D040C2F12002914008431946704700298B
:10053000A8BF7047401C490008BF20F00100704769
:1005400010B4B0FA80FC00FA0CF050EA010404BFC9
:1005500010BC704749B1CCF1200421FA04F411FA1F
:100560000CF118BF012121430843A3EB0C01CB1D63
:100570004FEA00614FEA102042BF002010BC7047D4
:1005800000EBC35010440029A4BF10BC7047401CAE
:10059000490008BF20F0010010BC704710B5141EC0
:1005A00073F1000408DA401C41F1000192185B412C
:1005B0001A4301D120F0010010BD2DE9F04D924603
:1005C0009B4611B1B1FA81F202E0B0FA80F220321A
:1005D0009046FFF78BFF04460F4640EA0A0041EAC7
:1005E0000B0153465A46084313D0114653EA010003
:1005F00019D0C8F14002504600F040F805460E46BA
:10060000504659464246FFF771FF084305D0012086
:1006100004E020463946BDE8F08D0020054346EA57
:10062000E0762C4337430A986305E40AA0EB080000
:100630000022FD0A44EA47540A3002D50020014650
:10064000E9E7010510196941DDE90845001969412B
:10065000BDE8F04DA2E70000064C074D06E0E0685B
:1006600040F0010394E8070098471034AC42F6D3F9
:10067000FFF7B6FDEC5100080C520008202A04DBFD
:10068000203A21FA02F00021704721FA02F3D0400B
:10069000C2F12002914008431946704710B5846AA0
:1006A000E16D11F0500F06D0E16DC90625D5204649
:1006B00000F0D3FF10BDE06D40F40070E0652068ED
:1006C0000168090716D503F01BFC78B12068C068E3
:1006D000800400280ADBE06D20F48070E065E06DA6
:1006E000C00403D4E06D40F00100E065204600F056
:1006F000A3FF10BDC0688007EBE7616D496BBDE8E3
:100700001040084710B5806AC16D41F04001C165D5
:10071000016E41F00401016600F09FFF10BD10B5AD
:10072000806A00F099FF10BD70B5044600688168CA
:100730008268C1F3400112F0010F24D019BB816817
:1007400001F00D01012910D18168104A1140891C66
:10075000816021680320086001F09AFE05460EE0E2
:1007600001F096FE401B022809D9E06D40F0100010
:10077000E065206E40F001002066012070BD206819
:100780008068C007ECD1002070BD0000C0FFFF7F73
:1007900070B504460068816811F0010F28D18168A6
:1007A000144A114215D18168D5432940491C816002
:1007B00001F06EFE064616E0816811F0010F03D1CC
:1007C00081682940491C816001F062FE801B02287B
:1007D00009D9E06D40F01000E065206E40F00100A6
:1007E0002066012070BD20680168C943C907E3D1B4
:1007F000002070BD3F0000809FED0C0A80ED000AD4
:1008000080ED010A80ED020A80ED030A80ED040A02
:1008100080ED050A80ED060A80ED070A80ED080AE2
:10082000B7EE000A80ED090A7047000000000000E2
:1008300010B50C48FFF7E0FF7F210B4800F038FCB3
:10084000012001F081FA07490622E439064801F047
:10085000C3F8054801F046F8BDE81040642001F0F7
:1008600073BA0000E404002058000020F0B5384CB2
:10087000384FDFED390A23789FED381A07F1240647
:100880000021A6F1180000BF37F8112006EB411532
:1008900000EE102A05EB8302B8EE400A20EE200A93
:1008A00082ED000AB0EE410A5FF0000205EB820C17
:1008B000521CDCED001A082A31EE800AF6DB00EB50
:1008C0008102491C82ED000A0629DDDB5B1C03F076
:1008D000070121701F4990ED010AE431D1ED060AAC
:1008E00030EE601A80ED011A90ED020AD1ED070A90
:1008F00070EE600AC0ED020A90ED030AD1ED081A0D
:1009000030EE610A80ED030A81ED001AC1ED010AA3
:1009100081ED020A90ED000AF2EE060A9FED111A2F
:1009200020EE200ADFED0E0A81ED030A90ED040AA5
:1009300070EE600A80EE810AF0EE000A30EE200AC6
:1009400081ED040A90ED050A81ED050AF0BD000075
:1009500054000020000400206740D338000000004D
:100960005C8F423F0AD7233BFEE700009FED3E1A13
:10097000F0B520EE010A3D48BDEEC00A10EE102A87
:100980009FED3B0A20EE800ABDEEC00A10EE101A61
:10099000C0E909218B18A1EB020202EBD2724FEAE7
:1009A000620403EBD37300F118025B1082E81A00B3
:1009B00009D5002C01DA05220EE0002901DC042211
:1009C0000AE0032208E0002C01DB022204E00029F7
:1009D00001DC062200E001220270D7B24FF47A76E1
:1009E000721043F22055072F33D2DFE807F03204AC
:1009F0001323041323000B1B2B4493FBF6F394FBEC
:100A0000F2F491FBF2F103F2A46383802344C380E8
:100A1000591A0DE0191B94FBF2F4294491FBF6F1ED
:100A200093FBF2F201F2A46181800C44C480891A24
:100A300001810EE06C1A1C4494FBF6F493FBF2F374
:100A400091FBF2F104F2A464E31A84800381194457
:100A5000C180084A81881160121DC1881160111D72
:100A600000890860F0BD00000006B84618000020AC
:100A7000008054C6342C0140DFED071A20EE210A15
:100A800080ED000A30EEC10ADFED040A20EE200AF4
:100A900081ED000A70470000ABAA2A3F3ACD133F10
:100AA000014801F04DB80000C4000020014801F0E9
:100AB00047B80000EC0100200D4902688A4201D2CB
:100AC0000C4901E00B492031D2B21423083AB2FBA1
:100AD000F3F2436C02F01F0223F003031944816414
:100AE00004498031C16401219140016570470000D3
:100AF00008040240000802400179074A02EB810223
:100B00004265054A4432491E826501F01F020121F7
:100B10009140C16570470000FC08024030B5D0E943
:100B200013456560446D14B1D0E91645656090F8D1
:100B3000444004F01F050124AC40056C6C6004685F
:100B400063608368102B036803D099600068C260FB
:100B500030BD9A600068C16030BD00002DE9F041F1
:100B600086B014216846FFF7E0FB4FF09048102153
:100B7000404601F0F1FA4021404601F0EDFA244FE1
:100B80004021384601F0E8FA00221021404601F0E9
:100B90007AFC00224021404601F075FC00224021F1
:100BA000384601F070FC2021404601F0D5FA0122C0
:100BB0002021404601F067FC102000900125002410
:100BC000CDE9015469464046039401F06BFB402691
:100BD0000096CDE9015469463846039401F062FB62
:100BE00020200090CDE9015469464046039401F06D
:100BF00059FBCDE90064029469464046039401F034
:100C000051FB012001F0A0F806B0BDE8F081000022
:100C10000004004810B54FF09044012220212046E6
:100C200001F031FC642001F08FF8002220212046E1
:100C300001F029FC642001F087F8012210212046F0
:100C400001F021FC642001F07FF820460022BDE87D
:100C50001040102101F017BC7047704770B5344C3C
:100C60003449E07A4000E072607A40006072A07A15
:100C70004000A072207B40002073607B40006073C6
:100C8000A07B4000A07391ED030AD1ED040A01F1AD
:100C9000140020EE000A00EEA00AB5EEC00AF1EE44
:100CA00010FA04DBF1EEC00AC0ED000A03E09FED8C
:100CB000220A80ED000A486920490025884207DDA4
:100CC000E07A40F00100E072FF282CD1E5702AE0C4
:100CD0001B491C4AC868904207DD607A40F0010059
:100CE0006072FF281FD165701DE0174A904207DA35
:100CF000A07A40F00100A072FF2814D1A57012E084
:100D000008691249884207DD607B40F0010060738A
:100D1000FF2808D1657106E040214FF0904001F0B6
:100D2000A5FB00B9E571BDE8704000F03FB80000D8
:100D30004400002030030020000000000000F041CB
:100D4000E40400200000D041000010410000964360
:100D50000121017041708170C17001714171817117
:100D6000C1717047014801F004B80000240100205F
:100D70000B480C4ADFED0C0A90ED0F0A10EE101A2A
:100D8000914202DD30EE600A06E0B5EEC00AF1EEF7
:100D900010FA03D230EE200A80ED0F0A70470000EF
:100DA00030030020DB0FC940DB0FC940104810B5ED
:100DB0004178827803791140C2781A401140427913
:100DC000114082791140C279114001700FD1094957
:100DD00000200860091D0860091D0860064C4021BC
:100DE000204601F048FB322000F0AEFFF7E710BDCF
:100DF00044000020342C01400004004810B539485C
:100E00002DED028B00F026F93748FFF7A1FFFFF721
:100E1000A5FEFFF7FFFEFFF70BFD03F0FDFA9FEDC8
:100E2000348ADFED328A2F48F7EE001AB0EE681AE6
:100E3000F0EE480AB0EE480A503003F09FFA294815
:100E4000F7EE001AB0EE681AF0EE480AB0EE480A63
:100E5000703003F093FA2348F7EE001AB0EE681AE8
:100E6000F0EE480AB0EE480A903003F087FA1D48C9
:100E7000F7EE001AB0EE681AF0EE480AB0EE480A33
:100E8000B03003F07BFA1B4802F06AFB00211948DE
:100E900002F032FF0421174802F02EFF0821154806
:100EA00002F02AFF0021134802F0A8FE0421114895
:100EB00002F0A4FE08210F4802F0A0FE00210D4818
:100EC00002F0A2FA04210B4802F09EFA0821094818
:100ED00002F09AFABDEC028B0748BDE8104002F020
:100EE0003FBB000030030020440000200000000051
:100EF0006F12833A4C0200209802002070B54B4DCF
:100F00002DED068B95ED050ADFED490A494C60EEA3
:100F1000200AC4ED0F0AD5ED040A30EE200A10EEC7
:100F2000100A85ED050AB0F1804F05DBF0EE000AEE
:100F300030EE600A85ED050AFFF71AFF3E4E9FED81
:100F40003F8AD6ED000A80EE880A10EE100AFFF7FD
:100F50009EFA9FED3B9B53EC192BFFF795FAFFF799
:100F6000A9FA08EE900AC4ED008AD6ED010A80EED7
:100F7000880A10EE100AFFF78AFA53EC192BFFF7D4
:100F800083FAFFF797FA0AEE100A84ED01AAD6ED6C
:100F9000020A80EE880A10EE100AFFF778FA53EC86
:100FA000192BFFF771FAFFF785FA224901EE100AB3
:100FB000103184ED021A081FF0EE4A0AB0EE680AFA
:100FC000FFF75AFD1B4994ED0F1A1C31D4ED040AAA
:100FD00094ED030A081F03F0E3F99FED1B0ADFED10
:100FE0001B0A144984ED080AC4ED090A2C3194ED5A
:100FF0000F1A081F02F048FFD4ED0B0A94ED0A0AFD
:10100000FFF7B4FC6888A0F51C51103905D1002009
:10101000688040210E4801F02EFA6888401C6880E4
:10102000E868401CE860BDEC068B70BD180000202D
:10103000DB0F494030030020E40400200BD7A33D20
:101040008FC2F5285C8FFA3F0AD7233C0000C842C4
:10105000000400489FED100A80ED000A80ED010AAF
:1010600080ED020A80ED030A80ED040A80ED060A95
:1010700080ED070A80ED080A80ED090A80ED0A0A72
:1010800080ED0B0A80ED0C0A80ED0D0A80ED0E0A52
:1010900080ED0F0A704700000000000006220249A0
:1010A000024800F099BC0000000400205800002015
:1010B000F8B500260446009690F858000D46012821
:1010C0000BD0012084F858002046FFF72DFB0100CB
:1010D000E06D04D040F010002AE00220F8BD20F4BA
:1010E000885040F00200E06520688268134B1A4087
:1010F00005F080431A4342F000428260104A2068A3
:101100000EE0009B5B1C0093934209D3E06D20F03E
:10111000020040F01000E06584F858600120F8BD3E
:101120008368DB0FEDD1E06D20F0020040F001009C
:10113000E06584F858600846F8BD0000C0FFFF3F36
:1011400002DE04002DE9F047044690F858009CB0F8
:101150000D464FF00008012814D0012084F85800F3
:1011600020684FF0A0474FF00009B8420ED1284E3A
:101170000096304602F0C0FE8246206802F0BCFEB7
:1011800060B10EE002201CB0BDE8F087E16D41F0D7
:101190002001E16584F858900120F4E7BAF1000FCE
:1011A0000AD0E06D40F02000E0654FF0010800BF7C
:1011B00084F858904046E6E716482A6840F61F71C2
:1011C000002A826822F4604215D094F8383042EA4E
:1011D00043326B681A438260BA68B36802F0010256
:1011E00003F001031A43E3D1AB682A681A4383680A
:1011F0008B431A430AE08260BA68B36802F00102C6
:1012000003F001031A43D3D182688A438260CFE797
:1012100000010050000300502DE9F84F002704465C
:10122000009790F85800DFF8DC930D46B846012887
:1012300011D0012684F85860206802F059FE60B190
:10124000E06D40F02000E0655FF0010784F8588011
:101250003846BDE8F88F0220FBE7D5E900210C23D2
:10126000206803EA91131844036B01F01F014FF04B
:101270001F0C0CFA01FCC2F3846223EA0C038A40BF
:1012800013430363206802F033FE8246206802F0B5
:101290002BFE5AEA00003CD1AA6829682068B2F106
:1012A000004F37D002F034FE2068416921F0004140
:1012B000416120686969C268C2F3C102520091406D
:1012C0002A69042A31D000EB82002B68026EDFF815
:1012D00038C303F0F84302EA0C020B431A4342F00E
:1012E0000041016622682869A96902EB8000026E4C
:1012F00022F080720A430266297F20682A69012948
:1013000010D0002100EB8200026E22F000720A432E
:1013100002667DE0002202F0FBFD2068416941F099
:101320000041C5E74FF00071ECE7002102F0D6FD67
:10133000400320684FF0000172D002F0CFFD90FA18
:10134000A0F0B0FA80F1286842036ED090FAA0F0C5
:10135000B0FA80F0814204D100221146206802F0E8
:10136000E6FD0121206802F0B9FD400320684FF03E
:1013700001015DD002F0B2FD90FAA0F0B0FA80F168
:101380002868420359D090FAA0F0B0FA80F0814268
:1013900004D100220121206802F0C9FD0221206849
:1013A00002F09CFD400320684FF0020148D002F09B
:1013B00095FD90FAA0F0B0FA80F12868420344D07D
:1013C00090FAA0F0B0FA80F0814204D1002202210C
:1013D000206802F0ACFD0321206802F07FFD40038D
:1013E00020684FF0030133D002F078FD90FAA0F0AE
:1013F000B0FA80F1286842032FD090FAA0F0B0FA3A
:1014000080F0814204D100220321206802F08FFD88
:101410002068816811F0010F22D0ACE000E004E008
:1014200002F05CFDC0F384618DE7C0F3846091E756
:1014300002F054FDC0F38461A2E7C0F38460A6E724
:1014400002F04CFDC0F38461B7E7C0F38460BBE7F2
:1014500002F044FDC0F38461CCE7C0F38460D0E7C0
:101460002A7B296850F8B03FC1F3120C23EA0C0321
:1014700002F0180C654A22FA0CF20A40134303608A
:10148000E968494577D1286841031CD090FAA0F15A
:10149000B1FA81F1491C01F01F0109294FEA4031DD
:1014A00032D8002912D000BF90FAA0F1B1FA81F130
:1014B00001F1010101F01F0106FA01F609D100BF97
:1014C000C0F3846109E0C0F38461E3E7C0F38461A1
:1014D000EEE790FAA0F1B1FA81F101F1010101F01A
:1014E0001F0146EA816102D1C0F3846003E090FAF3
:1014F000A0F0B0FA80F000F1010000F01F0000EB56
:10150000400041EA005132E000290ED090FAA0F1EB
:10151000B1FA81F101F1010101F01F0106FA01F6B2
:1015200006D100BFC0F3846106E0C0F38461F1E737
:1015300090FAA0F1B1FA81F101F1010101F01F016E
:1015400046EA816102D1C0F3846003E090FAA0F022
:10155000B0FA80F000F1010000F01F002C4A00EB0F
:10156000400002EB005041EA000141F00071AA681E
:10157000206802F0CDFC27482A6802423FF466AE9C
:1015800025488168254B01F0E0719A4202D0244B36
:101590009A421BD10B0219D42268B2F1A04F7FF4FA
:1015A00055AE826841F4000122F0E0720A43826085
:1015B0001C481D490068B0FBF1F000EB40008000C2
:1015C00000E0401E00900028FBD13FE6174D184B6D
:1015D000AA4207D1CD0105D422689A42F5D041F044
:1015E000807109E0134DAA42EFD14A02EDD422687E
:1015F0009A42EAD041F48001826822F0E0720A4304
:10160000826023E600007F4000F0FF03FFFF070039
:10161000000020FE0000088000030050000021C3ED
:101620001000C09014000020400D0300000052C7BD
:1016300000010050000084CB054900B5884205D167
:10164000FFF714F903494888401C488000BD00009A
:10165000580000205400002070477047F8B54FF044
:10166000000504002E46009502D0E06D10B107E0A1
:101670000120F8BD204600F0EDF8266684F8586099
:1016800020688168C1F3407119B18168694A1140CD
:10169000816020688168C1F3007179B98168664A08
:1016A000114041F080518160644865490068B0FB99
:1016B000F1F000E0401E00900028FBD12068816816
:1016C000C1F3007141B9E16D41F01001E165216E96
:1016D00041F001012166012502F00AFCE16DC90615
:1016E00000D430B1E06D40F01000E06501252846DF
:1016F000F8BDE06D20F4807040F00200E0652068E5
:10170000806810F0010F11D14FF0A04080684D4962
:1017100000F00100896801F00101084306D14A4840
:101720006168826822F47C120A438260E168E06B9F
:10173000627F0843A16841EA4231084394F82410CB
:1017400040EA0140012904D1218D404A02EB414188
:101750000843E16A29B101F47871226B014342EA3E
:1017600001002168CA683A4B1A400243CA602068E7
:101770000169626B21F0406111430161206802F050
:10178000B7FB0646206802F0AFFB30432ED1207F26
:1017900094F83810800340EA41022068C16844F29E
:1017A000020399431143C160206900282068016940
:1017B0000AD041F480310161206850F8C01F2269CD
:1017C0006FF30D01114307E021F4803101612068BE
:1017D00050F8C01F6FF30D01016094F8400001281C
:1017E0000CD02068016921F00101016160690128C4
:1017F0002068016B21F00F0111D013E0D4E9110131
:101800000843D4E913121143084321680A6940F2DE
:10181000FC739A43104340F001000861E6E7226A36
:10182000521E11430163E06D20F0020040F0010000
:10183000E0655CE7C0FFFF5FC0FFFF7F1400002092
:10184000400D030000010050000300500000FEFFA7
:101850000740F0FF70B586B0054614216846FEF7D4
:1018600064FD2868B0F1A04F33D11B49C86C40F427
:101870000050C864C86C00F400500590C86C40F07B
:101880000100C864C86C002600F0010005900F201C
:1018900000900320CDE9010669464FF0904000F02A
:1018A00001FD0F4C0D4820600520C4E90106802091
:1018B000C4E90360400060618000C4E9060680005E
:1018C0002062204600F09AF908B1FFF7C6F96C656E
:1018D000A56206B070BD0000001002400800024082
:1018E000C40000202DE9F04104463848806800F02B
:1018F0001F05206802F0FCFA18B102210846BDE875
:10190000F08194F8580001280CD0012084F8580088
:101910002046FEF73DFF01004FF0000304D084F89D
:101920005830EBE70220EAE7E06D40F601629043B1
:1019300040F48070E065264A20684FF0A04690424F
:1019400001D1374600E00746874200D01DB9E76D58
:1019500027F48017E765E76DFF0404D5276E27F0AD
:101960000607276600E023661C27076084F85830C6
:101970002068904201D1334600E00346834215D0EF
:10198000A5B1052D12D0092D10D0E36D43F48013BD
:10199000E365904200D13046C0688001AED5E06D6D
:1019A00020F4005040F48050E065A7E7C26892013F
:1019B00005D5E26D22F4005242F48052E26582685D
:1019C000044B1A40121D826098E70000000300508B
:1019D00000010050C0FFFF7F2DE9F041044634486C
:1019E00017468846806800F01F05206802F080FADC
:1019F00000285AD194F85800012856D0012084F8C4
:101A00005800002625B1052D02D0092D00D003E095
:101A10002046FEF7BDFE18B184F85860BDE8F0819D
:101A2000E06D40F60161884340F48070E065214933
:101A30002068884202D14FF0A04100E00146814277
:101A400000D01DB9E06D20F48010E065E06DC004A9
:101A500004D5206E20F00600206600E02666616D49
:101A60001548C862616D15480863616D1448486384
:101A700021681C20086084F858602068416841F0A3
:101A8000100141602068C16841F00101C160216816
:101A90003B4642464031606D00F010F921688A688B
:101AA000084B1A40121D8A60B8E70220B6E7000012
:101AB00000030050000100509D0600081F070008A9
:101AC00005070008C0FFFF7F70B590F825200024AF
:101AD00001212346022A07D00422C26380F8251080
:101AE00080F82430012429E00268156825F00E05ED
:101AF00015600268156825F001051560826C15688F
:101B000025F48075156090F84420056C02F01F02E2
:101B100001FA02F26A60D0E913255560426D32B1D4
:101B2000156825F480751560D0E91625556080F894
:101B3000251080F82430816B01B18847204670BDA4
:101B4000F0B4016C0C6801680D6890F8442002F054
:101B50001F06042202FA06F3234211D06B070FD5A9
:101B60000B689B0603D40B6823F004030B6090F80A
:101B7000441001F01F018A40016C4A60016B1DE0B6
:101B8000022303FA06F727424FF0000C4FF0010240
:101B900018D0AF0716D50C68A40605D40C6824F03D
:101BA0000A040C6080F8252090F8441001F01F0111
:101BB0008B40016C4B6080F824C0C16A00291AD0A8
:101BC000F0BC08470823B340234214D02B0712D59A
:101BD0000B6823F00E030B6090F84410036C01F0C7
:101BE0001F0102FA01F15960C26380F8252080F8D4
:101BF00024C0416BE2E7F0BC7047000070B5040000
:101C00000CD02B4A21681420914209D2294A0A4457
:101C1000B2FBF0F08000606427480AE0012070BD4C
:101C2000234A52420A44B2FBF0F08000606420482C
:101C300008382064022084F825000A6847F6F0700E
:101C40008243D4E902031843D4E904352B431843F3
:101C5000A3691843E3691843236A184310430860D3
:101C60002046FEF729FFA0680025B0F5804F00D17F
:101C70006560A16C20790860D4E913014160606857
:101C8000401E032808D82046FEF736FF606D056029
:101C9000D4E91601416002E06565A565E565E56387
:101CA000012084F8250084F82450002070BD000035
:101CB00008040240F8FFFDBF0000024070B5044672
:101CC00090F82400002501280CD0012084F824007D
:101CD00094F825600020012E06D084F82400022507
:101CE000284670BD022070BD022684F82560E0639E
:101CF0002068066826F0010606602046FEF70EFF03
:101D0000206B00282068016802D041F00E0106E037
:101D100021F0040101602068016841F00A010160BE
:101D2000A06C0168C90303D5016841F480710160AA
:101D3000606D18B1016841F480710160206801682C
:101D400041F001010160CBE770B5044600F0A0FB53
:101D50000546601C02D004484068044400F098FB2B
:101D6000401BA042FAD370BD0800002070477047A6
:101D700070472DE9F04704460068016D466D01F497
:101D8000E0510E40016D476D01F007010F40016DFC
:101D9000426D01F0380102EA0108016D456D01F460
:101DA00071010D40016D426D01F4602102EA0109EB
:101DB000016D490607D5416D490604D540210165ED
:101DC0002046FFF7D5FF2068016DC9050DD5416D8F
:101DD000C9050AD5D0F8D820D0F8E01011404FF44A
:101DE00080720265204600F0B3F92EB120680665C6
:101DF0003146204600F0AEF92FB12068076539461C
:101E0000204600F0A1F9B8F1000005D0216808656E
:101E10004146204600F099F92068016D890508D5F2
:101E2000416D890505D54FF400710165204600F02C
:101E300092F92068016D09060CD5416D090609D596
:101E4000D0F8D420D0F8DC10114080220265204662
:101E500000F07FF92068016D890408D5416D89047F
:101E600005D54FF400510165204600F070F9206857
:101E7000016D090408D5416D090405D54FF40041F1
:101E80000165204600F062F92068016D490409D51A
:101E9000416D490406D54FF480410165206E40F044
:101EA00080002066B9F1000005D021680865494628
:101EB0002046FFF75CFF25B120680565206E2843AA
:101EC0002066206E002802D02046FFF74FFFBDE8B5
:101ED000F08700002DE9F041040006D0DFF8E8812A
:101EE00094F85C00002518B107E00120BDE8F081FE
:101EF00084F85D50204600F0EFF82068816921F0F9
:101F00001001816100F0C4FA0646032705E000BF16
:101F100000F0BEFA801B0A2811D8206880690007EB
:101F2000F6D42068816941F00101816100F0B0FAC6
:101F300006460BE000F0ACFA801B0A2806D9206E9A
:101F400040F00100206684F85C70CEE7206880696C
:101F5000C007EFD02068816941F0020181612168EA
:101F6000414502D1594960680860207C01282068F9
:101F7000816937D041F040018161607C012820688F
:101F8000816932D021F480418161A07C01282068E0
:101F900081692DD041F48051816120688169A268F6
:101FA00021F44071114381612068816921F0A4010D
:101FB00081612068016921F010010161E068012858
:101FC00019D010B302281BD02068816941F080012C
:101FD00081612068016941F010010161E068032816
:101FE0000ED012E021F04001C6E741F48041CBE77A
:101FF00021F48051D0E72068816941F0040103E0B9
:102000002068816941F020018161207EE2694006FB
:102010006FF0FF0101EB0222A0F100701043226A71
:10202000A38A521E10430A0202EB0343184323689B
:10203000D861A068B0F5407F10D1D4E90A0301EB64
:102040000321401E0843216B131303EB01110843C6
:10205000A18C02EB014108432168C860206850F858
:10206000C01FE26B1143016019482064216851F8D8
:10207000802FA38E22F4F81242EA03420A60144928
:1020800070316164216851F8802F94F8383022F063
:10209000706242EA03620A600D49B031A1640D49E1
:1020A000E1640C49D83121650A49F031616500F5D8
:1020B000547120C08842FCD3A5652566012084F8B0
:1020C0005C00002012E70000006400400065004052
:1020D00000A4004088A5004010B586B00446142135
:1020E0006846FEF722F916492068884226D115482D
:1020F000816D41F000718165816D01F00071059184
:10210000C16C41F00101C164C06C694600F001007E
:1021100005904FF4C05000900220019000200290E2
:10212000039009200490C00600F0BCF800220221B0
:10213000152000F035FA152000F024FA06B010BD85
:1021400000640040001002407047704770477047BD
:1021500070477047704770472DE9F84F00230126FC
:10216000DFF824C10F2788E006FA03F414EA01021D
:102170007ED023F003056544AA46D5F808909D0754
:102180004FEA157E07FA0EF505EA090B0095B0F146
:10219000904F05D03D4DA84205D14FF001081CE0FD
:1021A0004FF0000819E03A4DA84202D14FF0020862
:1021B00013E0384DA84202D14FF003080DE0364D30
:1021C000A84202D14FF0040807E0344DA84202D1E2
:1021D0004FF0050801E04FF0060808FA0EF8D84560
:1021E00024D1DFF8BC80D8F8009029EA0209C8F8A9
:1021F000009008F10408D8F8009029EA0209C8F80C
:10220000009008F10408D8F8009029EA0209C8F8FB
:10221000009008F10408D8F800509543C8F8005021
:10222000009ADAF808509543CAF80850D0F80080B0
:102230004FEA4309032202FA09F248EA0208C0F809
:102240000080DD0800EB8505AA46D5F820804FEA1E
:1022500043794FEAD96907FA09F528EA0508CAF867
:102260002080C5689543C5604568A543456000E08A
:1022700002E08468944384605B1C31FA03F27FF4CB
:1022800073AFBDE8F88F0000000001400004004873
:1022900000080048000C00480010004800140048E6
:1022A000000401402DE9FC4FDFF8A0A10023012527
:1022B0000AF1040B03244FF00F0C0BF1040EBDE0E8
:1022C00005FA03F632406FD04F68012F05D0022F78
:1022D00003D0112F01D0122F17D1D0F808905F0032
:1022E00004FA07F829EA08090097D1F80C8008FADF
:1022F00007F848EA0908C0F808804768B7430E792C
:10230000C6F300169E403E434660C6684FEA430847
:1023100004FA08F7BE4301978F6807FA08F73743B6
:10232000C7604E68022E01D0122E13D1DE0800EBDA
:1023300086060096366A5F07FF0E0CFA07F926EA52
:102340000906D1F8109009FA07F949EA0609009E32
:10235000C6F820900668019FBE430F7907F0030777
:1023600007FA08F7374307604E68F60065D5384E20
:10237000376E47F001073766366E23F0030706F025
:1023800001060096334E3E44B146B6689F074FEAB9
:1023900017780CFA08F7BE43B0F1904F05D02E4FD6
:1023A000B84204D1012717E047E0002714E02B4F83
:1023B000B84201D102270FE0294FB84201D10327CB
:1023C0000AE0284FB84201D1042705E0264FB84261
:1023D00001D1052700E0062707FA08F73743C9F8B7
:1023E0000870DAF800605746D1F8048096435FEA37
:1023F000C83800D516433E60DBF800605F46D1F870
:10240000048096435FEA883800D516433E60DEF8C4
:1024100000607746D1F8048096435FEAC82800D56B
:1024200016433E60094F0C373E68D1F8048096434E
:102430005FEA882800D516433E605B1C0A6832FAC2
:1024400003F67FF43DAFBDE8FC8F000000040140BF
:10245000001002400000014000040048000800484D
:10246000000C0048001000480014004800690840B3
:1024700000D001207047426921EA02030A4043EA82
:102480000241816170470AB1816170478162704782
:1024900001488068704700000800002002488168F9
:1024A00042681144816070470800002010B5002484
:1024B000032000F095F8002000F008F808B101248E
:1024C00001E000F047F8204610BD000030B5054699
:1024D0001C4887B0816D41F001018165806D06A9BE
:1024E00000F00100009001A800F024FB00F042FB86
:1024F00015494FF08042B0FBF1F11448491E0260CB
:10250000416040F2E7320021C0E90321816000F020
:10251000D8FF040012D10D4801F022F804000DD1BB
:102520001C2000F02FF8102D07D2002229461C2075
:1025300000F036F80648056000E0012407B02046A8
:1025400030BD00000010024040420F00E4020020B5
:10255000080000200A4882B0016E41F001010166C6
:10256000016E01F001010091816D41F080518165A2
:10257000806D00F08050009002B000F0A1B8000023
:1025800000100240002809DB00F01F0201219140E9
:102590004009800000F1E020C0F800117047000001
:1025A000F0B40E4B1B680C46C3F30223C3F10705BE
:1025B000042D00D90425191D072901D2002300E0AC
:1025C000DB1E012606FA05F1491E214099409E4076
:1025D000761E16403143F0BC02F0C6B90CED00E0A7
:1025E000064900F0070208684FF6FF03184040EA6A
:1025F0000220034A10430860704700000CED00E021
:102600000000FA052B492C4B0A6832214A432B491A
:1026100040B1B0F5007F086829D020F4C06040F4D4
:1026200080602CE00868C0F34120022804D051F8F3
:10263000800F20F4807022E0D1F8800020F48070B8
:10264000C1F88000086820F4C06040F400700860A1
:10265000B2FBF3F0401C00E0401E4A69520501D570
:102660000028F9D1486940050AD503207047C0F316
:102670004120022806D051F8800F40F48070086095
:1026800000207047D1F8800040F48070C1F88000CD
:10269000086820F4C06040F400700860B2FBF3F0FA
:1026A000401C00E0401E4A695205DBD50028F9D1E4
:1026B000D8E700001400002040420F0000700040E6
:1026C0000248816841F48041816070470070004099
:1026D0002DE9F8430446006800269D4D00035ED5B1
:1026E000A86D0027C00008D4A86D40F08050A865F0
:1026F000A86D012700F080500090DFF85892D9F8BB
:10270000001041F48071C9F80010FFF7C1FE804647
:1027100006E000BFFFF7BCFEA0EB080002282BD8A4
:10272000D9F80000C005F5D5D5F8900010F4407038
:1027300014D0216C814211D0D5F89000D5F89010BA
:1027400020F4407041F48031C5F89010D5F8901015
:1027500021F48031C5F89010C5F89000C00711D061
:10276000FFF796FE804641F2883907E0FFF790FEBA
:10277000A0EB0801494501D903260BE0D5F89000EC
:102780008007F3D5D5F89000216C20F44070084301
:10279000C5F890001FB1A86D20F08050A865207882
:1027A000C00707D0D5F88800616820F0030008430F
:1027B000C5F888002078800707D5D5F88800A1687B
:1027C00020F00C000843C5F888002078400707D5A2
:1027D000D5F88800E16820F030000843C5F888008B
:1027E0002078000707D5D5F88800216920F0C000BF
:1027F0000843C5F888002078800607D5D5F88800FA
:10280000616920F440600843C5F8880020784006DC
:1028100007D5D5F88800A16920F440500843C5F8D1
:1028200088002078000607D5D5F88800E16920F4F3
:1028300040400843C5F888002088C00507D5D5F872
:102840008800216A20F440300843C5F888002088B9
:10285000800507D5D5F88800616A20F44020084338
:10286000C5F88800208840050FD5D5F88800A16AF2
:1028700020F440100843C5F88800A06AB0F5801F16
:1028800003D1E86840F48010E860208800050FD587
:10289000D5F88800E16A20F440000843C5F88800B4
:1028A000E06AB0F5800F03D1E86840F48010E8607A
:1028B0002088C0040FD5D5F88800216B20F0407027
:1028C0000843C5F88800206BB0F1807F03D1E86829
:1028D00040F48010E86020884FF0006180040ED53D
:1028E000D5F88800626B20F040601043C5F888007E
:1028F000606B884203D1E86840F48010E86020886B
:1029000040040ED5D5F88800A26B20F0406010433B
:10291000C5F88800A06B884203D1E86840F48010B5
:10292000E860208800040FD5D5F88800E16B20F01E
:1029300040500843C5F88800E06BB0F1805F03D1D8
:10294000E86840F48030E8603046BDE8F883000075
:1029500000100240007000402DE9F0470E460500CF
:102960004FF0000725D0DFF8AC81D8F8000000F068
:102970000F00B0420CD2D8F8001021F00F01314303
:10298000C8F80010D8F8000000F00F00B04210D1D5
:102990002968614CC80741F2883A5AD06868DFF864
:1029A0007C91032808D0022820682DD040050028FB
:1029B0002CDB0120BDE8F08720688001F9D5E068B4
:1029C00000F00302E068C0F30310401C032A19D092
:1029D000534A00BFB2FBF0F0E268C2F30622504354
:1029E000E268C2F34162521C5200B0FBF2F048456B
:1029F00017D9A06810F0F00F0CD0880711D5A8687F
:102A000040B10EE0474AE5E78003D0E700F0C4F8A4
:102A1000484506D9A06820F0F00040F08000A06092
:102A20008027A068696820F003000843A060FFF7D2
:102A30002FFD814606E000BFFFF72AFDA0EB09014C
:102A400051453AD8A068696800F00C00B0EB810FDE
:102A5000F2D12868810714D5400703D5A06840F457
:102A6000E060A0602878000705D5A06820F46050D9
:102A700040F4E060A060A068A96820F0F00008437E
:102A800004E0802F03D1A06820F0F000A060D8F807
:102A90000010404601F00F01B14216D9016821F043
:102AA0000F0131430160FFF7F3FC074607E000BF69
:102AB000FFF7EEFCC11B514501D903207AE7D8F896
:102AC000000000F00F00B042F2D12878400705D591
:102AD000A068E96820F4E0600843A0602878000757
:102AE00006D5A068296920F4605040EAC100A060C2
:102AF00000F052F8A1680C4AC1F30311515C01F0D7
:102B00001F01C8400949086009480068BDE8F0474E
:102B1000FFF7DCBC002002400010024000B4C404F7
:102B20000024F400005A6202D0490008140000207A
:102B3000080000200F2202600C4A936803F0030390
:102B40004360936803F0F0038360936803F4E063E9
:102B5000C36092684FF4E06303EAD2020261044862
:102B6000006800F00F00086070470000001002408D
:102B7000002002400548064900688968054AC1F3FB
:102B80000221515C01F01F01C84070471400002071
:102B900000100240E0490008184910B58868C0F3E9
:102BA00081021748012A0BD08A68164BC2F38102B2
:102BB000022A06D08A68C2F38102032A03D00020C9
:102BC00010BD184610BDCA6802F00304CA68C2F3FB
:102BD0000312521C032C02D0B0FBF2F001E0B3FB55
:102BE000F2F0CA68C968C2F306225043C1F34161DA
:102BF000491C4900B0FBF1F010BD0000001002407C
:102C00000024F400005A62022DE9F84304007AD04F
:102C10002078FA4DC00747D0A868E96800F00C009A
:102C200001F003010C2802D0082817D001E0032985
:102C300014D06068B0F5803F17D0B0F5A02F286899
:102C400017D020F480302860286820F48020286085
:102C50006068E0B1FFF71CFC064614E028688003BA
:102C600022D560680028D2D01EE0286840F4803069
:102C7000EDE740F480202860F7E700BFFFF708FC8D
:102C8000801B642870D828688003F7D50CE0FFF714
:102C9000FFFB064605E000BFFFF7FAFB801B642838
:102CA000F0D828688003F7D4207880074CD5A8682E
:102CB000E96800F00C0001F003010C2802D00428A0
:102CC0000DD001E002290AD0E068002828682BD046
:102CD00040F480702860FFF7DBFB064619E02868A7
:102CE000400502D5E068002891D06868217C20F07A
:102CF000FE4040EA01606860C1480068FFF7E6FBFB
:102D0000002800D120E076E1FFF7C2FB801B0228FB
:102D1000B8D828684005F7D56868217C20F0FE40C7
:102D200040EA016068600FE020F480702860FFF7DF
:102D3000AFFB064605E000BFFFF7AAFB801B022899
:102D4000A0D828684005F7D42078000729D5606905
:102D50000028D5F8940013D040F00100C5F8940085
:102D6000FFF796FB064606E090E000BFFFF790FBFA
:102D7000801B022886D8D5F894008007F6D510E08D
:102D800020F00100C5F89400FFF782FB064604E03E
:102D9000FFF77EFB801B022878D8D5F894008007C7
:102DA000F6D42078400761D5A86D0026C00008D46D
:102DB000A86D40F08050A865A86D012600F08050F5
:102DC000009090480168C90511D40168804641F41B
:102DD00080710160FFF75CFB074604E0FFF758FBDA
:102DE000C01B022852D8D8F80000C005F6D5A0684C
:102DF000012815D00528D5F8900016D020F0010044
:102E0000C5F89000D5F8900020F00400C5F89000B7
:102E1000A06841F28838B8B1FFF73AFB07460EE0E8
:102E2000D5F8900040F00100F0E740F00400C5F84C
:102E30009000F5E7FFF72CFBC11B414526D8D5F8DC
:102E400090008007F6D50CE0FFF722FB074604E070
:102E5000FFF71EFBC11B414518D8D5F8900080072D
:102E6000F6D41EB1A86D20F08050A86520788006A9
:102E700029D5A0690028D5F8980013D040F00100AA
:102E8000C5F89800FFF704FB064606E077E000BFB0
:102E9000FFF7FEFA801B022877D8D5F89800800744
:102EA000F6D510E020F00100C5F89800FFF7F0FA21
:102EB000064604E0FFF7ECFA801B022865D8D5F837
:102EC00098008007F6D4E069F0B3A968C1F38101E6
:102ED000032961D00228286820F0807028600BD078
:102EE000E86820F00300E860E86847490840E860C7
:102EF000FFF7CEFA04464BE0FFF7CAFA064604E0B5
:102F0000FFF7C6FA801B02283FD828688001F7D453
:102F1000F4E908016FF00F0202EB01110843218A66
:102F20005204490802EB4151A26841EA02210843D8
:102F3000217D4FF07E42490802EB41610843217B2D
:102F400040EAC160E96800E062E0304A11400843AD
:102F5000E860286840F080702860E86840F0807081
:102F6000E860FFF795FA044605E000BFFFF790FA26
:102F7000001B022809D828688001F7D548E004E042
:102F8000FFF786FA001B022802D90320BDE8F88368
:102F900028688001F4D43BE00128F7D0E868226A71
:102FA00000F00301914226D1616A00F0F0020901AC
:102FB000103991421FD1A26A00F4FE41B1EB022FF9
:102FC00019D194F82C2000F07841B1EBC26F12D1E6
:102FD000218E00F4C00249084905A1F50011914273
:102FE00009D194F8341000F0C06049084906A1F1F5
:102FF000007181420CD00120C8E70000001002409F
:103000000800002000700040FFFFEEFE0C809F01D2
:103010000020BBE77047000038B5016804464A68E5
:103020008868C043430606D5C30704D1D3435B0673
:1030300001D4E16C05E0830708D4D3431B0605D413
:10304000216D01B02046BDE830400847830603D516
:10305000430601D5C30551D4D3439B064ED4430642
:103060000AD494F85D30032B49D0236E43F0040357
:103070002366CB688B680093830609D4236E43F0E4
:10308000010323668B6800930B6823F040030B60F9
:10309000C00506D4206E40F00800206620688068D5
:1030A0000090206E002829D02068416821F0E001BE
:1030B0004160012084F85D00900701D4D00722D040
:1030C0002068416821F003014160114DA06D40B1BD
:1030D0008563A06DFEF7F8FC18B1206E40F040004B
:1030E0002066606D002809D08563606DFEF7ECFCFA
:1030F000002803D0206E40F04000206638BDC8682C
:103100008868009038BD2046FFF784FF38BD000076
:103110000544000870B5040009D0606A002540B17C
:1031200025616561A56294F85D0040B10CE0012065
:1031300070BD6068B0F5827FF4D0E561F2E784F895
:103140005C50204600F05CF8022084F85D002068A6
:10315000016821F040010160E1684FF4E0629142B2
:1031600001D9002001E04FF48050B1F5706F02D01A
:10317000914200D0A562A188228901F4827102F4F3
:1031800004421143227C02F002021143227D02F02C
:1031900001021143228B02F400721143227F02F0DC
:1031A0003802114394F8202002F080021143228D4E
:1031B00002F40052114322681160A169042202EA5C
:1031C000114194F8242000F4805002F010021143C1
:1031D00094F8342002F008021143A28902F47062CC
:1031E00011430143206841602068C16921F40061F6
:1031F000C1612566012084F85D00002070BD0000DB
:1032000070B586B0064614216846FDF78EF8204951
:10321000306888423AD11F49086E40F480500866F1
:10322000086E00F480500590C86C40F00200C8643D
:10323000C86C002500F002000590382000900220A4
:10324000CDE901050520CDE9035069461248FFF795
:1032500029F8134C114820600A20C4E90105802098
:10326000C4E903506561A561E56120462562FEF76A
:10327000C5FC08B1FDF7F1FCB46500220221232052
:10328000A662FFF78DF92320FFF77CF906B070BD29
:103290000030014000100240000400481C000240C1
:1032A000EC0100207047704770470000F0B590F8BF
:1032B0003C20012A4AD0012280F83C20CA688B6851
:1032C00022F440721A434B6822F480621A430B685E
:1032D00022F400621A430B6922F480521A434B69AC
:1032E00022F400521A430B6B22F480421A430B8BD8
:1032F00022F4702242EA0342154C03680026154D61
:10330000A34201D0AB4203D1CF6922F080523A43AD
:10331000A34201D0AB4214D10F8D22F4700242EAD5
:1033200007520F6A22F080723A434F6A22F000720D
:103330003A43A34201D0AB4203D1C96A22F0005202
:103340000A435A6480F83C600020F0BD0220F0BDC2
:10335000002C01400034014070470068416D41F489
:10336000003141650020704770477047F0B590F814
:103370003C20012A3AD0012580F83C50022280F8F6
:103380003D2003685A689C68194E1A4FB34201D019
:10339000BB4204D122F4700C4A6842EA0C02DFF806
:1033A00058C002EA0C02D1F800C04CEA020CC3F883
:1033B00004C00268B2420DD0B2F1804F0AD00F4B68
:1033C0009A4207D00E4B9A4204D0BA4202D00D4B1B
:1033D0009A4204D1896824F080031943916080F8EF
:1033E0003D50002180F83C100846F0BD0220F0BDA1
:1033F000002C0140003401408FFFFFFD000400401D
:10340000000800400040014010B50446022249B1C6
:1034100004290ED0082913D094F84700012816D0AB
:10342000012010BD94F844000128F9D184F844200B
:103430000FE094F845000128F2D184F8452008E017
:1034400094F846000128EBD184F8462001E084F886
:1034500047200422206801F0ACF82068416C41F458
:10346000004141641049206888420ED0B0F1804F7D
:103470000BD00E49884208D00D49884205D00D492D
:10348000884202D00C49884207D181680B4A11401A
:10349000062906D0B1F5803F03D0016841F0010153
:1034A0000160002010BD0000002C0140000400401D
:1034B00000080040003401400040014007000100C6
:1034C000704710B5040003D094F83D0010B107E038
:1034D000012010BD002084F83C00204600F022F8B6
:1034E000022084F83D00211D206800F0FDFF01202E
:1034F00084F8480084F83E0084F83F0084F84000D7
:1035000084F8410084F8420084F8430084F84400C1
:1035100084F8450084F8460084F8470084F83D00AC
:10352000002010BD08B500680B49884212D10B4835
:10353000016E41F400610166006E002200F400603B
:10354000009001211920FFF72BF8BDE80840192051
:10355000FFF718B808BD0000002C01400010024021
:1035600090F83D10012901D001207047022180F818
:103570003D100168CA6842F00102CA600068104943
:1035800088420ED0B0F1804F0BD00E49884208D04F
:103590000D49884205D00D49884202D00C49884225
:1035A00007D181680B4A1140062906D0B1F5803F4A
:1035B00003D0016841F00101016000207047000064
:1035C000002C01400004004000080040003401408D
:1035D000004001400700010070B5044690F83C002F
:1035E000012814D0012584F83C50022084F83D00C5
:1035F00022689068344B184020F47F40906008683F
:10360000702827D010DC10F00F0F03D04AE04FF0E5
:10361000020070BD4FEA2012072A43D2DFE802F011
:103620005050505048313900284BC21A984247D068
:1036300009DCB0F5805F35D0B0F5005F15D0B0F192
:10364000101F2FD13CE0102A3AD0202A38D0502A1F
:1036500028D135E0CB68D1E90121206800F0B6FF20
:103660002068816841F0770109E0CB68D1E9012148
:10367000206800F0ABFF2068816841F480418160E0
:1036800010E0CA684968206801F04AF950212068B2
:1036900006E0CA684968206801F053F96021206893
:1036A00000F09EFF84F83D50002084F83C0070BD7F
:1036B000CA684968206801F033F940212068EFE7C3
:1036C000226801461046EBE788FFCEFF200010007D
:1036D000704770B50446006801694FF00005C943A2
:1036E000890715D4C168C943890711D4E91E01614E
:1036F00001202077206880698007204602D0FFF7EC
:10370000E7FF04E000F068F9204600F076FA25773C
:1037100020680169C943490717D4C168C9434907EB
:1037200013D46FF0040101610220207720688069C2
:1037300010F4407F204602D0FFF7CAFF04E000F0FB
:103740004BF9204600F059FA257720680169C943F2
:10375000090716D4C168C943090712D46FF00801DC
:103760000161042020772068C0698007204602D0CC
:10377000FFF7AEFF04E000F02FF9204600F03DFA1D
:10378000257720680169C943C90617D4C168C943B0
:10379000C90613D46FF0100101610820207720685A
:1037A000C06910F4407F204602D0FFF791FF04E08B
:1037B00000F012F9204600F020FA25772068016910
:1037C000C943C90708D1C168C943C90704D1891EC3
:1037D0000161204600F022FB20680169C943090607
:1037E00009D4C168C943090605D46FF0800101619D
:1037F0002046FFF758FD20680169C943C90509D46F
:10380000C168C943090605D46FF48071016120467F
:10381000FFF748FD20680169C943490609D4C1681A
:10382000C943490605D46FF040010161204600F00C
:1038300029FB20680169C943890609D4C168C943C5
:10384000890605D46FF0200101612046FFF72CFDA9
:1038500020680169C943C90209D4C168C943C902C2
:1038600005D46FF4801101612046FFF77DFD2068CB
:103870000169C943890209D4C168C943890205D4D1
:103880006FF4001101612046FFF766FD20680169B1
:10389000C943490209D4C168C943490205D46FF438
:1038A000800101612046FFF760FD20680169C9437E
:1038B00009020BD4C168C943090207D46FF400019F
:1038C00001612046BDE87040FFF7FABD70BD000001
:1038D000F0B587B0044614216846FCF726FD204960
:1038E000206888423AD11F48C16C41F02001C16470
:1038F000C16C01F020010591C16C41F00101C1646E
:10390000C16C01F001010591C16C41F00201C1647B
:10391000C06C0127022500240097CDE9015400F076
:1039200002000626CDE90460694603940E48FEF7BE
:10393000B9FC4FF4F0600090CDE90154CDE90346A5
:1039400069464FF09040FEF7ADFC0097CDE9015479
:10395000CDE9034669460548FEF7A4FC07B0F0BD73
:10396000002C0140001002400014004800040048F0
:1039700010B5044690F83C0001280BD0012084F8D3
:103980003C000C2A19D007DC5AB1042A0DD0082AB1
:103990001ED10EE0022010BD102A12D0142A17D119
:1039A00013E0206800F026FE12E0206800F070FEB0
:1039B0000EE0206800F0B4FE0AE0206800F0F8FE97
:1039C00006E0206800F03CFF02E0206800F070FF95
:1039D000002084F83C0010BD704710B5040003D0EF
:1039E00094F83D0010B107E0012010BD002084F8DC
:1039F0003C00204600F022F8022084F83D00211D02
:103A0000206800F071FD012084F8480084F83E0031
:103A100084F83F0084F8400084F8410084F84200B4
:103A200084F8430084F8440084F8450084F8460094
:103A300084F8470084F83D00002010BD08B50068F8
:103A40000B49884212D10B48816D41F0020181651A
:103A5000806D002200F00200009003211D20FEF77F
:103A60009FFDBDE808401D20FEF78CBD08BD00008D
:103A7000000400400010024070B5044690F83C007D
:103A80000D4601280BD0012084F83C000C2A45D0BB
:103A900007DC5AB1042A1BD0082A78D12CE0022076
:103AA00070BD102A4ED0142A71D15DE0206800F05C
:103AB000A1FD2068816941F0080181612068816968
:103AC00021F004018161206881692A69114311E0B4
:103AD000206800F0DDFD2068816941F400618161AA
:103AE0002068816921F480618161206881692A6987
:103AF00041EA022181614AE0206800F011FE20685D
:103B0000C16941F00801C1612068C16921F0040167
:103B1000C1612068C1692A69114311E0206800F081
:103B200047FE2068C16941F40061C1612068C16934
:103B300021F48061C1612068C1692A6941EA0221DA
:103B4000C16124E0206800F07BFE2068016D41F037
:103B5000080101652068016D21F0040101652068FC
:103B6000016D2A69114311E0206800F0A1FE206870
:103B7000016D41F4006101652068016D21F48061EF
:103B800001652068016D2A6941EA02210165002072
:103B900084F83C0070BD10B5040003D094F83D00DB
:103BA00010B107E0012010BD002084F83C00204641
:103BB00000F022F8022084F83D00211D206800F06A
:103BC00093FC012084F8480084F83E0084F83F000C
:103BD00084F8400084F8410084F8420084F84300EF
:103BE00084F8440084F8450084F8460084F84700CF
:103BF00084F83D00002010BD7047704730B5044682
:103C0000022269B1042912D0082917D00C291CD02E
:103C1000102921D094F84300012824D0012030BD80
:103C200094F83E000128F9D184F83E201DE094F874
:103C30003F000128F2D184F83F2016E094F84000BC
:103C40000128EBD184F840200FE094F841000128CE
:103C5000E4D184F8412008E094F842000128DDD145
:103C600084F8422001E084F843200122206800F01B
:103C700093FC194B20681949194A984209D0884287
:103C800007D0904205D0174DA84202D0164DA84249
:103C900003D1456C45F400454564206898420CD03A
:103CA000B0F1804F09D0114B984206D0104B98428A
:103CB00003D0884201D0904207D181680D4A11405B
:103CC000062906D0B1F5803F03D0016841F001011B
:103CD0000160002030BD0000002C01400034014094
:103CE0000040014000440140004801400004004001
:103CF000000800400700010030B50446022269B107
:103D0000042916D0082920D00C2929D010292ED01A
:103D100094F84300012831D0012030BD94F83E00D2
:103D20000128F9D184F83E202068C26842F00202DE
:103D300009E094F83F000128EED184F83F20206884
:103D4000C26842F00402C2601CE094F840000128FE
:103D5000E2D184F840202068C26842F00802F2E70D
:103D600094F841000128D7D184F8412008E094F864
:103D700042000128D0D184F8422003E084F8432097
:103D80000C2935D00122206800F006FC1B49206870
:103D90001B4A1C4B884209D0904207D0984205D05C
:103DA000194DA84202D0194DA84203D1456C45F4E3
:103DB00000454564206888420CD0B0F1804F09D09E
:103DC0001349884206D01349884203D0904201D05B
:103DD000984207D18168104A1140062906D0B1F5F2
:103DE000803F03D0016841F001010160002030BD37
:103DF0002068C26842F01002A5E70000002C0140D4
:103E000000340140004001400044014000480140AE
:103E100000040040000800400700010010B50446FF
:103E200000681349884204D1FDF738F9FDF766F8B8
:103E300015E01049884212D1FCF710FF0E494A885C
:103E4000501C4880B2F57A7F09D30C4A0020488084
:103E500013880B8010800A4A13684B60106020683A
:103E6000B0F1804F03D1BDE81040FEF717BB10BD85
:103E7000002C0140000400400000002056000020FB
:103E8000240000207047FEE770B50C462DED048B32
:103E9000F0EE419AF0EE408A0546B0EE608AB0EE50
:103EA000690AFCF7B5F920EE289AB0EE690AFCF72A
:103EB000EBF908EE409AB0EE690A85ED009AFCF73E
:103EC000E3F960EE288AB0EE690AFCF7A1F948EE42
:103ED000008AC4ED008ABDEC048B70BD00EB81004C
:103EE000006E00F0F84070478068C0F3C000704773
:103EF0008068C0F3800070478068C0F3800070471E
:103F0000C06810F4406F01D0002070470120704756
:103F1000042303EAD15310B518444369C1F3045193
:103F200007248C40A3438A401343436110BD00EB38
:103F30008100016E21F000411143016670470000CD
:103F400070B58CB0002408940994202168460A9426
:103F5000FCF7EBF93B484FF0A041042501604FF41A
:103F60004031C0E9011485610121C460C0E9044108
:103F7000047744770626066280F82440C46204630E
:103F800080F83840C46380F84040FDF767FB08B113
:103F9000FCF763FE08A92B480894FDF7D3F808B195
:103FA000FCF75BFE2848CDE900067F20CDE90250F2
:103FB00064200495CDE9050469462248FDF72CF9F3
:103FC00008B1FCF74AFE214800900C200190052022
:103FD000059069461B48FDF71FF908B1FCF73DFE47
:103FE0001B4800901220019069461648FDF714F90D
:103FF00008B1FCF732FE174800901820019069467E
:1040000005941048FDF708F908B1FCF726FE1248A0
:1040100000904FF48070019069460A48FDF7FCF863
:1040200008B1FCF71AFE0D4800904FF48370019020
:1040300069460448FDF7F0F8002801D0FCF70DFEB2
:104040000CB070BD580000201000C01002003004F9
:10405000040060080800900C000021C3000084CB1D
:10406000114808B5816C41F004018164816C01F054
:1040700004010091816C41F001018164806C002297
:1040800000F00100009011460B20FEF789FA0B208A
:10409000FEF778FA002211460C20FEF781FABDE8FF
:1040A00008400C20FEF76EBA00100240114810B50F
:1040B0000F490160002141608160C1600174417459
:1040C0008174012202234261C0E90623C0E908325B
:1040D0008262C262C0E90C218163C163FDF7FAFE0E
:1040E000002803D0BDE81040FCF7B7BD10BD0000AC
:1040F000006400402401002070B586B01421684699
:10410000FCF713F91F48C16C41F02001C164C16C78
:1041100001F020010591C16C41F00101C164C16C45
:1041200001F001010591C16C41F00201C164C06C54
:104130004FF0904600F002000590002248F2500136
:104140003046FEF7A0F95020012400258DE831000B
:10415000694630460395FEF7A5F8202000900A48EE
:10416000CDE9010569463046FEF79CF8E003CDE94C
:1041700000040220CDE9024069463046FEF792F87D
:1041800006B070BD0010024000002110124810B5AA
:10419000104901604FF48271416000214FF4E062E8
:1041A000C0E90212022202610122426152028261CE
:1041B0002822C0E9072107224162C0E90A120163EF
:1041C0004163FEF7A7FF002803D0BDE81040FCF7CD
:1041D00044BD10BD003001408801002070B59CB086
:1041E000002419941A9417941894149415941C216B
:1041F00068461694FCF799F8342107A8FCF795F85F
:104200003F483E494FF48075C0E900142021816089
:1042100040F64751C0E903150121C0E90514FFF735
:1042200050F908B1FCF719FD4FF4805617A934482E
:104230001796FFF7D1F908B1FCF70FFD3048FFF7EB
:10424000AAFC08B1FCF709FD7020CDE9140414A9FB
:104250002B481694FFF78AF808B1FCF7FEFC6020A3
:10426000CDE9000402940394049405940022694665
:1042700023480694FFF700FC08B1FCF7EEFC04228B
:1042800069461F480194FFF7F7FB08B1FCF7E5FC0E
:10429000082269461A480194FFF7EEFB08B1FCF7C3
:1042A000DCFC01940C22694615480394FFF7E4FBFB
:1042B00008B1FCF7D2FC1248FFF74FF84FF400604A
:1042C00007904010CDE908057820CDE90A064FF4A3
:1042D0000050CDE90C0400030E94CDE90F40119479
:1042E000129407A906481394FEF7E0FF08B1FCF703
:1042F000B4FC0348FFF7ECFA1CB070BD002C014081
:104300004C02002010B58AB00024079408941C21A8
:1043100068460994FCF709F8164815490160102110
:10432000C0E9011442F21071C1604FF48071016163
:1043300080218161FFF751FB08B1FCF78EFC0794E7
:1043400007A90C480994FFF711F808B1FCF785FCA0
:104350000094019402940422694606480494FFF7ED
:1043600007FB002801D0FCF778FC0AB010BD000064
:104370000004004098020020FEE77047C0ED071AD5
:1043800080EC030A9FED050A80ED030A80ED040A24
:1043900080ED050A80ED060A70470000000000006D
:1043A00070B50C462DED048BF0EE419AF0EE408A8C
:1043B0000546B0EE608AB0EE690AFBF729FF20EEF1
:1043C000289AB0EE690AFBF75FFF08EE009AB0EE9C
:1043D000690A85ED009AFBF71BFF20EE088AB0EE14
:1043E000690AFBF751FF08EEC08A84ED008ABDEC34
:1043F000048B70BD704700000148FEF70DBE000041
:104400008801002010B5806A0021A0F84610C187FD
:10441000FEF700FE10BD000010B5FFF7B7FEBDE8C7
:1044200010400148FEF776BE8801002070477047B3
:1044300000B5A5B038216846FBF777FF14211FA807
:10444000FBF773FF44210EA8FBF76FFF0020FEF778
:10445000D9F80220C1010391402104910421CDE942
:10446000080100905521CDE90A1007900C900D909D
:104470006846FEF7C9FB0F201F9003202090002004
:1044800021902290239004211FA8FEF765FA4FF493
:1044900010400E904FF000701A9000011D900EA871
:1044A000FEF716F925B000BD0548016841F470011A
:1044B000016003494FF000608039086070470000D8
:1044C00088ED00E00148FFF704B900004C0200202D
:1044D0000148FFF7FEB80000E40200200148FFF7A2
:1044E000F8B80000980200202DE9F0430268234B41
:1044F000234D244E244C4FF08049984207D0484524
:1045000005D0A84203D0B04201D0A04203D122F08E
:1045100070074A683A431D4FDFF874C0DFF87480B3
:1045200098420DD048450BD0A84209D0B04207D0E0
:10453000A04205D0B84203D0604501D0404503D128
:1045400022F44075CA682A434D6922F080022A434A
:1045500002608A68C2620A688262984207D0A042FA
:1045600005D0B84203D0604501D0404501D109696A
:10457000016301214161BDE8F0830000002C01408E
:1045800000040040000800400034014000400140A9
:10459000004401400048014010B501F01F03012113
:1045A000046A99408C430462016A9A401143016293
:1045B00010BD10B501F01F030421046A99408C431B
:1045C0000462016A9A401143016210BD10B584680B
:1045D00042EA032224F47F440A432243826010BD4E
:1045E0008268034B1A400A4342F00701816070471A
:1045F0008FFFCFFF2DE9F043026A22F00102026231
:10460000056A436882691C4C25F0020522400C684B
:1046100022F0030214438A68194E2A43174D194F9A
:10462000DFF864C0DFF86490A84207D0B04205D03C
:10463000B84203D0604501D0484506D122F00808B1
:10464000CA6842EA080222F00402A84207D0B04237
:1046500005D0B84203D0604501D0484505D14D6929
:1046600023F440731D438B692B4343608461496885
:1046700041630262BDE8F0838FFFFEFF002C014022
:104680000034014000400140004401400048014026
:10469000F0B5026A22F010020262056A426883697C
:1046A000194C1B4E23400C6823F4407343EA042446
:1046B00025F020038D6843EA0513144DA84201D06C
:1046C000B04206D1CF6823F0800343EA071323F0FA
:1046D0004003A8420AD0B04208D00E4DA84205D0EF
:1046E0000D4DA84202D00D4DA84207D14D6922F4CC
:1046F000406242EA85028D6942EA85024260846135
:10470000496881630362F0BDFF8FFFFE002C01400A
:104710000034014000400140004401400048014095
:10472000F0B5026A22F480720262056A4368C269C7
:10473000194C1B4E22400C6822F00302144325F44E
:1047400000728D6842EA0522144DA84201D0B042A1
:1047500006D1CF6822F4006242EA072222F4806286
:10476000A8420AD0B04208D00E4DA84205D00E4D46
:10477000A84202D00D4DA84207D14D6923F4405301
:1047800043EA05138D6943EA05134360C461496830
:10479000C1630262F0BD00008FFFFEFF002C0140EC
:1047A0000034014000400140004401400048014005
:1047B000F0B5026A22F480520262056A4268C36957
:1047C000194C1B4E23400C6823F4407343EA042425
:1047D00025F400538D6843EA0533144DA84201D0F7
:1047E000B04206D1CF6823F4004343EA073323F4F1
:1047F0008043A8420AD0B04208D00E4DA84205D04E
:104800000D4DA84202D00D4DA84207D14D6922F4AA
:10481000404242EA85128D6942EA85124260C461D3
:10482000496801640362F0BDFF8FFFFE002C014068
:104830000034014000400140004401400048014074
:1048400030B5026A22F480320262046A4268036D63
:10485000114D2B400D681D4324F400330C8943EAAD
:1048600004430E4CA0420BD00D4CA04208D00D4C7E
:10487000A04205D00C4CA04202D00C4CA04204D166
:104880004C6922F4803242EA04224260056549689C
:104890008164036230BD00008FFFFEFF002C0140E9
:1048A0000034014000400140004401400048014004
:1048B00030B5026A22F480120262046A4268036D13
:1048C000114D24F400142B400D6843EA05230D8993
:1048D00044EA05540D4DA8420BD00D4DA84208D016
:1048E0000C4DA84205D00C4DA84202D00B4DA84259
:1048F00004D14D6922F4802242EA85224260036598
:104900004968C164046230BDFF8FFFFE002C014086
:104910000034014000400140004401400048014093
:1049200010B5036A046A24F001040462846924F067
:10493000F00444EA021423F00A020A43846102628A
:1049400010BD10B5036A23F0100303628369046A83
:1049500023F4704343EA023224F0A00343EA011136
:104960008261016210BDFEE70907090E002804DB21
:1049700000F1E02080F80014704700F00F0000F113
:10498000E02080F8141D704702E008C8121F08C11B
:10499000002AFAD170477047002001E001C1121FC0
:1049A000002AFBD17047FDF781FDFFF741FDFFF7BE
:1049B000A3FBFFF755FBFFF711FCFFF7C1FAFFF769
:1049C00075FBFFF7E3FBFFF79DFCFCF717FAFEE72B
:1049D00000000000000000000102030406070809AF
:1049E000000000000102030400000000920E493C98
:1049F000B10AC93C2BC3163D2EFB483D752B7B3DB0
:104A000004A9963D80B6AF3D36BDC83D2FBCE13D03
:104A100073B2FA3D87CF093E8340163EB5AB223EC6
:104A2000A2102F3ECF6E3B3EC2C5473E0115543EFD
:104A3000135C603E7F9A6C3ECCCF783EC07D823E58
:104A4000938E883E229A8E3E32A0943E86A09A3E55
:104A5000E59AA03E128FA63ED47CAC3EEF63B23EF8
:104A60002A44B83E491DBE3E15EFC33E53B9C93E68
:104A7000CA7BCF3E4136D53E80E8DA3E4F92E03EDB
:104A80007533E63EBBCBEB3EEA5AF13ECBE0F63E59
:104A9000275DFC3EE4E7003F3D9C033F824B063F21
:104AA0009BF5083F6B9A0B3FDA390E3FCDD3103F91
:104AB0002A68133FD9F6153FC07F183FC6021B3F37
:104AC000D17F1D3FCBF61F3F9967223F25D2243F60
:104AD0005636273F1594293F4AEB2B3FDE3B2E3FAE
:104AE000BB85303FC9C8323FF304353F233A373FD7
:104AF0004268393F3B8F3B3FF9AE3D3F67C73F3F81
:104B000070D8413F01E2433F03E4453F65DE473F44
:104B100012D1493FF8BB4B3F029F4D3F207A4F3F98
:104B20003D4D513F4918533F31DB543FE595563FCA
:104B30005348583F6AF2593F1A945B3F532D5D3FEB
:104B400005BE5E3F2146603F97C5613F5A3C633FCB
:104B500059AA643F880F663FD86B673F3CBF683FE8
:104B6000A7096A3F0C4B6B3F5E836C3F93B26D3F6E
:104B70009ED86E3F73F56F3F0809713F5213723F25
:104B80004714733FDD0B743F0BFA743FC6DE753F6D
:104B900007BA763FC58B773FF853783F9812793F35
:104BA0009DC7793F02737A3FBE147B3FCDAC7B3FFC
:104BB000283B7C3FC9BF7C3FAC3A7D3FCCAB7D3FBF
:104BC00023137E3FB0707E3F6DC47E3F580E7F3F03
:104BD0006D4E7F3FAB847F3F0FB17F3F97D37F3FC9
:104BE00043EC7F3F11FB7F3F0000803F11FB7F3F85
:104BF00043EC7F3F97D37F3F0FB17F3FAB847F3F35
:104C00006D4E7F3F580E7F3F6DC47E3FB0707E3F3C
:104C100023137E3FCCAB7D3FAC3A7D3FC9BF7C3F89
:104C2000283B7C3FCDAC7B3FBE147B3F02737A3F79
:104C30009DC7793F9812793FF853783FC58B773FEE
:104C400007BA763FC6DE753F0BFA743FDD0B743F43
:104C50004714733F5213723F0809713F73F56F3F5A
:104C60009ED86E3F93B26D3F5E836C3F0C4B6B3FA3
:104C7000A7096A3F3CBF683FD86B673F880F663F14
:104C800059AA643F5A3C633F97C5613F2146603F44
:104C900005BE5E3F532D5D3F1A945B3F6AF2593F5C
:104CA0005348583FE595563F31DB543F4918533F31
:104CB0003D4D513F207A4F3F029F4D3FF8BB4B3F48
:104CC00012D1493F65DE473F03E4453F01E2433FE0
:104CD00070D8413F67C73F3FF9AE3D3F3B8F3B3FF9
:104CE0004268393F233A373FF304353FC9C8323F62
:104CF000BB85303FDE3B2E3F4AEB2B3F1594293FCF
:104D00005636273F25D2243F9967223FCBF61F3FD7
:104D1000D17F1D3FC6021B3FC07F183FD9F6153F0C
:104D20002A68133FCDD3103FDA390E3F6B9A0B3F01
:104D30009BF5083F824B063F3D9C033FE4E7003F65
:104D4000275DFC3ECBE0F63EEA5AF13EBBCBEB3EA4
:104D50007533E63E4F92E03E80E8DA3E4136D53E7E
:104D6000CA7BCF3E53B9C93E15EFC33E491DBE3E77
:104D70002A44B83EEF63B23ED47CAC3E128FA63ECE
:104D8000E59AA03E86A09A3E32A0943E229A8E3E9C
:104D9000938E883EC07D823ECCCF783E7F9A6C3E1B
:104DA000135C603E0115543EC2C5473ECF6E3B3E8C
:104DB000A2102F3EB5AB223E8340163E87CF093E60
:104DC00073B2FA3D2FBCE13D36BDC83D80B6AF3D64
:104DD00004A9963D752B7B3D2EFB483D2BC3163D0C
:104DE000B10AC93C920E493C00000000920E49BC39
:104DF000B10AC9BC2BC316BD2EFB48BD752B7BBDAC
:104E000004A996BD80B6AFBD36BDC8BD2FBCE1BDFF
:104E100073B2FABD87CF09BE834016BEB5AB22BEC2
:104E2000A2102FBECF6E3BBEC2C547BE011554BEF9
:104E3000135C60BE7F9A6CBECCCF78BEC07D82BE54
:104E4000938E88BE229A8EBE32A094BE86A09ABE51
:104E5000E59AA0BE128FA6BED47CACBEEF63B2BEF4
:104E60002A44B8BE491DBEBE15EFC3BE53B9C9BE64
:104E7000CA7BCFBE4136D5BE80E8DABE4F92E0BED7
:104E80007533E6BEBBCBEBBEEA5AF1BECBE0F6BE55
:104E9000275DFCBEE4E700BF3D9C03BF824B06BF1D
:104EA0009BF508BF6B9A0BBFDA390EBFCDD310BF8D
:104EB0002A6813BFD9F615BFC07F18BFC6021BBF33
:104EC000D17F1DBFCBF61FBF996722BF25D224BF5C
:104ED000563627BF159429BF4AEB2BBFDE3B2EBFAA
:104EE000BB8530BFC9C832BFF30435BF233A37BFD3
:104EF000426839BF3B8F3BBFF9AE3DBF67C73FBF7D
:104F000070D841BF01E243BF03E445BF65DE47BF40
:104F100012D149BFF8BB4BBF029F4DBF207A4FBF94
:104F20003D4D51BF491853BF31DB54BFE59556BFC6
:104F3000534858BF6AF259BF1A945BBF532D5DBFE7
:104F400005BE5EBF214660BF97C561BF5A3C63BFC7
:104F500059AA64BF880F66BFD86B67BF3CBF68BFE4
:104F6000A7096ABF0C4B6BBF5E836CBF93B26DBF6A
:104F70009ED86EBF73F56FBF080971BF521372BF21
:104F8000471473BFDD0B74BF0BFA74BFC6DE75BF69
:104F900007BA76BFC58B77BFF85378BF981279BF31
:104FA0009DC779BF02737ABFBE147BBFCDAC7BBFF8
:104FB000283B7CBFC9BF7CBFAC3A7DBFCCAB7DBFBB
:104FC00023137EBFB0707EBF6DC47EBF580E7FBFFF
:104FD0006D4E7FBFAB847FBF0FB17FBF97D37FBFC5
:104FE00043EC7FBF11FB7FBF000080BF11FB7FBF81
:104FF00043EC7FBF97D37FBF0FB17FBFAB847FBF31
:105000006D4E7FBF580E7FBF6DC47EBFB0707EBF38
:1050100023137EBFCCAB7DBFAC3A7DBFC9BF7CBF85
:10502000283B7CBFCDAC7BBFBE147BBF02737ABF75
:105030009DC779BF981279BFF85378BFC58B77BFEA
:1050400007BA76BFC6DE75BF0BFA74BFDD0B74BF3F
:10505000471473BF521372BF080971BF73F56FBF56
:105060009ED86EBF93B26DBF5E836CBF0C4B6BBF9F
:10507000A7096ABF3CBF68BFD86B67BF880F66BF10
:1050800059AA64BF5A3C63BF97C561BF214660BF40
:1050900005BE5EBF532D5DBF1A945BBF6AF259BF58
:1050A000534858BFE59556BF31DB54BF491853BF2D
:1050B0003D4D51BF207A4FBF029F4DBFF8BB4BBF44
:1050C00012D149BF65DE47BF03E445BF01E243BFDC
:1050D00070D841BF67C73FBFF9AE3DBF3B8F3BBFF5
:1050E000426839BF233A37BFF30435BFC9C832BF5E
:1050F000BB8530BFDE3B2EBF4AEB2BBF159429BFCB
:10510000563627BF25D224BF996722BFCBF61FBFD3
:10511000D17F1DBFC6021BBFC07F18BFD9F615BF08
:105120002A6813BFCDD310BFDA390EBF6B9A0BBFFD
:105130009BF508BF824B06BF3D9C03BFE4E700BF61
:10514000275DFCBECBE0F6BEEA5AF1BEBBCBEBBEA0
:105150007533E6BE4F92E0BE80E8DABE4136D5BE7A
:10516000CA7BCFBE53B9C9BE15EFC3BE491DBEBE73
:105170002A44B8BEEF63B2BED47CACBE128FA6BECA
:10518000E59AA0BE86A09ABE32A094BE229A8EBE98
:10519000938E88BEC07D82BECCCF78BE7F9A6CBE17
:1051A000135C60BE011554BEC2C547BECF6E3BBE88
:1051B000A2102FBEB5AB22BE834016BE87CF09BE5C
:1051C00073B2FABD2FBCE1BD36BDC8BD80B6AFBD60
:1051D00004A996BD752B7BBD2EFB48BD2BC316BD08
:1051E000B10AC9BC920E49BC000000800C520008F4
:1051F00000000020580000008849000864520008A0
:1052000058000020B808000098490008000000007D
:10521000000000001000000001000000000000007D
:105220000024F40000000000000000000000000066
:10523000000000006F12833B00000000000000002F
:10524000000000000000000000000000000000005E
:105250000101010101010101000000000000000046
:04526000000000004A
:04000005080001D915
:00000001FF
